:020000040800F2
:100000000050002021020008270200082B020008EF
:100010009D020008A1020008E9020008000000009B
:100020000000000000000000000000003103000894
:100030003503000800000000390300088D13000894
:100040004D0300084D0300084D0300084D03000850
:100050004D0300084D030008050F0008150F0008A8
:10006000250F0008350F0008450F00084D03000854
:100070004D0300084D0300084D0300084D03000820
:100080004D0300084D0300084D0300084D03000810
:100090004D0300084D0300084D030008550F0008EC
:1000A0004D0300084D0300084D0300084D030008F0
:1000B000291400088D1400084D0300084D030008A2
:1000C0004D0300084D0300084D0300084D030008D0
:1000D0004D0300084D0300084D0300084D030008C0
:1000E000650F00084D0300084D03000800000000E4
:1000F0000000000000000000000000000000000000
:1001000000000000000000005FF808F100B583B0B7
:1001100000F0AAF9304B314A1360314A1360314B79
:10012000314A32498B4204D21168196004330432D7
:10013000F7E72A4B1A682E4B9A4200D0FEE7284B6D
:100140001A682C4B9A42F9D1234B2B4A13602B4A45
:1001500013602B4B02E000221A600433294A9342B9
:10016000F9D3254B1B6813B9244B1B6803B1FEE779
:1001700000F086F9694601A800F022F9224C234BD1
:10018000E41AA4100025AC4214DC214C214BE41AE3
:10019000A4100025AC4213DC0099019801F0D6FBB5
:1001A00005461D4C1D4BE41AA410002C0EDC2846FD
:1001B00000F0E2F8154B53F8253098470135E2E797
:1001C000144B53F8253098470135E3E7013C134BB6
:1001D00053F824309847E8E7BABADECA0000002096
:1001E0008800002000000020202900088C0000204A
:1001F00078563412325476988C0000207401002016
:100200008C000020780100207803000878030008A3
:1002100078030008780300087803000878030008D2
:1002200008B5FFF773FF00BEFEE71EF0040F0CBF1A
:10023000EFF30880EFF309807146414A10472DE93A
:10024000F04182B004468846124B5E6B9F6B9D6AFC
:100250001B6B13F0020F03D00E4BDB6A002B0CDB81
:100260000D4800F0B5F8CDF800803B4632462946EF
:10027000204600F009F900BEFEE74BF6AB6100F046
:100280007DF90028ECD0034B4FF00042DA6202B057
:10029000BDE8F08100ED00E0D827000800BEFEE7D1
:1002A0001EF0040F0CBFEFF30880EFF309807146D6
:1002B000244A10472DE9F04182B004468846084B95
:1002C0005E6B9F6B9D6A074800F082F8CDF8008056
:1002D0003B4632462946204600F0D6F800BEFEE7EF
:1002E00000ED00E0E82700081EF0040F0CBFEFF35C
:1002F0000880EFF309807146134A10472DE9F04159
:1003000082B004468846084B5E6B9F6B9D6A074827
:1003100000F05EF8CDF800803B4632462946204684
:1003200000F0B2F800BEFEE700ED00E0F4270008A0
:1003300000BEFEE700BEFEE700BEFEE7704700001D
:100340003F020008B5020008FD02000800BEFEE7FB
:1003500020290008000000208C000020202900082F
:1003600000000000000000008C0000207801002048
:08037000000000000000000085
:10037800FEE7000008B503460C4A12685AB10B4A5A
:100388001068033323F003030344094A934206D851
:10039800064A136008BD054A06491160EFE701F0F7
:1003A80059FD0C2303604FF0FF30F3E79000002065
:1003B800004C00207801002001230360014B0B60F2
:1003C800704700BF040000200FB400B583B004AB31
:1003D80053F8042B01938021064801F06DFD002895
:1003E80003DD0146034800F037F803B05DF804EB7D
:1003F80004B07047980000202DE9F04385B004460A
:100408000F4643560BB10E461EE0042528462146EA
:10041800ABBE0446384605B0BDE8F08314F9011BAD
:1004280004AA1A4402F8101C0133AB42F6D304AAFA
:100438001344002203F8102C4FF00408E946404604
:100448004946ABBE8046761B002EE3D03546102EBB
:1004580028BF10250023E8E708B5FFF7CDFF08BD42
:1004680008B500F0FDF8024A024B9A6008BD00BFCB
:100478000000000800ED00E008B500F019F908BD1B
:10048800F8B504460D4617461E462748FFF79CFF59
:1004980021682648FFF798FF61682548FFF794FF11
:1004A800A1682448FFF790FFE1682348FFF78CFF15
:1004B80021692248FFF788FF61692148FFF784FF17
:1004C800A1692048FFF780FFE1691F48FFF77CFF1B
:1004D8001E48FFF779FF29461D48FFF775FF1D4C99
:1004E800E16A1D48FFF770FF216B1C48FFF76CFF9E
:1004F800E16B1B48FFF768FF15F0800F0AD115F470
:10050800004F0CD11748FFF75FFF06991648FFF711
:100518005BFFF8BD39461548FFF756FFEFE7314650
:100528001348FFF751FFEDE7BC260008CC2600086A
:10053800DC260008EC260008FC2600080C2700082A
:100548001C2700082C2700083C2700084C27000817
:100558005827000800ED00E0682700087827000801
:1005680088270008B8270008C0270008982700082F
:10057800A827000883691A888A4201D0002070479A
:100588000268033A012A03D80233836101207047C5
:100598000020704782B00023019300932C4A13680F
:1005A80043F4803313602A4B1B6803F40033009331
:1005B800019B01330193009B1BB9019BB3F5A06F0D
:1005C800F1D1234B1B6813F4003F06D0012300939D
:1005D800009B012B04D002B0704700230093F7E77B
:1005E8001C4B1A6842F010021A601A6822F00302C3
:1005F8001A601A6842F002021A60A3F580535A681A
:100608005A605A685A605A6842F480625A605A6856
:1006180022F47C125A605A6842F4E8125A601A6846
:1006280042F080721A600A4B1B6813F0007FFAD000
:10063800074B5A6822F003025A605A6842F00202D5
:100648005A60034B5B6803F00C03082BF9D1C2E72F
:10065800001002400020024008B5FFF79BFF08BDCC
:1006680008B5104B1A6842F001021A6059680E4A20
:100678000A405A601A6822F0847222F480321A60A2
:100688001A6822F480221A605A6822F4FE025A601C
:100698004FF41F029A60FFF7DFFF044B4FF0006230
:1006A8009A6008BD001002400000FFF800ED00E06D
:1006B8001F4B5B6803F00C03042B15D0082B17D0D5
:1006C8001BB11C4B1C4A1A6002E01A4B1A4A1A60EA
:1006D800174B5B68C3F30313184AD35CDAB21549A6
:1006E8000B68D3400B607047124B134A1A60EFE750
:1006F8000F4A53685268C3F38343023312F4803FAE
:100708000AD00B4A526812F4003F0BD00C4A02FB85
:1007180003F3084A1360DBE7094A02FB03F3054ABF
:100728001360D5E7044A02FB03F3024A1360CFE7DC
:10073800001002401C00002000127A000C0000206B
:1007480000093D0008B508220421002000F086FCBD
:1007580008220621002000F081FC08220721002041
:1007680000F07CFC00220621104600F0E5FC002287
:100778000721104600F0E0FC01220221002000F0D1
:100788006DFC01220321002000F068FC01220C21ED
:10079800002000F063FC01220021084600F05EFC06
:1007A80008220521002000F059FC082211460020EB
:1007B80000F054FC08220B21002000F04FFC082216
:1007C8000F21002000F04AFC00221146104600F0DC
:1007D800B3FC00220521104600F0AEFC00220821DF
:1007E800104600F0A9FC00220B21104600F0A4FCE2
:1007F80000220F21104600F09FFC01220321104621
:1008080000F02CFC01220921104600F027FC0822E8
:100818000D21022000F022FC01220D21022000F00F
:100828008BFC01220E21022000F018FC01220F216E
:10083800022000F013FC08220021012000F00EFC29
:1008480008220121084600F009FC0822114601206F
:1008580000F004FC00221146012000F06DFC00228B
:100868000121084600F068FC00220821012000F060
:1008780063FC01220521104600F0F0FB0822042148
:10088800012000F0EBFB00220421012000F054FCC1
:1008980008220621012000F0E1FB002206210120A8
:1008A80000F04AFC08220721012000F0D7FB0022B3
:1008B8000721012000F040FC01220A21104600F027
:1008C800CDFB08220B21012000F0C8FB00220B21E0
:1008D800012000F031FC08220C21012000F0BEFBB1
:1008E80000220C21012000F027FC08220D21012004
:1008F80000F0B4FB00220D21012000F01DFC0822AD
:100908000E21012000F0AAFB00220E21012000F098
:1009180013FC01220F21104600F0A0FB0122114612
:10092800002000F09BFB08BD08B50A2811D8DFE8B5
:1009380000F006111C27415B758FA9B9C900012277
:100948000021084600F0F8FB00220C21104600F0B8
:10095800F3FB08BD01220C21002000F0EDFB002272
:100968001146104600F0E8FBF3E700220C21104680
:1009780000F0E2FB00221146104600F0DDFBE8E73C
:1009880000220321012000F0D7FB01220921104693
:1009980000F0D2FB00220521012000F0CDFB00224F
:1009A8000E21022000F0C8FB00220F21022000F0D7
:1009B800C3FBCEE700220321012000F0BDFB00228B
:1009C8000921012000F0B8FB01220521104600F0A2
:1009D800B3FB00220E21022000F0AEFB00220F2103
:1009E800022000F0A9FBB4E700220321012000F057
:1009F800A3FB00220921012000F09EFB0022052113
:100A0800012000F099FB01220E21022000F094FB46
:100A180000220F21022000F08FFB9AE70022032119
:100A2800012000F089FB00220921012000F084FB4D
:100A380000220521012000F07FFB00220E21022068
:100A480000F07AFB01220F21022000F075FB80E7FD
:100A580001220321104600F06FFB0022092101202A
:100A680000F06AFB00220521012000F065FB00224E
:100A78000E21022000F060FB00220F21022000F06E
:100A88005BFB66E700220121104600F055FB0022BF
:100A98000A21012000F050FB01220F21104600F02E
:100AA8004BFB56E701221146002000F045FB0022CF
:100AB8000A21012000F040FB00220F21012000F054
:100AC8003BFB46E700220121104600F035FB0122DE
:100AD8000A21104600F030FB00220F21012000F00F
:100AE8002BFB36E708B501220321104600F024FB52
:100AF80001220921104600F01FFB012205211046A2
:100B080000F01AFB01220E21022000F015FB012241
:100B18000F21022000F010FB01220021084600F0FE
:100B28000BFB01220C21002000F006FB01221146DC
:100B3800002000F001FB01220A21104600F0FCFA17
:100B480001220F21104600F0F7FA08BD08B500226F
:100B58000321012000F0F0FA00220921012000F011
:100B6800EBFA00220521012000F0E6FA00220E210E
:100B7800022000F0E1FA00220F21022000F0DCFA46
:100B880001220021084600F0D7FA00220C21104665
:100B980000F0D2FA00220121104600F0CDFA00221E
:100BA8000A21012000F0C8FA00220F21012000F0DC
:100BB800C3FA08BD38B500220321104600F0BCFA7C
:100BC800012000F0CBFB01220321002000F0B4FA41
:100BD80000252C4616E06400A4B20421002000F091
:100BE800E5FA80B2044301220221002000F0A4FAB1
:100BF800012000F0B3FB00220221104600F09CFA0D
:100C08000135EDB2072DE6D900220221104600F089
:100C180093FA204638BD00002DE9F8439C4B00228A
:100C28001A7001239B4A13709B4A137006240FE025
:100C38009A4800F093FC0220FFF776FE0223984AB8
:100C48001370984A1370984B01221A700134E4B259
:100C5800072C18D82146002000F0A8FA0128F5D161
:100C6800062CE5D0072CF1D1904800F077FC012044
:100C7800FFF75AFE8A4B02221A700123894A137021
:100C8800894A1370E2E70621002000F08FFA08B3C2
:100C98000F21002000F08AFA01282FD00F21002010
:100CA80000F084FA98B30021012000F07FFA0028B0
:100CB80036D00021012000F079FA012844D005211E
:100CC800002000F073FA01284ED0FFF773FF0546A5
:100CD80000246EE0072100F069FA0028D8D1744892
:100CE80000F03CFC0020FFF71FFE01236C4A137044
:100CF8006C4A002111706C4A1370C9E76D4800F006
:100D08002DFC00236C4A13706C4A1370C6E76C48BC
:100D180000F024FC0123684A1370684A1370C2E784
:100D2800052100F043FA0028C3D10124654B1C704B
:100D3800654800F013FC0920FFF7F6FD634B1C70B3
:100D4800634B09221A70B4E75E4B02221A705F4B9C
:100D580001221A705F4800F001FC0820FFF7E4FD4B
:100D68005B4B08221A70AAE75B4800F0F7FB0A20E1
:100D7800FFF7DAFD554B01221A70524B02221A7006
:100D8800534B0A221A70A0E70320FFF7CDFD534FFB
:100D980003263E70524B02221A70524B01221A70DF
:100DA800514800F0DBFB3E703046FFF7BDFD0134D3
:100DB800E4B2042C69D845FA04F313F0010FF6D015
:100DC800042CF4D801A353F824F000BF6B0E0008DC
:100DD800430E00081B0E0008E90D0008910D0008DD
:100DE8000420FFF7A1FD3D4F04263E70DFF8F48094
:100DF8004FF0000988F80090394B01221A703B48DF
:100E080000F0ACFB88F800903E703046FFF78CFD90
:100E1800CDE70520FFF788FD304F05263E70304BA3
:100E280002221A70324800F099FB3E703046FFF7F4
:100E38007BFD2C4B00221A70B9E70620FFF774FDE2
:100E4800264F06263E70264B01221A70294800F0CC
:100E580085FB3E703046FFF767FD224B00221A7073
:100E6800A5E70720FFF760FD1C4F07263E701C4BC7
:100E780002221A70204800F071FB3E703046FFF7DE
:100E880053FD184B00221A7091E7BDE8F88300BFA4
:100E98002E01002028010020180100200828000841
:100EA80032010020710100203301002004280008CD
:100EB8000C2800081028000831010020300100200B
:100EC80014280008340100201828000835010020E3
:100ED800700100201C28000820280008720100204A
:100EE8002C0100202F010020242800082C280008AD
:100EF800342800083C2800084428000808B5024B9C
:100F08001B68984708BD00BF6001002008B5024B68
:100F18001B68984708BD00BF5401002008B5024B64
:100F28001B68984708BD00BF5C01002008B5024B4C
:100F38001B68984708BD00BF5001002008B5024B48
:100F48001B68984708BD00BF5801002008B5024B30
:100F58001B68984708BD00BF6401002008B5024B14
:100F68001B68984708BD00BF68010020F8B5054612
:100F78000C4616460021022000F07CF9A308274AF7
:100F8800023352F823104FEA840C0F2707FA0CF7A4
:100F980021EA070142F8231052F8230005FA0CF55C
:100FA800284342F82300012E1AD096B1022E1ED0F3
:100FB8001B490B680122A24013430B60042C20D963
:100FC800631FDBB2042B21D90A3CE4B2052C21D9DA
:100FD800F8BD13498B680122A24013438B60E7E7F1
:100FE8000F49CB680122A2401343CB60E0E70C4ACB
:100FF80091680123A34019439160D1680B43D360E2
:10100800D6E7A01DC0B200F0F1F8E1E7172000F024
:10101800EDF8DDE7282000F0E9F8D9E70000014005
:101028000004014003494B69012202FA00F003431E
:101038004B61704700040140014B1860704700BFC6
:1010480060010020014B1860704700BF6401002058
:10105800014B1860704700BF6801002010B40729D1
:1010680030D8012812D018B102281DD010BC704702
:101078002E4B186889000F248C4020EA0400186061
:10108800186802FA01F101431960EFE7284B186864
:1010980089000F248C4020EA04001860186802FABE
:1010A80001F101431960E1E7224B186889000F2418
:1010B8008C4020EA04001860186802FA01F1014324
:1010C8001960D3E70F29D1D80839C9B201281ED031
:1010D80078B10228CAD1174844688B000F2199407B
:1010E80024EA01014160446802FA03F121434160A6
:1010F800BCE70E4B58688C000F21A14020EA010183
:101108005960586802FA04F101435960AEE7084B88
:101118005C6888000F21814024EA010159605C68FD
:1011280002FA00F121435960A0E700BF000801401E
:10113800000C014000100140CAB1012A2ED101283B
:1011480009D010B102280CD07047012303FA01F12D
:10115800134B19617047012303FA01F1114B19610F
:101168007047012303FA01F10F4B196170470128F9
:1011780009D010B102280CD07047012303FA01F1FD
:10118800074B59617047012303FA01F1054B596177
:101198007047012303FA01F1034B5961704700BFFF
:1011A80000080140000C01400010014001280AD04D
:1011B80018B102280DD000207047094B9868C84024
:1011C80000F001007047074B9868C84000F0010024
:1011D8007047054B9868C84000F00100704700BF91
:1011E80000080140000C0140001001401F2809D9E7
:1011F8002038C0B21B2804D8012303FA00F0044B9E
:1012080018607047012303FA00F0024B186070471A
:1012180004E100E000E100E0154B1A6842F4002206
:101228001A605A6842F480325A605A6842F480223E
:101238005A605A6842F400225A605A6842F480128E
:101248005A605A6822F400125A605A6822F0010261
:101258005A605A6842F002025A601A6842F0807274
:101268001A60034B1B6813F0007FFAD0704700BF69
:10127800001002401F291CD801280BD010B10228E9
:1012880010D070470B484369012202FA01F1194353
:10129800416170470748C369012202FA01F1194305
:1012A800C161704703488369012202FA01F11943B9
:1012B8008161704700100240BFF34F8F0549CA682B
:1012C80002F4E062044B1343CB60BFF34F8F00BFBF
:1012D800FDE700BF00ED00E00400FA0500230A4A1C
:1012E800136004326FF07F4111600432136010B153
:1012F800012804D07047044B05221A607047024B3E
:1013080007221A60704700BF10E000E001FB00F1FF
:101318004FF47A7303FB01F1B1F1807F07D3074BD8
:101328006FF07F421A60043300221A607047034B43
:101338001960043300221A60704700BF14E000E00F
:1013480008B501214820FFF7E1FF034B1B6813F4A0
:10135800803FFAD008BD00BF10E000E038B5054670
:10136800002402E0FFF7ECFF0134AC42FAD338BDA9
:10137800034B1B681BB1024A1368013B136070479B
:101388006C01002008B5FFF7F3FF08BD4FF080435C
:1013980000229A841A8842F001021A8070470000DD
:1013A800074B19684FF08042938C03EB01430549C2
:1013B8000B6013889BB223F001039BB21380704724
:1013C8001C010020200100200B4AD36943F00103CF
:1013D800D3614FF0804341F61F421A8509229A854E
:1013E80000229A849A8942F001029A81034B4FF0B5
:1013F80080521A60704700BF0010024000E100E010
:10140800014B1868704700BF1C01002000234FF0F3
:1014180080429384014A1360704700BF1C0100207A
:101428004FF080431B8A13F0010F0BD0064A136854
:10143800013313604FF08042138A9BB223F00103FB
:101448009BB21382704700BF1C0100200A4AD3696F
:1014580043F00203D361094B41F61F421A85092262
:101468009A8500229A849A8942F001029A81044B53
:101478004FF000521A60704700100240000400400C
:1014880000E100E0084B1B8A13F0010F0AD0074A5D
:10149800136801331360044A138A9BB223F00103D3
:1014A8009BB21382704700BF000400402401002053
:1014B80010B50E210220FFF7DDFE02210846FFF7D6
:1014C800D9FE00210220FFF7D5FE0024174B1C602F
:1014D8000C331A6822F480521A60154A116821F4F4
:1014E80080511160116821F4005111601A6842F0AE
:1014F80008021A601A6842F004021A600D4A41F69E
:10150800415111601A6842F400521A6009221146CA
:101518002046FFF7A3FD04220A212046FFF79EFD7F
:1015280001220A212046FFF707FE10BD00380140BE
:101538001438014008380140064A136823F0400374
:101548001360054B1860034B1B6813F0400FFAD06B
:10155800704700BF003801400438014038B50546DF
:10156800002402E0FFF7E8FF0134285D0028F9D1E4
:1015780038BD0000054B1B6813F0200F04D0044B46
:101588001B68037001207047002070470038014035
:101598000438014000B583B00DF10700FFF7EAFFFA
:1015A800034608B19DF80730184603B05DF804FB00
:1015B80008B50F210020FFF7F9FD012807D010B961
:1015C800114B1B789BB10F20FFF72CFD08BD0E4B6C
:1015D8001B78012BF3D10D48FFF7C0FF0A20FFF756
:1015E800BDFE00230A4A1370074A1370EBE7094847
:1015F800FFF7B4FF0A20FFF7B1FE0123044A137076
:10160800014A1370DFE700BF300100204C280008B2
:10161800310100205028000808B50820FFF784F998
:101628000A4B1B78012B03D00020FFF7FBFC08BDF9
:101638006420FFF793FE054B02221A700448FFF757
:101648008DFF044B08221A70EEE700BF340100201A
:10165800642800087001002010B506210020FFF75B
:10166800A5FD044607210020FFF7A0FD012808D0AA
:10167800012C19D00620FFF7D5FC0720FFF7D2FC74
:1016880010BD134B1B78012BF2D1114B02221A709B
:101698000124104B1C702046FFF746F90E4B1C70B6
:1016A8000E48FFF75BFFE5E7094B1B78012BE1D1FB
:1016B8000224074B1C70074B01221A702046FFF7C3
:1016C80033F9054B1C700648FFF748FFD2E700BF07
:1016D8003201002033010020710100205428000845
:1016E8005C28000838B5884B1B78002B00F08480F4
:1016F800FFF786FE854B1860854B1B8813F0010F9A
:101708000FD013F0020F0CD113F0040F09D113F00E
:10171800080F06D113F0100F03D17E4B1B78012B55
:1017280076D07B4B1B8813F0010F0FD113F0020FFB
:101738000CD013F0040F09D113F0080F06D113F0E1
:10174800100F03D1734B1B78022B72D0704B1B8880
:1017580013F0010F0FD113F0020F0CD113F0040F87
:1017680009D013F0080F06D113F0100F03D1694BFD
:101778001B78012B6DD0664B1B8813F0010F0FD11E
:1017880013F0020F0CD113F0040F09D113F0080F56
:1017980006D013F0100F03D15E4B1B78022B69D0D3
:1017A8005B4B1B8813F0010F0FD113F0020F0CD104
:1017B80013F0040F09D113F0080F06D113F0100F1E
:1017C80003D0544B1B78012B64D0534B1A78534BDE
:1017D8001B789A4202D0524B00221A704B4B1A685F
:1017E80040F2DB539A4206D94D4B1B781BB94D4B3F
:1017F8001B68002B5FD038BDFFF708FEFFF7C6FD5A
:10180800414B01221A70454B1A78434B1A706FE707
:10181800404B02221A70444B01221A7007203F4B9A
:101828001870FFF781F80023404A13703D4A13608F
:1018380077E70124374B1C700620384B1870FFF7E8
:1018480073F80023394A1370374A1470354A136005
:101858007CE7304B02221A700520304B1870FFF7D6
:1018680063F80023314A13702F4A012111702D4A61
:10187800136080E70125274B1D7000242B4B1C703B
:101888000420264B1870FFF74FF8274B1D70254B87
:101898001C6085E71F4B02221A700124234B1C7021
:1018A80003201E4B1870FFF73FF81F4B1C701D4B91
:1018B80000221A6089E7144B00221A70184B012283
:1018C8001A70FFF76DFDFFF7A1FD144B1B78033B62
:1018D800042B90D8DFE803F003070B0F130014481C
:1018E800FFF73CFE87E71348FFF738FE83E7124807
:1018F800FFF734FE7FE71148FFF730FE7BE710481B
:10190800FFF72CFE77E700BF290100203C010020EB
:101918002A0100202C010020200000207201002054
:101928002D010020180100202E0100202F01002089
:10193800242800082C280008342800083C2800081F
:101948004428000808B5FFF767FC02210846FFF79E
:1019580091FC03210220FFF78DFC04210220FFF7F0
:1019680089FC00210220FFF785FCC54A536843F033
:10197800007353600020FFF7B1FCFFF799FDFFF7F4
:1019880023FDFFF763FDFEF7DDFE0022062110466A
:10199800FFF7ECFA002207211046FFF7E7FA0022CA
:1019A80011460120FFF7E2FA02220F210020FFF77B
:1019B800DDFAB448FFF740FBB348FFF743FBB348F1
:1019C800FFF746FB06E0FFF777FC0BE0B04B1B7810
:1019D800012B19D0FFF7DEFDC0B2AE4B187008B16D
:1019E8005228F0D0AB4B1B78002BEFD0532BEDD106
:1019F800A948FFF7B3FDFFF70FF9A54B01221A70AD
:101A0800A64B00221A70E1E70E210120FFF7CEFB5A
:101A1800012800F09B800D210220FFF7C7FB00285A
:101A280000F0A1800C210120FFF7C0FB012800F085
:101A3800A28004210120FFF7B9FB012800F09F8054
:101A480008210120FFF7B2FB012800F0A0800B213C
:101A58000120FFF7ABFB012800F0A180072101203E
:101A6800FFF7A4FB012800F0A2800D210120FFF759
:101A78009DFB012800F0A38008210020FFF796FBBA
:101A8800012800F0A4800B210020FFF78FFB01281C
:101A980000F0A58006210120FFF788FB012800F04F
:101AA800A68001210846FFF781FB012800F0A780E6
:101AB8000C210120FFF77AFB012804D1784B1B7811
:101AC800002B00F0A4800C210120FFF76FFB20B948
:101AD800734B1B78012B00F0A08006210020FFF734
:101AE80065FB002800F01E8100210120FFF75EFB46
:101AF800002800F036816B4B1B78022B00F04C81DC
:101B080005210020FFF752FB012840F04981664B70
:101B18001B78002B40F04481624B1B78012B40F06E
:101B280048810124614B1C700A20FEF7FDFE604BC2
:101B38000A221A705B4B02221A705E48FFF70EFDEC
:101B48005D4B00221A60584B1C7032E15B4B1B78CE
:101B5800002B7FF460AF5A48FFF700FD4FF4FA708E
:101B6800FFF7FCFB57E75748FFF7F8FC4FF4FA700C
:101B7800FFF7F4FB56E74A4B00221A7059E7524820
:101B8800FFF7ECFC4FF4FA70FFF7E8FB58E74F4813
:101B9800FFF7E4FC4FF4FA70FFF7E0FB57E74C4817
:101BA800FFF7DCFC4FF4FA70FFF7D8FB56E749481B
:101BB800FFF7D4FC4FF4FA70FFF7D0FB55E746481F
:101BC800FFF7CCFC4FF4FA70FFF7C8FB54E7434823
:101BD800FFF7C4FC4FF4FA70FFF7C0FB53E7404827
:101BE800FFF7BCFC4FF4FA70FFF7B8FB52E73D482B
:101BF800FFF7B4FC4FF4FA70FFF7B0FB51E73A482F
:101C0800FFF7ACFC4FF4FA70FFF7A8FB50E7244B42
:101C180001221A70FEF766FF5FE7214B00221A7057
:101C2800FEF794FF224B1B78092B19D00A2B1BD0E7
:101C3800082B11D02D4B1B78012B1DD0C3B1022BC3
:101C480058D02B4B1B78033B042B3FF646AFDFE8FD
:101C580003F055595D6165000820FEF765FEE9E768
:101C68000920FEF761FEE5E70A20FEF75DFEE1E7E1
:101C78000020FEF759FEE4E70120FEF755FEE0E7F5
:101C8800000001402116000861160008B915000877
:101C98003901002037010020682800083801002099
:101CA80036010020340100203A01002035010020CF
:101CB80070010020D02800084001002031010020D8
:101CC8006C280008742800087C2800088028000870
:101CD800882800089028000898280008A0280008EC
:101CE800AC280008B4280008BC28000871010020AE
:101CF800720100200220FEF717FEA2E70320FEF77C
:101D080013FEEAE60420FEF70FFEE6E60520FEF7DE
:101D18000BFEE2E60620FEF707FEDEE60720FEF7EA
:101D280003FEDAE60721FFF741FA00287FF4DCAE6C
:101D38003A4B1B78012B7FF4D7AE394B1B78022B1B
:101D48007FF4D2AE364B01221A700024334B1C703C
:101D58002046FEF7E9FD3348FFF700FC324B1C70C4
:101D6800C2E60521FFF722FA00287FF4C4AE2F4B04
:101D78001B78022B7FF4BFAE2D4B00221A7009206E
:101D8800FEF7D2FD2B4B09221A70284B01221A703C
:101D98002948FFF7E3FBAEE6284B00221A70AFE6AE
:101DA80005210020FFF702FA18B9244B1B78012BF4
:101DB8001FD0FEF7FFFE224C2080FFF793FC2388FC
:101DC80013F0800F02D01F4B1B78B3B11C4B1B883C
:101DD80013F0400F19D11A4B1B8813F0200F3FF452
:101DE800F9AD1948FFF7BAFB4FF4FA70FFF7B6FAE6
:101DF800F0E5124B00221A70DBE71448FFF7AEFB40
:101E08004FF4FA70FFF7AAFAE0E71148FFF7A6FBCC
:101E18004FF4FA70FFF7A2FADDE700BF33010020A4
:101E280032010020C428000871010020340100207C
:101E38003501002070010020CC2800083A0100205C
:101E48002A01002031010020E4280008D4280008D5
:101E5800DC280008014B1868704700BF24000020E8
:101E680030B5141E05469BB0184605DA8B234FF093
:101E7800FF302B601BB030BD4FF40273ADF80C304F
:101E88000CBF234604F1FF33029305934FF6FF730B
:101E980000910491ADF80E3002461E9B6946284613
:101EA80000F072F8431CBCBF8B232B60002CE1D0E0
:101EB8000022009B1A70DDE707B5009313460A4617
:101EC800014603480068FFF7CBFF03B05DF804FB49
:101ED800240000202DE9F0478E6882469E420C4679
:101EE8009046994637D88A8912F4906F31D00223E8
:101EF800256809696F1A656905EB450595FBF3F5D2
:101F080009F101033B449D4238BF1D46530530D5B6
:101F1800294600F035FB064650B90C234FF0FF3038
:101F2800CAF80030A38943F04003A381BDE8F087D5
:101F38003A46216900F0B4FAA38923F4906343F088
:101F48008003A38126613E4426604E466561ED1BF1
:101F5800A5604E4500D94E4632464146206800F0FD
:101F6800AAFAA36800209B1BA36023681E4426606E
:101F7800DCE72A4600F05EFB06460028E2D121692C
:101F8800504600F0B1FAC8E72DE9F04F9DB0039331
:101F98008B8980461D060C4616460FD50B696BB912
:101FA800402100F0EDFA2060206128B90C23C8F820
:101FB80000304FF0FF30C7E04023636100230993EE
:101FC80020238DF8293030234FF0010B8DF82A306B
:101FD80037463D4615F8013B0BB1252B3ED1B7EBF3
:101FE800060A0BD05346324621464046FFF772FF99
:101FF800013000F0A480099B534409933B78002BDF
:1020080000F09D8000234FF0FF32CDE905230493B3
:1020180007938DF853301A932F46052217F8011BA2
:102028004F4800F02FFA049BD0B9D90644BF2022AC
:102038008DF853201A0744BF2B228DF853202A7895
:102048002A2A15D02F4600200A25079A394611F862
:10205800013B303B092B4DD9B8B10FE02F46B8E70B
:102068003F4A3D46801A0BFA00F018430490D3E724
:10207800039A111D12680391002A01DB079204E0FC
:10208800524243F00203079204933B782E2B0CD163
:102098007B782A2B33D1039B02371A1D1B680392C6
:1020A800002BB8BF4FF0FF3305932E4D032239782C
:1020B800284600F0E7F938B14023401B03FA00F046
:1020C800049B0137034304933978062226487E1C73
:1020D8008DF8281000F0D6F9002838D0234B13BB10
:1020E800039B073323F0070308330393099B4B44EF
:1020F80009936DE705FB023201200F46A6E700238E
:102108000A25194601370593384610F8012B303A4D
:10211800092A03D9002BC8D00591C6E705FB012180
:1021280001230746F0E703AB00932246104B04A9AE
:102138004046AFF30080B0F1FF3F8146D6D1A38976
:102148005B063FF536AF09981DB0BDE8F08F03ABCD
:1021580000932246064B04A9404600F081F8EAE7BE
:10216800EC280008F2280008F62800080000000003
:10217800DD1E00082DE9F04791461F468A680B6965
:1021880006469342B8BF1346C9F8003091F8432079
:102198000C46DDF8208012B10133C9F800302368FD
:1021A800990642BFD9F800300233C9F800302568D3
:1021B80015F0060507D104F1190AE368D9F80020DB
:1021C8009B1AAB4229DC94F843302268003318BFCD
:1021D800012392062ED404F1430239463046C04703
:1021E800013021D02368E56803F00603042B18BFEB
:1021F8000025D9F800204FF0000908BFAD1AA368E0
:10220800226908BF25EAE5759342C4BF9B1AED18F9
:102218001A344D451AD1002008E0012352463946A8
:102228003046C047013003D14FF0FF30BDE8F0879A
:102238000135C2E73020E11881F843005A1C94F8B0
:1022480045102244023382F84310C4E70123224692
:1022580039463046C0470130E6D009F10109D8E7D0
:102268002DE9F04301F1430C0C46097E85B06E2937
:102278001746064698460C9A00F0B38022D8632980
:1022880036D00AD8002900F0B980582900F0838098
:1022980004F1420584F8421032E0642901D069292A
:1022A800F6D120681368050603F104012AD51B68D6
:1022B8001160002B03DA2D225B4284F843206F481B
:1022C8000A2239E0732900F09D8008D86F2920D0B0
:1022D8007029DDD1236843F02003236003E07529CA
:1022E80017D07829D4D17823654884F8453055E04B
:1022F800136804F14205191D1B68116084F8423007
:1023080001238CE01B6810F0400F116018BF1BB24E
:10231800CFE713682568181D1060280601D51B68CB
:1023280002E06806FBD51B886F2914BF0A22082221
:102338005248002184F843106568002DA560C0F25A
:102348009580216821F004012160002B3DD1002DEA
:1023580040F08E806546082A0BD12368DB0708D534
:10236800236962689A42DEBF302305F8013C05F113
:10237800FF35ACEB05032361CDF800803B4603AA8B
:1023880021463046FFF7F6FE01304DD14FF0FF30C1
:1023980005B0BDE8F083394884F845101368216812
:1023A8001D1D1B6815600A060BD5CA0744BF41F0FE
:1023B800200121601BB9226822F02002226010222D
:1023C800B7E74D0648BF9BB2EFE76546B3FBF2F1AE
:1023D80002FB1133C35C05F8013D0B460029F5D11A
:1023E800B9E713682568181D6169106028061B681D
:1023F80001D5196002E06A06FBD5198000236546FD
:102408002361B9E71368191D11601D68626800210E
:10241800284600F037F808B1401B60606368236104
:10242800002384F84330A7E723692A463946304613
:10243800C0470130AAD023689B0713D4E068039BE8
:102448009842B8BF1846A3E701234A4639463046A2
:10245800C04701309AD00135E368039A9B1AAB4212
:10246800F2DCEBE7002504F11909F5E7002BACD104
:10247800037804F1420584F842306CE7FD2800082F
:102488000E29000810B5C9B202449042034601D192
:10249800002303E01C7801308C42F6D1184610BDA9
:1024A80010B5431E0A44914200D110BD11F8014BEA
:1024B80003F8014FF7E7884210B501EB020307D88C
:1024C800421E99420AD011F8014B02F8014FF8E771
:1024D8008342F5D98118D21AD34200D110BD13F81E
:1024E800014D01F8014DF7E738B50546002943D0FD
:1024F80051F8043C0C1F002BB8BFE41800F0D0F8CA
:102508001E4A1368104633B9636014602846BDE854
:10251800384000F0C6B8A3420BD92168621893422C
:1025280001BF1A685B685218226063600460EDE7B7
:1025380013465A680AB1A242FAD919685818A04233
:102548000BD120680144581882421960DED1106806
:102558005268014419605A60D8E702D90C232B60ED
:10256800D4E7206821188A4201BF11685268091807
:10257800216062605C60C9E738BD00BF440100208B
:1025880070B5CD1C25F0030508350C2D38BF0C257A
:10259800002D064601DBA94203D90C233360002035
:1025A80070BD00F07DF8214A1468214691B9204C8D
:1025B80023681BB9304600F063F82060294630468E
:1025C80000F05EF8431C24D10C233046336000F041
:1025D80068F8E4E70B685B1B18D40B2B0FD90B606A
:1025E800CC18CD50304600F05CF804F10B00231DE8
:1025F80020F00700C31AD3D05A42E250D0E74B6804
:102608008C4216BF636013600C46EBE70C464968C2
:10261800CCE7C41C24F00304A04205D0211A30469C
:1026280000F02EF80130CFD02560DBE74401002010
:1026380048010020F8B5074614460E4621B9BDE802
:10264800F8401146FFF79CBF22B9FFF74DFF25461A
:102658002846F8BD00F026F8A0420FD22146384699
:10266800FFF78EFF05460028F2D031462246FFF7D5
:1026780017FF31463846FFF737FFE9E73546E7E702
:1026880038B50023054C054608462360FDF772FE61
:10269800431C02D1236803B12B6038BD4C010020D4
:1026A8007047704751F8043C181F002BBCBF0B58EB
:1026B800C0187047537461636B206672616D653A28
:1026C8000A000000205230203D2020253038580ACA
:1026D80000000000205231203D2020253038580AC3
:1026E80000000000205232203D2020253038580AB2
:1026F80000000000205233203D2020253038580AA1
:102708000000000020523132203D20253038580A80
:1027180000000000204C52203D2020253038580A67
:1027280000000000205043203D2020253038580A62
:102738000000000020505352203D20253038580A10
:10274800000000004653522F4641523A0A0000004A
:102758002043465352203D2020253038580A000097
:102768002048465352203D2020253038580A000082
:102778002044465352203D2020253038580A000076
:102788002041465352203D2020253038580A000069
:10279800204D4D464152203D20253038580A000032
:1027A8002042464152203D2020253038580A00005A
:1027B8004D6973630A000000204C522F4558435F4F
:1027C80052455455524E3D20253038580A000000D5
:1027D8005B486172644661756C745D0A00000000B4
:1027E8005B4275734661756C745D0A005B55736175
:1027F80067654661756C745D0A0000004C452C00E5
:10280800454F2C0046452C00542C0000442C000059
:102818004E2C0000462C0000572C00002A5343235E
:10282800000000002A434723000000002A535423D5
:10283800000000002A485423000000002A484523CD
:10284800000000002A5423002A4423002A4C452370
:10285800000000002A454F23000000002A462300FC
:102868002A532C002A462B23000000002A452D233A
:10287800000000002A4123002A452B230000000005
:102888002A432B23000000002A432D2300000000C8
:102898002A544146230000002A42544C524E4723F2
:1028A800000000002A422B23000000002A422D23AA
:1028B800000000002A434C52230000002A4645230A
:1028C800000000002A4E23002A5723002A462D2301
:1028D800000000002A4C5246462300002A4C4C2394
:1028E80000000000232D302B2000686C4C0065662A
:1028F8006745464700303132333435363738394149
:10290800424344454600303132333435363738395E
:072918006162636465660063
:1029200078563412940000200000000000000000DF
:1029300000000000010203040607080900A24A047F
:102940000BFFFFFF28000020000000000000000037
:102950000000000000000000000000000000000077
:102960000000000000000000000000000000000067
:102970000000000000000000000000000000000057
:102980000000000000000000000000000000000047
:102990000000000000000000000000000000000037
:0C29A00000000000000000003254769897
:040000050800010DE1
:00000001FF
