:020000040800F2
:100000000050002021020008270200082B020008EF
:100010009D020008A1020008E9020008000000009B
:100020000000000000000000000000003103000894
:1000300035030008000000003903000879130008A8
:100040004D0300084D0300084D0300084D03000850
:100050004D0300084D030008150F0008250F000888
:10006000350F0008450F0008550F00084D03000824
:100070004D0300084D0300084D0300084D03000820
:100080004D0300084D0300084D0300084D03000810
:100090004D0300084D0300084D030008650F0008DC
:1000A0004D0300084D0300084D0300084D030008F0
:1000B000F51300084D0300084D0300084D03000828
:1000C0004D0300084D0300084D0300084D030008D0
:1000D0004D0300084D0300084D0300084D030008C0
:1000E000750F00084D0300084D03000800000000D4
:1000F0000000000000000000000000000000000000
:1001000000000000000000005FF808F100B583B0B7
:1001100000F0AAF9304B314A1360314A1360314B79
:10012000314A32498B4204D21168196004330432D7
:10013000F7E72A4B1A682E4B9A4200D0FEE7284B6D
:100140001A682C4B9A42F9D1234B2B4A13602B4A45
:1001500013602B4B02E000221A600433294A9342B9
:10016000F9D3254B1B6813B9244B1B6803B1FEE779
:1001700000F086F9694601A800F022F9224C234BD1
:10018000E41AA4100025AC4214DC214C214BE41AE3
:10019000A4100025AC4213DC0099019801F0BEFBCD
:1001A00005461D4C1D4BE41AA410002C0EDC2846FD
:1001B00000F0E2F8154B53F8253098470135E2E797
:1001C000144B53F8253098470135E3E7013C134BB6
:1001D00053F824309847E8E7BABADECA0000002096
:1001E0008800002000000020F02800088C0000207B
:1001F00078563412325476988C0000209C010020EE
:100200008C000020A001002078030008780300087B
:1002100078030008780300087803000878030008D2
:1002200008B5FFF773FF00BEFEE71EF0040F0CBF1A
:10023000EFF30880EFF309807146414A10472DE93A
:10024000F04182B004468846124B5E6B9F6B9D6AFC
:100250001B6B13F0020F03D00E4BDB6A002B0CDB81
:100260000D4800F0B5F8CDF800803B4632462946EF
:10027000204600F009F900BEFEE74BF6AB6100F046
:100280007DF90028ECD0034B4FF00042DA6202B057
:10029000BDE8F08100ED00E0A827000800BEFEE701
:1002A0001EF0040F0CBFEFF30880EFF309807146D6
:1002B000244A10472DE9F04182B004468846084B95
:1002C0005E6B9F6B9D6A074800F082F8CDF8008056
:1002D0003B4632462946204600F0D6F800BEFEE7EF
:1002E00000ED00E0B82700081EF0040F0CBFEFF38C
:1002F0000880EFF309807146134A10472DE9F04159
:1003000082B004468846084B5E6B9F6B9D6A074827
:1003100000F05EF8CDF800803B4632462946204684
:1003200000F0B2F800BEFEE700ED00E0C4270008D0
:1003300000BEFEE700BEFEE700BEFEE7704700001D
:100340003F020008B5020008FD02000800BEFEE7FB
:10035000F0280008000000208C000020F028000891
:1003600000000000000000008C000020A001002020
:08037000000000000000000085
:10037800FEE7000008B503460C4A12685AB10B4A5A
:100388001068033323F003030344094A934206D851
:10039800064A136008BD054A06491160EFE701F0F7
:1003A80041FD0C2303604FF0FF30F3E7900000207D
:1003B800004C0020A001002001230360014B0B60CA
:1003C800704700BF040000200FB400B583B004AB31
:1003D80053F8042B01938021064801F055FD0028AD
:1003E80003DD0146034800F037F803B05DF804EB7D
:1003F80004B07047980000202DE9F04385B004460A
:100408000F4643560BB10E461EE0042528462146EA
:10041800ABBE0446384605B0BDE8F08314F9011BAD
:1004280004AA1A4402F8101C0133AB42F6D304AAFA
:100438001344002203F8102C4FF00408E946404604
:100448004946ABBE8046761B002EE3D03546102EBB
:1004580028BF10250023E8E708B5FFF7CDFF08BD42
:1004680008B500F0FDF8024A024B9A6008BD00BFCB
:100478000000000800ED00E008B500F019F908BD1B
:10048800F8B504460D4617461E462748FFF79CFF59
:1004980021682648FFF798FF61682548FFF794FF11
:1004A800A1682448FFF790FFE1682348FFF78CFF15
:1004B80021692248FFF788FF61692148FFF784FF17
:1004C800A1692048FFF780FFE1691F48FFF77CFF1B
:1004D8001E48FFF779FF29461D48FFF775FF1D4C99
:1004E800E16A1D48FFF770FF216B1C48FFF76CFF9E
:1004F800E16B1B48FFF768FF15F0800F0AD115F470
:10050800004F0CD11748FFF75FFF06991648FFF711
:100518005BFFF8BD39461548FFF756FFEFE7314650
:100528001348FFF751FFEDE78C2600089C260008CA
:10053800AC260008BC260008CC260008DC260008EB
:10054800EC260008FC2600080C2700081C270008D9
:100558002827000800ED00E0382700084827000891
:1005680058270008882700089027000868270008EF
:100578007827000883691A888A4201D000207047CA
:100588000268033A012A03D80233836101207047C5
:100598000020704782B00023019300932C4A13680F
:1005A80043F4803313602A4B1B6803F40033009331
:1005B800019B01330193009B1BB9019BB3F5A06F0D
:1005C800F1D1234B1B6813F4003F06D0012300939D
:1005D800009B012B04D002B0704700230093F7E77B
:1005E8001C4B1A6842F010021A601A6822F00302C3
:1005F8001A601A6842F002021A60A3F580535A681A
:100608005A605A685A605A6842F480625A605A6856
:1006180022F47C125A605A6842F4E8125A601A6846
:1006280042F080721A600A4B1B6813F0007FFAD000
:10063800074B5A6822F003025A605A6842F00202D5
:100648005A60034B5B6803F00C03082BF9D1C2E72F
:10065800001002400020024008B5FFF79BFF08BDCC
:1006680008B5104B1A6842F001021A6059680E4A20
:100678000A405A601A6822F0847222F480321A60A2
:100688001A6822F480221A605A6822F4FE025A601C
:100698004FF41F029A60FFF7DFFF044B4FF0006230
:1006A8009A6008BD001002400000FFF800ED00E06D
:1006B8001F4B5B6803F00C03042B15D0082B17D0D5
:1006C8001BB11C4B1C4A1A6002E01A4B1A4A1A60EA
:1006D800174B5B68C3F30313184AD35CDAB21549A6
:1006E8000B68D3400B607047124B134A1A60EFE750
:1006F8000F4A53685268C3F38343023312F4803FAE
:100708000AD00B4A526812F4003F0BD00C4A02FB85
:1007180003F3084A1360DBE7094A02FB03F3054ABF
:100728001360D5E7044A02FB03F3024A1360CFE7DC
:10073800001002401C00002000127A000C0000206B
:1007480000093D0008B508220421002000F08EFCB5
:1007580008220621002000F089FC08220721002039
:1007680000F084FC00220621104600F0EDFC002277
:100778000721104600F0E8FC01220221002000F0C9
:1007880075FC01220321002000F070FC01220C21DD
:10079800002000F06BFC01220021084600F066FCF6
:1007A80008220521002000F061FC082211460020E3
:1007B80000F05CFC08220B21002000F057FC082206
:1007C8000F21002000F052FC00221146104600F0D4
:1007D800BBFC00220521104600F0B6FC00220821CF
:1007E800104600F0B1FC00220B21104600F0ACFCD2
:1007F80000220F21104600F0A7FC01220321104619
:1008080000F034FC01220921104600F02FFC0822D8
:100818000D21022000F02AFC01220D21022000F007
:1008280093FC01220E21022000F020FC01220F215E
:10083800022000F01BFC08220021012000F016FC19
:1008480008220121084600F011FC08221146012067
:1008580000F00CFC00221146012000F075FC00227B
:100868000121084600F070FC00220821012000F058
:100878006BFC01220521104600F0F8FB0822042138
:10088800012000F0F3FB00220421012000F05CFCB1
:1008980008220621012000F0E9FB002206210120A0
:1008A80000F052FC08220721012000F0DFFB0022A3
:1008B8000721012000F048FC01220A21104600F01F
:1008C800D5FB08220B21012000F0D0FB00220B21D0
:1008D800012000F039FC08220C21012000F0C6FBA1
:1008E80000220C21012000F02FFC08220D210120FC
:1008F80000F0BCFB00220D21012000F025FC08229D
:100908000E21012000F0B2FB00220E21012000F090
:100918001BFC01220F21104600F0A8FB0122114602
:10092800002000F0A3FB08BD08B50A2811D8DFE8AD
:1009380000F006111C27415B758FA9B9C900012277
:100948000021084600F000FC00220C21104600F0AF
:10095800FBFB08BD01220C21002000F0F5FB002262
:100968001146104600F0F0FBF3E700220C21104678
:1009780000F0EAFB00221146104600F0E5FBE8E72C
:1009880000220321012000F0DFFB0122092110468B
:1009980000F0DAFB00220521012000F0D5FB00223F
:1009A8000E21022000F0D0FB00220F21022000F0CF
:1009B800CBFBCEE700220321012000F0C5FB00227B
:1009C8000921012000F0C0FB01220521104600F09A
:1009D800BBFB00220E21022000F0B6FB00220F21F3
:1009E800022000F0B1FBB4E700220321012000F04F
:1009F800ABFB00220921012000F0A6FB0022052103
:100A0800012000F0A1FB01220E21022000F09CFB36
:100A180000220F21022000F097FB9AE70022032111
:100A2800012000F091FB00220921012000F08CFB3D
:100A380000220521012000F087FB00220E21022060
:100A480000F082FB01220F21022000F07DFB80E7ED
:100A580001220321104600F077FB00220921012022
:100A680000F072FB00220521012000F06DFB00223E
:100A78000E21022000F068FB00220F21022000F066
:100A880063FB66E700220121104600F05DFB0022AF
:100A98000A21012000F058FB01220F21104600F026
:100AA80053FB56E701221146002000F04DFB0022BF
:100AB8000A21012000F048FB00220F21012000F04C
:100AC80043FB46E700220121104600F03DFB0122CE
:100AD8000A21104600F038FB00220F21012000F007
:100AE80033FB36E708B501220321104600F02CFB42
:100AF80001220921104600F027FB0122052110469A
:100B080000F022FB01220E21022000F01DFB012231
:100B18000F21022000F018FB01220021084600F0F6
:100B280013FB01220C21002000F00EFB01221146CC
:100B3800002000F009FB01220A21104600F004FB06
:100B480001220F21104600F0FFFA08BD08B5002267
:100B58000321012000F0F8FA00220921012000F009
:100B6800F3FA00220521012000F0EEFA00220E21FE
:100B7800022000F0E9FA00220F21022000F0E4FA36
:100B880001220021084600F0DFFA00220C2110465D
:100B980000F0DAFA00220121104600F0D5FA00220E
:100BA8000A21012000F0D0FA00220F21012000F0D4
:100BB800CBFA08BD38B500220321104600F0C4FA6C
:100BC800012000F0C1FB01220321002000F0BCFA43
:100BD80000252C4616E06400A4B20421002000F091
:100BE800EDFA80B2044301220221002000F0ACFAA1
:100BF800012000F0A9FB00220221104600F0A4FA0F
:100C08000135EDB2072DE6D900220221104600F089
:100C18009BFA204638BD00002DE9F843A14B00227D
:100C28001A70A14B01221A7006240FE09F4800F0A9
:100C380049FC0220FFF778FE02239D4A13709D4A63
:100C480013709D4B01221A700134E4B2072C18D896
:100C58002146002000F0B2FA0128F5D1062CE5D093
:100C6800072CF1D1954800F02DFC0120FFF75CFE20
:100C78008F4B02221A7001238E4A13708E4A13700A
:100C8800E2E70621002000F099FA08B30F210020BE
:100C980000F094FA01282FD00F21002000F08EFADE
:100CA80098B30021012000F089FA002836D00021ED
:100CB800012000F083FA012844D00521002000F02B
:100CC8007DFA01285AD0FFF775FF054600247AE01F
:100CD800072100F073FA0028D8D1794800F0F2FB18
:100CE8000020FFF721FE0123714A1370714A002189
:100CF8001170714A1370C9E7724800F0E3FB0023D2
:100D0800714A1370714A1370C6E7714800F0DAFB34
:100D180001236D4A13706D4A1370C2E7052100F074
:100D28004DFA0028C3D101246A4B1C706A4800F0B0
:100D3800C9FB0920FFF7F8FD684B1C70684B0922B6
:100D48001A70B4E7604B1B7843B1012BB5D1614BE6
:100D580002221A70614B01221A70AEE75D4B022223
:100D68001A705E4B01221A705E4800F0ABFB082037
:100D7800FFF7DAFD5A4B08221A709EE75A4800F02E
:100D8800A1FB0A20FFF7D0FD544B01221A70514BEA
:100D980002221A70524B0A221A7094E70320FFF7B6
:100DA800C3FD524F03263E70514B02221A70514B1D
:100DB80001221A70504800F085FB3E703046FFF75C
:100DC800B3FD0134E4B2042C69D845FA04F313F0F6
:100DD800010FF6D0042CF4D801A353F824F000BF77
:100DE8007F0E0008570E00082F0E0008FD0D0008A2
:100DF800A50D00080420FFF797FD3C4F04263E7020
:100E0800DFF8F0804FF0000988F80090384B012295
:100E18001A703A4800F056FB88F800903E70304649
:100E2800FFF782FDCDE70520FFF77EFD2F4F052652
:100E38003E702F4B02221A70314800F043FB3E707F
:100E48003046FFF771FD2B4B00221A70B9E70620D8
:100E5800FFF76AFD254F06263E70254B01221A70C2
:100E6800284800F02FFB3E703046FFF75DFD214B10
:100E780000221A70A5E70720FFF756FD1B4F07262B
:100E88003E701B4B02221A701F4800F01BFB3E707D
:100E98003046FFF749FD174B00221A7091E7BDE86D
:100EA800F88300BF5801002052010020D82700080D
:100EB8005C010020990100205D010020D427000872
:100EC800DC270008E02700085B0100205A01002009
:100ED800E42700085E010020E82700085F010020E1
:100EE80098010020EC270008F02700089A0100204C
:100EF8005601002059010020F4270008FC270008AB
:100F0800042800080C2800081428000808B5024B1B
:100F18001B68984708BD00BF8801002008B5024B30
:100F28001B68984708BD00BF7C01002008B5024B2C
:100F38001B68984708BD00BF8401002008B5024B14
:100F48001B68984708BD00BF7801002008B5024B10
:100F58001B68984708BD00BF8001002008B5024BF8
:100F68001B68984708BD00BF8C01002008B5024BDC
:100F78001B68984708BD00BF90010020F8B50546DA
:100F88000C4616460021022000F07CF9A308274AE7
:100F9800023352F823104FEA840C0F2707FA0CF794
:100FA80021EA070142F8231052F8230005FA0CF54C
:100FB800284342F82300012E1AD096B1022E1ED0E3
:100FC8001B490B680122A24013430B60042C20D953
:100FD800631FDBB2042B21D90A3CE4B2052C21D9CA
:100FE800F8BD13498B680122A24013438B60E7E7E1
:100FF8000F49CB680122A2401343CB60E0E70C4ABB
:1010080091680123A34019439160D1680B43D360D1
:10101800D6E7A01DC0B200F0F1F8E1E7172000F014
:10102800EDF8DDE7282000F0E9F8D9E700000140F5
:101038000004014003494B69012202FA00F003430E
:101048004B61704700040140014B1860704700BFB6
:1010580088010020014B1860704700BF8C010020F8
:10106800014B1860704700BF9001002010B4072999
:1010780030D8012812D018B102281DD010BC7047F2
:101088002E4B186889000F248C4020EA0400186051
:10109800186802FA01F101431960EFE7284B186854
:1010A80089000F248C4020EA04001860186802FAAE
:1010B80001F101431960E1E7224B186889000F2408
:1010C8008C4020EA04001860186802FA01F1014314
:1010D8001960D3E70F29D1D80839C9B201281ED021
:1010E80078B10228CAD1174844688B000F2199406B
:1010F80024EA01014160446802FA03F12143416096
:10110800BCE70E4B58688C000F21A14020EA010172
:101118005960586802FA04F101435960AEE7084B78
:101128005C6888000F21814024EA010159605C68ED
:1011380002FA00F121435960A0E700BF000801400E
:10114800000C014000100140CAB1012A2ED101282B
:1011580009D010B102280CD07047012303FA01F11D
:10116800134B19617047012303FA01F1114B1961FF
:101178007047012303FA01F10F4B196170470128E9
:1011880009D010B102280CD07047012303FA01F1ED
:10119800074B59617047012303FA01F1054B596167
:1011A8007047012303FA01F1034B5961704700BFEF
:1011B80000080140000C01400010014001280AD03D
:1011C80018B102280DD000207047094B9868C84014
:1011D80000F001007047074B9868C84000F0010014
:1011E8007047054B9868C84000F00100704700BF81
:1011F80000080140000C0140001001401F2809D9D7
:101208002038C0B21B2804D8012303FA00F0044B8D
:1012180018607047012303FA00F0024B186070470A
:1012280004E100E000E100E0154B1A6842F40022F6
:101238001A605A6842F480325A605A6842F480222E
:101248005A605A6842F400225A605A6842F480127E
:101258005A605A6822F400125A605A6822F0010251
:101268005A605A6842F002025A601A6842F0807264
:101278001A60034B1B6813F0007FFAD0704700BF59
:10128800001002401F291CD801280BD010B10228D9
:1012980010D070470B484369012202FA01F1194343
:1012A800416170470748C369012202FA01F11943F5
:1012B800C161704703488369012202FA01F11943A9
:1012C800816170470010024000230A4A136004320B
:1012D8006FF07F4111600432136010B1012804D00F
:1012E8007047044B05221A607047024B07221A60A8
:1012F800704700BF10E000E001FB00F14FF47A7383
:1013080003FB01F1B1F1807F07D3074B6FF07F42F8
:101318001A60043300221A607047034B19600433C3
:1013280000221A60704700BF14E000E008B50121F0
:101338004820FFF7E1FF034B1B6813F4803FFAD006
:1013480008BD00BF10E000E038B50546002402E003
:10135800FFF7ECFF0134AC42FAD338BD034B1B68EE
:101368001BB1024A1368013B1360704794010020C7
:1013780008B5FFF7F3FF08BD4FF0804300229A84B9
:101388001A8842F001021A80704700000D4AD3699A
:1013980043F00103D3614FF0804341F61F421A85A1
:1013A80009229A8500229A841A8842F001021A803A
:1013B8009A8942F001029A81034B4FF080521A60D9
:1013C800704700BF0010024000E100E0014B1868C0
:1013D800704700BF1801002000234FF0804293841B
:1013E800014A1360704700BF180100204FF0804386
:1013F8001B8A13F0010F0BD0064A136801331360E0
:101408004FF08042138A9BB223F001039BB21382F0
:10141800704700BF1801002010B50E210220FFF709
:1014280031FF02210846FFF72DFF00210220FFF7B8
:1014380029FF0024174B1C600C331A6822F48052D1
:101448001A60154A116821F480511160116821F45D
:10145800005111601A6842F008021A601A6842F0D6
:1014680004021A600D4A41F6415111601A6842F4AB
:1014780000521A60092211462046FFF7F7FD0422A0
:101488000A212046FFF7F2FD01220A212046FFF734
:101498005BFE10BD00380140143801400838014097
:1014A800064A136823F040031360054B1860034B8A
:1014B8001B6813F0400FFAD0704700BF0038014096
:1014C8000438014038B50546002402E0FFF7E8FF7C
:1014D8000134285D0028F9D138BD0000054B1B6890
:1014E80013F0200F04D0044B1B68037001207047D1
:1014F80000207047003801400438014000B583B02F
:101508000DF10700FFF7EAFFC8B19DF807300A2B75
:101518000CD00D2B0AD00C4A1278302A11D8501C46
:101528000949087009498B54002005E0064B1978D1
:101538000648002242541A7003B05DF804FB0020EC
:10154800FAE70020F8E700BF1C0100202001002076
:1015580008B50F210020FFF731FE012807D010B988
:101568001B4B1B7843B30F20FFF764FD08BD184BD6
:101578001B78012BF3D11748FFF7A4FF0A20FFF7C8
:10158800E3FE0023144A1370114A1370134B1B789F
:10159800012BE8D1124B02221A70124B01221A7049
:1015A8001148FFF78FFF0820104B1870FFF7BCF9A0
:1015B8000A4B00221A70D6E70D48FFF783FF0A206E
:1015C800FFF7C2FE0123044A1370014A1370CAE7E9
:1015D8005A0100201C2800085B010020600100203F
:1015E8005E0100205F0100202028000898010020EB
:1015F8002428000808B5134B01221A70124B1B78D7
:10160800B3B9124B1B78934203D00020FFF712FDA9
:1016180008BD0E4B02221A700D4B01221A700D489C
:10162800FFF750FF08200C4B1870FFF77DF9ECE727
:10163800012BEAD1054B02221A70054B01221A70C0
:10164800E3E700BF600100205B0100205E0100208D
:101658005F010020202800089801002010B506210D
:101668000020FFF7ABFD044607210020FFF7A6FD89
:10167800012808D0012C19D00620FFF7DBFC072031
:10168800FFF7D8FC10BD134B1B78012BF2D1114B7F
:1016980002221A700124104B1C702046FFF744F9EF
:1016A8000E4B1C700E48FFF70DFFE5E7094B1B7842
:1016B800012BE1D10224074B1C70074B01221A7041
:1016C8002046FFF731F9054B1C700648FFF7FAFE74
:1016D800D2E700BF5C0100205D01002099010020D5
:1016E800282800083028000838B57D4B1B78002BC7
:1016F8007DD0FFF76BFE04467A4B1B8813F0010F71
:101708000FD013F0020F0CD113F0040F09D113F00E
:10171800080F06D113F0100F03D1734B1B78012B60
:101728006FD0704B1B8813F0010F0FD113F0020F0D
:101738000CD013F0040F09D113F0080F06D113F0E1
:10174800100F03D1684B1B78022B69D0654B1B889F
:1017580013F0010F0FD113F0020F0CD113F0040F87
:1017680009D013F0080F06D113F0100F03D15E4B08
:101778001B78012B62D05B4B1B8813F0010F0FD134
:1017880013F0020F0CD113F0040F09D113F0080F56
:1017980006D013F0100F03D1534B1B78022B5CD0EB
:1017A800504B1B8813F0010F0FD113F0020F0CD10F
:1017B80013F0040F09D113F0080F06D113F0100F1E
:1017C80003D0494B1B78012B55D0484B1A78484B0E
:1017D8001B789A4202D0474B00221A7040F2DB5322
:1017E8009C4203D9434B1B78002B52D038BDFFF7DE
:1017F800C3FD3B4B01221A703D4B1A783B4B1A70C4
:1018080077E7394B02221A703B4B01221A700720E6
:10181800374B1870FFF788F8384B00221A7080E7AA
:101828000125314B1D700620314B1870FFF77CF8ED
:10183800324B00221A70304B1D7087E72A4B022268
:101848001A7005202A4B1870FFF76EF82B4B0022F0
:101858001A70294B01221A708DE70125224B1D7041
:10186800264B00221A700420214B1870FFF75CF8F1
:10187800214B1D7094E71C4B02221A7001251F4B47
:101888001D7003201A4B1870FFF74EF81A4B1D7085
:101898009BE7134B00221A70164B01221A70FFF7B0
:1018A8009BFD134B1B78033B042B9FD8DFE803F009
:1018B80003070B0F13001248FFF704FE96E71148C1
:1018C800FFF700FE92E71048FFF7FCFD8EE70F4890
:1018D800FFF7F8FD8AE70E48FFF7F4FD86E700BF3B
:1018E8005301002054010020560100202000002050
:1018F8009A010020570100205801002059010020BA
:10190800F4270008FC270008042800080C28000811
:101918001428000810B582B0FFF786FC022108469B
:10192800FFF7B0FC03210220FFF7ACFC04210220E2
:10193800FFF7A8FC00210220FFF7A4FCC34A536864
:1019480043F0007353600020FFF7BEFCFFF764FD0F
:10195800FFF71CFDFEF7F6FEBD4B93E80300009071
:10196800ADF80410002206211046FFF707FB0022FD
:1019780007211046FFF702FB002211460120FFF75E
:10198800FDFA02220F210020FFF7F8FAB148FFF70D
:101998005BFBB148FFF75EFBB048FFF761FB19E05E
:1019A800AF490A7801320A700133DBB2C25C4AB12E
:1019B80002A9194411F8081C9142F1D0A84A002143
:1019C8001170F1E7A64B1B78052B0ED0A54B1B78A1
:1019D800012B16D0FFF792FDA34B18600378002B5C
:1019E800F0D000239E4A1370E0E7A048FFF76AFD95
:1019F800FFF712F99B4B01221A70994B00221A70BB
:101A0800E4E70E210120FFF7D9FB012800F09380BD
:101A18000D210220FFF7D2FB002800F099800C214D
:101A28000120FFF7CBFB012800F09A800421012058
:101A3800FFF7C4FB012800F0978008210120FFF779
:101A4800BDFB012800F098800B210120FFF7B6FBB1
:101A5800012800F0998007210120FFF7AFFB01283A
:101A680000F09A800D210120FFF7A8FB012800F063
:101A78009B8008210020FFF7A1FB012800F09C8033
:101A88000B210020FFF79AFB012800F09D8006211A
:101A98000120FFF793FB012800F09E8001210846F2
:101AA800FFF78CFB012800F09F800C210120FFF735
:101AB80085FB012804D16E4B1B78002B00F09C801D
:101AC8000C210120FFF77AFB20B9694B1B78012B09
:101AD80000F0988006210020FFF770FB002800F036
:101AE800178100210120FFF769FB002800F02F81F2
:101AF80005210020FFF762FB012840F048815D4B7B
:101B08001B78002B40F043815B4B1B78012B40F086
:101B18004781594B02221A700123564A1370574ABB
:101B280013705748FFF7CEFC0A20FEF7FDFE554B11
:101B38000A221A7034E1544B1B78002B7FF468AFEB
:101B48005248FFF7BFFC4FF4FA70FFF7FDFB5FE761
:101B58004F48FFF7B7FC4FF4FA70FFF7F5FB5EE765
:101B6800434B00221A7061E74A48FFF7ABFC4FF479
:101B7800FA70FFF7E9FB60E74748FFF7A3FC4FF46B
:101B8800FA70FFF7E1FB5FE74448FFF79BFC4FF46F
:101B9800FA70FFF7D9FB5EE74148FFF793FC4FF473
:101BA800FA70FFF7D1FB5DE73E48FFF78BFC4FF477
:101BB800FA70FFF7C9FB5CE73B48FFF783FC4FF47B
:101BC800FA70FFF7C1FB5BE73848FFF77BFC4FF47F
:101BD800FA70FFF7B9FB5AE73548FFF773FC4FF483
:101BE800FA70FFF7B1FB59E73248FFF76BFC4FF487
:101BF800FA70FFF7A9FB58E71D4B01221A70FEF790
:101C080071FF67E71A4B00221A70FEF79FFF1D4B02
:101C18001B78092B54D00A2B56D0082B12D0264BF0
:101C28001B78012B58D0002B52D0022B58D0234BB5
:101C38001B78033B042B3FF64DAFDFE803F0555903
:101C48005D6165000820FEF76FFEE8E700000140CF
:101C5800B4280008FD150008651600085915000885
:101C6800680100206901002064010020382800086C
:101C7800610100206A0100205E0100205F01002050
:101C8800A0280008980100205B0100203C280008DB
:101C9800442800084C280008502800085828000844
:101CA8006028000868280008702800087C280008B8
:101CB800842800088C280008990100209A01002037
:101CC8000920FEF731FEAAE70A20FEF72DFEA6E757
:101CD8000020FEF729FEAAE70120FEF725FEA6E769
:101CE8000220FEF721FEA2E70320FEF71DFEF1E623
:101CF8000420FEF719FEEDE60520FEF715FEE9E6DD
:101D08000620FEF711FEE5E60720FEF70DFEE1E6E8
:101D18000721FFF753FA00287FF4E3AE344B1B7812
:101D2800012B7FF4DEAE334B1B78022B7FF4D9AE48
:101D3800304B01221A7000242D4B1C702046FEF7F0
:101D4800F3FD2D48FFF7BEFB2C4B1C70C9E605219F
:101D5800FFF734FA00287FF4CBAE294B1B78012B10
:101D68007FF4C6AE274B1B78022B7FF4C1AE244B01
:101D780000221A70234B01221A700920FEF7D4FDA5
:101D88002148FFF79FFB214B09221A70B0E6052175
:101D98000020FFF713FA18B91D4B1B78012B1AD036
:101DA800FEF708FF1B4C2080FFF79EFC238813F0EA
:101DB800800F02D0184B1B788BB1164B1B8813F081
:101DC800200F3FF407AE1548FFF77CFB4FF4FA707D
:101DD800FFF7BAFAFEE50E4B00221A70E0E710484A
:101DE800FFF770FB4FF4FA70FFF7AEFAE5E700BFB4
:101DF8005D0100205C010020942800089901002062
:101E08005F0100205E0100209C2800089801002046
:101E18006A010020540100205B010020AC28000862
:101E2800A4280008014B1868704700BF2400002050
:101E380030B5141E05469BB0184605DA8B234FF0C3
:101E4800FF302B601BB030BD4FF40273ADF80C307F
:101E58000CBF234604F1FF33029305934FF6FF733B
:101E680000910491ADF80E3002461E9B6946284643
:101E780000F072F8431CBCBF8B232B60002CE1D010
:101E88000022009B1A70DDE707B5009313460A4647
:101E9800014603480068FFF7CBFF03B05DF804FB79
:101EA800240000202DE9F0478E6882469E420C46A9
:101EB8009046994637D88A8912F4906F31D0022318
:101EC800256809696F1A656905EB450595FBF3F502
:101ED80009F101033B449D4238BF1D46530530D5E7
:101EE800294600F035FB064650B90C234FF0FF3069
:101EF800CAF80030A38943F04003A381BDE8F08706
:101F08003A46216900F0B4FAA38923F4906343F0B8
:101F18008003A38126613E4426604E466561ED1B21
:101F2800A5604E4500D94E4632464146206800F02D
:101F3800AAFAA36800209B1BA36023681E4426609E
:101F4800DCE72A4600F05EFB06460028E2D121695C
:101F5800504600F0B1FAC8E72DE9F04F9DB0039361
:101F68008B8980461D060C4616460FD50B696BB942
:101F7800402100F0EDFA2060206128B90C23C8F850
:101F880000304FF0FF30C7E040236361002309931E
:101F980020238DF8293030234FF0010B8DF82A309B
:101FA80037463D4615F8013B0BB1252B3ED1B7EB23
:101FB800060A0BD05346324621464046FFF772FFC9
:101FC800013000F0A480099B534409933B78002B0F
:101FD80000F09D8000234FF0FF32CDE905230493E4
:101FE80007938DF853301A932F46052217F8011BD3
:101FF8004F4800F02FFA049BD0B9D90644BF2022DD
:102008008DF853201A0744BF2B228DF853202A78C5
:102018002A2A15D02F4600200A25079A394611F892
:10202800013B303B092B4DD9B8B10FE02F46B8E73B
:102038003F4A3D46801A0BFA00F018430490D3E754
:10204800039A111D12680391002A01DB079204E02C
:10205800524243F00203079204933B782E2B0CD193
:102068007B782A2B33D1039B02371A1D1B680392F6
:10207800002BB8BF4FF0FF3305932E4D032239785C
:10208800284600F0E7F938B14023401B03FA00F076
:10209800049B0137034304933978062226487E1CA3
:1020A8008DF8281000F0D6F9002838D0234B13BB40
:1020B800039B073323F0070308330393099B4B441F
:1020C80009936DE705FB023201200F46A6E70023BE
:1020D8000A25194601370593384610F8012B303A7E
:1020E800092A03D9002BC8D00591C6E705FB0121B1
:1020F80001230746F0E703AB00932246104B04A9DF
:102108004046AFF30080B0F1FF3F8146D6D1A389A6
:102118005B063FF536AF09981DB0BDE8F08F03ABFD
:1021280000932246064B04A9404600F081F8EAE7EE
:10213800BC280008C2280008C628000800000000C3
:10214800AD1E00082DE9F04791461F468A680B69C5
:1021580006469342B8BF1346C9F8003091F84320A9
:102168000C46DDF8208012B10133C9F8003023682D
:10217800990642BFD9F800300233C9F80030256803
:1021880015F0060507D104F1190AE368D9F800200B
:102198009B1AAB4229DC94F843302268003318BFFD
:1021A800012392062ED404F1430239463046C04733
:1021B800013021D02368E56803F00603042B18BF1B
:1021C8000025D9F800204FF0000908BFAD1AA36810
:1021D800226908BF25EAE5759342C4BF9B1AED182A
:1021E8001A344D451AD1002008E0012352463946D9
:1021F8003046C047013003D14FF0FF30BDE8F087CB
:102208000135C2E73020E11881F843005A1C94F8E0
:1022180045102244023382F84310C4E701232246C2
:1022280039463046C0470130E6D009F10109D8E700
:102238002DE9F04301F1430C0C46097E85B06E2967
:102248001746064698460C9A00F0B38022D86329B0
:1022580036D00AD8002900F0B980582900F08380C8
:1022680004F1420584F8421032E0642901D069295A
:10227800F6D120681368050603F104012AD51B6806
:102288001160002B03DA2D225B4284F843206F484B
:102298000A2239E0732900F09D8008D86F2920D0E0
:1022A8007029DDD1236843F02003236003E07529FA
:1022B80017D07829D4D17823654884F8453055E07B
:1022C800136804F14205191D1B68116084F8423037
:1022D80001238CE01B6810F0400F116018BF1BB27F
:1022E800CFE713682568181D1060280601D51B68FC
:1022F80002E06806FBD51B886F2914BF0A22082252
:102308005248002184F843106568002DA560C0F28A
:102318009580216821F004012160002B3DD1002D1A
:1023280040F08E806546082A0BD12368DB0708D564
:10233800236962689A42DEBF302305F8013C05F143
:10234800FF35ACEB05032361CDF800803B4603AABB
:1023580021463046FFF7F6FE01304DD14FF0FF30F1
:1023680005B0BDE8F083394884F845101368216842
:102378001D1D1B6815600A060BD5CA0744BF41F02E
:10238800200121601BB9226822F02002226010225D
:10239800B7E74D0648BF9BB2EFE76546B3FBF2F1DE
:1023A80002FB1133C35C05F8013D0B460029F5D14A
:1023B800B9E713682568181D6169106028061B684D
:1023C80001D5196002E06A06FBD51980002365462D
:1023D8002361B9E71368191D11601D68626800213F
:1023E800284600F037F808B1401B60606368236135
:1023F800002384F84330A7E723692A463946304644
:10240800C0470130AAD023689B0713D4E068039B18
:102418009842B8BF1846A3E701234A4639463046D2
:10242800C04701309AD00135E368039A9B1AAB4242
:10243800F2DCEBE7002504F11909F5E7002BACD134
:10244800037804F1420584F842306CE7CD2800088F
:10245800DE28000810B5C9B202449042034601D1F3
:10246800002303E01C7801308C42F6D1184610BDD9
:1024780010B5431E0A44914200D110BD11F8014B1A
:1024880003F8014FF7E7884210B501EB020307D8BC
:10249800421E99420AD011F8014B02F8014FF8E7A1
:1024A8008342F5D98118D21AD34200D110BD13F84E
:1024B800014D01F8014DF7E738B50546002943D02D
:1024C80051F8043C0C1F002BB8BFE41800F0D0F8FA
:1024D8001E4A1368104633B9636014602846BDE885
:1024E800384000F0C6B8A3420BD92168621893425D
:1024F80001BF1A685B685218226063600460EDE7E8
:1025080013465A680AB1A242FAD919685818A04263
:102518000BD120680144581882421960DED1106836
:102528005268014419605A60D8E702D90C232B601D
:10253800D4E7206821188A4201BF11685268091837
:10254800216062605C60C9E738BD00BF6C01002093
:1025580070B5CD1C25F0030508350C2D38BF0C25AA
:10256800002D064601DBA94203D90C233360002065
:1025780070BD00F07DF8214A1468214691B9204CBD
:1025880023681BB9304600F063F8206029463046BE
:1025980000F05EF8431C24D10C233046336000F071
:1025A80068F8E4E70B685B1B18D40B2B0FD90B609A
:1025B800CC18CD50304600F05CF804F10B00231D18
:1025C80020F00700C31AD3D05A42E250D0E74B6834
:1025D8008C4216BF636013600C46EBE70C464968F3
:1025E800CCE7C41C24F00304A04205D0211A3046CD
:1025F80000F02EF80130CFD02560DBE76C01002019
:1026080070010020F8B5074614460E4621B9BDE80A
:10261800F8401146FFF79CBF22B9FFF74DFF25464A
:102628002846F8BD00F026F8A0420FD221463846C9
:10263800FFF78EFF05460028F2D031462246FFF705
:1026480017FF31463846FFF737FFE9E73546E7E732
:1026580038B50023054C054608462360FDF78AFE79
:10266800431C02D1236803B12B6038BD74010020DC
:102678007047704751F8043C181F002BBCBF0B581B
:10268800C0187047537461636B206672616D653A58
:102698000A000000205230203D2020253038580AFA
:1026A80000000000205231203D2020253038580AF3
:1026B80000000000205232203D2020253038580AE2
:1026C80000000000205233203D2020253038580AD1
:1026D8000000000020523132203D20253038580AB1
:1026E80000000000204C52203D2020253038580A98
:1026F80000000000205043203D2020253038580A93
:102708000000000020505352203D20253038580A40
:10271800000000004653522F4641523A0A0000007A
:102728002043465352203D2020253038580A0000C7
:102738002048465352203D2020253038580A0000B2
:102748002044465352203D2020253038580A0000A6
:102758002041465352203D2020253038580A000099
:10276800204D4D464152203D20253038580A000062
:102778002042464152203D2020253038580A00008A
:102788004D6973630A000000204C522F4558435F7F
:1027980052455455524E3D20253038580A00000005
:1027A8005B486172644661756C745D0A00000000E4
:1027B8005B4275734661756C745D0A005B557361A5
:1027C80067654661756C745D0A0000004C452C0015
:1027D800454F2C0046452C00542C0000442C00008A
:1027E8004E2C0000462C0000572C00002A5343238F
:1027F800000000002A434723000000002A53542306
:10280800000000002A485423000000002A484523FD
:10281800000000002A5423002A4623002A442300EB
:102828002A4C4523000000002A454F2300000000E1
:102838002A532C002A462B23000000002A452D236A
:10284800000000002A4123002A452B230000000035
:102858002A432B23000000002A432D2300000000F8
:102868002A434C52230000002A42544C524E47231C
:10287800000000002A422B23000000002A422D23DA
:10288800000000002A4C5246462300002A464523F1
:10289800000000002A4E23002A5723002A462D2331
:1028A800000000002A4C4C230000000053746172A1
:1028B80074000000232D302B2000686C4C006566E6
:1028C8006745464700303132333435363738394179
:1028D800424344454600303132333435363738398F
:0728E8006162636465660094
:1028F0007856341294000020000000000000000010
:1029000000000000010203040607080900A24A04AF
:102910000BFFFFFF28000020000000000000000067
:1029200000000000000000000000000000000000A7
:102930000000000000000000000000000000000097
:102940000000000000000000000000000000000087
:102950000000000000000000000000000000000077
:102960000000000000000000000000000000000067
:0C297000000000000000000032547698C7
:040000050800010DE1
:00000001FF
