:020000040800F2
:100000000050002021020008270200082B020008EF
:100010009D020008A1020008E9020008000000009B
:100020000000000000000000000000003103000894
:10003000350300080000000039030008C11400085F
:100040004D0300084D0300084D0300084D03000850
:100050004D0300084D030008451000085510000826
:100060006510000875100008851000084D03000891
:100070004D0300084D0300084D0300084D03000820
:100080004D0300084D0300084D0300084D03000810
:100090004D0300084D0300084D03000895100008AB
:1000A0004D0300084D0300084D0300084D030008F0
:1000B0004D0300084D0300084D0300084D030008E0
:1000C0004D0300084D0300084D0300084D030008D0
:1000D0004D0300084D0300084D0300084D030008C0
:1000E000A51000084D0300084D03000800000000A3
:1000F0000000000000000000000000000000000000
:1001000000000000000000005FF808F100B583B0B7
:1001100000F0AAF9304B314A1360314A1360314B79
:10012000314A32498B4204D21168196004330432D7
:10013000F7E72A4B1A682E4B9A4200D0FEE7284B6D
:100140001A682C4B9A42F9D1234B2B4A13602B4A45
:1001500013602B4B02E000221A600433294A9342B9
:10016000F9D3254B1B6813B9244B1B6803B1FEE779
:1001700000F086F9694601A800F022F9224C234BD1
:10018000E41AA4100025AC4214DC214C214BE41AE3
:10019000A4100025AC4213DC0099019801F0D8FAB4
:1001A00005461D4C1D4BE41AA410002C0EDC2846FD
:1001B00000F0E2F8154B53F8253098470135E2E797
:1001C000144B53F8253098470135E3E7013C134BB6
:1001D00053F824309847E8E7BABADECA0000002096
:1001E0004401002000000020E8250008480100200C
:1001F0007856341232547698480100202C020020A0
:10020000480100203002002078030008780300082D
:1002100078030008780300087803000878030008D2
:1002200008B5FFF773FF00BEFEE71EF0040F0CBF1A
:10023000EFF30880EFF309807146414A10472DE93A
:10024000F04182B004468846124B5E6B9F6B9D6AFC
:100250001B6B13F0020F03D00E4BDB6A002B0CDB81
:100260000D4800F0B5F8CDF800803B4632462946EF
:10027000204600F009F900BEFEE74BF6AB6100F046
:100280007DF90028ECD0034B4FF00042DA6202B057
:10029000BDE8F08100ED00E0E823000800BEFEE7C5
:1002A0001EF0040F0CBFEFF30880EFF309807146D6
:1002B000244A10472DE9F04182B004468846084B95
:1002C0005E6B9F6B9D6A074800F082F8CDF8008056
:1002D0003B4632462946204600F0D6F800BEFEE7EF
:1002E00000ED00E0F82300081EF0040F0CBFEFF350
:1002F0000880EFF309807146134A10472DE9F04159
:1003000082B004468846084B5E6B9F6B9D6A074827
:1003100000F05EF8CDF800803B4632462946204684
:1003200000F0B2F800BEFEE700ED00E00424000893
:1003300000BEFEE700BEFEE700BEFEE7704700001D
:100340003F020008B5020008FD02000800BEFEE7FB
:10035000E82500080000002048010020E8250008EA
:1003600000000000000000004801002030020020D2
:08037000000000000000000085
:10037800FEE7000008B503460C4A12685AB10B4A5A
:100388001068033323F003030344094A934206D851
:10039800064A136008BD054A06491160EFE701F0F7
:1003A80061FB0C2303604FF0FF30F3E74C010020A2
:1003B800004C00203002002001230360014B0B6039
:1003C800704700BF040000200FB400B583B004AB31
:1003D80053F8042B01938021064801F075FB00288F
:1003E80003DD0146034800F037F803B05DF804EB7D
:1003F80004B07047540100202DE9F04385B004464D
:100408000F4643560BB10E461EE0042528462146EA
:10041800ABBE0446384605B0BDE8F08314F9011BAD
:1004280004AA1A4402F8101C0133AB42F6D304AAFA
:100438001344002203F8102C4FF00408E946404604
:100448004946ABBE8046761B002EE3D03546102EBB
:1004580028BF10250023E8E708B5FFF7CDFF08BD42
:1004680008B500F0FDF8024A024B9A6008BD00BFCB
:100478000000000800ED00E008B500F019F908BD1B
:10048800F8B504460D4617461E462748FFF79CFF59
:1004980021682648FFF798FF61682548FFF794FF11
:1004A800A1682448FFF790FFE1682348FFF78CFF15
:1004B80021692248FFF788FF61692148FFF784FF17
:1004C800A1692048FFF780FFE1691F48FFF77CFF1B
:1004D8001E48FFF779FF29461D48FFF775FF1D4C99
:1004E800E16A1D48FFF770FF216B1C48FFF76CFF9E
:1004F800E16B1B48FFF768FF15F0800F0AD115F470
:10050800004F0CD11748FFF75FFF06991648FFF711
:100518005BFFF8BD39461548FFF756FFEFE7314650
:100528001348FFF751FFEDE7CC220008DC22000852
:10053800EC220008FC2200080C2300081C230008F9
:100548002C2300083C2300084C2300085C230008E7
:100558006823000800ED00E07823000888230008DD
:1005680098230008C8230008D0230008A8230008FF
:10057800B823000883691A888A4201D0002070478E
:100588000268033A012A03D80233836101207047C5
:100598000020704782B00023019300932C4A13680F
:1005A80043F4803313602A4B1B6803F40033009331
:1005B800019B01330193009B1BB9019BB3F5A06F0D
:1005C800F1D1234B1B6813F4003F06D0012300939D
:1005D800009B012B04D002B0704700230093F7E77B
:1005E8001C4B1A6842F010021A601A6822F00302C3
:1005F8001A601A6842F002021A60A3F580535A681A
:100608005A605A685A605A6842F480625A605A6856
:1006180022F47C125A605A6842F4E8125A601A6846
:1006280042F080721A600A4B1B6813F0007FFAD000
:10063800074B5A6822F003025A605A6842F00202D5
:100648005A60034B5B6803F00C03082BF9D1C2E72F
:10065800001002400020024008B5FFF79BFF08BDCC
:1006680008B5104B1A6842F001021A6059680E4A20
:100678000A405A601A6822F0847222F480321A60A2
:100688001A6822F480221A605A6822F4FE025A601C
:100698004FF41F029A60FFF7DFFF044B4FF0006230
:1006A8009A6008BD001002400000FFF800ED00E06D
:1006B8001F4B5B6803F00C03042B15D0082B17D0D5
:1006C8001BB11C4B1C4A1A6002E01A4B1A4A1A60EA
:1006D800174B5B68C3F30313184AD35CDAB21549A6
:1006E8000B68D3400B607047124B134A1A60EFE750
:1006F8000F4A53685268C3F38343023312F4803FAE
:100708000AD00B4A526812F4003F0BD00C4A02FB85
:1007180003F3084A1360DBE7094A02FB03F3054ABF
:100728001360D5E7044A02FB03F3024A1360CFE7DC
:10073800001002401C00002000127A000C0000206B
:1007480000093D0008B501220321104600F0A0FD74
:1007580001220921104600F09BFD01220D210220F3
:1007680000F096FD01220E21022000F091FD0122E9
:100778000F21022000F08CFD01220C21002000F046
:1007880087FD01220821104600F082FD08BD10B542
:10079800012406E008222146002000F00BFD013468
:1007A800E4B2072CF6D9012406E0002221461046BF
:1007B80000F06EFD0134E4B2072CF6D901220C21B9
:1007C800002000F0F7FC08220021084600F0F2FCA7
:1007D80008221146002000F0EDFC08220B21002021
:1007E80000F0E8FC08220F21002000F0E3FC0022C2
:1007F8001146104600F04CFD00220821104600F07A
:1008080047FD00220B21104600F042FD00220F2177
:10081800104600F03DFD01220321104600F0CAFCFD
:1008280001220821104600F0C5FC012209211046CA
:1008380000F0C0FC01220D21022000F0BBFC0122C7
:100848000E21022000F0B6FC01220F21022000F048
:10085800B1FC08220021012000F0ACFC0822012193
:10086800084600F0A7FC00221146012000F010FD08
:1008780000220121084600F00BFD08220421012076
:1008880000F098FC00220421012000F001FD08225C
:100898000521012000F08EFC00220521012000F036
:1008A800F7FC08220621012000F084FC0022062122
:1008B800012000F0EDFC08220721012000F07AFC5D
:1008C80000220721012000F0E3FC08220721012073
:1008D80000F070FC00220721012000F0D9FC08225A
:1008E8000A21012000F066FC00220A21012000F004
:1008F800CFFC08220B21012000F05CFC00220B2118
:10090800012000F0C5FC08220C21012000F052FC57
:1009180000220C21012000F0BBFC08220D2101203F
:1009280000F048FC00220D21012000F0B1FC082253
:100938000E21012000F03EFC00220E21012000F0D3
:10094800A7FC08220F21012000F034FC00220F210F
:10095800012000F09DFC10BD08B507280FD8DFE87E
:1009680000F0040F1A253F59738D01220C21002035
:1009780000F08EFC00220821012000F089FC08BD4F
:1009880000220C21104600F083FC012208211046A9
:1009980000F07EFCF3E700220C21104600F078FC02
:1009A80000220821012000F073FCE8E7002203215F
:1009B800012000F06DFC01220921104600F068FCBE
:1009C80000220D21022000F063FC00220E210220EB
:1009D80000F05EFC00220F21022000F059FCCEE757
:1009E80000220321012000F053FC002209210120EC
:1009F80000F04EFC00220D21022000F049FC0122EB
:100A08000E21022000F044FC00220F21022000F0F9
:100A18003FFCB4E701220321104600F039FC002214
:100A28000921012000F034FC00220D21022000F0F1
:100A38002FFC00220E21022000F02AFC00220F21A8
:100A4800022000F025FC9AE700220321012000F093
:100A58001FFC00220921012000F01AFC01220D21AF
:100A6800022000F015FC00220E21022000F010FCEC
:100A780000220F21022000F00BFC80E70022032156
:100A8800012000F005FC00220921012000F000FCF3
:100A980000220D21022000F0FBFB00220E21022083
:100AA80000F0F6FB01220F21022000F0F1FB66E7BF
:100AB80000B585B004AB03E90700029800F056FDC5
:100AC800039B03B1984705B05DF804FB08B5002205
:100AD8000321012000F0DCFB00220921012000F0A5
:100AE800D7FB00220D21022000F0D2FB00220E21AC
:100AF800022000F0CDFB00220F21022000F0C8FBED
:100B080000220C21104600F0C3FB0022082101201E
:100B180000F0BEFB08BD000038B5002435E08A4B64
:100B28001B7883BB894800F021FD4FF47A7000F0F0
:100B3800AFFC28E0844B1B782BBB854800F016FDE2
:100B48004FF47A7000F0A4FC1DE0824800F00EFD1E
:100B58004FF47A7000F09CFC15E07F4B00221A706D
:100B680011E00C21012000F0CDFB012802D17A4BC5
:100B78001B7893B30C21012000F0C4FB18B9764B05
:100B88001B78012B2FD00134E4B20F2C61D804EB71
:100B980044029300714AD15C012000F0B3FB0128A4
:100BA800DFD10E2CBBD00F2CC4D0042CCDD00C2CF4
:100BB800D3D0032CE7D9082CE5D0092CE3D004EBDB
:100BC8004405AA00654B134493E80700FFF770FF3C
:100BD8004FF47A7000F05CFCD5E75F4B01221A7085
:100BE800FFF7B0FDCFE75C4B00221A70FFF76EFFEE
:100BF8005B4B1B78012B10D05BB1022B11D0594BEA
:100C08001B78033B042BBED8DFE803F00F13171B38
:100C18001F000020FFF7A0FEF1E70120FFF79CFE70
:100C2800EDE70220FFF798FEE9E70320FFF794FEBF
:100C3800A9E70420FFF790FEA5E70520FFF78CFE43
:100C4800A1E70620FFF788FE9DE70720FFF784FE4F
:100C580099E70621002000F055FB28B30021012068
:100C680000F050FB00283BD00821002000F04AFB90
:100C7800012850D00121084600F044FB012852D039
:100C88000021084600F03EFB012854D00F21002027
:100C980000F038FB012845D1334800F067FC4FF4D9
:100CA8007A7000F0F5FB3DE0072100F02BFB0028EF
:100CB800D4D12E4B1B78012BD0D12D4B1B78022B76
:100CC800CCD12B4B01221A700024284B1C702046D3
:100CD800FFF742FE274800F049FC214B1C70BDE796
:100CE800052100F00FFB0028BED1234B1B78012BF8
:100CF800BAD1154B1B78002BB6D1204B1B78022B91
:100D0800B2D11D4B00221A701C4B01221A701C48CC
:100D180000F02CFCA8E71B4800F028FC4FF47A7080
:100D280000F0B6FB38BD184800F020FC4FF47A708C
:100D380000F0AEFBF6E7154800F018FC4FF47A70A7
:100D480000F0A6FBEEE700BFD701002058240008FA
:100D58006424000870240008DC0100202000002022
:100D68002802002029020020B4240008D90100200C
:100D7800D801002078240008DB010020DA010020D7
:100D880088240008902400089C240008A82400084F
:100D980038B500220321104600F07AFA052000F049
:100DA80077FB01220321002000F072FA0024254677
:100DB80014E001220221002000F06AFA0421002038
:100DC80000F0A0FAC4F1070398400543EDB20022F1
:100DD8000221104600F05CFA0134E4B2072CE8D98D
:100DE800284638BD38B5FFF7D3FF054601240AE089
:100DF8000720FFF7B1FD7F4B07221A707E4B0122B7
:100E08001A700134E4B2052C3FD845FA04F313F004
:100E1800010FF6D0631E042BF3D801A252F823F079
:100E2800F90D00083D0E0008510E0008650E000877
:100E38007F0E00080620FFF78FFD6E4B06221A7002
:100E48006D4B02221A70DCE70520FFF785FD694B20
:100E580005221A70684B01221A70D2E70420FFF7A6
:100E68007BFD644B04221A70644B00221A70624B9B
:100E780002221A70C5E70320FFF76EFD5D4B0322BF
:100E88001A705D4B01221A70BBE705240AE05C4822
:100E980000F06CFB5B4B01221A705B4B02221A704C
:100EA8000134E4B2072C27D82146002000F02AFAA2
:100EB8000128F5D1062C04D0072C11D0052CEFD130
:100EC800E5E7524800F052FB0120FFF745FD504B83
:100ED80002221A7001234F4A13704F4A1370DFE73A
:100EE8004E4800F043FB0220FFF736FD0223484A34
:100EF8001370484A1370D3E70121002000F002FA6A
:100F0800F0B10021012000F0FDF9002833D00B21B9
:100F1800002000F0F7F901283BD00B21002000F059
:100F2800F1F900283ED00621002000F0EBF9002856
:100F380041D00021012000F0E5F901284FD038BD4B
:100F4800022100F0DFF90028DBD1032100F0DAF9F3
:100F58000028D6D1042100F0D5F90028D1D10124E8
:100F6800264B1C700320FFF7F7FC224B03221A7054
:100F7800214B1C70C5E7052100F0C4F90028C6D133
:100F88000124214B1C70264800F0F0FA1D4B1C7000
:100F9800BDE7244800F0EAFA0023234A1370234AE5
:100FA8001370BAE7224800F0E1FA01231E4A1370D1
:100FB8001E4A1370B7E7072100F0A4F90028B8D13A
:100FC8001C4800F0D3FA0020FFF7C6FC0123104AA2
:100FD8001370104A002111700F4A1370A9E70A4BC9
:100FE80002221A70074B01221A70134800F0BEFA49
:100FF800A5E700BF29020020D4010020D501002068
:1010080014240008DB010020DA0100201C24000859
:10101800D801002028020020D90100202824000837
:10102800342400083C240008D7010020D601002001
:1010380048240008782400085024000808B5024B0A
:101048001B68984708BD00BF0402002008B5024B82
:101058001B68984708BD00BFF801002008B5024B7F
:101068001B68984708BD00BF0002002008B5024B66
:101078001B68984708BD00BFF401002008B5024B63
:101088001B68984708BD00BFFC01002008B5024B4B
:101098001B68984708BD00BF0802002008B5024B2E
:1010A8001B68984708BD00BF0C020020F8B505462C
:1010B8000C4616460021022000F088F9A308274AAA
:1010C800023352F823104FEA840C0F2707FA0CF763
:1010D80021EA070142F8231052F8230005FA0CF51B
:1010E800284342F82300012E1AD096B1022E1ED0B2
:1010F8001B490B680122A24013430B60042C20D922
:10110800631FDBB2042B21D90A3CE4B2052C21D998
:10111800F8BD13498B680122A24013438B60E7E7AF
:101128000F49CB680122A2401343CB60E0E70C4A89
:1011380091680123A34019439160D1680B43D360A0
:10114800D6E7A01DC0B200F0FDF8E1E7172000F0D7
:10115800F9F8DDE7282000F0F5F8D9E700000140AC
:101168000004014004490B68012202FA00F023EA56
:1011780000030B60704700BF0004014003494B693E
:10118800012202FA00F003434B617047000401405A
:10119800014B1860704700BF04020020014B186023
:1011A800704700BF08020020014B1860704700BF5D
:1011B8000C02002010B4072930D8012812D018B129
:1011C80002281DD010BC70472E4B186889000F24C8
:1011D8008C4020EA04001860186802FA01F1014303
:1011E8001960EFE7284B186889000F248C4020EA23
:1011F80004001860186802FA01F101431960E1E778
:10120800224B186889000F248C4020EA04001860DB
:10121800186802FA01F101431960D3E70F29D1D800
:101228000839C9B201281ED078B10228CAD1174896
:1012380044688B000F21994024EA01014160446809
:1012480002FA03F121434160BCE70E4B58688C0059
:101258000F21A14020EA01015960586802FA04F1FF
:1012680001435960AEE7084B5C6888000F21814054
:1012780024EA010159605C6802FA00F121435960CF
:10128800A0E700BF00080140000C01400010014029
:10129800CAB1012A2ED1012809D010B102280CD0D8
:1012A8007047012303FA01F1134B196170470123B9
:1012B80003FA01F1114B19617047012303FA01F197
:1012C8000F4B19617047012809D010B102280CD0C2
:1012D8007047012303FA01F1074B59617047012355
:1012E80003FA01F1054B59617047012303FA01F133
:1012F800034B5961704700BF00080140000C0140D2
:101308000010014001280AD018B102280DD0002091
:101318007047094B9868C84000F001007047074BB8
:101328009868C84000F001007047054B9868C840AD
:1013380000F00100704700BF00080140000C0140A8
:10134800001001401F2809D92038C0B21B2804D832
:10135800012303FA00F0044B18607047012303FAD5
:1013680000F0024B1860704704E100E000E100E083
:10137800154B1A6842F400221A605A6842F4803207
:101388005A605A6842F480225A605A6842F400222D
:101398005A605A6842F480125A605A6822F400125D
:1013A8005A605A6822F001025A605A6842F00202F2
:1013B8005A601A6842F080721A60034B1B6813F077
:1013C800007FFAD0704700BF001002401F291CD8C8
:1013D80001280BD010B1022810D070470B48436980
:1013E800012202FA01F11943416170470748C369B4
:1013F800012202FA01F11943C16170470348836968
:10140800012202FA01F1194381617047001002407C
:1014180000230A4A136004326FF07F4111600432DE
:10142800136010B1012804D07047044B05221A60DC
:101438007047024B07221A60704700BF10E000E0B7
:1014480001FB00F14FF47A7303FB01F1B1F1807FE6
:1014580007D3074B6FF07F421A60043300221A60EB
:101468007047034B1960043300221A60704700BFAD
:1014780014E000E008B501214820FFF7E1FF034B25
:101488001B6813F4803FFAD008BD00BF10E000E0ED
:1014980038B50546002402E0FFF7ECFF0134AC4202
:1014A800FAD338BD034B1B681BB1024A1368013BD2
:1014B800136070471002002008B5FFF7F3FF08BD5E
:1014C80010B50E210220FFF781FF02210846FFF721
:1014D8007DFF00210220FFF779FF0024174B1C60D5
:1014E8000C331A6822F480521A60154A116821F4E4
:1014F80080511160116821F4005111601A6842F09E
:1015080008021A601A6842F004021A600D4A41F68D
:10151800415111601A6842F400521A6009221146BA
:101528002046FFF747FE04220A212046FFF742FE25
:1015380001220A212046FFF7ABFE10BD003801400A
:101548001438014008380140064A136823F0400364
:101558001360054B1860034B1B6813F0400FFAD05B
:10156800704700BF003801400438014038B50546CF
:10157800002402E0FFF7E8FF0134285D0028F9D1D4
:1015880038BD0000044B1B6813F0200FFAD0034B42
:101598001868C0B2704700BF0038014004380140E5
:1015A80010B5002405E0074B1855FFF7CDFF0134AF
:1015B800E4B2FFF7E7FF0D28F5D1024800230355F1
:1015C80010BD00BF1402002008B50B210020FFF752
:1015D80099FE012807D010B9114B1B789BB10B203D
:1015E800FFF7CCFD08BD0E4B1B78012BF3D10D483E
:1015F800FFF7BCFF0A20FFF74BFF00230A4A1370CE
:10160800074A1370EBE70948FFF7B0FF0A20FFF716
:101618003FFF0123044A1370014A1370DFE700BF3C
:10162800D60100203C240008D701002048240008E7
:1016380008B5154B1B788BB9144B1B78012B03D0BD
:101648000020FFF79BFD08BD104B02221A70104BBB
:1016580001221A700F48FFF789FFF1E7012BEFD13C
:101668000A4B1B78022B0BD0084B1B78012BE7D1B8
:10167800064A1370064A13700648FFF777FFDFE73C
:10168800024B01221A70EFE7D7010020DA0100208F
:10169800DB0100205425000810B50620FFF762FD85
:1016A8000720FFF75FFD06210020FFF72BFE044609
:1016B80007210020FFF726FE012C12D0012822D096
:1016C8000620FFF75BFD0720FFF758FD00220621E3
:1016D8001046FFF7EBFC002207211046FFF7E6FC57
:1016E80010BD144B1B78012BE8D1124B02221A7043
:1016F800114B1C702046FFF72FF9104B1C70104837
:10170800FFF734FFDCE70C4B1B78002BD8D1094BD3
:101718001B78012BD4D10224064B1C70064B0122E6
:101728001A702046FFF718F9044B1C700548FFF79C
:101738001DFFC5E7D8010020D9010020280200209C
:101748001C2400082824000800B583B0FFF710FE09
:1017580002210846FFF73AFE03210220FFF736FE72
:1017680004210220FFF732FE00210220FFF72EFE9F
:10177800A54A536843F0007353600020FFF748FE02
:10178800FFF79EFEFFF70CFFA04B1860FEF7FFFF68
:101798009F4B93E803000090ADF804100022062147
:1017A8001046FFF783FC002207211046FFF77EFC56
:1017B800002211460120FFF779FC02220B210020AC
:1017C800FFF774FC9348FFF7E3FC9348FFF7E6FC48
:1017D8009248FFF7E9FC002305E091490A780132B5
:1017E8000A700133DBB2894A1268D25C4AB102A995
:1017F800194411F8081C9142EFD0894A0021117050
:10180800EFE7874B1B78052B05D08648FFF7AEFE20
:1018180003B05DF804FBFFF7E5FA80E0012B13D174
:10182800814A1370814A1370814A13708148FFF707
:101838009DFE09E005210020FFF764FD20B97B4BE0
:101848001B78012B00F08E80FFF7A2FA7A4B1870F4
:1018580010F0020F0FD010F0040F0CD110F0080F89
:1018680009D110F0100F06D110F0200F03D1734BDF
:101878001B78012B7AD0704B1B7813F0020F0FD115
:1018880013F0040F0CD013F0080F09D113F0100F48
:1018980006D113F0200F03D1684B1B78022B74D0AC
:1018A800654B1B7813F0020F0FD113F0040F0CD106
:1018B80013F0080F09D013F0100F06D113F0200F02
:1018C80003D15E4B1B78012B70D05B4B1B7813F058
:1018D800020F0FD113F0040F0CD113F0080F09D128
:1018E80013F0100F06D013F0200F03D1534B1B78C1
:1018F800022B6AD0504B1B7813F0020F0FD113F054
:10190800040F0CD113F0080F09D113F0100F06D1F2
:1019180013F0200F03D0494B1B78012B64D0FFF73D
:10192800FBF805210020FFF7EDFC012882D13F4B91
:101938001B78002B7FF47EAF414B1B78002B7FF484
:101948006DAF394B1B78012B7FF47EAF364B0222EB
:101958001A700123354A1370354A13703548FFF75A
:1019680005FE71E7314B00221A706DE7334B0222F6
:101978001A703448FFF7FAFD0720334B1870FEF74A
:10198800EBFF324B00221A7075E72C4B01221A70BC
:101998002F48FFF7EBFD06202B4B1870FEF7DCFFF6
:1019A80000232A4A13702B4A137079E7234B02222B
:1019B8001A702948FFF7DAFD0520234B1870FEF747
:1019C800CBFF224B00221A707FE71C4B01221A70B2
:1019D8002248FFF7CBFD1D4B00221A7004201A4B3A
:1019E8001870FEF7B9FF85E7144B02221A70174BDF
:1019F80001221A701A48FFF7B9FD0320124B18701C
:101A0800FEF7AAFF8BE700BF00000140E0010020BD
:101A1800AC25000839160008A1160008D1150008E1
:101A2800E401002098250008DA010020E6010020E2
:101A3800DB01002014240008E5010020D401002067
:101A4800D70100205C25000829020020D5010020CC
:101A58006C250008E701002074250008802500088F
:101A680088250008014B1868704700BFE000002077
:101A780030B5141E05469BB0184605DA8B234FF087
:101A8800FF302B601BB030BD4FF40273ADF80C3043
:101A98000CBF234604F1FF33029305934FF6FF73FF
:101AA80000910491ADF80E3002461E9B6946284607
:101AB80000F072F8431CBCBF8B232B60002CE1D0D4
:101AC8000022009B1A70DDE707B5009313460A460B
:101AD800014603480068FFF7CBFF03B05DF804FB3D
:101AE800E00000202DE9F0478E6882469E420C46B1
:101AF8009046994637D88A8912F4906F31D00223DC
:101B0800256809696F1A656905EB450595FBF3F5C5
:101B180009F101033B449D4238BF1D46530530D5AA
:101B2800294600F035FB064650B90C234FF0FF302C
:101B3800CAF80030A38943F04003A381BDE8F087C9
:101B48003A46216900F0B4FAA38923F4906343F07C
:101B58008003A38126613E4426604E466561ED1BE5
:101B6800A5604E4500D94E4632464146206800F0F1
:101B7800AAFAA36800209B1BA36023681E44266062
:101B8800DCE72A4600F05EFB06460028E2D1216920
:101B9800504600F0B1FAC8E72DE9F04F9DB0039325
:101BA8008B8980461D060C4616460FD50B696BB906
:101BB800402100F0EDFA2060206128B90C23C8F814
:101BC80000304FF0FF30C7E04023636100230993E2
:101BD80020238DF8293030234FF0010B8DF82A305F
:101BE80037463D4615F8013B0BB1252B3ED1B7EBE7
:101BF800060A0BD05346324621464046FFF772FF8D
:101C0800013000F0A480099B534409933B78002BD2
:101C180000F09D8000234FF0FF32CDE905230493A7
:101C280007938DF853301A932F46052217F8011B96
:101C38004F4800F02FFA049BD0B9D90644BF2022A0
:101C48008DF853201A0744BF2B228DF853202A7889
:101C58002A2A15D02F4600200A25079A394611F856
:101C6800013B303B092B4DD9B8B10FE02F46B8E7FF
:101C78003F4A3D46801A0BFA00F018430490D3E718
:101C8800039A111D12680391002A01DB079204E0F0
:101C9800524243F00203079204933B782E2B0CD157
:101CA8007B782A2B33D1039B02371A1D1B680392BA
:101CB800002BB8BF4FF0FF3305932E4D0322397820
:101CC800284600F0E7F938B14023401B03FA00F03A
:101CD800049B0137034304933978062226487E1C67
:101CE8008DF8281000F0D6F9002838D0234B13BB04
:101CF800039B073323F0070308330393099B4B44E3
:101D080009936DE705FB023201200F46A6E7002381
:101D18000A25194601370593384610F8012B303A41
:101D2800092A03D9002BC8D00591C6E705FB012174
:101D380001230746F0E703AB00932246104B04A9A2
:101D48004046AFF30080B0F1FF3F8146D6D1A3896A
:101D58005B063FF536AF09981DB0BDE8F08F03ABC1
:101D680000932246064B04A9404600F081F8EAE7B2
:101D7800B4250008BA250008BE25000800000000A8
:101D8800ED1A00082DE9F04791461F468A680B694D
:101D980006469342B8BF1346C9F8003091F843206D
:101DA8000C46DDF8208012B10133C9F800302368F1
:101DB800990642BFD9F800300233C9F800302568C7
:101DC80015F0060507D104F1190AE368D9F80020CF
:101DD8009B1AAB4229DC94F843302268003318BFC1
:101DE800012392062ED404F1430239463046C047F7
:101DF800013021D02368E56803F00603042B18BFDF
:101E08000025D9F800204FF0000908BFAD1AA368D3
:101E1800226908BF25EAE5759342C4BF9B1AED18ED
:101E28001A344D451AD1002008E00123524639469C
:101E38003046C047013003D14FF0FF30BDE8F0878E
:101E48000135C2E73020E11881F843005A1C94F8A4
:101E580045102244023382F84310C4E70123224686
:101E680039463046C0470130E6D009F10109D8E7C4
:101E78002DE9F04301F1430C0C46097E85B06E292B
:101E88001746064698460C9A00F0B38022D8632974
:101E980036D00AD8002900F0B980582900F083808C
:101EA80004F1420584F8421032E0642901D069291E
:101EB800F6D120681368050603F104012AD51B68CA
:101EC8001160002B03DA2D225B4284F843206F480F
:101ED8000A2239E0732900F09D8008D86F2920D0A4
:101EE8007029DDD1236843F02003236003E07529BE
:101EF80017D07829D4D17823654884F8453055E03F
:101F0800136804F14205191D1B68116084F84230FA
:101F180001238CE01B6810F0400F116018BF1BB242
:101F2800CFE713682568181D1060280601D51B68BF
:101F380002E06806FBD51B886F2914BF0A22082215
:101F48005248002184F843106568002DA560C0F24E
:101F58009580216821F004012160002B3DD1002DDE
:101F680040F08E806546082A0BD12368DB0708D528
:101F7800236962689A42DEBF302305F8013C05F107
:101F8800FF35ACEB05032361CDF800803B4603AA7F
:101F980021463046FFF7F6FE01304DD14FF0FF30B5
:101FA80005B0BDE8F083394884F845101368216806
:101FB8001D1D1B6815600A060BD5CA0744BF41F0F2
:101FC800200121601BB9226822F020022260102221
:101FD800B7E74D0648BF9BB2EFE76546B3FBF2F1A2
:101FE80002FB1133C35C05F8013D0B460029F5D10E
:101FF800B9E713682568181D6169106028061B6811
:1020080001D5196002E06A06FBD5198000236546F0
:102018002361B9E71368191D11601D686268002102
:10202800284600F037F808B1401B606063682361F8
:10203800002384F84330A7E723692A463946304607
:10204800C0470130AAD023689B0713D4E068039BDC
:102058009842B8BF1846A3E701234A463946304696
:10206800C04701309AD00135E368039A9B1AAB4206
:10207800F2DCEBE7002504F11909F5E7002BACD1F8
:10208800037804F1420584F842306CE7C52500085E
:10209800D625000810B5C9B202449042034601D1C2
:1020A800002303E01C7801308C42F6D1184610BD9D
:1020B80010B5431E0A44914200D110BD11F8014BDE
:1020C80003F8014FF7E7884210B501EB020307D880
:1020D800421E99420AD011F8014B02F8014FF8E765
:1020E8008342F5D98118D21AD34200D110BD13F812
:1020F800014D01F8014DF7E738B50546002943D0F1
:1021080051F8043C0C1F002BB8BFE41800F0D0F8BD
:102118001E4A1368104633B9636014602846BDE848
:10212800384000F0C6B8A3420BD921686218934220
:1021380001BF1A685B685218226063600460EDE7AB
:1021480013465A680AB1A242FAD919685818A04227
:102158000BD120680144581882421960DED11068FA
:102168005268014419605A60D8E702D90C232B60E1
:10217800D4E7206821188A4201BF116852680918FB
:10218800216062605C60C9E738BD00BFE8010020DB
:1021980070B5CD1C25F0030508350C2D38BF0C256E
:1021A800002D064601DBA94203D90C233360002029
:1021B80070BD00F07DF8214A1468214691B9204C81
:1021C80023681BB9304600F063F820602946304682
:1021D80000F05EF8431C24D10C233046336000F035
:1021E80068F8E4E70B685B1B18D40B2B0FD90B605E
:1021F800CC18CD50304600F05CF804F10B00231DDC
:1022080020F00700C31AD3D05A42E250D0E74B68F7
:102218008C4216BF636013600C46EBE70C464968B6
:10222800CCE7C41C24F00304A04205D0211A304690
:1022380000F02EF80130CFD02560DBE7E801002060
:10224800EC010020F8B5074614460E4621B9BDE852
:10225800F8401146FFF79CBF22B9FFF74DFF25460E
:102268002846F8BD00F026F8A0420FD2214638468D
:10227800FFF78EFF05460028F2D031462246FFF7C9
:1022880017FF31463846FFF737FFE9E73546E7E7F6
:1022980038B50023054C054608462360FEF76AF862
:1022A800431C02D1236803B12B6038BDF001002024
:1022B8007047704751F8043C181F002BBCBF0B58DF
:1022C800C0187047537461636B206672616D653A1C
:1022D8000A000000205230203D2020253038580ABE
:1022E80000000000205231203D2020253038580AB7
:1022F80000000000205232203D2020253038580AA6
:1023080000000000205233203D2020253038580A94
:102318000000000020523132203D20253038580A74
:1023280000000000204C52203D2020253038580A5B
:1023380000000000205043203D2020253038580A56
:102348000000000020505352203D20253038580A04
:10235800000000004653522F4641523A0A0000003E
:102368002043465352203D2020253038580A00008B
:102378002048465352203D2020253038580A000076
:102388002044465352203D2020253038580A00006A
:102398002041465352203D2020253038580A00005D
:1023A800204D4D464152203D20253038580A000026
:1023B8002042464152203D2020253038580A00004E
:1023C8004D6973630A000000204C522F4558435F43
:1023D80052455455524E3D20253038580A000000C9
:1023E8005B486172644661756C745D0A00000000A8
:1023F8005B4275734661756C745D0A005B55736169
:1024080067654661756C745D0A0000002A57464F7F
:10241800562300002A4C617374204563686F2300BB
:102428002A4563686F204F66662300002A4D464F91
:10243800562300002A546865726D616C2300000001
:102448002A446179230000002A4E464F57230A0088
:102458002A466F6375732B23000000002A466F63BA
:1024680075732D23000000002A4175746F23000046
:102478002A4669727374204563686F230000000060
:102488002A4D464F572300002A436F6E74726173BA
:10249800742B23002A4272696768742B230000009A
:1024A8002A4578706F737572652B23002A46756C00
:1024B8006C2053637265656E230000002A427269BE
:1024C8006768742B230A00002A4578706F73757249
:1024D800652D230A000000002A4272696768742D7E
:1024E800230A00002A436F6E74726173742D230AE5
:1024F800000000002A436F6E74726173742B230A04
:10250800000000002A526F756E6420496E204261F7
:102518007272656C230A00002A4669656C64205251
:10252800616E6765230A00002A436F6C6F72230A85
:10253800000000002A466F6375732B230A00000011
:102548002A466F6375732D230A0000002A4E464FF2
:10255800562300002A486967685F4578702E230A69
:10256800000000002A48656174230A002A5361624A
:102578006F74230A000000002A4845502300000019
:102588002A436F617869616C2047756E23000000EB
:1025980057726F6E6720496E7075742E2E52657370
:1025A800657400005374617274000000232D302B91
:1025B8002000686C4C00656667454647003031323C
:1025C8003334353637383941424344454600303193
:0F25D800323334353637383961626364656600F3
:1025E800785634125001002000000000000000005E
:1025F80000000000010203040607080900A24A04BB
:1026080000000000000000000000000001000000C1
:10261800C4240008000000000200000000000000C0
:10262800000000000300000000000000000000009F
:102638000400000000000000000000000500000089
:10264800D02400080000000006000000E024000874
:102658000000000007000000EC2400080000000053
:1026680008000000FC240008000000000900000029
:1026780000000000000000000A0000000C2500080F
:10268800000000000B0000002025000800000000EA
:102698000C000000000000004D0700080D000000BD
:1026A80030250008000000000E0000003C2500084E
:1026B800000000000F00000048250008000000008E
:1026C800E4000020000000000000000000000000FE
:1026D80000000000000000000000000000000000F2
:1026E80000000000000000000000000000000000E2
:1026F80000000000000000000000000000000000D2
:1027080000000000000000000000000000000000C1
:1027180000000000000000000000000000000000B1
:08272800000000003254769815
:040000050800010DE1
:00000001FF
