:020000040800F2
:100000000050002021020008270200082B020008EF
:100010009D020008A1020008E9020008000000009B
:100020000000000000000000000000003103000894
:10003000350300080000000039030008E912000839
:100040004D0300084D0300084D0300084D03000850
:100050004D0300084D0300086D0E00087D0E0008DA
:100060008D0E00089D0E0008AD0E00084D0300081F
:100070004D0300084D0300084D0300084D03000820
:100080004D0300084D0300084D0300084D03000810
:100090004D0300084D0300084D030008BD0E000885
:1000A0004D0300084D0300084D0300084D030008F0
:1000B0004D0300084D0300084D0300084D030008E0
:1000C0004D0300084D0300084D0300084D030008D0
:1000D0004D0300084D0300084D0300084D030008C0
:1000E000CD0E00084D0300084D030008000000007D
:1000F0000000000000000000000000000000000000
:1001000000000000000000005FF808F100B583B0B7
:1001100000F0AAF9304B314A1360314A1360314B79
:10012000314A32498B4204D21168196004330432D7
:10013000F7E72A4B1A682E4B9A4200D0FEE7284B6D
:100140001A682C4B9A42F9D1234B2B4A13602B4A45
:1001500013602B4B02E000221A600433294A9342B9
:10016000F9D3254B1B6813B9244B1B6803B1FEE779
:1001700000F086F9694601A800F022F9224C234BD1
:10018000E41AA4100025AC4214DC214C214BE41AE3
:10019000A4100025AC4213DC0099019801F0DCF9B1
:1001A00005461D4C1D4BE41AA410002C0EDC2846FD
:1001B00000F0E2F8154B53F8253098470135E2E797
:1001C000144B53F8253098470135E3E7013C134BB6
:1001D00053F824309847E8E7BABADECA0000002096
:1001E000840000200000002048270008880000202C
:1001F0007856341232547698880000206C01002022
:1002000088000020700100207803000878030008AF
:1002100078030008780300087803000878030008D2
:1002200008B5FFF773FF00BEFEE71EF0040F0CBF1A
:10023000EFF30880EFF309807146414A10472DE93A
:10024000F04182B004468846124B5E6B9F6B9D6AFC
:100250001B6B13F0020F03D00E4BDB6A002B0CDB81
:100260000D4800F0B5F8CDF800803B4632462946EF
:10027000204600F009F900BEFEE74BF6AB6100F046
:100280007DF90028ECD0034B4FF00042DA6202B057
:10029000BDE8F08100ED00E05425000800BEFEE757
:1002A0001EF0040F0CBFEFF30880EFF309807146D6
:1002B000244A10472DE9F04182B004468846084B95
:1002C0005E6B9F6B9D6A074800F082F8CDF8008056
:1002D0003B4632462946204600F0D6F800BEFEE7EF
:1002E00000ED00E0642500081EF0040F0CBFEFF3E2
:1002F0000880EFF309807146134A10472DE9F04159
:1003000082B004468846084B5E6B9F6B9D6A074827
:1003100000F05EF8CDF800803B4632462946204684
:1003200000F0B2F800BEFEE700ED00E07025000826
:1003300000BEFEE700BEFEE700BEFEE7704700001D
:100340003F020008B5020008FD02000800BEFEE7FB
:1003500048270008000000208800002048270008E7
:100360000000000000000000880000207001002054
:08037000000000000000000085
:10037800FEE7000008B503460C4A12685AB10B4A5A
:100388001068033323F003030344094A934206D851
:10039800064A136008BD054A06491160EFE701F0F7
:1003A80017FC0C2303604FF0FF30F3E78C000020AC
:1003B800004C00207001002001230360014B0B60FA
:1003C800704700BF040000200FB400B583B004AB31
:1003D80053F8042B01938021064801F02BFC0028D8
:1003E80003DD0146034800F037F803B05DF804EB7D
:1003F80004B07047940000202DE9F04385B004460E
:100408000F4643560BB10E461EE0042528462146EA
:10041800ABBE0446384605B0BDE8F08314F9011BAD
:1004280004AA1A4402F8101C0133AB42F6D304AAFA
:100438001344002203F8102C4FF00408E946404604
:100448004946ABBE8046761B002EE3D03546102EBB
:1004580028BF10250023E8E708B5FFF7CDFF08BD42
:1004680008B500F0FDF8024A024B9A6008BD00BFCB
:100478000000000800ED00E008B500F019F908BD1B
:10048800F8B504460D4617461E462748FFF79CFF59
:1004980021682648FFF798FF61682548FFF794FF11
:1004A800A1682448FFF790FFE1682348FFF78CFF15
:1004B80021692248FFF788FF61692148FFF784FF17
:1004C800A1692048FFF780FFE1691F48FFF77CFF1B
:1004D8001E48FFF779FF29461D48FFF775FF1D4C99
:1004E800E16A1D48FFF770FF216B1C48FFF76CFF9E
:1004F800E16B1B48FFF768FF15F0800F0AD115F470
:10050800004F0CD11748FFF75FFF06991648FFF711
:100518005BFFF8BD39461548FFF756FFEFE7314650
:100528001348FFF751FFEDE7382400084824000876
:100538005824000868240008782400088824000843
:1005480098240008A8240008B8240008C824000833
:10055800D424000800ED00E0E4240008F424000896
:1005680004250008342500083C2500081425000847
:100578002425000883691A888A4201D00020704720
:100588000268033A012A03D80233836101207047C5
:100598000020704782B00023019300932C4A13680F
:1005A80043F4803313602A4B1B6803F40033009331
:1005B800019B01330193009B1BB9019BB3F5A06F0D
:1005C800F1D1234B1B6813F4003F06D0012300939D
:1005D800009B012B04D002B0704700230093F7E77B
:1005E8001C4B1A6842F010021A601A6822F00302C3
:1005F8001A601A6842F002021A60A3F580535A681A
:100608005A605A685A605A6842F480625A605A6856
:1006180022F47C125A605A6842F4E8125A601A6846
:1006280042F080721A600A4B1B6813F0007FFAD000
:10063800074B5A6822F003025A605A6842F00202D5
:100648005A60034B5B6803F00C03082BF9D1C2E72F
:10065800001002400020024008B5FFF79BFF08BDCC
:1006680008B5104B1A6842F001021A6059680E4A20
:100678000A405A601A6822F0847222F480321A60A2
:100688001A6822F480221A605A6822F4FE025A601C
:100698004FF41F029A60FFF7DFFF044B4FF0006230
:1006A8009A6008BD001002400000FFF800ED00E06D
:1006B8001F4B5B6803F00C03042B15D0082B17D0D5
:1006C8001BB11C4B1C4A1A6002E01A4B1A4A1A60EA
:1006D800174B5B68C3F30313184AD35CDAB21549A6
:1006E8000B68D3400B607047124B134A1A60EFE750
:1006F8000F4A53685268C3F38343023312F4803FAE
:100708000AD00B4A526812F4003F0BD00C4A02FB85
:1007180003F3084A1360DBE7094A02FB03F3054ABF
:100728001360D5E7044A02FB03F3024A1360CFE7DC
:10073800001002401C00002000127A000C0000206B
:1007480000093D0008B508220421002000F046FCFD
:1007580008220621002000F041FC08220721002081
:1007680000F03CFC00220621104600F0A5FC002207
:100778000721104600F0A0FC01220221002000F011
:100788002DFC01220321002000F028FC01220C216D
:10079800002000F023FC01220021084600F01EFC86
:1007A80008220521002000F019FC0822114600202B
:1007B80000F014FC08220B21002000F00FFC082296
:1007C8000F21002000F00AFC00221146104600F01C
:1007D80073FC00220521104600F06EFC002208215F
:1007E800104600F069FC00220B21104600F064FC62
:1007F80000220F21104600F05FFC01220321104661
:1008080000F0ECFB01220921104600F0E7FB012271
:100818000D21022000F0E2FB01220E21022000F04F
:10082800DDFB01220F21022000F0D8FB0822002165
:10083800012000F0D3FB08220121084600F0CEFB7E
:1008480008221146012000F0C9FB002211460120B0
:1008580000F032FC00220121084600F02DFC0022A5
:100868000821012000F028FC08220421012000F0C2
:10087800B5FB00220421012000F01EFC08220521FE
:10088800012000F0ABFB00220521012000F014FC40
:1008980008220621012000F0A1FB002206210120E8
:1008A80000F00AFC08220721012000F097FB002233
:1008B8000721012000F000FC01220A21104600F067
:1008C8008DFB08220B21012000F088FB00220B2160
:1008D800012000F0F1FB08220C21012000F07EFB32
:1008E80000220C21012000F0E7FB08220D21012045
:1008F80000F074FB00220D21012000F0DDFB08222E
:100908000E21012000F06AFB00220E21012000F0D8
:10091800D3FB01220F21104600F060FB0122114693
:10092800002000F05BFB08BD08B50A2811D8DFE8F5
:1009380000F006111C27415B758FA9B9C900012277
:100948000021084600F0B8FB00220C21104600F0F8
:10095800B3FB08BD01220C21002000F0ADFB0022F2
:100968001146104600F0A8FBF3E700220C211046C0
:1009780000F0A2FB00221146104600F09DFBE8E7BC
:1009880000220321012000F097FB012209211046D3
:1009980000F092FB00220D21022000F08DFB0022C6
:1009A8000E21022000F088FB00220F21022000F017
:1009B80083FBCEE700220321012000F07DFB00220B
:1009C8000921012000F078FB01220D21022000F00E
:1009D80073FB00220E21022000F06EFB00220F2183
:1009E800022000F069FBB4E700220321012000F097
:1009F80063FB00220921012000F05EFB00220D218B
:100A0800022000F059FB01220E21022000F054FBC5
:100A180000220F21022000F04FFB9AE70022032159
:100A2800012000F049FB00220921012000F044FBCD
:100A380000220D21022000F03FFB00220E2102209F
:100A480000F03AFB01220F21022000F035FB80E77D
:100A580001220321104600F02FFB0022092101206A
:100A680000F02AFB00220D21022000F025FB0022C5
:100A78000E21022000F020FB00220F21022000F0AE
:100A88001BFB66E700220121104600F015FB00223F
:100A98000A21012000F010FB01220F21104600F06E
:100AA8000BFB56E701221146002000F005FB00224F
:100AB8000A21012000F000FB00220F21012000F094
:100AC800FBFA46E700220121104600F0F5FA012260
:100AD8000A21104600F0F0FA00220F21012000F050
:100AE800EBFA36E708B501220321104600F0E4FAD4
:100AF80001220921104600F0DFFA01220D2102200F
:100B080000F0DAFA01220E21022000F0D5FA0122C3
:100B18000F21022000F0D0FA01220021084600F03F
:100B2800CBFA01220C21002000F0C6FA012211465E
:100B3800002000F0C1FA01220A21104600F0BCFA98
:100B480001220F21104600F0B7FA08BD08B50022AF
:100B58000321012000F0B0FA00220921012000F051
:100B6800ABFA00220D21022000F0A6FA00220E2185
:100B7800022000F0A1FA00220F21022000F09CFAC6
:100B880001220021084600F097FA00220C211046A5
:100B980000F092FA00220121104600F08DFA00229E
:100BA8000A21012000F088FA00220F21012000F01C
:100BB80083FA08BD38B500220321104600F07CFAFC
:100BC800012000F079FB01220321002000F074FAD3
:100BD80000252C4616E06400A4B20421002000F091
:100BE800A5FA80B2044301220221002000F064FA31
:100BF800012000F061FB00220221104600F05CFA9F
:100C08000135EDB2072DE6D900220221104600F089
:100C180053FA204638BD000038B5FFF7CBFF05462C
:100C280000240AE00320FFF77FFE7C4B03221A70A2
:100C38007B4B01221A700134E4B2042C3FD845FAE8
:100C480004F313F0010FF6D0042CF4D801A353F8E1
:100C580024F000BFB30C00089F0C00088B0C0008A0
:100C6800710C00082D0C00080420FFF75DFE6B4B8B
:100C780004221A706B4B00221A70694B02221A70F8
:100C8800D9E70520FFF750FE644B05221A70644B24
:100C980001221A70CFE70620FFF746FE5F4B0622B7
:100CA8001A705F4B02221A70C5E70720FFF73CFE57
:100CB8005A4B07221A705A4B01221A70BBE70F21B0
:100CC800002000F033FA012806D00F21002000F0A0
:100CD8002DFA50B1052422E0534800F05BFB0023B5
:100CE800524A1370524A1370EFE7524800F052FB11
:100CF80001234E4A13704E4A1370EBE74E4800F03A
:100D080049FB0A20FFF710FE4C4B01221A704C4B8E
:100D180002221A70414B0A221A700134E4B2072CDD
:100D280027D82146002000F001FA0128F5D1062C29
:100D380013D0072C02D0052CEFD1DFE7414800F093
:100D480029FB0120FFF7F0FD3F4B02221A70012317
:100D58003E4A13703E4A1370DFE73E4800F01AFB24
:100D68000220FFF7E1FD0223374A1370374A137058
:100D7800D3E70021012000F0D9F958B1062100205D
:100D880000F0D4F9D0B10021012000F0CFF90128FA
:100D980028D038BD052100F0C9F90028EED101247A
:100DA800274B1C702C4800F0F5FA0920FFF7BCFD12
:100DB800224B1C70194B09221A70DFE7072100F03B
:100DC800B5F90028DFD1254800F0E4FA0020FFF744
:100DD800ABFD01231C4A13701C4A002111701C4AE8
:100DE8001370D0E7114B1B7843B1012BD1D1144BB1
:100DF80002221A70114B01221A70CAE7104B022204
:100E08001A700E4B01221A70154800F0C3FA082018
:100E1800FFF78AFD014B08221A70BAE76901002022
:100E28001601002017010020802500081901002064
:100E3800180100208C250008942500081D010020B9
:100E48001C0100209C2500081A01002068010020D0
:100E58001B010020A8250008B4250008BC250008AF
:100E6800C825000808B5024B1B68984708BD00BF95
:100E78004401002008B5024B1B68984708BD00BF15
:100E88003801002008B5024B1B68984708BD00BF11
:100E98004001002008B5024B1B68984708BD00BFF9
:100EA8003401002008B5024B1B68984708BD00BFF5
:100EB8003C01002008B5024B1B68984708BD00BFDD
:100EC8004801002008B5024B1B68984708BD00BFC1
:100ED8004C010020F8B505460C46164600210220B4
:100EE80000F088F9A308274A023352F823104FEA82
:100EF800840C0F2707FA0CF721EA070142F82310A0
:100F080052F8230005FA0CF5284342F82300012E75
:100F18001AD096B1022E1ED01B490B680122A2409E
:100F280013430B60042C20D9631FDBB2042B21D997
:100F38000A3CE4B2052C21D9F8BD13498B6801227B
:100F4800A24013438B60E7E70F49CB680122A24018
:100F58001343CB60E0E70C4A91680123A34019438F
:100F68009160D1680B43D360D6E7A01DC0B200F0F2
:100F7800FDF8E1E7172000F0F9F8DDE7282000F098
:100F8800F5F8D9E7000001400004014004490B6866
:100F9800012202FA00F023EA00030B60704700BF49
:100FA8000004014003494B69012202FA00F003439F
:100FB8004B61704700040140014B1860704700BF47
:100FC80044010020014B1860704700BF4801002011
:100FD800014B1860704700BF4C01002010B407296E
:100FE80030D8012812D018B102281DD010BC704783
:100FF8002E4B186889000F248C4020EA04001860E2
:10100800186802FA01F101431960EFE7284B1868E4
:1010180089000F248C4020EA04001860186802FA3E
:1010280001F101431960E1E7224B186889000F2498
:101038008C4020EA04001860186802FA01F10143A4
:101048001960D3E70F29D1D80839C9B201281ED0B1
:1010580078B10228CAD1174844688B000F219940FB
:1010680024EA01014160446802FA03F12143416026
:10107800BCE70E4B58688C000F21A14020EA010103
:101088005960586802FA04F101435960AEE7084B09
:101098005C6888000F21814024EA010159605C687E
:1010A80002FA00F121435960A0E700BF000801409F
:1010B800000C014000100140CAB1012A2ED10128BC
:1010C80009D010B102280CD07047012303FA01F1AE
:1010D800134B19617047012303FA01F1114B196190
:1010E8007047012303FA01F10F4B1961704701287A
:1010F80009D010B102280CD07047012303FA01F17E
:10110800074B59617047012303FA01F1054B5961F7
:101118007047012303FA01F1034B5961704700BF7F
:1011280000080140000C01400010014001280AD0CD
:1011380018B102280DD000207047094B9868C840A4
:1011480000F001007047074B9868C84000F00100A4
:101158007047054B9868C84000F00100704700BF11
:1011680000080140000C0140001001401F2809D967
:101178002038C0B21B2804D8012303FA00F0044B1E
:1011880018607047012303FA00F0024B186070479B
:1011980004E100E000E100E0154B1A6842F4002287
:1011A8001A605A6842F480325A605A6842F48022BF
:1011B8005A605A6842F400225A605A6842F480120F
:1011C8005A605A6822F400125A605A6822F00102E2
:1011D8005A605A6842F002025A601A6842F08072F5
:1011E8001A60034B1B6813F0007FFAD0704700BFEA
:1011F800001002401F291CD801280BD010B102286A
:1012080010D070470B484369012202FA01F11943D3
:10121800416170470748C369012202FA01F1194385
:10122800C161704703488369012202FA01F1194339
:10123800816170470010024000230A4A136004329B
:101248006FF07F4111600432136010B1012804D09F
:101258007047044B05221A607047024B07221A6038
:10126800704700BF10E000E001FB00F14FF47A7313
:1012780003FB01F1B1F1807F07D3074B6FF07F4289
:101288001A60043300221A607047034B1960043354
:1012980000221A60704700BF14E000E008B5012181
:1012A8004820FFF7E1FF034B1B6813F4803FFAD097
:1012B80008BD00BF10E000E038B50546002402E094
:1012C800FFF7ECFF0134AC42FAD338BD034B1B687F
:1012D8001BB1024A1368013B13607047500100209C
:1012E80008B5FFF7F3FF08BD10B50E210220FFF780
:1012F80081FF02210846FFF77DFF00210220FFF74A
:1013080079FF0024174B1C600C331A6822F48052B2
:101318001A60154A116821F480511160116821F48E
:10132800005111601A6842F008021A601A6842F007
:1013380004021A600D4A41F6415111601A6842F4DC
:1013480000521A60092211462046FFF747FE042280
:101358000A212046FFF742FE01220A212046FFF714
:10136800ABFE10BD00380140143801400838014078
:10137800064A136823F040031360054B1860034BBB
:101388001B6813F0400FFAD0704700BF00380140C7
:101398000438014038B50546002402E0FFF7E8FFAD
:1013A8000134285D0028F9D138BD0000044B1B68C2
:1013B80013F0200FFAD0034B1868C0B2704700BF73
:1013C800003801400438014010B5002403E0064B02
:1013D80018550134E4B2FFF7E9FF0D28F7D10248A8
:1013E8000023035510BD00BF5401002008B50F218C
:1013F8000020FFF79BFE012807D010B9114B1B787E
:101408009BB10F20FFF7CEFD08BD0E4B1B78012BBB
:10141800F3D10D48FFF7BEFF0A20FFF74DFF002369
:101428000A4A1370074A1370EBE70948FFF7B2FF3F
:101438000A20FFF741FF0123044A1370014A137081
:10144800DFE700BF18010020D0250008190100209F
:10145800DC25000808B5114B1B78B3B9104B1B7875
:10146800012B03D00020FFF79DFD08BD0C4B022285
:101478001A700C4B01221A700B48FFF78BFF0820DB
:101488000A4B1870FFF750FAECE7012BEAD1044B2E
:1014980002221A70034B01221A70E3E71901002097
:1014A8001C0100201D010020FC2500086801002007
:1014B80010B50620FFF76AFD0720FFF767FD062134
:1014C8000020FFF733FE044607210020FFF72EFE19
:1014D800012808D0012C19D00620FFF763FD07204A
:1014E800FFF760FD10BD154B1B78012BF2D1134B94
:1014F80002221A700124124B1C702046FFF714FABE
:10150800104B1C701048FFF745FFE5E70C4B1B78A4
:10151800002BE1D1094B1B78012BDDD10224074BAD
:101528001C70074B01221A702046FFF7FDF9054B86
:101538001C700648FFF72EFFCEE700BF1A010020F7
:101548001B01002068010020E4250008F0250008A0
:1015580010B582B0FFF720FE02210846FFF74AFEC9
:1015680003210220FFF746FE04210220FFF742FE76
:1015780000210220FFF73EFEA64A536843F000739D
:1015880053600020FFF758FEFFF7AEFEFFF71CFF81
:10159800A14B1860FFF7D6F8A04B93E80300009022
:1015A800ADF80410002206211046FFF793FC002234
:1015B80007211046FFF78EFC002211460120FFF795
:1015C80089FC02220F210020FFF784FC9448FFF7D2
:1015D800F3FC9448FFF7F6FC9348FFF7F9FC002367
:1015E80005E092490A7801320A700133DBB28A4A6F
:1015F8001268D25C4AB102A9194411F8081C914238
:10160800EFD08A4A00211170EFE7884B1B78052B31
:1016180004D08748FFF7BEFE02B010BD8548FFF72B
:10162800B9FEFFF7F9FAB5E1834B1B78002B40F0C0
:10163800B8818248FFF7AEFE4FF4FA70FFF73CFE20
:10164800AFE17F48FFF7A6FE4FF4FA70FFF734FECC
:10165800AEE17C4B00221A70B1E17B48FFF79AFE9D
:101668004FF4FA70FFF728FEB0E17848FFF792FED2
:101678004FF4FA70FFF720FEAFE17548FFF78AFED6
:101688004FF4FA70FFF718FEAEE17248FFF782FEDA
:101698004FF4FA70FFF710FEADE16F48FFF77AFEDE
:1016A8004FF4FA70FFF708FEACE16948FFF772FEE5
:1016B8004FF4FA70FFF700FEABE16848FFF76AFEE7
:1016C8004FF4FA70FFF7F8FDAAE16548FFF762FEEC
:1016D8004FF4FA70FFF7F0FDA9E16248FFF75AFEF0
:1016E8004FF4FA70FFF7E8FDA8E15F48FFF752FEF4
:1016F8004FF4FA70FFF7E0FDA7E1524B01221A7090
:10170800FFF7F0F9B6E14F4B00221A70FFF71EFA07
:10171800564B1B780A2B0AD8DFE803F00614180981
:10172800090909091C2024000020FFF7FDF8504B87
:101738001B78033B042B00F29D81DFE803F0171BA5
:101748001F2327000120FFF7EFF8F0E70220FFF73B
:10175800EBF8ECE70820FFF7E7F8E8E70920FFF7E0
:10176800E3F8E4E70A20FFF7DFF8E0E70320FFF7F4
:10177800DBF87FE10420FFF7D7F87BE10520FFF7CE
:10178800D3F877E10620FFF7CFF873E10720FFF7DA
:10179800CBF86FE10721FFF7C9FC002840F0718101
:1017A800344B1B78012B40F06C81334B1B78022B98
:1017B80040F06781304B01221A7000242D4B1C70B9
:1017C8002046FFF7B1F82D48FFF7E4FD274B1C70C2
:1017D80057E10521FFF7AAFC002840F05981284B62
:1017E8001B78012B40F05481264B1B78022B40F0CC
:1017F8004F81234B00221A70224B01221A700920B4
:10180800FFF792F82048FFF7C5FD184B09221A7018
:101818003EE100BF00000140200100200C27000825
:101828005D140008B9140008F5130008240100200D
:10183800F826000804260008190100200C260008D4
:10184800182600081E010020202600082C26000863
:101858003826000848260008542600086026000894
:1018680068260008782600088426000868010020F9
:10187800690100201B0100201A01002090260008A1
:101888001D0100201C010020A026000805210020C1
:10189800FFF74CFC20B9BC4B1B78012B00F01B81D7
:1018A800FFF788F9B94B188010F0800F04D0B84BB7
:1018B8001B78002B00F01381B44B1B8813F0010F29
:1018C80010D013F0020F0DD113F0040F0AD113F04A
:1018D800080F07D113F0100F04D1AE4B1B78012B62
:1018E80000F00581A94B1B8813F0010F10D113F0EC
:1018F800020F0DD013F0040F0AD113F0080F07D10F
:1019080013F0100F04D1A34B1B78022B00F0FE80BC
:101918009E4B1B8813F0010F10D113F0020F0DD14D
:1019280013F0040F0AD013F0080F07D113F0100FAB
:1019380004D1984B1B78012B00F0F980934B1B883E
:1019480013F0010F10D113F0020F0DD113F0040F93
:101958000AD113F0080F07D013F0100F04D18D4BE4
:101968001B78022B00F0F280884B1B8813F0010FC4
:1019780010D113F0020F0DD113F0040F0AD113F098
:10198800080F07D113F0100F04D0824B1B78012BDE
:1019980000F0EB800E210120FFF7C8FB01283FF47F
:1019A80043AE04210120FFF7C1FB01283FF449AEF3
:1019B8000C210120FFF7BAFB01283FF44AAE0521AC
:1019C8000120FFF7B3FB01283FF447AE08210120AF
:1019D800FFF7ACFB01283FF448AE01210846FFF7AA
:1019E800A5FB01283FF449AE08210020FFF79EFB24
:1019F80001283FF44AAE07210120FFF797FB012891
:101A08003FF44BAE01210846FFF790FB01283FF455
:101A18004CAE0D210120FFF789FB01283FF44DAEA4
:101A28000B210120FFF782FB01283FF44EAE0B216A
:101A38000020FFF77BFB01283FF44FAE0621012071
:101A4800FFF774FB01283FF450AE0C210120FFF78B
:101A58006DFB012804D1504B1B78002B3FF44DAE91
:101A68000C210120FFF762FB20B94B4B1B78012B9F
:101A78003FF449AE06210020FFF758FB00283FF449
:101A880089AE00210120FFF751FB00283FF4A1AEE9
:101A980005210020FFF74AFB01287FF4F7AE3A4BF7
:101AA8001B78002B7FF4F2AE3C4B1B78012B7FF4A4
:101AB800F7AE3A4B02221A700123334A1370384AA0
:101AC80013703848FFF766FC0A20FEF72DFF364BE7
:101AD8000A221A70E4E62C4B00221A70E0E633481A
:101AE800FFF758FC4FF4FA70FFF7E6FBE4E6294BE2
:101AF80002221A702E48FFF74DFC07202D4B187054
:101B0800FEF712FF2C4B00221A70EBE6214B012244
:101B18001A702A48FFF73EFC0620264B1870FEF77D
:101B280003FF0023244A1370254A1370F0E6194B6B
:101B380002221A702348FFF72DFC05201D4B187050
:101B4800FEF7F2FE1C4B00221A70F7E6114B012239
:101B58001A701D48FFF71EFC174B00221A7004204C
:101B6800144B1870FEF7E0FEFEE60A4B02221A70CC
:101B7800114B01221A701548FFF70CFC03200D4B7E
:101B88001870FEF7D1FE05E725010020140100209A
:101B980019010020160100201E0100201C01002050
:101BA8001D010020A826000868010020B0260008B2
:101BB800BC2600086901002017010020C82600087B
:101BC80026010020D0260008D8260008E8260008AC
:101BD800014B1868704700BF2000002030B5141E64
:101BE80005469BB0184605DA8B234FF0FF302B6073
:101BF8001BB030BD4FF40273ADF80C300CBF234658
:101C080004F1FF33029305934FF6FF73009104919B
:101C1800ADF80E3002461E9B6946284600F072F861
:101C2800431CBCBF8B232B60002CE1D00022009BFF
:101C38001A70DDE707B5009313460A4601460348C4
:101C48000068FFF7CBFF03B05DF804FB200000201D
:101C58002DE9F0478E6882469E420C46904699468A
:101C680037D88A8912F4906F31D002232568096920
:101C78006F1A656905EB450595FBF3F509F1010355
:101C88003B449D4238BF1D46530530D5294600F0D8
:101C980035FB064650B90C234FF0FF30CAF8003028
:101CA800A38943F04003A381BDE8F0873A46216940
:101CB80000F0B4FAA38923F4906343F08003A3816E
:101CC80026613E4426604E466561ED1BA5604E4583
:101CD80000D94E4632464146206800F0AAFAA36869
:101CE80000209B1BA36023681E442660DCE72A466D
:101CF80000F05EFB06460028E2D12169504600F05C
:101D0800B1FAC8E72DE9F04F9DB003938B8980465F
:101D18001D060C4616460FD50B696BB9402100F01D
:101D2800EDFA2060206128B90C23C8F800304FF084
:101D3800FF30C7E0402363610023099320238DF817
:101D4800293030234FF0010B8DF82A3037463D46B5
:101D580015F8013B0BB1252B3ED1B7EB060A0BD08A
:101D68005346324621464046FFF772FF013000F0E5
:101D7800A480099B534409933B78002B00F09D8075
:101D880000234FF0FF32CDE90523049307938DF824
:101D980053301A932F46052217F8011B4F4800F0BD
:101DA8002FFA049BD0B9D90644BF20228DF85320BE
:101DB8001A0744BF2B228DF853202A782A2A15D0D7
:101DC8002F4600200A25079A394611F8013B303B77
:101DD800092B4DD9B8B10FE02F46B8E73F4A3D4629
:101DE800801A0BFA00F018430490D3E7039A111DE8
:101DF80012680391002A01DB079204E0524243F083
:101E08000203079204933B782E2B0CD17B782A2B64
:101E180033D1039B02371A1D1B680392002BB8BFEE
:101E28004FF0FF3305932E4D03223978284600F0F2
:101E3800E7F938B14023401B03FA00F0049B01374F
:101E4800034304933978062226487E1C8DF828100F
:101E580000F0D6F9002838D0234B13BB039B073377
:101E680023F0070308330393099B4B4409936DE759
:101E780005FB023201200F46A6E700230A25194672
:101E880001370593384610F8012B303A092A03D94F
:101E9800002BC8D00591C6E705FB012101230746A1
:101EA800F0E703AB00932246104B04A94046AFF37A
:101EB8000080B0F1FF3F8146D6D1A3895B063FF58C
:101EC80036AF09981DB0BDE8F08F03AB00932246EA
:101ED800064B04A9404600F081F8EAE714270008F9
:101EE8001A2700081E27000800000000591C0008D7
:101EF8002DE9F04791461F468A680B6906469342CA
:101F0800B8BF1346C9F8003091F843200C46DDF8F5
:101F1800208012B10133C9F800302368990642BF06
:101F2800D9F800300233C9F80030256815F00605E5
:101F380007D104F1190AE368D9F800209B1AAB42CB
:101F480029DC94F843302268003318BF0123920635
:101F58002ED404F1430239463046C047013021D01F
:101F68002368E56803F00603042B18BF0025D9F899
:101F780000204FF0000908BFAD1AA368226908BF06
:101F880025EAE5759342C4BF9B1AED181A344D45EE
:101F98001AD1002008E00123524639463046C0478E
:101FA800013003D14FF0FF30BDE8F0870135C2E7BB
:101FB8003020E11881F843005A1C94F84510224457
:101FC800023382F84310C4E70123224639463046DB
:101FD800C0470130E6D009F10109D8E72DE9F043FF
:101FE80001F1430C0C46097E85B06E29174606465A
:101FF80098460C9A00F0B38022D8632936D00AD8C4
:10200800002900F0B980582900F0838004F14205C6
:1020180084F8421032E0642901D06929F6D1206899
:102028001368050603F104012AD51B681160002B0B
:1020380003DA2D225B4284F843206F480A2239E0F4
:10204800732900F09D8008D86F2920D07029DDD130
:10205800236843F02003236003E0752917D078290B
:10206800D4D17823654884F8453055E0136804F1E5
:102078004205191D1B68116084F8423001238CE069
:102088001B6810F0400F116018BF1BB2CFE7136830
:102098002568181D1060280601D51B6802E068062F
:1020A800FBD51B886F2914BF0A2208225248002139
:1020B80084F843106568002DA560C0F295802168FA
:1020C80021F004012160002B3DD1002D40F08E80CD
:1020D8006546082A0BD12368DB0708D5236962689F
:1020E8009A42DEBF302305F8013C05F1FF35ACEB21
:1020F80005032361CDF800803B4603AA21463046FC
:10210800FFF7F6FE01304DD14FF0FF3005B0BDE8C6
:10211800F083394884F84510136821681D1D1B6831
:1021280015600A060BD5CA0744BF41F0200121609B
:102138001BB9226822F0200222601022B7E74D0660
:1021480048BF9BB2EFE76546B3FBF2F102FB1133E0
:10215800C35C05F8013D0B460029F5D1B9E71368C2
:102168002568181D6169106028061B6801D519606B
:1021780002E06A06FBD51980002365462361B9E7AA
:102188001368191D11601D6862680021284600F057
:1021980037F808B1401B606063682361002384F846
:1021A8004330A7E723692A4639463046C0470130FD
:1021B800AAD023689B0713D4E068039B9842B8BF52
:1021C8001846A3E701234A4639463046C04701303E
:1021D8009AD00135E368039A9B1AAB42F2DCEBE72D
:1021E800002504F11909F5E7002BACD1037804F1B7
:1021F800420584F842306CE7252700083627000896
:1022080010B5C9B202449042034601D1002303E04D
:102218001C7801308C42F6D1184610BD10B5431E0B
:102228000A44914200D110BD11F8014B03F8014F47
:10223800F7E7884210B501EB020307D8421E99421E
:102248000AD011F8014B02F8014FF8E78342F5D99B
:102258008118D21AD34200D110BD13F8014D01F8EC
:10226800014DF7E738B50546002943D051F8043C3D
:102278000C1F002BB8BFE41800F0D0F81E4A1368F2
:10228800104633B9636014602846BDE8384000F052
:10229800C6B8A3420BD921686218934201BF1A68D5
:1022A8005B685218226063600460EDE713465A6861
:1022B8000AB1A242FAD919685818A0420BD120686D
:1022C8000144581882421960DED1106852680144EE
:1022D80019605A60D8E702D90C232B60D4E720682C
:1022E80021188A4201BF116852680918216062608A
:1022F8005C60C9E738BD00BF2801002070B5CD1C5F
:1023080025F0030508350C2D38BF0C25002D064691
:1023180001DBA94203D90C233360002070BD00F013
:102328007DF8214A1468214691B9204C23681BB9CD
:10233800304600F063F820602946304600F05EF829
:10234800431C24D10C233046336000F068F8E4E7DE
:102358000B685B1B18D40B2B0FD90B60CC18CD5016
:10236800304600F05CF804F10B00231D20F0070054
:10237800C31AD3D05A42E250D0E74B688C4216BFFA
:10238800636013600C46EBE70C464968CCE7C41C55
:1023980024F00304A04205D0211A304600F02EF89C
:1023A8000130CFD02560DBE7280100202C01002078
:1023B800F8B5074614460E4621B9BDE8F84011465F
:1023C800FFF79CBF22B9FFF74DFF25462846F8BD09
:1023D80000F026F8A0420FD221463846FFF78EFFBC
:1023E80005460028F2D031462246FFF717FF31464E
:1023F8003846FFF737FFE9E73546E7E738B5002302
:10240800054C054608462360FDF7B4FF431C02D17E
:10241800236803B12B6038BD300100207047704736
:1024280051F8043C181F002BBCBF0B58C01870474C
:10243800537461636B206672616D653A0A0000002F
:10244800205230203D2020253038580A0000000056
:10245800205231203D2020253038580A0000000045
:10246800205232203D2020253038580A0000000034
:10247800205233203D2020253038580A0000000023
:1024880020523132203D20253038580A0000000003
:10249800204C52203D2020253038580A00000000EA
:1024A800205043203D2020253038580A00000000E5
:1024B80020505352203D20253038580A0000000093
:1024C8004653522F4641523A0A00000020434653D1
:1024D80052203D2020253038580A00002048465315
:1024E80052203D2020253038580A00002044465309
:1024F80052203D2020253038580A000020414653FC
:1025080052203D2020253038580A0000204D4D46E5
:102518004152203D20253038580A000020424641CB
:1025280052203D2020253038580A00004D69736339
:102538000A000000204C522F4558435F524554551D
:10254800524E3D20253038580A0000005B48617221
:10255800644661756C745D0A000000005B42757327
:102568004661756C745D0A005B5573616765466109
:10257800756C745D0A000000546865726D616C2C9E
:10258800000000004461792C0000000057464F56B7
:102598002C0000004C617374204563686F2C0000A8
:1025A8004563686F204F66662C0000004D464F5605
:1025B8002C0000004669727374204563686F2C0014
:1025C8004E464F572C0000002A546865726D616CA6
:1025D800230000002A446179230000002A4C61731B
:1025E80074204563686F23002A4563686F204F662F
:1025F800662300002A4E464F562300002A53746172
:1026080072742C002A466F6375732B230000000038
:102618002A4175746F2300002A4578706F737572AC
:10262800652D23002A4578706F737572652B23001A
:102638002A46756C6C2053637265656E2300000032
:102648002A436F6E74726173742B23002A436F6E72
:1026580074726173742D23002A436F6C6F722300A8
:102668002A426174746C652052616E6765230000AC
:102678002A4272696768742B230000002A42726933
:102688006768742D230000002A4669727374204518
:1026980063686F23000000002A4D464F5623000050
:1026A8002A57464F562300002A466F6375732D2319
:1026B800000000002A4869676820457870230000F8
:1026C8002A486561742300002A5361626F742300ED
:1026D8002A5375622043616C6962657223000000A9
:1026E8002A436F617869616C2047756E230000008A
:1026F80057726F6E6720496E7075742E2E5265730F
:10270800657400005374617274000000232D302B2F
:102718002000686C4C0065666745464700303132DA
:102728003334353637383941424344454600303131
:0F27380032333435363738396162636465660091
:1027480078563412900000200000000000000000BD
:1027580000000000010203040607080900A24A0459
:10276800240000200000000000000000000000001D
:102778000000000000000000000000000000000051
:102788000000000000000000000000000000000041
:102798000000000000000000000000000000000031
:1027A8000000000000000000000000000000000021
:1027B8000000000000000000000000000000000011
:0827C800000000003254769875
:040000050800010DE1
:00000001FF
