:020000040800F2
:100000000050002021020008270200082B020008EF
:100010009D020008A1020008E9020008000000009B
:100020000000000000000000000000003103000894
:1000300035030008000000003903000861130008C0
:100040004D0300084D0300084D0300084D03000850
:100050004D0300084D030008FD0E00080D0F0008B9
:100060001D0F00082D0F00083D0F00084D0300086C
:100070004D0300084D0300084D0300084D03000820
:100080004D0300084D0300084D0300084D03000810
:100090004D0300084D0300084D0300084D0F0008F4
:1000A0004D0300084D0300084D0300084D030008F0
:1000B0004D0300084D0300084D0300084D030008E0
:1000C0004D0300084D0300084D0300084D030008D0
:1000D0004D0300084D0300084D0300084D030008C0
:1000E0005D0F00084D0300084D03000800000000EC
:1000F0000000000000000000000000000000000000
:1001000000000000000000005FF808F100B583B0B7
:1001100000F0AAF9304B314A1360314A1360314B79
:10012000314A32498B4204D21168196004330432D7
:10013000F7E72A4B1A682E4B9A4200D0FEE7284B6D
:100140001A682C4B9A42F9D1234B2B4A13602B4A45
:1001500013602B4B02E000221A600433294A9342B9
:10016000F9D3254B1B6813B9244B1B6803B1FEE779
:1001700000F086F9694601A800F022F9224C234BD1
:10018000E41AA4100025AC4214DC214C214BE41AE3
:10019000A4100025AC4213DC0099019801F0E2FAAA
:1001A00005461D4C1D4BE41AA410002C0EDC2846FD
:1001B00000F0E2F8154B53F8253098470135E2E797
:1001C000144B53F8253098470135E3E7013C134BB6
:1001D00053F824309847E8E7BABADECA0000002096
:1001E0008800002000000020A42700088C000020C8
:1001F00078563412325476988C00002094010020F6
:100200008C00002098010020780300087803000883
:1002100078030008780300087803000878030008D2
:1002200008B5FFF773FF00BEFEE71EF0040F0CBF1A
:10023000EFF30880EFF309807146414A10472DE93A
:10024000F04182B004468846124B5E6B9F6B9D6AFC
:100250001B6B13F0020F03D00E4BDB6A002B0CDB81
:100260000D4800F0B5F8CDF800803B4632462946EF
:10027000204600F009F900BEFEE74BF6AB6100F046
:100280007DF90028ECD0034B4FF00042DA6202B057
:10029000BDE8F08100ED00E0D025000800BEFEE7DB
:1002A0001EF0040F0CBFEFF30880EFF309807146D6
:1002B000244A10472DE9F04182B004468846084B95
:1002C0005E6B9F6B9D6A074800F082F8CDF8008056
:1002D0003B4632462946204600F0D6F800BEFEE7EF
:1002E00000ED00E0E02500081EF0040F0CBFEFF366
:1002F0000880EFF309807146134A10472DE9F04159
:1003000082B004468846084B5E6B9F6B9D6A074827
:1003100000F05EF8CDF800803B4632462946204684
:1003200000F0B2F800BEFEE700ED00E0EC250008AA
:1003300000BEFEE700BEFEE700BEFEE7704700001D
:100340003F020008B5020008FD02000800BEFEE7FB
:10035000A4270008000000208C000020A42700082B
:1003600000000000000000008C0000209801002028
:08037000000000000000000085
:10037800FEE7000008B503460C4A12685AB10B4A5A
:100388001068033323F003030344094A934206D851
:10039800064A136008BD054A06491160EFE701F0F7
:1003A80055FC0C2303604FF0FF30F3E7900000206A
:1003B800004C00209801002001230360014B0B60D2
:1003C800704700BF040000200FB400B583B004AB31
:1003D80053F8042B01938021064801F069FC00289A
:1003E80003DD0146034800F037F803B05DF804EB7D
:1003F80004B07047980000202DE9F04385B004460A
:100408000F4643560BB10E461EE0042528462146EA
:10041800ABBE0446384605B0BDE8F08314F9011BAD
:1004280004AA1A4402F8101C0133AB42F6D304AAFA
:100438001344002203F8102C4FF00408E946404604
:100448004946ABBE8046761B002EE3D03546102EBB
:1004580028BF10250023E8E708B5FFF7CDFF08BD42
:1004680008B500F0FDF8024A024B9A6008BD00BFCB
:100478000000000800ED00E008B500F019F908BD1B
:10048800F8B504460D4617461E462748FFF79CFF59
:1004980021682648FFF798FF61682548FFF794FF11
:1004A800A1682448FFF790FFE1682348FFF78CFF15
:1004B80021692248FFF788FF61692148FFF784FF17
:1004C800A1692048FFF780FFE1691F48FFF77CFF1B
:1004D8001E48FFF779FF29461D48FFF775FF1D4C99
:1004E800E16A1D48FFF770FF216B1C48FFF76CFF9E
:1004F800E16B1B48FFF768FF15F0800F0AD115F470
:10050800004F0CD11748FFF75FFF06991648FFF711
:100518005BFFF8BD39461548FFF756FFEFE7314650
:100528001348FFF751FFEDE7B4240008C42400087E
:10053800D4240008E4240008F42400080425000852
:10054800142500082425000834250008442500083F
:100558005025000800ED00E060250008702500081F
:1005680080250008B0250008B82500089025000857
:10057800A025000883691A888A4201D000207047A4
:100588000268033A012A03D80233836101207047C5
:100598000020704782B00023019300932C4A13680F
:1005A80043F4803313602A4B1B6803F40033009331
:1005B800019B01330193009B1BB9019BB3F5A06F0D
:1005C800F1D1234B1B6813F4003F06D0012300939D
:1005D800009B012B04D002B0704700230093F7E77B
:1005E8001C4B1A6842F010021A601A6822F00302C3
:1005F8001A601A6842F002021A60A3F580535A681A
:100608005A605A685A605A6842F480625A605A6856
:1006180022F47C125A605A6842F4E8125A601A6846
:1006280042F080721A600A4B1B6813F0007FFAD000
:10063800074B5A6822F003025A605A6842F00202D5
:100648005A60034B5B6803F00C03082BF9D1C2E72F
:10065800001002400020024008B5FFF79BFF08BDCC
:1006680008B5104B1A6842F001021A6059680E4A20
:100678000A405A601A6822F0847222F480321A60A2
:100688001A6822F480221A605A6822F4FE025A601C
:100698004FF41F029A60FFF7DFFF044B4FF0006230
:1006A8009A6008BD001002400000FFF800ED00E06D
:1006B8001F4B5B6803F00C03042B15D0082B17D0D5
:1006C8001BB11C4B1C4A1A6002E01A4B1A4A1A60EA
:1006D800174B5B68C3F30313184AD35CDAB21549A6
:1006E8000B68D3400B607047124B134A1A60EFE750
:1006F8000F4A53685268C3F38343023312F4803FAE
:100708000AD00B4A526812F4003F0BD00C4A02FB85
:1007180003F3084A1360DBE7094A02FB03F3054ABF
:100728001360D5E7044A02FB03F3024A1360CFE7DC
:10073800001002401C00002000127A000C0000206B
:1007480000093D0008B508220421002000F082FCC1
:1007580008220621002000F07DFC08220721002045
:1007680000F078FC00220621104600F0E1FC00228F
:100778000721104600F0DCFC01220221002000F0D5
:1007880069FC01220321002000F064FC01220C21F5
:10079800002000F05FFC01220021084600F05AFC0E
:1007A80008220521002000F055FC082211460020EF
:1007B80000F050FC08220B21002000F04BFC08221E
:1007C8000F21002000F046FC00221146104600F0E0
:1007D800AFFC00220521104600F0AAFC00220821E7
:1007E800104600F0A5FC00220B21104600F0A0FCEA
:1007F80000220F21104600F09BFC01220321104625
:1008080000F028FC01220921104600F023FC0122F7
:100818000D21022000F01EFC01220E21022000F012
:1008280019FC01220F21022000F014FC08220021EB
:10083800012000F00FFC08220121084600F00AFC04
:1008480008221146012000F005FC00221146012073
:1008580000F06EFC00220121084600F069FC00222D
:100868000821012000F064FC08220421012000F086
:10087800F1FB00220421012000F05AFC0822052186
:10088800012000F0E7FB00220521012000F050FCC8
:1008980008220621012000F0DDFB002206210120AC
:1008A80000F046FC08220721012000F0D3FB0022BB
:1008B8000721012000F03CFC01220A21104600F02B
:1008C800C9FB08220B21012000F0C4FB00220B21E8
:1008D800012000F02DFC08220C21012000F0BAFBB9
:1008E80000220C21012000F023FC08220D21012008
:1008F80000F0B0FB00220D21012000F019FC0822B5
:100908000E21012000F0A6FB00220E21012000F09C
:100918000FFC01220F21104600F09CFB012211461A
:10092800002000F097FB08BD08B50A2811D8DFE8B9
:1009380000F006111C27415B758FA9B9C900012277
:100948000021084600F0F4FB00220C21104600F0BC
:10095800EFFB08BD01220C21002000F0E9FB00227A
:100968001146104600F0E4FBF3E700220C21104684
:1009780000F0DEFB00221146104600F0D9FBE8E744
:1009880000220321012000F0D3FB01220921104697
:1009980000F0CEFB00220D21022000F0C9FB00224E
:1009A8000E21022000F0C4FB00220F21022000F0DB
:1009B800BFFBCEE700220321012000F0B9FB002293
:1009C8000921012000F0B4FB01220D21022000F0D2
:1009D800AFFB00220E21022000F0AAFB00220F210B
:1009E800022000F0A5FBB4E700220321012000F05B
:1009F8009FFB00220921012000F09AFB00220D2113
:100A0800022000F095FB01220E21022000F090FB4D
:100A180000220F21022000F08BFB9AE7002203211D
:100A2800012000F085FB00220921012000F080FB55
:100A380000220D21022000F07BFB00220E21022063
:100A480000F076FB01220F21022000F071FB80E705
:100A580001220321104600F06BFB0022092101202E
:100A680000F066FB00220D21022000F061FB00224D
:100A78000E21022000F05CFB00220F21022000F072
:100A880057FB66E700220121104600F051FB0022C7
:100A98000A21012000F04CFB01220F21104600F032
:100AA80047FB56E701221146002000F041FB0022D7
:100AB8000A21012000F03CFB00220F21012000F058
:100AC80037FB46E700220121104600F031FB0122E6
:100AD8000A21104600F02CFB00220F21012000F013
:100AE80027FB36E708B501220321104600F020FB5A
:100AF80001220921104600F01BFB01220D210220D2
:100B080000F016FB01220E21022000F011FB012249
:100B18000F21022000F00CFB01220021084600F002
:100B280007FB01220C21002000F002FB01221146E4
:100B3800002000F0FDFA01220A21104600F0F8FA20
:100B480001220F21104600F0F3FA08BD08B5002273
:100B58000321012000F0ECFA00220921012000F015
:100B6800E7FA00220D21022000F0E2FA00220E210D
:100B7800022000F0DDFA00220F21022000F0D8FA4E
:100B880001220021084600F0D3FA00220C21104669
:100B980000F0CEFA00220121104600F0C9FA002226
:100BA8000A21012000F0C4FA00220F21012000F0E0
:100BB800BFFA08BD38B500220321104600F0B8FA84
:100BC800012000F0B5FB01220321002000F0B0FA5B
:100BD80000252C4616E06400A4B20421002000F091
:100BE800E1FA80B2044301220221002000F0A0FAB9
:100BF800012000F09DFB00220221104600F098FA27
:100C08000135EDB2072DE6D900220221104600F089
:100C18008FFA204638BD00002DE9F84300209D4B8F
:100C280018700F2100F0BEFA012811D00F21002002
:100C380000F0B8FAA8B10021012000F0B3FAC8B159
:100C48000021012000F0AEFA012827D0052452E047
:100C5800914800F0DBFB0023904A1370904A137010
:100C6800E4E7904800F0D2FB01238C4A13708C4AC9
:100C78001370E0E7052100F095FA0028E0D101247F
:100C8800894B1C70894800F0C1FB0920FFF74CFE16
:100C9800874B1C70874B09221A70D1E77F4B1B7852
:100CA80043B1012BD2D1804B02221A70804B012212
:100CB8001A70CBE77C4B02221A707D4B01221A7006
:100CC8007D4800F0A3FB0820FFF72EFE794B082291
:100CD8001A70BBE7794800F099FB0A20FFF724FE59
:100CE800734B01221A70704B02221A70714B0A2240
:100CF8001A700134E4B2072C2AD82146002000F0EB
:100D080051FA0128F5D1062C13D0072C02D0052C56
:100D1800EFD1DFE76A4800F079FB0120FFF704FE16
:100D2800684B02221A700123674A1370674A1370CE
:100D3800DFE7674800F06AFB0220FFF7F5FD0223B2
:100D4800604A1370604A1370604B01221A70D0E732
:100D58000621002000F026FA20B1FFF72BFF0546F8
:100D6800002428E0072100F01DFA0028F5D1594891
:100D780000F04CFB0020FFF7D7FD0123514A137008
:100D8800514A00211170514A1370E6E70320FFF71A
:100D9800CBFD484F03263E704F4B02221A704F4B33
:100DA80001221A704E4800F031FB3E703046FFF7C2
:100DB800BBFD0134E4B2042C69D845FA04F313F0FE
:100DC800010FF6D0042CF4D801A353F824F000BF87
:100DD8006F0E0008470E00081F0E0008ED0D0008F2
:100DE800950D00080420FFF79FFD324F04263E7042
:100DF800DFF8E8804FF0000988F80090364B0122B0
:100E08001A70384800F002FB88F800903E703046AF
:100E1800FFF78AFDCDE70520FFF786FD254F05265C
:100E28003E702D4B02221A702F4800F0EFFA3E70E8
:100E38003046FFF779FD294B00221A70B9E70620E2
:100E4800FFF772FD1B4F06263E70234B01221A70D6
:100E5800264800F0DBFA3E703046FFF765FD1F4B71
:100E680000221A70A5E70720FFF75EFD114F07263D
:100E78003E70194B02221A701D4800F0C7FA3E70E6
:100E88003046FFF751FD154B00221A7091E7BDE877
:100E9800F88300BF51010020FC2500085401002000
:100EA80053010020082600085701002010260008DA
:100EB800580100209101002018260008202600086B
:100EC8002826000855010020900100205601002026
:100ED8003426000840260008500100205201002056
:100EE8004C2600085C2600086C26000874260008BA
:100EF8007C26000808B5024B1B68984708BD00BF50
:100F08008001002008B5024B1B68984708BD00BF48
:100F18007401002008B5024B1B68984708BD00BF44
:100F28007C01002008B5024B1B68984708BD00BF2C
:100F38007001002008B5024B1B68984708BD00BF28
:100F48007801002008B5024B1B68984708BD00BF10
:100F58008401002008B5024B1B68984708BD00BFF4
:100F680088010020F8B505460C46164600210220E7
:100F780000F07CF9A308274A023352F823104FEAFD
:100F8800840C0F2707FA0CF721EA070142F823100F
:100F980052F8230005FA0CF5284342F82300012EE5
:100FA8001AD096B1022E1ED01B490B680122A2400E
:100FB80013430B60042C20D9631FDBB2042B21D907
:100FC8000A3CE4B2052C21D9F8BD13498B680122EB
:100FD800A24013438B60E7E70F49CB680122A24088
:100FE8001343CB60E0E70C4A91680123A3401943FF
:100FF8009160D1680B43D360D6E7A01DC0B200F062
:10100800F1F8E1E7172000F0EDF8DDE7282000F01F
:10101800E9F8D9E7000001400004014003494B69A1
:10102800012202FA00F003434B61704700040140BB
:10103800014B1860704700BF80010020014B186009
:10104800704700BF84010020014B1860704700BF43
:101058008801002010B4072930D8012812D018B10F
:1010680002281DD010BC70472E4B186889000F2429
:101078008C4020EA04001860186802FA01F1014364
:101088001960EFE7284B186889000F248C4020EA84
:1010980004001860186802FA01F101431960E1E7D9
:1010A800224B186889000F248C4020EA040018603D
:1010B800186802FA01F101431960D3E70F29D1D862
:1010C8000839C9B201281ED078B10228CAD11748F8
:1010D80044688B000F21994024EA0101416044686B
:1010E80002FA03F121434160BCE70E4B58688C00BB
:1010F8000F21A14020EA01015960586802FA04F161
:1011080001435960AEE7084B5C6888000F218140B5
:1011180024EA010159605C6802FA00F12143596030
:10112800A0E700BF00080140000C0140001001408A
:10113800CAB1012A2ED1012809D010B102280CD039
:101148007047012303FA01F1134B1961704701231A
:1011580003FA01F1114B19617047012303FA01F1F8
:101168000F4B19617047012809D010B102280CD023
:101178007047012303FA01F1074B596170470123B6
:1011880003FA01F1054B59617047012303FA01F194
:10119800034B5961704700BF00080140000C014033
:1011A8000010014001280AD018B102280DD00020F3
:1011B8007047094B9868C84000F001007047074B1A
:1011C8009868C84000F001007047054B9868C8400F
:1011D80000F00100704700BF00080140000C01400A
:1011E800001001401F2809D92038C0B21B2804D894
:1011F800012303FA00F0044B18607047012303FA37
:1012080000F0024B1860704704E100E000E100E0E4
:10121800154B1A6842F400221A605A6842F4803268
:101228005A605A6842F480225A605A6842F400228E
:101238005A605A6842F480125A605A6822F40012BE
:101248005A605A6822F001025A605A6842F0020253
:101258005A601A6842F080721A60034B1B6813F0D8
:10126800007FFAD0704700BF001002401F291CD829
:1012780001280BD010B1022810D070470B484369E1
:10128800012202FA01F11943416170470748C36915
:10129800012202FA01F11943C161704703488369C9
:1012A800012202FA01F119438161704700100240DE
:1012B80000230A4A136004326FF07F411160043240
:1012C800136010B1012804D07047044B05221A603E
:1012D8007047024B07221A60704700BF10E000E019
:1012E80001FB00F14FF47A7303FB01F1B1F1807F48
:1012F80007D3074B6FF07F421A60043300221A604D
:101308007047034B1960043300221A60704700BF0E
:1013180014E000E008B501214820FFF7E1FF034B86
:101328001B6813F4803FFAD008BD00BF10E000E04E
:1013380038B50546002402E0FFF7ECFF0134AC4263
:10134800FAD338BD034B1B681BB1024A1368013B33
:10135800136070478C01002008B5FFF7F3FF08BD44
:1013680010B50E210220FFF781FF02210846FFF782
:101378007DFF00210220FFF779FF0024174B1C6036
:101388000C331A6822F480521A60154A116821F445
:1013980080511160116821F4005111601A6842F0FF
:1013A80008021A601A6842F004021A600D4A41F6EF
:1013B800415111601A6842F400521A60092211461C
:1013C8002046FFF747FE04220A212046FFF742FE87
:1013D80001220A212046FFF7ABFE10BD003801406C
:1013E8001438014008380140064A136823F04003C6
:1013F8001360054B1860034B1B6813F0400FFAD0BD
:10140800704700BF003801400438014038B5054630
:10141800002402E0FFF7E8FF0134285D0028F9D135
:1014280038BD0000054B1B6813F0200F04D0044B97
:101438001B68037001207047002070470038014086
:101448000438014000B583B00DF10700FFF7EAFF4B
:10145800C8B19DF807300A2B0CD00D2B0AD00C4AC6
:101468001278302A11D8501C0949087009498B5440
:10147800002005E0064B19780648002242541A70ED
:1014880003B05DF804FB0020FAE70020F8E700BF8E
:10149800180100201C01002008B50F210020FFF7CB
:1014A80081FE012807D010B9114B1B789BB10F2082
:1014B800FFF7B4FD08BD0E4B1B78012BF3D10D4887
:1014C800FFF7A4FF0A20FFF733FF00230A4A13702F
:1014D800074A1370EBE70948FFF798FF0A20FFF760
:1014E80027FF0123044A1370014A1370DFE700BF86
:1014F8005301002088260008540100209426000883
:1015080008B5114B1B78B3B9104B1B78012B03D0CE
:101518000020FFF783FD08BD0C4B02221A700C4B0C
:1015280001221A700B48FFF771FF08200A4B187048
:10153800FFF7FAF9ECE7012BEAD1044B02221A7003
:10154800034B01221A70E3E75401002057010020E1
:1015580058010020B42600089001002010B506218B
:101568000020FFF71FFE044607210020FFF71AFEA0
:10157800012808D0012C19D00620FFF74FFD0720BD
:10158800FFF74CFD10BD154B1B78012BF2D1134B07
:1015980002221A700124124B1C702046FFF7C4F96E
:1015A800104B1C701048FFF731FFE5E70C4B1B7818
:1015B800002BE1D1094B1B78012BDDD10224074B0D
:1015C8001C70074B01221A702046FFF7ADF9054B36
:1015D8001C700648FFF71AFFCEE700BF5501002030
:1015E80056010020900100209C260008A82600082B
:1015F8004F4B1A884F4B1B889A4200F098804C4AF0
:10160800138013F01F0303D14B4A1278012A0BD021
:1016180010B5012B0CD0022B24D0042B3BD0082B67
:1016280053D0102B6AD010BD434B00221A7070475C
:10163800424A1278012AEED13F4A1278002AEAD1AA
:101648003E4B02221A703C4B01221A703C48FFF7AD
:10165800DDFE07203B4B1870FFF766F93A4B002276
:101668001A70E0E7354A1278022AD6D1324A12783F
:10167800002AD2D10124314B1C703448FFF7C6FE32
:101688000620304B1870FFF74FF92F4B00221A70C5
:10169800294B1C70C7E7294A1278012ABFD1264A6C
:1016A8001278002ABBD1254B02221A702848FFF76E
:1016B800ADFE0520234B1870FFF736F9224B0022A8
:1016C8001A701D4B01221A70ADE71C4A1278022AC3
:1016D800A7D1194A1278002AA3D10124174B1C70EC
:1016E8001C48FFF793FE184B00221A700420154B74
:1016F8001870FFF719F9104B1C7094E70F4B1B7803
:10170800012B90D10C4B1B78002B8CD10B4B022258
:101718001A7001240C4B1C700F48FFF777FE03204A
:10172800084B1870FFF700F9034B1C707BE77047F4
:10173800200000204E01002051010020500100200F
:101748007C26000891010020520100207426000820
:101758006C2600085C2600084C26000810B582B0EC
:10176800FFF756FD02210846FFF780FD03210220FE
:10177800FFF77CFD04210220FFF778FD00210220FD
:10178800FFF774FDBE4A536843F0007353600020AE
:10179800FFF78EFDFFF7E4FDFEF7D4FFB94B93E8A2
:1017A80003000090ADF80410002206211046FFF750
:1017B800D9FB002207211046FFF7D4FB002211466F
:1017C8000120FFF7CFFB02220F210020FFF7CAFB01
:1017D800AD48FFF72DFCAD48FFF730FCAC48FFF7EC
:1017E80033FC1FE0AB490A7801320A700133DBB2DF
:1017F800C25C4AB102A9194411F8081C9142F1D0FF
:10180800A44A00211170F1E7A24B1B78052B14D0D4
:1018180008210120FFF7C6FC01281AD09E4B1B782F
:10182800012B2AD0FFF70EFE9C4B18600378002B83
:10183800EAD00023974A1370DAE79948FFF7E6FDE4
:10184800FFF7EAF9944B01221A70924B00221A70A2
:10185800DEE74FF4FA70FFF76BFD9148FFF7D6FD0E
:10186800FFF7DAF98C4B01221A708A4B00221A70A2
:101878004FF4FA70FFF75CFDD0E70E210120FFF767
:1018880091FC012800F08C8004210120FFF78AFCDC
:10189800012800F092800C210120FFF783FC012829
:1018A80000F0938005210120FFF77CFC012800F05F
:1018B800908001210846FFF775FC012800F091800F
:1018C80008210020FFF76EFC012800F09280072114
:1018D8000120FFF767FC012800F093800D2101200B
:1018E800FFF760FC012800F094800B210120FFF72E
:1018F80059FC012800F095800B210020FFF752FCCD
:10190800012800F0968006210120FFF74BFC0128F2
:1019180000F097800C210120FFF744FC012804D136
:10192800604B1B78002B00F094800C210120FFF7FE
:1019380039FC20B95B4B1B78012B00F09080062105
:101948000020FFF72FFC002800F00481002101206F
:10195800FFF728FC002800F01C8105210020FFF774
:1019680021FC012840F035814F4B1B78002B40F0BB
:1019780030814E4B1B78012B40F034814B4B0222B7
:101988001A700123484A1370494A13704948FFF7EF
:101998003DFD0A20FEF7C8FF474B0A221A7021E1D5
:1019A800464B1B78002B7FF46FAF4548FFF72EFDA1
:1019B8004FF4FA70FFF7BCFC66E74248FFF726FDD4
:1019C8004FF4FA70FFF7B4FC65E7364B00221A7043
:1019D80068E73D48FFF71AFD4FF4FA70FFF7A8FCD7
:1019E80067E73A48FFF712FD4FF4FA70FFF7A0FCDB
:1019F80066E73748FFF70AFD4FF4FA70FFF798FCDF
:101A080065E73448FFF702FD4FF4FA70FFF790FCE2
:101A180064E73148FFF7FAFC4FF4FA70FFF788FCE7
:101A280063E72E48FFF7F2FC4FF4FA70FFF780FCEB
:101A380062E72B48FFF7EAFC4FF4FA70FFF778FCEF
:101A480061E72848FFF7E2FC4FF4FA70FFF770FCF3
:101A580060E7144B01221A70FFF744F86FE7114B47
:101A680000221A70FFF772F8134B1B780A2B3ED826
:101A7800DFE803F03A484C3D3D3D3D3D50545800A9
:101A880000000140682700080915000865150008CE
:101A9800A114000860010020610100205C01002001
:101AA800BC260008590100206201002057010020CF
:101AB80058010020542700089001002054010020FC
:101AC800C4260008D0260008D8260008E426000806
:101AD800F4260008002700080C270008142700082F
:101AE80024270008302700080020FEF71DFF4B4B75
:101AF8001B78033B042B3FF622AFDFE803F0171BEC
:101B08001F2327000120FEF70FFFF0E70220FEF752
:101B18000BFFECE70820FEF707FFE8E70920FEF7D0
:101B280003FFE4E70A20FEF7FFFEE0E70320FEF7E5
:101B3800FBFE04E70420FEF7F7FE00E70520FEF7AA
:101B4800F3FEFCE60620FEF7EFFEF8E60720FEF7B8
:101B5800EBFEF4E60721FFF725FB00287FF4F6AE3D
:101B68002F4B1B78012B7FF4F1AE2E4B1B78022BE9
:101B78007FF4ECAE2B4B01221A700024284B1C700A
:101B88002046FEF7D1FE2848FFF740FC274B1C7083
:101B9800DCE60521FFF706FB00287FF4DEAE244BC8
:101BA8001B78012B7FF4D9AE224B1B78022B7FF4D4
:101BB800D4AE1F4B00221A701E4B01221A70092046
:101BC800FEF7B2FE1C48FFF721FC184B09221A70D9
:101BD800C3E605210020FFF7E5FA18B9174B1B7873
:101BE800012B17D0FEF7E6FF154C2080FFF700FD0C
:101BF800238813F0800F3FF415AE124B1B78002B8F
:101C08007FF410AE1048FFF701FC4FF4FA70FFF7AD
:101C18008FFB07E6094B00221A70E3E791010020C9
:101C280056010020550100203C27000890010020A3
:101C380058010020570100204C27000862010020AD
:101C48004E010020540100205C270008014B186851
:101C5800704700BF2400002030B5141E05469BB015
:101C6800184605DA8B234FF0FF302B601BB030BDD0
:101C78004FF40273ADF80C300CBF234604F1FF3368
:101C8800029305934FF6FF7300910491ADF80E305F
:101C980002461E9B6946284600F072F8431CBCBFEA
:101CA8008B232B60002CE1D00022009B1A70DDE70B
:101CB80007B5009313460A46014603480068FFF734
:101CC800CBFF03B05DF804FB240000202DE9F047AA
:101CD8008E6882469E420C469046994637D88A8935
:101CE80012F4906F31D00223256809696F1A65696B
:101CF80005EB450595FBF3F509F101033B449D42CE
:101D080038BF1D46530530D5294600F035FB064639
:101D180050B90C234FF0FF30CAF80030A38943F0C4
:101D28004003A381BDE8F0873A46216900F0B4FA80
:101D3800A38923F4906343F08003A38126613E4482
:101D480026604E466561ED1BA5604E4500D94E469E
:101D580032464146206800F0AAFAA36800209B1B7F
:101D6800A36023681E442660DCE72A4600F05EFB79
:101D780006460028E2D12169504600F0B1FAC8E7CA
:101D88002DE9F04F9DB003938B8980461D060C46C4
:101D980016460FD50B696BB9402100F0EDFA2060AB
:101DA800206128B90C23C8F800304FF0FF30C7E095
:101DB800402363610023099320238DF829303023C1
:101DC8004FF0010B8DF82A3037463D4615F8013B98
:101DD8000BB1252B3ED1B7EB060A0BD05346324642
:101DE80021464046FFF772FF013000F0A480099BAE
:101DF800534409933B78002B00F09D8000234FF05B
:101E0800FF32CDE90523049307938DF853301A93D5
:101E18002F46052217F8011B4F4800F02FFA049BA4
:101E2800D0B9D90644BF20228DF853201A0744BFE1
:101E38002B228DF853202A782A2A15D02F460020E5
:101E48000A25079A394611F8013B303B092B4DD931
:101E5800B8B10FE02F46B8E73F4A3D46801A0BFA63
:101E680000F018430490D3E7039A111D12680391F8
:101E7800002A01DB079204E0524243F00203079272
:101E880004933B782E2B0CD17B782A2B33D1039BE0
:101E980002371A1D1B680392002BB8BF4FF0FF339F
:101EA80005932E4D03223978284600F0E7F938B11A
:101EB8004023401B03FA00F0049B013703430493BB
:101EC8003978062226487E1C8DF8281000F0D6F9AD
:101ED800002838D0234B13BB039B073323F0070399
:101EE80008330393099B4B4409936DE705FB0232C2
:101EF80001200F46A6E700230A2519460137059356
:101F0800384610F8012B303A092A03D9002BC8D0DB
:101F18000591C6E705FB012101230746F0E703AB5E
:101F280000932246104B04A94046AFF30080B0F15D
:101F3800FF3F8146D6D1A3895B063FF536AF0998A6
:101F48001DB0BDE8F08F03AB00932246064B04A9F1
:101F5800404600F081F8EAE7702700087627000875
:101F68007A27000800000000D51C00082DE9F0477A
:101F780091461F468A680B6906469342B8BF1346C6
:101F8800C9F8003091F843200C46DDF8208012B1E2
:101F98000133C9F800302368990642BFD9F80030E8
:101FA8000233C9F80030256815F0060507D104F199
:101FB800190AE368D9F800209B1AAB4229DC94F887
:101FC80043302268003318BF012392062ED404F14F
:101FD800430239463046C047013021D02368E568BE
:101FE80003F00603042B18BF0025D9F800204FF092
:101FF800000908BFAD1AA368226908BF25EAE5757C
:102008009342C4BF9B1AED181A344D451AD10020CB
:1020180008E00123524639463046C047013003D113
:102028004FF0FF30BDE8F0870135C2E73020E118F6
:1020380081F843005A1C94F845102244023382F870
:102048004310C4E70123224639463046C0470130D1
:10205800E6D009F10109D8E72DE9F04301F1430C75
:102068000C46097E85B06E291746064698460C9A96
:1020780000F0B38022D8632936D00AD8002900F0AE
:10208800B980582900F0838004F1420584F8421091
:1020980032E0642901D06929F6D120681368050661
:1020A80003F104012AD51B681160002B03DA2D22E5
:1020B8005B4284F843206F480A2239E0732900F014
:1020C8009D8008D86F2920D07029DDD1236843F07E
:1020D8002003236003E0752917D07829D4D1782309
:1020E800654884F8453055E0136804F14205191D28
:1020F8001B68116084F8423001238CE01B6810F0E3
:10210800400F116018BF1BB2CFE713682568181D70
:102118001060280601D51B6802E06806FBD51B88FD
:102128006F2914BF0A2208225248002184F843105C
:102138006568002DA560C0F29580216821F0040132
:102148002160002B3DD1002D40F08E806546082A85
:102158000BD12368DB0708D5236962689A42DEBF82
:10216800302305F8013C05F1FF35ACEB050323618D
:10217800CDF800803B4603AA21463046FFF7F6FE1D
:1021880001304DD14FF0FF3005B0BDE8F08339483C
:1021980084F84510136821681D1D1B6815600A0620
:1021A8000BD5CA0744BF41F0200121601BB9226842
:1021B80022F0200222601022B7E74D0648BF9BB2EA
:1021C800EFE76546B3FBF2F102FB1133C35C05F898
:1021D800013D0B460029F5D1B9E713682568181D9C
:1021E8006169106028061B6801D5196002E06A065B
:1021F800FBD51980002365462361B9E71368191DCB
:1022080011601D6862680021284600F037F808B19F
:10221800401B606063682361002384F84330A7E7AC
:1022280023692A4639463046C0470130AAD0236878
:102238009B0713D4E068039B9842B8BF1846A3E7EE
:1022480001234A4639463046C04701309AD0013505
:10225800E368039A9B1AAB42F2DCEBE7002504F132
:102268001909F5E7002BACD1037804F1420584F88D
:1022780042306CE7812700089227000810B5C9B2E0
:1022880002449042034601D1002303E01C78013048
:102298008C42F6D1184610BD10B5431E0A4491422F
:1022A80000D110BD11F8014B03F8014FF7E7884240
:1022B80010B501EB020307D8421E99420AD011F863
:1022C800014B02F8014FF8E78342F5D98118D21A79
:1022D800D34200D110BD13F8014D01F8014DF7E7C5
:1022E80038B50546002943D051F8043C0C1F002B93
:1022F800B8BFE41800F0D0F81E4A1368104633B986
:10230800636014602846BDE8384000F0C6B8A342B0
:102318000BD921686218934201BF1A685B6852188A
:10232800226063600460EDE713465A680AB1A2426E
:10233800FAD919685818A0420BD1206801445818D6
:1023480082421960DED110685268014419605A60EF
:10235800D8E702D90C232B60D4E7206821188A42D9
:1023680001BF116852680918216062605C60C9E7A2
:1023780038BD00BF6401002070B5CD1C25F00305F1
:1023880008350C2D38BF0C25002D064601DBA94267
:1023980003D90C233360002070BD00F07DF8214A7A
:1023A8001468214691B9204C23681BB9304600F0C7
:1023B80063F820602946304600F05EF8431C24D1BB
:1023C8000C233046336000F068F8E4E70B685B1BC9
:1023D80018D40B2B0FD90B60CC18CD50304600F019
:1023E8005CF804F10B00231D20F00700C31AD3D0BA
:1023F8005A42E250D0E74B688C4216BF63601360C4
:102408000C46EBE70C464968CCE7C41C24F00304EF
:10241800A04205D0211A304600F02EF80130CFD066
:102428002560DBE76401002068010020F8B5074655
:1024380014460E4621B9BDE8F8401146FFF79CBF87
:1024480022B9FFF74DFF25462846F8BD00F026F8CB
:10245800A0420FD221463846FFF78EFF05460028D6
:10246800F2D031462246FFF717FF31463846FFF7CC
:1024780037FFE9E73546E7E738B50023054C054659
:1024880008462360FDF776FF431C02D1236803B199
:102498002B6038BD6C0100207047704751F8043C30
:1024A800181F002BBCBF0B58C018704753746163CA
:1024B8006B206672616D653A0A0000002052302078
:1024C8003D2020253038580A0000000020523120D5
:1024D8003D2020253038580A0000000020523220C4
:1024E8003D2020253038580A0000000020523320B3
:1024F8003D2020253038580A000000002052313293
:10250800203D20253038580A00000000204C522079
:102518003D2020253038580A000000002050432074
:102528003D2020253038580A000000002050535222
:10253800203D20253038580A000000004653522F0D
:102548004641523A0A0000002043465352203D209B
:1025580020253038580A00002048465352203D2094
:1025680020253038580A00002044465352203D2088
:1025780020253038580A00002041465352203D207B
:1025880020253038580A0000204D4D464152203D44
:1025980020253038580A00002042464152203D206C
:1025A80020253038580A00004D6973630A0000007E
:1025B800204C522F4558435F52455455524E3D20AA
:1025C800253038580A0000005B486172644661751E
:1025D8006C745D0A000000005B4275734661756C9F
:1025E800745D0A005B55736167654661756C745D5F
:1025F8000A000000546865726D616C2C00000000D0
:102608004461792C000000004E464F562C00000013
:1026180046464F562C00000057464F562C000000E7
:102628004C617374204563686F2C00004563686FC4
:10263800204F66662C00000046697273742045635B
:10264800686F2C002A436F617869616C2047756E4A
:10265800230000002A5375622043616C6962657229
:10266800230000002A5361626F7423002A486561C1
:10267800742300002A4869676820457870230000A1
:102688002A546865726D616C230000002A446179E0
:10269800230000002A4C617374204563686F23008F
:1026A8002A4563686F204F66662300002A46464F16
:1026B800562300002A53746172742C002A466F63F3
:1026C80075732B23000000002A4175746F230000E6
:1026D8002A4578706F737572652D23002A46756CCC
:1026E8006C2053637265656E230000002A436F6E89
:1026F80074726173742B23002A436F6E7472617352
:10270800742D23002A436F6C6F7223002A42617470
:10271800746C652052616E67652300002A427269F5
:102728006768742B230000002A4272696768742D59
:10273800230000002A4669727374204563686F237A
:10274800000000002A4E464F562300002A57464FE5
:10275800562300002A466F6375732D23000000007E
:102768005374617274000000232D302B2000686CB4
:102778004C0065666745464700303132333435369C
:1027880037383941424344454600303132333435D5
:0B279800363738396162636465660003
:1027A400785634129400002000000000000000005D
:1027B40000000000010203040607080900A24A04FD
:1027C400FFFFFFFF280000200000000000000000C1
:1027D40000000000000000000000000000000000F5
:1027E40000000000000000000000000000000000E5
:1027F40000000000000000000000000000000000D5
:1028040000000000000000000000000000000000C4
:1028140000000000000000000000000000000000B4
:0C28240000000000000000003254769814
:040000050800010DE1
:00000001FF
