:020000040800F2
:100000000050002021020008270200082B020008EF
:100010009D020008A1020008E9020008000000009B
:100020000000000000000000000000003103000894
:10003000350300080000000039030008D912000849
:100040004D0300084D0300084D0300084D03000850
:100050004D0300084D030008750E0008850E0008CA
:10006000950E0008A50E0008B50E00084D03000807
:100070004D0300084D0300084D0300084D03000820
:100080004D0300084D0300084D0300084D03000810
:100090004D0300084D0300084D030008C50E00087D
:1000A0004D0300084D0300084D0300084D030008F0
:1000B0004D0300084D0300084D0300084D030008E0
:1000C0004D0300084D0300084D0300084D030008D0
:1000D0004D0300084D0300084D0300084D030008C0
:1000E000D50E00084D0300084D0300080000000075
:1000F0000000000000000000000000000000000000
:1001000000000000000000005FF808F100B583B0B7
:1001100000F0AAF9304B314A1360314A1360314B79
:10012000314A32498B4204D21168196004330432D7
:10013000F7E72A4B1A682E4B9A4200D0FEE7284B6D
:100140001A682C4B9A42F9D1234B2B4A13602B4A45
:1001500013602B4B02E000221A600433294A9342B9
:10016000F9D3254B1B6813B9244B1B6803B1FEE779
:1001700000F086F9694601A800F022F9224C234BD1
:10018000E41AA4100025AC4214DC214C214BE41AE3
:10019000A4100025AC4213DC0099019801F0E8F9A5
:1001A00005461D4C1D4BE41AA410002C0EDC2846FD
:1001B00000F0E2F8154B53F8253098470135E2E797
:1001C000144B53F8253098470135E3E7013C134BB6
:1001D00053F824309847E8E7BABADECA0000002096
:1001E00084000020000000207827000888000020FC
:1001F00078563412325476988800002090010020FE
:10020000880000209401002078030008780300088B
:1002100078030008780300087803000878030008D2
:1002200008B5FFF773FF00BEFEE71EF0040F0CBF1A
:10023000EFF30880EFF309807146414A10472DE93A
:10024000F04182B004468846124B5E6B9F6B9D6AFC
:100250001B6B13F0020F03D00E4BDB6A002B0CDB81
:100260000D4800F0B5F8CDF800803B4632462946EF
:10027000204600F009F900BEFEE74BF6AB6100F046
:100280007DF90028ECD0034B4FF00042DA6202B057
:10029000BDE8F08100ED00E08825000800BEFEE723
:1002A0001EF0040F0CBFEFF30880EFF309807146D6
:1002B000244A10472DE9F04182B004468846084B95
:1002C0005E6B9F6B9D6A074800F082F8CDF8008056
:1002D0003B4632462946204600F0D6F800BEFEE7EF
:1002E00000ED00E0982500081EF0040F0CBFEFF3AE
:1002F0000880EFF309807146134A10472DE9F04159
:1003000082B004468846084B5E6B9F6B9D6A074827
:1003100000F05EF8CDF800803B4632462946204684
:1003200000F0B2F800BEFEE700ED00E0A4250008F2
:1003300000BEFEE700BEFEE700BEFEE7704700001D
:100340003F020008B5020008FD02000800BEFEE7FB
:100350007827000800000020880000207827000887
:100360000000000000000000880000209401002030
:08037000000000000000000085
:10037800FEE7000008B503460C4A12685AB10B4A5A
:100388001068033323F003030344094A934206D851
:10039800064A136008BD054A06491160EFE701F0F7
:1003A80031FC0C2303604FF0FF30F3E78C00002092
:1003B800004C00209401002001230360014B0B60D6
:1003C800704700BF040000200FB400B583B004AB31
:1003D80053F8042B01938021064801F045FC0028BE
:1003E80003DD0146034800F037F803B05DF804EB7D
:1003F80004B07047940000202DE9F04385B004460E
:100408000F4643560BB10E461EE0042528462146EA
:10041800ABBE0446384605B0BDE8F08314F9011BAD
:1004280004AA1A4402F8101C0133AB42F6D304AAFA
:100438001344002203F8102C4FF00408E946404604
:100448004946ABBE8046761B002EE3D03546102EBB
:1004580028BF10250023E8E708B5FFF7CDFF08BD42
:1004680008B500F0FDF8024A024B9A6008BD00BFCB
:100478000000000800ED00E008B500F019F908BD1B
:10048800F8B504460D4617461E462748FFF79CFF59
:1004980021682648FFF798FF61682548FFF794FF11
:1004A800A1682448FFF790FFE1682348FFF78CFF15
:1004B80021692248FFF788FF61692148FFF784FF17
:1004C800A1692048FFF780FFE1691F48FFF77CFF1B
:1004D8001E48FFF779FF29461D48FFF775FF1D4C99
:1004E800E16A1D48FFF770FF216B1C48FFF76CFF9E
:1004F800E16B1B48FFF768FF15F0800F0AD115F470
:10050800004F0CD11748FFF75FFF06991648FFF711
:100518005BFFF8BD39461548FFF756FFEFE7314650
:100528001348FFF751FFEDE76C2400087C2400080E
:100538008C2400089C240008AC240008BC24000873
:10054800CC240008DC240008EC240008FC24000863
:100558000825000800ED00E01825000828250008F7
:100568003825000868250008702500084825000877
:100578005825000883691A888A4201D000207047EC
:100588000268033A012A03D80233836101207047C5
:100598000020704782B00023019300932C4A13680F
:1005A80043F4803313602A4B1B6803F40033009331
:1005B800019B01330193009B1BB9019BB3F5A06F0D
:1005C800F1D1234B1B6813F4003F06D0012300939D
:1005D800009B012B04D002B0704700230093F7E77B
:1005E8001C4B1A6842F010021A601A6822F00302C3
:1005F8001A601A6842F002021A60A3F580535A681A
:100608005A605A685A605A6842F480625A605A6856
:1006180022F47C125A605A6842F4E8125A601A6846
:1006280042F080721A600A4B1B6813F0007FFAD000
:10063800074B5A6822F003025A605A6842F00202D5
:100648005A60034B5B6803F00C03082BF9D1C2E72F
:10065800001002400020024008B5FFF79BFF08BDCC
:1006680008B5104B1A6842F001021A6059680E4A20
:100678000A405A601A6822F0847222F480321A60A2
:100688001A6822F480221A605A6822F4FE025A601C
:100698004FF41F029A60FFF7DFFF044B4FF0006230
:1006A8009A6008BD001002400000FFF800ED00E06D
:1006B8001F4B5B6803F00C03042B15D0082B17D0D5
:1006C8001BB11C4B1C4A1A6002E01A4B1A4A1A60EA
:1006D800174B5B68C3F30313184AD35CDAB21549A6
:1006E8000B68D3400B607047124B134A1A60EFE750
:1006F8000F4A53685268C3F38343023312F4803FAE
:100708000AD00B4A526812F4003F0BD00C4A02FB85
:1007180003F3084A1360DBE7094A02FB03F3054ABF
:100728001360D5E7044A02FB03F3024A1360CFE7DC
:10073800001002401C00002000127A000C0000206B
:1007480000093D0008B508220421002000F03EFC05
:1007580008220621002000F039FC08220721002089
:1007680000F034FC00220621104600F09DFC002217
:100778000721104600F098FC01220221002000F019
:1007880025FC01220321002000F020FC01220C217D
:10079800002000F01BFC01220021084600F016FC96
:1007A80008220521002000F011FC08221146002033
:1007B80000F00CFC08220B21002000F007FC0822A6
:1007C8000F21002000F002FC00221146104600F024
:1007D8006BFC00220521104600F066FC002208216F
:1007E800104600F061FC00220B21104600F05CFC72
:1007F80000220F21104600F057FC01220321104669
:1008080000F0E4FB01220921104600F0DFFB012281
:100818000D21022000F0DAFB01220E21022000F057
:10082800D5FB01220F21022000F0D0FB0822002175
:10083800012000F0CBFB08220121084600F0C6FB8E
:1008480008221146012000F0C1FB002211460120B8
:1008580000F02AFC00220121084600F025FC0022B5
:100868000821012000F020FC08220421012000F0CA
:10087800ADFB00220421012000F016FC082205210E
:10088800012000F0A3FB00220521012000F00CFC50
:1008980008220621012000F099FB002206210120F0
:1008A80000F002FC08220721012000F08FFB002243
:1008B8000721012000F0F8FB01220A21104600F070
:1008C80085FB08220B21012000F080FB00220B2170
:1008D800012000F0E9FB08220C21012000F076FB42
:1008E80000220C21012000F0DFFB08220D2101204D
:1008F80000F06CFB00220D21012000F0D5FB08223E
:100908000E21012000F062FB00220E21012000F0E0
:10091800CBFB01220F21104600F058FB01221146A3
:10092800002000F053FB08BD08B50A2811D8DFE8FD
:1009380000F006111C27415B758FA9B9C900012277
:100948000021084600F0B0FB00220C21104600F000
:10095800ABFB08BD01220C21002000F0A5FB002202
:100968001146104600F0A0FBF3E700220C211046C8
:1009780000F09AFB00221146104600F095FBE8E7CC
:1009880000220321012000F08FFB012209211046DB
:1009980000F08AFB00220D21022000F085FB0022D6
:1009A8000E21022000F080FB00220F21022000F01F
:1009B8007BFBCEE700220321012000F075FB00221B
:1009C8000921012000F070FB01220D21022000F016
:1009D8006BFB00220E21022000F066FB00220F2193
:1009E800022000F061FBB4E700220321012000F09F
:1009F8005BFB00220921012000F056FB00220D219B
:100A0800022000F051FB01220E21022000F04CFBD5
:100A180000220F21022000F047FB9AE70022032161
:100A2800012000F041FB00220921012000F03CFBDD
:100A380000220D21022000F037FB00220E210220A7
:100A480000F032FB01220F21022000F02DFB80E78D
:100A580001220321104600F027FB00220921012072
:100A680000F022FB00220D21022000F01DFB0022D5
:100A78000E21022000F018FB00220F21022000F0B6
:100A880013FB66E700220121104600F00DFB00224F
:100A98000A21012000F008FB01220F21104600F076
:100AA80003FB56E701221146002000F0FDFA002260
:100AB8000A21012000F0F8FA00220F21012000F09D
:100AC800F3FA46E700220121104600F0EDFA012270
:100AD8000A21104600F0E8FA00220F21012000F058
:100AE800E3FA36E708B501220321104600F0DCFAE4
:100AF80001220921104600F0D7FA01220D21022017
:100B080000F0D2FA01220E21022000F0CDFA0122D3
:100B18000F21022000F0C8FA01220021084600F047
:100B2800C3FA01220C21002000F0BEFA012211466E
:100B3800002000F0B9FA01220A21104600F0B4FAA8
:100B480001220F21104600F0AFFA08BD08B50022B7
:100B58000321012000F0A8FA00220921012000F059
:100B6800A3FA00220D21022000F09EFA00220E2195
:100B7800022000F099FA00220F21022000F094FAD6
:100B880001220021084600F08FFA00220C211046AD
:100B980000F08AFA00220121104600F085FA0022AE
:100BA8000A21012000F080FA00220F21012000F024
:100BB8007BFA08BD38B500220321104600F074FA0C
:100BC800012000F071FB01220321002000F06CFAE3
:100BD80000252C4616E06400A4B20421002000F091
:100BE8009DFA80B2044301220221002000F05CFA41
:100BF800012000F059FB00220221104600F054FAAF
:100C08000135EDB2072DE6D900220221104600F089
:100C18004BFA204638BD000038B5FFF7CBFF054634
:100C280000240AE00320FFF77FFE7E4B03221A70A0
:100C38007D4B01221A700134E4B2042C3FD845FAE6
:100C480004F313F0010FF6D0042CF4D801A353F8E1
:100C580024F000BFB30C00089F0C00088B0C0008A0
:100C6800710C00082D0C00080420FFF75DFE6D4B89
:100C780004221A706D4B00221A706B4B02221A70F4
:100C8800D9E70520FFF750FE664B05221A70664B20
:100C980001221A70CFE70620FFF746FE614B0622B5
:100CA8001A70614B02221A70C5E70720FFF73CFE55
:100CB8005C4B07221A705C4B01221A70BBE70F21AC
:100CC800002000F02BFA012811D00F21002000F09D
:100CD80025FAA8B10021012000F020FAC8B10021AE
:100CE800012000F01BFA012827D0052452E05048C3
:100CF80000F048FB00234F4A13704F4A1370E4E793
:100D08004E4800F03FFB01234A4A13704A4A1370C9
:100D1800E0E7052100F002FA0028E0D10124484B61
:100D28001C70484800F02EFB0920FFF7FDFD464BDC
:100D38001C703C4B09221A70D1E73E4B1B7843B11B
:100D4800012BD2D13E4B02221A703F4B01221A705E
:100D5800CBE73B4B02221A703B4B01221A703B48EF
:100D680000F010FB0820FFF7DFFD2E4B08221A7059
:100D7800BBE7374800F006FB0A20FFF7D5FD324BEA
:100D880001221A702E4B02221A70264B0A221A7060
:100D98000134E4B2072C2AD82146002000F0BEF91D
:100DA8000128F5D1062C13D0072C02D0052CEFD141
:100DB800DFE7284800F0E6FA0120FFF7B5FD264BEB
:100DC80002221A700123254A1370254A1370DFE79F
:100DD800244800F0D7FA0220FFF7A6FD02231E4A96
:100DE80013701E4A13701E4B01221A70D0E7062199
:100DF800002000F093F900B138BD072100F08EF90A
:100E08000028F9D1184800F0BDFA0020FFF78CFD42
:100E18000123114A1370114A00211170104A1370EE
:100E2800EAE700BF8D0100204C0100204D010020A1
:100E3800B42500084F0100204E010020C0250008FD
:100E480052010020C825000853010020D0250008C1
:100E5800D8250008E0250008500100208C0100205A
:100E680051010020EC250008F825000808B5024BC0
:100E78001B68984708BD00BF7C01002008B5024BDD
:100E88001B68984708BD00BF7001002008B5024BD9
:100E98001B68984708BD00BF7801002008B5024BC1
:100EA8001B68984708BD00BF6C01002008B5024BBD
:100EB8001B68984708BD00BF7401002008B5024BA5
:100EC8001B68984708BD00BF8001002008B5024B89
:100ED8001B68984708BD00BF84010020F8B5054687
:100EE8000C4616460021022000F07CF9A308274A88
:100EF800023352F823104FEA840C0F2707FA0CF735
:100F080021EA070142F8231052F8230005FA0CF5EC
:100F1800284342F82300012E1AD096B1022E1ED083
:100F28001B490B680122A24013430B60042C20D9F3
:100F3800631FDBB2042B21D90A3CE4B2052C21D96A
:100F4800F8BD13498B680122A24013438B60E7E781
:100F58000F49CB680122A2401343CB60E0E70C4A5B
:100F680091680123A34019439160D1680B43D36072
:100F7800D6E7A01DC0B200F0F1F8E1E7172000F0B5
:100F8800EDF8DDE7282000F0E9F8D9E70000014096
:100F98000004014003494B69012202FA00F00343AF
:100FA8004B61704700040140014B1860704700BF57
:100FB8007C010020014B1860704700BF80010020B1
:100FC800014B1860704700BF8401002010B4072946
:100FD80030D8012812D018B102281DD010BC704793
:100FE8002E4B186889000F248C4020EA04001860F2
:100FF800186802FA01F101431960EFE7284B1868F5
:1010080089000F248C4020EA04001860186802FA4E
:1010180001F101431960E1E7224B186889000F24A8
:101028008C4020EA04001860186802FA01F10143B4
:101038001960D3E70F29D1D80839C9B201281ED0C1
:1010480078B10228CAD1174844688B000F2199400B
:1010580024EA01014160446802FA03F12143416036
:10106800BCE70E4B58688C000F21A14020EA010113
:101078005960586802FA04F101435960AEE7084B19
:101088005C6888000F21814024EA010159605C688E
:1010980002FA00F121435960A0E700BF00080140AF
:1010A800000C014000100140CAB1012A2ED10128CC
:1010B80009D010B102280CD07047012303FA01F1BE
:1010C800134B19617047012303FA01F1114B1961A0
:1010D8007047012303FA01F10F4B1961704701288A
:1010E80009D010B102280CD07047012303FA01F18E
:1010F800074B59617047012303FA01F1054B596108
:101108007047012303FA01F1034B5961704700BF8F
:1011180000080140000C01400010014001280AD0DD
:1011280018B102280DD000207047094B9868C840B4
:1011380000F001007047074B9868C84000F00100B4
:101148007047054B9868C84000F00100704700BF21
:1011580000080140000C0140001001401F2809D977
:101168002038C0B21B2804D8012303FA00F0044B2E
:1011780018607047012303FA00F0024B18607047AB
:1011880004E100E000E100E0154B1A6842F4002297
:101198001A605A6842F480325A605A6842F48022CF
:1011A8005A605A6842F400225A605A6842F480121F
:1011B8005A605A6822F400125A605A6822F00102F2
:1011C8005A605A6842F002025A601A6842F0807205
:1011D8001A60034B1B6813F0007FFAD0704700BFFA
:1011E800001002401F291CD801280BD010B102287A
:1011F80010D070470B484369012202FA01F11943E4
:10120800416170470748C369012202FA01F1194395
:10121800C161704703488369012202FA01F1194349
:10122800816170470010024000230A4A13600432AB
:101238006FF07F4111600432136010B1012804D0AF
:101248007047044B05221A607047024B07221A6048
:10125800704700BF10E000E001FB00F14FF47A7323
:1012680003FB01F1B1F1807F07D3074B6FF07F4299
:101278001A60043300221A607047034B1960043364
:1012880000221A60704700BF14E000E008B5012191
:101298004820FFF7E1FF034B1B6813F4803FFAD0A7
:1012A80008BD00BF10E000E038B50546002402E0A4
:1012B800FFF7ECFF0134AC42FAD338BD034B1B688F
:1012C8001BB1024A1368013B136070478801002074
:1012D80008B5FFF7F3FF08BD10B50E210220FFF790
:1012E80081FF02210846FFF77DFF00210220FFF75A
:1012F80079FF0024174B1C600C331A6822F48052C3
:101308001A60154A116821F480511160116821F49E
:10131800005111601A6842F008021A601A6842F017
:1013280004021A600D4A41F6415111601A6842F4EC
:1013380000521A60092211462046FFF747FE042290
:101348000A212046FFF742FE01220A212046FFF724
:10135800ABFE10BD00380140143801400838014088
:10136800064A136823F040031360054B1860034BCB
:101378001B6813F0400FFAD0704700BF00380140D7
:101388000438014038B50546002402E0FFF7E8FFBD
:101398000134285D0028F9D138BD0000054B1B68D1
:1013A80013F0200F04D0044B1B6803700120704712
:1013B80000207047003801400438014000B583B070
:1013C8000DF10700FFF7EAFFC8B19DF807300A2BB7
:1013D8000CD00D2B0AD00C4A1278302A11D8501C88
:1013E8000949087009498B54002005E0064B197813
:1013F8000648002242541A7003B05DF804FB00202E
:10140800FAE70020F8E700BF1401002018010020C7
:1014180008B50F210020FFF781FE012807D010B979
:10142800114B1B789BB10F20FFF7B4FD08BD0E4B85
:101438001B78012BF3D10D48FFF7A4FF0A20FFF713
:1014480033FF00230A4A1370074A1370EBE7094871
:10145800FFF798FF0A20FFF727FF0123044A1370BC
:10146800014A1370DFE700BF4E0100200426000880
:101478004F0100201026000808B5114B1B78B3B99E
:10148800104B1B78012B03D00020FFF783FD08BD0C
:101498000C4B02221A700C4B01221A700B48FFF7F2
:1014A80071FF08200A4B1870FFF73EFAECE7012B92
:1014B800EAD1044B02221A70034B01221A70E3E7A7
:1014C8004F0100205201002053010020302600085F
:1014D8008C01002010B506210020FFF71FFE0446EE
:1014E80007210020FFF71AFE012808D0012C19D087
:1014F8000620FFF74FFD0720FFF74CFD10BD154BE9
:101508001B78012BF2D1134B02221A700124124BC3
:101518001C702046FFF708FA104B1C701048FFF7A4
:1015280031FFE5E70C4B1B78002BE1D1094B1B7809
:10153800012BDDD10224074B1C70074B01221A70C6
:101548002046FFF7F1F9054B1C700648FFF71AFF14
:10155800CEE700BF50010020510100208C0100207F
:10156800182600082426000810B582B0FFF70CFEE4
:1015780002210846FFF736FE03210220FFF732FE5C
:1015880004210220FFF72EFE00210220FFF72AFE89
:10159800C24A536843F0007353600020FFF744FECB
:1015A800FFF79AFEFFF7CEF8BD4B93E803000090D3
:1015B800ADF80410002206211046FFF78FFC002228
:1015C80007211046FFF78AFC002211460120FFF789
:1015D80085FC02220F210020FFF780FCB148FFF7AD
:1015E800E3FCB148FFF7E6FCB048FFF7E9FC1FE071
:1015F800AF490A7801320A700133DBB2C25C4AB1E2
:1016080002A9194411F8081C9142F1D0A84A0021F6
:101618001170F1E7A64B1B78052B14D0A548FFF7EE
:10162800B1FEA54B00221A70A34B1B78012B13D0D7
:10163800FFF7C4FEA14B18600378002BF4D00023F9
:101648009B4A1370DAE79E48FFF79CFEFFF7E4FA1F
:10165800994B01221A70E7E70E210120FFF75EFD82
:10166800012800F09A8004210120FFF757FD012886
:1016780000F0A0800C210120FFF750FD012800F0A8
:10168800A18005210120FFF749FD012800F09E8077
:1016980008210120FFF742FD012800F09F80012169
:1016A8000846FFF73BFD012800F0A0800821002034
:1016B800FFF734FD012800F0A18007210120FFF782
:1016C8002DFD012800F0A28001210846FFF726FD24
:1016D800012800F0A3800D210120FFF71FFD01283C
:1016E80000F0A4800B210120FFF718FD012800F06D
:1016F800A5800B210020FFF711FD012800F0A6802E
:1017080006210120FFF70AFD012800F0A7800C211F
:101718000120FFF703FD012804D16A4B1B78002B39
:1017280000F0A4800C210120FFF7F8FC20B9654BDC
:101738001B78012B00F0A08006210020FFF7EEFCAB
:10174800002800F0198100210120FFF7E7FC00289C
:1017580000F0318105210020FFF7E0FC012840F06E
:101768004A81594B1B78002B40F04581574B1B7819
:10177800012B40F04A81554B02221A700123524A2C
:101788001370534A13705348FFF7FCFD0A20FFF704
:10179800CBF8514B0A221A7037E1504B1B78002BBB
:1017A8007FF461AF4E48FFF7EDFD4FF4FA70FFF795
:1017B8007BFD58E74B48FFF7E5FD4FF4FA70FFF75C
:1017C80073FD57E73F4B00221A705AE74648FFF768
:1017D800D9FD4FF4FA70FFF767FD59E74348FFF763
:1017E800D1FD4FF4FA70FFF75FFD58E74048FFF767
:1017F800C9FD4FF4FA70FFF757FD57E73D48FFF76B
:10180800C1FD4FF4FA70FFF74FFD56E73A48FFF76E
:10181800B9FD4FF4FA70FFF747FD55E73448FFF775
:10182800B1FD4FF4FA70FFF73FFD54E73348FFF777
:10183800A9FD4FF4FA70FFF737FD53E73048FFF77B
:10184800A1FD4FF4FA70FFF72FFD52E72D48FFF77F
:1018580099FD4FF4FA70FFF727FD51E72A48FFF783
:1018680091FD4FF4FA70FFF71FFD50E7154B012269
:101878001A70FFF737F95FE7124B00221A70FFF76B
:1018880065F9154B1B780A2B43D8DFE803F03F4D69
:1018980051424242424255595D0000BF000001409A
:1018A8003C27000881140008DD14000819140008FA
:1018B8005C010020402600085D010020580100203E
:1018C80038260008540100205E0100205201002043
:1018D80053010020EC2600088C0100204F01002055
:1018E800502600085C2600086426000870260008B8
:1018F8007C2600088C26000898260008A4260008E4
:10190800AC260008BC260008C82600080020FFF7FF
:101918000BF8A84B1B78033B042B3FF60DAFDFE811
:1019280003F0171B1F2327000120FEF7FDFFF0E738
:101938000220FEF7F9FFECE70820FEF7F5FFE8E7DD
:101948000920FEF7F1FFE4E70A20FEF7EDFFE0E7E4
:101958000320FEF7E9FFEFE60420FEF7E5FFEBE6DC
:101968000520FEF7E1FFE7E60620FEF7DDFFE3E6E8
:101978000720FEF7D9FFDFE60721FFF7CFFB002896
:101988007FF4E1AE8C4B1B78012B7FF4DCAE8B4BE4
:101998001B78022B7FF4D7AE884B01221A700024E3
:1019A800854B1C702046FEF7BFFF8548FFF7EAFC11
:1019B800844B1C70C7E60521FFF7B0FB00287FF4B5
:1019C800C9AE814B1B78012B7FF4C4AE7F4B1B78CB
:1019D800022B7FF4BFAE7C4B00221A707B4B012296
:1019E8001A700920FEF7A0FF7948FFF7CBFC754B6A
:1019F80009221A70AEE605210020FFF78FFB20B9F7
:101A0800744B1B78012B00F08A80FFF7D3F8724BD8
:101A1800188010F0800F04D0704B1B78002B00F05A
:101A280082806D4B1B8813F0010F0FD013F0020F4B
:101A38000CD113F0040F09D113F0080F06D113F0DD
:101A4800100F03D1664B1B78012B74D0624B1B8897
:101A580013F0010F0FD113F0020F0CD013F0040F85
:101A680009D113F0080F06D113F0100F03D15C4B06
:101A78001B78022B6ED0584B1B8813F0010F0FD127
:101A880013F0020F0CD113F0040F09D013F0080F54
:101A980006D113F0100F03D1514B1B78012B6AD0DC
:101AA8004D4B1B8813F0010F0FD113F0020F0CD10F
:101AB80013F0040F09D113F0080F06D013F0100F1C
:101AC80003D1474B1B78022B64D0434B1B8813F080
:101AD800010F7FF4ADAD13F0020F7FF4A9AD13F041
:101AE800040F7FF4A5AD13F0080F7FF4A1AD13F038
:101AF800100F3FF49DAD3A4B1B78012B7FF498AD46
:101B0800374B02221A70374B01221A703648FFF7FA
:101B180039FC0320274B1870FEF706FF88E52D4B8C
:101B280000221A7071E73148FFF72CFC4FF4FA7065
:101B3800FFF7BAFB75E72A4B02221A702C48FFF709
:101B480021FC07201B4B1870FEF7EEFE254B0022E8
:101B58001A707BE7224B01221A702648FFF712FC05
:101B68000620144B1870FEF7DFFE00231D4A137081
:101B7800214A13707FE71A4B02221A701F48FFF799
:101B880001FC05200B4B1870FEF7CEFE154B00220A
:101B98001A7085E7124B01221A701948FFF7F2FBF9
:101BA800104B00221A700420024B1870FEF7BCFE7E
:101BB8008BE700BF8D01002051010020500100205B
:101BC800D42600088C010020530100205201002077
:101BD800E42600085E0100204A0100204F01002091
:101BE8004C0100204D0100202C270008F426000895
:101BF800002700080C2700085F01002014270008B0
:101C08001C270008014B1868704700BF20000020FF
:101C180030B5141E05469BB0184605DA8B234FF0E5
:101C2800FF302B601BB030BD4FF40273ADF80C30A1
:101C38000CBF234604F1FF33029305934FF6FF735D
:101C480000910491ADF80E3002461E9B6946284665
:101C580000F072F8431CBCBF8B232B60002CE1D032
:101C68000022009B1A70DDE707B5009313460A4669
:101C7800014603480068FFF7CBFF03B05DF804FB9B
:101C8800200000202DE9F0478E6882469E420C46CF
:101C98009046994637D88A8912F4906F31D002233A
:101CA800256809696F1A656905EB450595FBF3F524
:101CB80009F101033B449D4238BF1D46530530D509
:101CC800294600F035FB064650B90C234FF0FF308B
:101CD800CAF80030A38943F04003A381BDE8F08728
:101CE8003A46216900F0B4FAA38923F4906343F0DB
:101CF8008003A38126613E4426604E466561ED1B44
:101D0800A5604E4500D94E4632464146206800F04F
:101D1800AAFAA36800209B1BA36023681E442660C0
:101D2800DCE72A4600F05EFB06460028E2D121697E
:101D3800504600F0B1FAC8E72DE9F04F9DB0039383
:101D48008B8980461D060C4616460FD50B696BB964
:101D5800402100F0EDFA2060206128B90C23C8F872
:101D680000304FF0FF30C7E0402363610023099340
:101D780020238DF8293030234FF0010B8DF82A30BD
:101D880037463D4615F8013B0BB1252B3ED1B7EB45
:101D9800060A0BD05346324621464046FFF772FFEB
:101DA800013000F0A480099B534409933B78002B31
:101DB80000F09D8000234FF0FF32CDE90523049306
:101DC80007938DF853301A932F46052217F8011BF5
:101DD8004F4800F02FFA049BD0B9D90644BF2022FF
:101DE8008DF853201A0744BF2B228DF853202A78E8
:101DF8002A2A15D02F4600200A25079A394611F8B5
:101E0800013B303B092B4DD9B8B10FE02F46B8E75D
:101E18003F4A3D46801A0BFA00F018430490D3E776
:101E2800039A111D12680391002A01DB079204E04E
:101E3800524243F00203079204933B782E2B0CD1B5
:101E48007B782A2B33D1039B02371A1D1B68039218
:101E5800002BB8BF4FF0FF3305932E4D032239787E
:101E6800284600F0E7F938B14023401B03FA00F098
:101E7800049B0137034304933978062226487E1CC5
:101E88008DF8281000F0D6F9002838D0234B13BB62
:101E9800039B073323F0070308330393099B4B4441
:101EA80009936DE705FB023201200F46A6E70023E0
:101EB8000A25194601370593384610F8012B303AA0
:101EC800092A03D9002BC8D00591C6E705FB0121D3
:101ED80001230746F0E703AB00932246104B04A901
:101EE8004046AFF30080B0F1FF3F8146D6D1A389C9
:101EF8005B063FF536AF09981DB0BDE8F08F03AB20
:101F080000932246064B04A9404600F081F8EAE710
:101F1800442700084A2700084E2700080000000050
:101F28008D1C00082DE9F04791461F468A680B6909
:101F380006469342B8BF1346C9F8003091F84320CB
:101F48000C46DDF8208012B10133C9F8003023684F
:101F5800990642BFD9F800300233C9F80030256825
:101F680015F0060507D104F1190AE368D9F800202D
:101F78009B1AAB4229DC94F843302268003318BF1F
:101F8800012392062ED404F1430239463046C04755
:101F9800013021D02368E56803F00603042B18BF3D
:101FA8000025D9F800204FF0000908BFAD1AA36832
:101FB800226908BF25EAE5759342C4BF9B1AED184C
:101FC8001A344D451AD1002008E0012352463946FB
:101FD8003046C047013003D14FF0FF30BDE8F087ED
:101FE8000135C2E73020E11881F843005A1C94F803
:101FF80045102244023382F84310C4E701232246E5
:1020080039463046C0470130E6D009F10109D8E722
:102018002DE9F04301F1430C0C46097E85B06E2989
:102028001746064698460C9A00F0B38022D86329D2
:1020380036D00AD8002900F0B980582900F08380EA
:1020480004F1420584F8421032E0642901D069297C
:10205800F6D120681368050603F104012AD51B6828
:102068001160002B03DA2D225B4284F843206F486D
:102078000A2239E0732900F09D8008D86F2920D002
:102088007029DDD1236843F02003236003E075291C
:1020980017D07829D4D17823654884F8453055E09D
:1020A800136804F14205191D1B68116084F8423059
:1020B80001238CE01B6810F0400F116018BF1BB2A1
:1020C800CFE713682568181D1060280601D51B681E
:1020D80002E06806FBD51B886F2914BF0A22082274
:1020E8005248002184F843106568002DA560C0F2AD
:1020F8009580216821F004012160002B3DD1002D3D
:1021080040F08E806546082A0BD12368DB0708D586
:10211800236962689A42DEBF302305F8013C05F165
:10212800FF35ACEB05032361CDF800803B4603AADD
:1021380021463046FFF7F6FE01304DD14FF0FF3013
:1021480005B0BDE8F083394884F845101368216864
:102158001D1D1B6815600A060BD5CA0744BF41F050
:10216800200121601BB9226822F02002226010227F
:10217800B7E74D0648BF9BB2EFE76546B3FBF2F100
:1021880002FB1133C35C05F8013D0B460029F5D16C
:10219800B9E713682568181D6169106028061B686F
:1021A80001D5196002E06A06FBD51980002365464F
:1021B8002361B9E71368191D11601D686268002161
:1021C800284600F037F808B1401B60606368236157
:1021D800002384F84330A7E723692A463946304666
:1021E800C0470130AAD023689B0713D4E068039B3B
:1021F8009842B8BF1846A3E701234A4639463046F5
:10220800C04701309AD00135E368039A9B1AAB4264
:10221800F2DCEBE7002504F11909F5E7002BACD156
:10222800037804F1420584F842306CE7552700082A
:102238006627000810B5C9B202449042034601D18E
:10224800002303E01C7801308C42F6D1184610BDFB
:1022580010B5431E0A44914200D110BD11F8014B3C
:1022680003F8014FF7E7884210B501EB020307D8DE
:10227800421E99420AD011F8014B02F8014FF8E7C3
:102288008342F5D98118D21AD34200D110BD13F870
:10229800014D01F8014DF7E738B50546002943D04F
:1022A80051F8043C0C1F002BB8BFE41800F0D0F81C
:1022B8001E4A1368104633B9636014602846BDE8A7
:1022C800384000F0C6B8A3420BD92168621893427F
:1022D80001BF1A685B685218226063600460EDE70A
:1022E80013465A680AB1A242FAD919685818A04286
:1022F8000BD120680144581882421960DED1106859
:102308005268014419605A60D8E702D90C232B603F
:10231800D4E7206821188A4201BF11685268091859
:10232800216062605C60C9E738BD00BF60010020C1
:1023380070B5CD1C25F0030508350C2D38BF0C25CC
:10234800002D064601DBA94203D90C233360002087
:1023580070BD00F07DF8214A1468214691B9204CDF
:1023680023681BB9304600F063F8206029463046E0
:1023780000F05EF8431C24D10C233046336000F093
:1023880068F8E4E70B685B1B18D40B2B0FD90B60BC
:10239800CC18CD50304600F05CF804F10B00231D3A
:1023A80020F00700C31AD3D05A42E250D0E74B6856
:1023B8008C4216BF636013600C46EBE70C46496815
:1023C800CCE7C41C24F00304A04205D0211A3046EF
:1023D80000F02EF80130CFD02560DBE76001002047
:1023E80064010020F8B5074614460E4621B9BDE839
:1023F800F8401146FFF79CBF22B9FFF74DFF25466D
:102408002846F8BD00F026F8A0420FD221463846EB
:10241800FFF78EFF05460028F2D031462246FFF727
:1024280017FF31463846FFF737FFE9E73546E7E754
:1024380038B50023054C054608462360FDF79AFF8A
:10244800431C02D1236803B12B6038BD680100200A
:102458007047704751F8043C181F002BBCBF0B583D
:10246800C0187047537461636B206672616D653A7A
:102478000A000000205230203D2020253038580A1C
:1024880000000000205231203D2020253038580A15
:1024980000000000205232203D2020253038580A04
:1024A80000000000205233203D2020253038580AF3
:1024B8000000000020523132203D20253038580AD3
:1024C80000000000204C52203D2020253038580ABA
:1024D80000000000205043203D2020253038580AB5
:1024E8000000000020505352203D20253038580A63
:1024F800000000004653522F4641523A0A0000009D
:102508002043465352203D2020253038580A0000E9
:102518002048465352203D2020253038580A0000D4
:102528002044465352203D2020253038580A0000C8
:102538002041465352203D2020253038580A0000BB
:10254800204D4D464152203D20253038580A000084
:102558002042464152203D2020253038580A0000AC
:102568004D6973630A000000204C522F4558435FA1
:1025780052455455524E3D20253038580A00000027
:102588005B486172644661756C745D0A0000000006
:102598005B4275734661756C745D0A005B557361C7
:1025A80067654661756C745D0A0000005468657261
:1025B8006D616C2C000000004461792C0000000063
:1025C8004D464F562C0000004E464F562C0000003A
:1025D80057464F562C0000004C61737420456368C1
:1025E8006F2C00004563686F204F66662C00000062
:1025F8004669727374204563686F2C002A546865B5
:10260800726D616C230000002A4461792300000088
:102618002A4C617374204563686F23002A456368F8
:102628006F204F66662300002A4E464F562300004F
:102638002A53746172742C0057726F6E6720496E4A
:102648007075742E2E0000002A466F6375732B2355
:10265800000000002A4175746F2300002A45787035
:102668006F737572652D23002A4578706F737572C4
:10267800652B23002A46756C6C2053637265656E62
:10268800230000002A436F6E74726173742B230059
:102698002A436F6E74726173742D23002A436F6C22
:1026A8006F7223002A426174746C652052616E67F0
:1026B800652300002A4272696768742B23000000B2
:1026C8002A4272696768742D230000002A466972DD
:1026D8007374204563686F23000000002A4D464F3D
:1026E800562300002A57464F562300002A466F6398
:1026F80075732D23000000002A4869676820457813
:10270800702300002A486561742300002A5361621F
:102718006F7423002A5375622043616C6962657285
:10272800230000002A436F617869616C2047756E49
:10273800230000005374617274000000232D302BB5
:102748002000686C4C0065666745464700303132AA
:102758003334353637383941424344454600303101
:0F27680032333435363738396162636465660061
:10277800785634129000002000000000000000008D
:1027880000000000010203040607080900A24A0429
:1027980024000020000000000000000000000000ED
:1027A8000000000000000000000000000000000021
:1027B8000000000000000000000000000000000011
:1027C8000000000000000000000000000000000001
:1027D80000000000000000000000000000000000F1
:1027E80000000000000000000000000000000000E1
:0827F800000000003254769845
:040000050800010DE1
:00000001FF
