:020000040800F2
:100000000050002021020008270200082B020008EF
:100010009D020008A1020008E9020008000000009B
:100020000000000000000000000000003103000894
:10003000350300080000000039030008A50F000880
:100040004D0300084D0300084D0300084D03000850
:100050004D0300084D030008790B0008890B0008C8
:10006000990B0008A90B0008B90B00084D03000804
:100070004D0300084D0300084D0300084D03000820
:100080004D0300084D0300084D0300084D03000810
:100090004D0300084D0300084D030008C90B00087C
:1000A0004D0300084D0300084D0300084D030008F0
:1000B0004D0300084D0300084D0300084D030008E0
:1000C0004D0300084D0300084D0300084D030008D0
:1000D0004D0300084D0300084D0300084D030008C0
:1000E000D90B00084D0300084D0300080000000074
:1000F0000000000000000000000000000000000000
:1001000000000000000000005FF808F100B583B0B7
:1001100000F0AAF9304B314A1360314A1360314B79
:10012000314A32498B4204D21168196004330432D7
:10013000F7E72A4B1A682E4B9A4200D0FEE7284B6D
:100140001A682C4B9A42F9D1234B2B4A13602B4A45
:1001500013602B4B02E000221A600433294A9342B9
:10016000F9D3254B1B6813B9244B1B6803B1FEE779
:1001700000F086F9694601A800F022F9224C234BD1
:10018000E41AA4100025AC4214DC214C214BE41AE3
:10019000A4100025AC4213DC0099019800F08AFFFE
:1001A00005461D4C1D4BE41AA410002C0EDC2846FD
:1001B00000F0E2F8154B53F8253098470135E2E797
:1001C000144B53F8253098470135E3E7013C134BB6
:1001D00053F824309847E8E7BABADECA0000002096
:1001E0008400002000000020D81C000888000020A7
:1001F000785634123254769888000020640100202A
:1002000088000020680100207803000878030008B7
:1002100078030008780300087803000878030008D2
:1002200008B5FFF773FF00BEFEE71EF0040F0CBF1A
:10023000EFF30880EFF309807146414A10472DE93A
:10024000F04182B004468846124B5E6B9F6B9D6AFC
:100250001B6B13F0020F03D00E4BDB6A002B0CDB81
:100260000D4800F0B5F8CDF800803B4632462946EF
:10027000204600F009F900BEFEE74BF6AB6100F046
:100280007DF90028ECD0034B4FF00042DA6202B057
:10029000BDE8F08100ED00E0301C000800BEFEE784
:1002A0001EF0040F0CBFEFF30880EFF309807146D6
:1002B000244A10472DE9F04182B004468846084B95
:1002C0005E6B9F6B9D6A074800F082F8CDF8008056
:1002D0003B4632462946204600F0D6F800BEFEE7EF
:1002E00000ED00E0401C00081EF0040F0CBFEFF30F
:1002F0000880EFF309807146134A10472DE9F04159
:1003000082B004468846084B5E6B9F6B9D6A074827
:1003100000F05EF8CDF800803B4632462946204684
:1003200000F0B2F800BEFEE700ED00E04C1C000853
:1003300000BEFEE700BEFEE700BEFEE7704700001D
:100340003F020008B5020008FD02000800BEFEE7FB
:10035000D81C00080000002088000020D81C0008DD
:10036000000000000000000088000020680100205C
:08037000000000000000000085
:10037800FEE7000008B503460C4A12685AB10B4A5A
:100388001068033323F003030344094A934206D851
:10039800064A136008BD054A06491160EFE700F0F8
:1003A80085FF0C2303604FF0FF30F3E78C0000203B
:1003B800004C00206801002001230360014B0B6002
:1003C800704700BF040000200FB400B583B004AB31
:1003D80053F8042B01938021064800F099FF002868
:1003E80003DD0146034800F037F803B05DF804EB7D
:1003F80004B07047940000202DE9F04385B004460E
:100408000F4643560BB10E461EE0042528462146EA
:10041800ABBE0446384605B0BDE8F08314F9011BAD
:1004280004AA1A4402F8101C0133AB42F6D304AAFA
:100438001344002203F8102C4FF00408E946404604
:100448004946ABBE8046761B002EE3D03546102EBB
:1004580028BF10250023E8E708B5FFF7CDFF08BD42
:1004680008B500F0FDF8024A024B9A6008BD00BFCB
:100478000000000800ED00E008B500F019F908BD1B
:10048800F8B504460D4617461E462748FFF79CFF59
:1004980021682648FFF798FF61682548FFF794FF11
:1004A800A1682448FFF790FFE1682348FFF78CFF15
:1004B80021692248FFF788FF61692148FFF784FF17
:1004C800A1692048FFF780FFE1691F48FFF77CFF1B
:1004D8001E48FFF779FF29461D48FFF775FF1D4C99
:1004E800E16A1D48FFF770FF216B1C48FFF76CFF9E
:1004F800E16B1B48FFF768FF15F0800F0AD115F470
:10050800004F0CD11748FFF75FFF06991648FFF711
:100518005BFFF8BD39461548FFF756FFEFE7314650
:100528001348FFF751FFEDE7141B0008241B0008D0
:10053800341B0008441B0008541B0008641B0008F7
:10054800741B0008841B0008941B0008A41B0008E7
:10055800B01B000800ED00E0C01B0008D01B00081D
:10056800E01B0008101C0008181C0008F01B0008FD
:10057800001C000883691A888A4201D0002070474D
:100588000268033A012A03D80233836101207047C5
:100598000020704782B00023019300932C4A13680F
:1005A80043F4803313602A4B1B6803F40033009331
:1005B800019B01330193009B1BB9019BB3F5A06F0D
:1005C800F1D1234B1B6813F4003F06D0012300939D
:1005D800009B012B04D002B0704700230093F7E77B
:1005E8001C4B1A6842F010021A601A6822F00302C3
:1005F8001A601A6842F002021A60A3F580535A681A
:100608005A605A685A605A6842F480625A605A6856
:1006180022F47C125A605A6842F4E8125A601A6846
:1006280042F080721A600A4B1B6813F0007FFAD000
:10063800074B5A6822F003025A605A6842F00202D5
:100648005A60034B5B6803F00C03082BF9D1C2E72F
:10065800001002400020024008B5FFF79BFF08BDCC
:1006680008B5104B1A6842F001021A6059680E4A20
:100678000A405A601A6822F0847222F480321A60A2
:100688001A6822F480221A605A6822F4FE025A601C
:100698004FF41F029A60FFF7DFFF044B4FF0006230
:1006A8009A6008BD001002400000FFF800ED00E06D
:1006B8001F4B5B6803F00C03042B15D0082B17D0D5
:1006C8001BB11C4B1C4A1A6002E01A4B1A4A1A60EA
:1006D800174B5B68C3F30313184AD35CDAB21549A6
:1006E8000B68D3400B607047124B134A1A60EFE750
:1006F8000F4A53685268C3F38343023312F4803FAE
:100708000AD00B4A526812F4003F0BD00C4A02FB85
:1007180003F3084A1360DBE7094A02FB03F3054ABF
:100728001360D5E7044A02FB03F3024A1360CFE7DC
:10073800001002401C00002000127A000C0000206B
:1007480000093D0008B508220421002000F0A4FAA1
:1007580001220221002000F09FFA0122032100203B
:1007680000F09AFA01220C21002000F095FA0822E4
:100778000021084600F090FA08221146002000F0F7
:100788008BFA08220B21002000F086FA08220F219C
:10079800002000F081FA00221146104600F0EAFA23
:1007A80000220821104600F0E5FA00220B2110462D
:1007B80000F0E0FA00220F21104600F0DBFA0122D7
:1007C8000321104600F068FA01220821104600F0C3
:1007D80063FA01220921104600F05EFA01220D2178
:1007E800022000F059FA01220E21022000F054FAEA
:1007F80001220F21022000F04FFA082200210120D7
:1008080000F04AFA08220121084600F045FA0022C1
:100818001146012000F0AEFA00220121084600F03E
:10082800A9FA08220421012000F036FA0022042146
:10083800012000F09FFA08220521012000F02CFA7F
:1008480000220521012000F095FA08220621012046
:1008580000F022FA00220621012000F08BFA08227B
:100868000721012000F018FA00220721012000F0DA
:1008780081FA08220721012000F00EFA0022072140
:10088800012000F077FA08220A21012000F004FA7A
:1008980000220A21012000F06DFA08220B21012014
:1008A80000F0FAF900220B21012000F063FA082277
:1008B8000C21012000F0F0F900220C21012000F0A9
:1008C80059FA08220D21012000F0E6F900220D2135
:1008D800012000F04FFA08220E21012000F0DCF977
:1008E80000220E21012000F045FA08220F210120E4
:1008F80000F0D2F900220F21012000F03BFA08BDD8
:1009080008B507280FD8DFE800F0040F1A253F596B
:10091800738D01220C21002000F02CFA00220821FE
:10092800012000F027FA08BD00220C21104600F033
:1009380021FA01220821104600F01CFAF3E70022F0
:100948000C21104600F016FA00220821012000F0C0
:1009580011FAE8E700220321012000F00BFA012236
:100968000921104600F006FA00220D21022000F0AD
:1009780001FA00220E21022000F0FCF900220F21CA
:10098800022000F0F7F9CEE700220321012000F051
:10099800F1F900220921012000F0ECF900220D21D3
:1009A800022000F0E7F901220E21022000F0E2F90E
:1009B80000220F21022000F0DDF9B4E70122032113
:1009C800104600F0D7F900220921012000F0D2F9E1
:1009D80000220D21022000F0CDF900220E21022074
:1009E80000F0C8F900220F21022000F0C3F99AE7AD
:1009F80000220321012000F0BDF900220921012075
:100A080000F0B8F901220D21022000F0B3F900220C
:100A18000E21022000F0AEF900220F21022000F082
:100A2800A9F980E700220321012000F0A3F90022A0
:100A38000921012000F09EF900220D21022000F07A
:100A480099F900220E21022000F094F901220F21C9
:100A5800022000F08FF966E738B50022032110461E
:100A680000F088F9012000F085FA01220321002016
:100A780000F080F900252C4616E0002202211046DD
:100A880000F078F90A2000F075FA0122022100200E
:100A980000F070F96400E4B20421002000F0A4F929
:100AA8000443E4B20135EDB2072DE6D90022022154
:100AB800104600F05FF9204638BD000038B5FFF752
:100AC800CBFF054604240AE00320FFF719FF254B56
:100AD80003221A70244B01221A700134E4B2082C44
:100AE8003FD845FA04F313F0010FF6D0231F042B67
:100AF800F3D801A252F823F0570B0008430B000863
:100B08002F0B0008150B0008D10A00080420FFF776
:100B1800F7FE144B04221A70144B00221A70124B61
:100B280002221A70D9E70520FFF7EAFE0D4B0522CD
:100B38001A700D4B01221A70CFE70620FFF7E0FE6E
:100B4800084B06221A70084B02221A70C5E70720C4
:100B5800FFF7D6FE034B07221A70034B01221A70C7
:100B6800BBE738BD610100201401002015010020F9
:100B780008B5024B1B68984708BD00BF3C01002020
:100B880008B5024B1B68984708BD00BF300100201C
:100B980008B5024B1B68984708BD00BF3801002004
:100BA80008B5024B1B68984708BD00BF2C01002000
:100BB80008B5024B1B68984708BD00BF34010020E8
:100BC80008B5024B1B68984708BD00BF40010020CC
:100BD80008B5024B1B68984708BD00BF44010020B8
:100BE800F8B505460C4616460021022000F060F9CB
:100BF800A308274A023352F823104FEA840C0F2720
:100C080007FA0CF721EA070142F8231052F82300EB
:100C180005FA0CF5284342F82300012E1AD096B1A4
:100C2800022E1ED01B490B680122A24013430B6001
:100C3800042C20D9631FDBB2042B21D90A3CE4B26F
:100C4800052C21D9F8BD13498B680122A240134312
:100C58008B60E7E70F49CB680122A2401343CB60C2
:100C6800E0E70C4A91680123A34019439160D168D9
:100C78000B43D360D6E7A01DC0B200F0D5F8E1E77A
:100C8800172000F0D1F8DDE7282000F0CDF8D9E7EB
:100C9800000001400004014010B4072930D80128A1
:100CA80012D018B102281DD010BC70472E4B1868FE
:100CB80089000F248C4020EA04001860186802FAA2
:100CC80001F101431960EFE7284B186889000F24E8
:100CD8008C4020EA04001860186802FA01F1014308
:100CE8001960E1E7224B186889000F248C4020EA3C
:100CF80004001860186802FA01F101431960D3E78B
:100D08000F29D1D80839C9B201281ED078B10228D4
:100D1800CAD1174844688B000F21994024EA010181
:100D28004160446802FA03F121434160BCE70E4B7D
:100D380058688C000F21A14020EA010159605868C9
:100D480002FA04F101435960AEE7084B5C68880079
:100D58000F21814024EA010159605C6802FA00F120
:100D680021435960A0E700BF00080140000C014082
:100D780000100140CAB1012A2ED1012809D010B1B2
:100D880002280CD07047012303FA01F1134B1961B3
:100D98007047012303FA01F1114B196170470123D0
:100DA80003FA01F10F4B19617047012809D010B1FE
:100DB80002280CD07047012303FA01F1074B59614F
:100DC8007047012303FA01F1054B5961704701236C
:100DD80003FA01F1034B5961704700BF0008014055
:100DE800000C01400010014001280AD018B1022867
:100DF8000DD000207047094B9868C84000F00100EA
:100E08007047074B9868C84000F001007047054BD1
:100E18009868C84000F00100704700BF0008014012
:100E2800000C0140001001401F2809D92038C0B229
:100E38001B2804D8012303FA00F0044B18607047FC
:100E4800012303FA00F0024B1860704704E100E048
:100E580000E100E0154B1A6842F400221A605A6853
:100E680042F480325A605A6842F480225A605A68C2
:100E780042F400225A605A6842F480125A605A6852
:100E880022F400125A605A6822F001025A605A6825
:100E980042F002025A601A6842F080721A60034BEC
:100EA8001B6813F0007FFAD0704700BF00100240A3
:100EB8001F291CD801280BD010B1022810D0704768
:100EC8000B484369012202FA01F119434161704755
:100ED8000748C369012202FA01F11943C161704749
:100EE80003488369012202FA01F1194381617047BD
:100EF8000010024000230A4A136004326FF07F4159
:100F080011600432136010B1012804D07047044BFB
:100F180005221A607047024B07221A60704700BF0B
:100F280010E000E001FB00F14FF47A7303FB01F1DC
:100F3800B1F1807F07D3074B6FF07F421A6004330B
:100F480000221A607047034B1960043300221A60AC
:100F5800704700BF14E000E008B501214820FFF702
:100F6800E1FF034B1B6813F4803FFAD008BD00BFB4
:100F780010E000E038B50546002402E0FFF7ECFF7A
:100F88000134AC42FAD338BD034B1B681BB1024A8B
:100F98001368013B136070474801002008B5FFF74C
:100FA800F3FF08BD10B50E210220FFF781FF0221D3
:100FB8000846FFF77DFF00210220FFF779FF002494
:100FC800174B1C600C331A6822F480521A60154AB9
:100FD800116821F480511160116821F400511160E9
:100FE8001A6842F008021A601A6842F004021A608D
:100FF8000D4A41F6415111601A6842F400521A60D4
:10100800092211462046FFF747FE04220A212046FE
:10101800FFF742FE01220A212046FFF7ABFE10BD72
:10102800003801401438014008380140064A136866
:1010380023F040031360054B1860034B1B6813F043
:10104800400FFAD0704700BF003801400438014013
:1010580038B50546002402E0FFF7E8FF0134285DB3
:101068000028F9D138BD0000044B1B6813F0200F8D
:10107800FAD0034B1868C0B2704700BF003801406F
:101088000438014010B5002405E0074B1855FFF758
:10109800CDFF0134E4B2FFF7E7FF0D28F5D1024890
:1010A8000023035510BD00BF4C01002000B583B0DC
:1010B800FFF7D0FE02210846FFF7FAFE03210220BF
:1010C800FFF7F6FE04210220FFF7F2FE00210220BE
:1010D800FFF7EEFE674A536843F000735360002041
:1010E800FFF708FFFFF75EFFFFF7CCFF624B1860C2
:1010F800FFF728FB614B93E803000090ADF804105C
:10110800002206211046FFF76BFD0022072110463A
:10111800FFF766FD002211460120FFF761FD02225C
:101128000B210020FFF75CFD002305E054490A78F5
:1011380001320A700133DBB24F4A1268D25C4AB1FD
:1011480002A9194411F8081C9142EFD04C4A002119
:101158001170EFE74A4B1B78052B05D04948FFF77C
:1011680077FF03B05DF804FBFFF7A8FCFFF774FCFA
:10117800454B187010F0100F0BD010F0200F08D14D
:1011880010F0400F05D1C30903D1404B1B78012B48
:1011980041D03D4B1B7813F0100F0BD113F0200FEB
:1011A80008D013F0400F05D1DB0903D1374B1B786A
:1011B800022B3FD0344B1B7813F0100F0BD113F0D8
:1011C800200F08D113F0400F05D0DB0903D12F4BB6
:1011D8001B78012B3FD02C4B1B7813F0100FC5D177
:1011E80013F0200FC2D113F0400FBFD1DB09BDD0DF
:1011F800264B1B78022BB9D1244B01221A702448A4
:10120800FFF726FF234B00221A700420224B187088
:10121800FFF776FBAAE71D4B02221A701F48FFF75B
:1012280017FF07201C4B1870FFF76AFB194B0022A9
:101238001A70AEE7154B01221A701948FFF708FF1C
:101248000620154B1870FFF75BFB0023114A13703B
:10125800144A1370AEE70D4B02221A701248FFF7BA
:10126800F7FE05200C4B1870FFF74AFB094B0022CC
:101278001A70B0E700000140180100209C1C00080B
:101288001C010020881C00081D01002014010020FA
:10129800801C000815010020610100205C1C00086A
:1012A8006C1C00081E010020741C0008014B186803
:1012B800704700BF2000002030B5141E05469BB0C3
:1012C800184605DA8B234FF0FF302B601BB030BD7A
:1012D8004FF40273ADF80C300CBF234604F1FF3312
:1012E800029305934FF6FF7300910491ADF80E3009
:1012F80002461E9B6946284600F072F8431CBCBF94
:101308008B232B60002CE1D00022009B1A70DDE7B4
:1013180007B5009313460A46014603480068FFF7DD
:10132800CBFF03B05DF804FB200000202DE9F04757
:101338008E6882469E420C469046994637D88A89DE
:1013480012F4906F31D00223256809696F1A656914
:1013580005EB450595FBF3F509F101033B449D4277
:1013680038BF1D46530530D5294600F035FB0646E3
:1013780050B90C234FF0FF30CAF80030A38943F06E
:101388004003A381BDE8F0873A46216900F0B4FA2A
:10139800A38923F4906343F08003A38126613E442C
:1013A80026604E466561ED1BA5604E4500D94E4648
:1013B80032464146206800F0AAFAA36800209B1B29
:1013C800A36023681E442660DCE72A4600F05EFB23
:1013D80006460028E2D12169504600F0B1FAC8E774
:1013E8002DE9F04F9DB003938B8980461D060C466E
:1013F80016460FD50B696BB9402100F0EDFA206055
:10140800206128B90C23C8F800304FF0FF30C7E03E
:10141800402363610023099320238DF8293030236A
:101428004FF0010B8DF82A3037463D4615F8013B41
:101438000BB1252B3ED1B7EB060A0BD053463246EB
:1014480021464046FFF772FF013000F0A480099B57
:10145800534409933B78002B00F09D8000234FF004
:10146800FF32CDE90523049307938DF853301A937F
:101478002F46052217F8011B4F4800F02FFA049B4E
:10148800D0B9D90644BF20228DF853201A0744BF8B
:101498002B228DF853202A782A2A15D02F4600208F
:1014A8000A25079A394611F8013B303B092B4DD9DB
:1014B800B8B10FE02F46B8E73F4A3D46801A0BFA0D
:1014C80000F018430490D3E7039A111D12680391A2
:1014D800002A01DB079204E0524243F0020307921C
:1014E80004933B782E2B0CD17B782A2B33D1039B8A
:1014F80002371A1D1B680392002BB8BF4FF0FF3349
:1015080005932E4D03223978284600F0E7F938B1C3
:101518004023401B03FA00F0049B01370343049364
:101528003978062226487E1C8DF8281000F0D6F956
:10153800002838D0234B13BB039B073323F0070342
:1015480008330393099B4B4409936DE705FB02326B
:1015580001200F46A6E700230A25194601370593FF
:10156800384610F8012B303A092A03D9002BC8D085
:101578000591C6E705FB012101230746F0E703AB08
:1015880000932246104B04A94046AFF30080B0F107
:10159800FF3F8146D6D1A3895B063FF536AF099850
:1015A8001DB0BDE8F08F03AB00932246064B04A99B
:1015B800404600F081F8EAE7A41C0008AA1C0008CD
:1015C800AE1C000800000000351300082DE9F047A4
:1015D80091461F468A680B6906469342B8BF134670
:1015E800C9F8003091F843200C46DDF8208012B18C
:1015F8000133C9F800302368990642BFD9F8003092
:101608000233C9F80030256815F0060507D104F142
:10161800190AE368D9F800209B1AAB4229DC94F830
:1016280043302268003318BF012392062ED404F1F8
:10163800430239463046C047013021D02368E56867
:1016480003F00603042B18BF0025D9F800204FF03B
:10165800000908BFAD1AA368226908BF25EAE57525
:101668009342C4BF9B1AED181A344D451AD1002075
:1016780008E00123524639463046C047013003D1BD
:101688004FF0FF30BDE8F0870135C2E73020E118A0
:1016980081F843005A1C94F845102244023382F81A
:1016A8004310C4E70123224639463046C04701307B
:1016B800E6D009F10109D8E72DE9F04301F1430C1F
:1016C8000C46097E85B06E291746064698460C9A40
:1016D80000F0B38022D8632936D00AD8002900F058
:1016E800B980582900F0838004F1420584F842103B
:1016F80032E0642901D06929F6D12068136805060B
:1017080003F104012AD51B681160002B03DA2D228E
:101718005B4284F843206F480A2239E0732900F0BD
:101728009D8008D86F2920D07029DDD1236843F027
:101738002003236003E0752917D07829D4D17823B2
:10174800654884F8453055E0136804F14205191DD1
:101758001B68116084F8423001238CE01B6810F08C
:10176800400F116018BF1BB2CFE713682568181D1A
:101778001060280601D51B6802E06806FBD51B88A7
:101788006F2914BF0A2208225248002184F8431006
:101798006568002DA560C0F29580216821F00401DC
:1017A8002160002B3DD1002D40F08E806546082A2F
:1017B8000BD12368DB0708D5236962689A42DEBF2C
:1017C800302305F8013C05F1FF35ACEB0503236137
:1017D800CDF800803B4603AA21463046FFF7F6FEC7
:1017E80001304DD14FF0FF3005B0BDE8F0833948E6
:1017F80084F84510136821681D1D1B6815600A06CA
:101808000BD5CA0744BF41F0200121601BB92268EB
:1018180022F0200222601022B7E74D0648BF9BB293
:10182800EFE76546B3FBF2F102FB1133C35C05F841
:10183800013D0B460029F5D1B9E713682568181D45
:101848006169106028061B6801D5196002E06A0604
:10185800FBD51980002365462361B9E71368191D74
:1018680011601D6862680021284600F037F808B149
:10187800401B606063682361002384F84330A7E756
:1018880023692A4639463046C0470130AAD0236822
:101898009B0713D4E068039B9842B8BF1846A3E798
:1018A80001234A4639463046C04701309AD00135AF
:1018B800E368039A9B1AAB42F2DCEBE7002504F1DC
:1018C8001909F5E7002BACD1037804F1420584F837
:1018D80042306CE7B51C0008C61C000810B5C9B238
:1018E80002449042034601D1002303E01C780130F2
:1018F8008C42F6D1184610BD10B5431E0A449142D9
:1019080000D110BD11F8014B03F8014FF7E78842E9
:1019180010B501EB020307D8421E99420AD011F80C
:10192800014B02F8014FF8E78342F5D98118D21A22
:10193800D34200D110BD13F8014D01F8014DF7E76E
:1019480038B50546002943D051F8043C0C1F002B3C
:10195800B8BFE41800F0D0F81E4A1368104633B92F
:10196800636014602846BDE8384000F0C6B8A3425A
:101978000BD921686218934201BF1A685B68521834
:10198800226063600460EDE713465A680AB1A24218
:10199800FAD919685818A0420BD120680144581880
:1019A80082421960DED110685268014419605A6099
:1019B800D8E702D90C232B60D4E7206821188A4283
:1019C80001BF116852680918216062605C60C9E74C
:1019D80038BD00BF2001002070B5CD1C25F00305DF
:1019E80008350C2D38BF0C25002D064601DBA94211
:1019F80003D90C233360002070BD00F07DF8214A24
:101A08001468214691B9204C23681BB9304600F070
:101A180063F820602946304600F05EF8431C24D164
:101A28000C233046336000F068F8E4E70B685B1B72
:101A380018D40B2B0FD90B60CC18CD50304600F0C2
:101A48005CF804F10B00231D20F00700C31AD3D063
:101A58005A42E250D0E74B688C4216BF636013606D
:101A68000C46EBE70C464968CCE7C41C24F0030499
:101A7800A04205D0211A304600F02EF80130CFD010
:101A88002560DBE72001002024010020F8B5074687
:101A980014460E4621B9BDE8F8401146FFF79CBF31
:101AA80022B9FFF74DFF25462846F8BD00F026F875
:101AB800A0420FD221463846FFF78EFF0546002880
:101AC800F2D031462246FFF717FF31463846FFF776
:101AD80037FFE9E73546E7E738B50023054C054603
:101AE80008462360FEF746FC431C02D1236803B175
:101AF8002B6038BD280100207047704751F8043C1E
:101B0800181F002BBCBF0B58C01870475374616373
:101B18006B206672616D653A0A0000002052302021
:101B28003D2020253038580A00000000205231207E
:101B38003D2020253038580A00000000205232206D
:101B48003D2020253038580A00000000205233205C
:101B58003D2020253038580A00000000205231323C
:101B6800203D20253038580A00000000204C522023
:101B78003D2020253038580A00000000205043201E
:101B88003D2020253038580A0000000020505352CC
:101B9800203D20253038580A000000004653522FB7
:101BA8004641523A0A0000002043465352203D2045
:101BB80020253038580A00002048465352203D203E
:101BC80020253038580A00002044465352203D2032
:101BD80020253038580A00002041465352203D2025
:101BE80020253038580A0000204D4D464152203DEE
:101BF80020253038580A00002042464152203D2016
:101C080020253038580A00004D6973630A00000027
:101C1800204C522F4558435F52455455524E3D2053
:101C2800253038580A0000005B48617264466175C7
:101C38006C745D0A000000005B4275734661756C48
:101C4800745D0A005B55736167654661756C745D08
:101C58000A0000002A486967685F4578702E230AE1
:101C6800000000002A48656174230A002A53616253
:101C78006F74230A000000002A4845502300000022
:101C880057726F6E6720496E7075742E2E52657389
:101C9800657400005374617274000000232D302BAA
:101CA8002000686C4C006566674546470030313255
:101CB80033343536373839414243444546003031AC
:0F1CC8003233343536373839616263646566000C
:101CD8007856341290000020000000000000000038
:101CE80000000000010203040607080900A24A04D4
:101CF8002400002000000000000000000000000098
:101D080000000000000000000000000000000000CB
:101D180000000000000000000000000000000000BB
:101D280000000000000000000000000000000000AB
:101D3800000000000000000000000000000000009B
:101D4800000000000000000000000000000000008B
:081D58000000000032547698EF
:040000050800010DE1
:00000001FF
