:020000040800F2
:100000000050002021020008270200082B020008EF
:100010009D020008A1020008E9020008000000009B
:100020000000000000000000000000003103000894
:10003000350300080000000039030008BD11000866
:100040004D0300084D0300084D0300084D03000850
:100050004D0300084D030008410D0008510D000834
:10006000610D0008710D0008810D00084D030008A6
:100070004D0300084D0300084D0300084D03000820
:100080004D0300084D0300084D0300084D03000810
:100090004D0300084D0300084D030008910D0008B2
:1000A0004D0300084D0300084D0300084D030008F0
:1000B0004D0300084D0300084D0300084D030008E0
:1000C0004D0300084D0300084D0300084D030008D0
:1000D0004D0300084D0300084D0300084D030008C0
:1000E000A10D00084D0300084D03000800000000AA
:1000F0000000000000000000000000000000000000
:1001000000000000000000005FF808F100B583B0B7
:1001100000F0AAF9304B314A1360314A1360314B79
:10012000314A32498B4204D21168196004330432D7
:10013000F7E72A4B1A682E4B9A4200D0FEE7284B6D
:100140001A682C4B9A42F9D1234B2B4A13602B4A45
:1001500013602B4B02E000221A600433294A9342B9
:10016000F9D3254B1B6813B9244B1B6803B1FEE779
:1001700000F086F9694601A800F022F9224C234BD1
:10018000E41AA4100025AC4214DC214C214BE41AE3
:10019000A4100025AC4213DC0099019801F056F937
:1001A00005461D4C1D4BE41AA410002C0EDC2846FD
:1001B00000F0E2F8154B53F8253098470135E2E797
:1001C000144B53F8253098470135E3E7013C134BB6
:1001D00053F824309847E8E7BABADECA0000002096
:1001E000840000200000002068250008880000200E
:1001F0007856341232547698880000206C01002022
:1002000088000020700100207803000878030008AF
:1002100078030008780300087803000878030008D2
:1002200008B5FFF773FF00BEFEE71EF0040F0CBF1A
:10023000EFF30880EFF309807146414A10472DE93A
:10024000F04182B004468846124B5E6B9F6B9D6AFC
:100250001B6B13F0020F03D00E4BDB6A002B0CDB81
:100260000D4800F0B5F8CDF800803B4632462946EF
:10027000204600F009F900BEFEE74BF6AB6100F046
:100280007DF90028ECD0034B4FF00042DA6202B057
:10029000BDE8F08100ED00E0C823000800BEFEE7E5
:1002A0001EF0040F0CBFEFF30880EFF309807146D6
:1002B000244A10472DE9F04182B004468846084B95
:1002C0005E6B9F6B9D6A074800F082F8CDF8008056
:1002D0003B4632462946204600F0D6F800BEFEE7EF
:1002E00000ED00E0D82300081EF0040F0CBFEFF370
:1002F0000880EFF309807146134A10472DE9F04159
:1003000082B004468846084B5E6B9F6B9D6A074827
:1003100000F05EF8CDF800803B4632462946204684
:1003200000F0B2F800BEFEE700ED00E0E4230008B4
:1003300000BEFEE700BEFEE700BEFEE7704700001D
:100340003F020008B5020008FD02000800BEFEE7FB
:1003500068250008000000208800002068250008AB
:100360000000000000000000880000207001002054
:08037000000000000000000085
:10037800FEE7000008B503460C4A12685AB10B4A5A
:100388001068033323F003030344094A934206D851
:10039800064A136008BD054A06491160EFE701F0F7
:1003A80051FB0C2303604FF0FF30F3E78C00002073
:1003B800004C00207001002001230360014B0B60FA
:1003C800704700BF040000200FB400B583B004AB31
:1003D80053F8042B01938021064801F065FB00289F
:1003E80003DD0146034800F037F803B05DF804EB7D
:1003F80004B07047940000202DE9F04385B004460E
:100408000F4643560BB10E461EE0042528462146EA
:10041800ABBE0446384605B0BDE8F08314F9011BAD
:1004280004AA1A4402F8101C0133AB42F6D304AAFA
:100438001344002203F8102C4FF00408E946404604
:100448004946ABBE8046761B002EE3D03546102EBB
:1004580028BF10250023E8E708B5FFF7CDFF08BD42
:1004680008B500F0FDF8024A024B9A6008BD00BFCB
:100478000000000800ED00E008B500F019F908BD1B
:10048800F8B504460D4617461E462748FFF79CFF59
:1004980021682648FFF798FF61682548FFF794FF11
:1004A800A1682448FFF790FFE1682348FFF78CFF15
:1004B80021692248FFF788FF61692148FFF784FF17
:1004C800A1692048FFF780FFE1691F48FFF77CFF1B
:1004D8001E48FFF779FF29461D48FFF775FF1D4C99
:1004E800E16A1D48FFF770FF216B1C48FFF76CFF9E
:1004F800E16B1B48FFF768FF15F0800F0AD115F470
:10050800004F0CD11748FFF75FFF06991648FFF711
:100518005BFFF8BD39461548FFF756FFEFE7314650
:100528001348FFF751FFEDE7AC220008BC22000892
:10053800CC220008DC220008EC220008FC2200087B
:100548000C2300081C2300082C2300083C23000867
:100558004823000800ED00E058230008682300083D
:1005680078230008A8230008B0230008882300087F
:100578009823000883691A888A4201D000207047AE
:100588000268033A012A03D80233836101207047C5
:100598000020704782B00023019300932C4A13680F
:1005A80043F4803313602A4B1B6803F40033009331
:1005B800019B01330193009B1BB9019BB3F5A06F0D
:1005C800F1D1234B1B6813F4003F06D0012300939D
:1005D800009B012B04D002B0704700230093F7E77B
:1005E8001C4B1A6842F010021A601A6822F00302C3
:1005F8001A601A6842F002021A60A3F580535A681A
:100608005A605A685A605A6842F480625A605A6856
:1006180022F47C125A605A6842F4E8125A601A6846
:1006280042F080721A600A4B1B6813F0007FFAD000
:10063800074B5A6822F003025A605A6842F00202D5
:100648005A60034B5B6803F00C03082BF9D1C2E72F
:10065800001002400020024008B5FFF79BFF08BDCC
:1006680008B5104B1A6842F001021A6059680E4A20
:100678000A405A601A6822F0847222F480321A60A2
:100688001A6822F480221A605A6822F4FE025A601C
:100698004FF41F029A60FFF7DFFF044B4FF0006230
:1006A8009A6008BD001002400000FFF800ED00E06D
:1006B8001F4B5B6803F00C03042B15D0082B17D0D5
:1006C8001BB11C4B1C4A1A6002E01A4B1A4A1A60EA
:1006D800174B5B68C3F30313184AD35CDAB21549A6
:1006E8000B68D3400B607047124B134A1A60EFE750
:1006F8000F4A53685268C3F38343023312F4803FAE
:100708000AD00B4A526812F4003F0BD00C4A02FB85
:1007180003F3084A1360DBE7094A02FB03F3054ABF
:100728001360D5E7044A02FB03F3024A1360CFE7DC
:10073800001002401C00002000127A000C0000206B
:1007480000093D0008B508220421002000F0B0FB94
:1007580001220221002000F0ABFB0122032100202E
:1007680000F0A6FB01220C21002000F0A1FB0822CA
:100778000021084600F09CFB08220521002000F01B
:1007880097FB08221146002000F092FB08220B215B
:10079800002000F08DFB08220F21002000F088FBCC
:1007A80000221146104600F0F1FB002205211046F8
:1007B80000F0ECFB00220821104600F0E7FB0022C5
:1007C8000B21104600F0E2FB00220F21104600F03A
:1007D800DDFB01220321104600F06AFB01220921FA
:1007E800104600F065FB01220D21022000F060FB9D
:1007F80001220E21022000F05BFB01220F210220C2
:1008080000F056FB08220021012000F051FB0822CD
:100818000121084600F04CFB08221146012000F097
:1008280047FB00221146012000F0B0FB0022012105
:10083800084600F0ABFB00220821012000F0A6FBCF
:1008480008220421012000F033FB002204210120AA
:1008580000F09CFB08220521012000F029FB002262
:100868000521012000F092FB08220621012000F05A
:100878001FFB00220621012000F088FB0822072127
:10088800012000F015FB00220721012000F07EFB6B
:1008980008220A21012000F00BFB00220A21012076
:1008A80000F074FB08220B21012000F001FB00225C
:1008B8000B21012000F06AFB08220C21012000F026
:1008C800F7FA00220C21012000F060FB08220D211C
:1008D800012000F0EDFA00220D21012000F056FB66
:1008E80008220E21012000F0E3FA00220E21012047
:1008F80000F04CFB08BD08B507280AD8DFE800F06F
:10090800040A1016304A647E01220C21002000F0EF
:100918003DFB08BD00220C21104600F037FBF8E72C
:1009280000220C21104600F031FBF2E700220321DF
:10093800012000F02BFB01220921104600F026FBC4
:1009480000220D21022000F021FB00220E210220AE
:1009580000F01CFB00220F21022000F017FBD8E753
:1009680000220321012000F011FB002209210120AF
:1009780000F00CFB00220D21022000F007FB0122F1
:100988000E21022000F002FB00220F21022000F0BD
:10099800FDFABEE701220321104600F0F7FA002213
:1009A8000921012000F0F2FA00220D21022000F0B6
:1009B800EDFA00220E21022000F0E8FA00220F21B1
:1009C800022000F0E3FAA4E700220321012000F04E
:1009D800DDFA00220921012000F0D8FA01220D21B8
:1009E800022000F0D3FA00220E21022000F0CEFAF5
:1009F80000220F21022000F0C9FA8AE70022032111
:100A0800012000F0C3FA00220921012000F0BEFAFB
:100A180000220D21022000F0B9FA00220E21022046
:100A280000F0B4FA01220F21022000F0AFFA70E7BB
:100A380008B501220321104600F0A8FA0122092175
:100A4800104600F0A3FA01220D21022000F09EFAC0
:100A580001220E21022000F099FA01220F21022022
:100A680000F094FA01220021084600F08FFA0122D2
:100A78000C21002000F08AFA08BD08B500220321E5
:100A8800012000F083FA00220921012000F07EFAFB
:100A980000220D21022000F079FA00220E21022006
:100AA80000F074FA00220F21022000F06FFA0022F1
:100AB8000C21104600F06AFA00220C21104600F0C2
:100AC80065FA08BD38B500220321104600F05EFA29
:100AD800012000F05BFB01220321002000F056FA00
:100AE80000252C4616E06400A4B20421002000F082
:100AF80087FA80B2044301220221002000F046FA5E
:100B0800012000F043FB00220221104600F03EFACB
:100B18000135EDB2072DE6D900220221104600F07A
:100B280035FA204638BD000038B5FFF7CBFF05463B
:100B380000240AE00320FFF7DEFE6D4B03221A7043
:100B48006C4B01221A700134E4B2042C3FD845FAE8
:100B580004F313F0010FF6D0042CF4D801A353F8D2
:100B680024F000BFC30B0008AF0B00089B0B000864
:100B7800810B00083D0B00080420FFF7BCFE5C4B0E
:100B880004221A705C4B00221A705A4B02221A7007
:100B9800D9E70520FFF7AFFE554B05221A70554BD4
:100BA80001221A70CFE70620FFF7A5FE504B062258
:100BB8001A70504B02221A70C5E70720FFF79BFEF8
:100BC8004B4B07221A704B4B01221A70BBE70524C6
:100BD8000AE04A4800F048FB494B01221A70494B89
:100BE80002221A700134E4B2072C27D821460020CB
:100BF80000F006FA0128F5D1062C04D0072C11D0F4
:100C0800052CEFD1E5E7404800F02EFB0120FFF767
:100C180072FE3E4B02221A7001233D4A13703D4A70
:100C28001370DFE73C4800F01FFB0220FFF763FE6C
:100C38000223364A1370364A1370D3E70021012085
:100C480000F0DEF9B0B10F21002000F0D9F9012839
:100C58001ED00F21002000F0D3F910B30621002088
:100C680000F0CEF930B30021012000F0C9F90128C5
:100C780034D038BD052100F0C3F90028E3D10124A0
:100C8800204B1C70254800F0EFFA1D4B1C70DAE76A
:100C9800234800F0E9FA0023224A1370224A13700D
:100CA800D7E7224800F0E0FA01231E4A13701E4AD3
:100CB8001370D3E7072100F0A3F90028D3D11C480B
:100CC80000F0D2FA0020FFF716FE01230F4A137036
:100CD8000F4A002111700F4A1370C4E7094B022212
:100CE8001A70074B01221A70124800F0BDFAC0E7CB
:100CF800690100201601002017010020F4230008D4
:100D08001D0100201C010020FC2300081A010020FE
:100D1800680100201B010020082400081424000892
:100D28001C240008190100201801002028240008AC
:100D3800302400084024000808B5024B1B68984777
:100D480008BD00BF4401002008B5024B1B68984746
:100D580008BD00BF3801002008B5024B1B68984742
:100D680008BD00BF4001002008B5024B1B6898472A
:100D780008BD00BF3401002008B5024B1B68984726
:100D880008BD00BF3C01002008B5024B1B6898470E
:100D980008BD00BF4801002008B5024B1B689847F2
:100DA80008BD00BF4C010020F8B505460C461646A4
:100DB8000021022000F088F9A308274A023352F8DC
:100DC80023104FEA840C0F2707FA0CF721EA0701D2
:100DD80042F8231052F8230005FA0CF5284342F88C
:100DE8002300012E1AD096B1022E1ED01B490B6883
:100DF8000122A24013430B60042C20D9631FDBB2ED
:100E0800042B21D90A3CE4B2052C21D9F8BD134999
:100E18008B680122A24013438B60E7E70F49CB6838
:100E28000122A2401343CB60E0E70C4A91680123FA
:100E3800A34019439160D1680B43D360D6E7A01D46
:100E4800C0B200F0FDF8E1E7172000F0F9F8DDE79F
:100E5800282000F0F5F8D9E700000140000401401F
:100E680004490B68012202FA00F023EA00030B6030
:100E7800704700BF0004014003494B69012202FA90
:100E880000F003434B61704700040140014B1860B8
:100E9800704700BF44010020014B1860704700BF35
:100EA80048010020014B1860704700BF4C0100202A
:100EB80010B4072930D8012812D018B102281DD043
:100EC80010BC70472E4B186889000F248C4020EA0C
:100ED80004001860186802FA01F101431960EFE78D
:100EE800284B186889000F248C4020EA04001860F9
:100EF800186802FA01F101431960E1E7224B18680A
:100F080089000F248C4020EA04001860186802FA4F
:100F180001F101431960D3E70F29D1D80839C9B2C3
:100F280001281ED078B10228CAD1174844688B001E
:100F38000F21994024EA01014160446802FA03F153
:100F480021434160BCE70E4B58688C000F21A1403B
:100F580020EA01015960586802FA04F10143596016
:100F6800AEE7084B5C6888000F21814024EA010144
:100F780059605C6802FA00F121435960A0E700BF9C
:100F880000080140000C014000100140CAB1012ACC
:100F98002ED1012809D010B102280CD070470123A6
:100FA80003FA01F1134B19617047012303FA01F1A8
:100FB800114B19617047012303FA01F10F4B1961B5
:100FC8007047012809D010B102280CD070470123BE
:100FD80003FA01F1074B59617047012303FA01F144
:100FE800054B59617047012303FA01F1034B59611D
:100FF800704700BF00080140000C0140001001408C
:1010080001280AD018B102280DD000207047094BDA
:101018009868C84000F001007047074B9868C840BE
:1010280000F001007047054B9868C84000F00100C7
:10103800704700BF00080140000C0140001001404B
:101048001F2809D92038C0B21B2804D8012303FA65
:1010580000F0044B18607047012303FA00F0024BBC
:101068001860704704E100E000E100E0154B1A68E1
:1010780042F400221A605A6842F480325A605A6870
:1010880042F480225A605A6842F400225A605A6830
:1010980042F480125A605A6822F400125A605A6860
:1010A80022F001025A605A6842F002025A601A6835
:1010B80042F080721A60034B1B6813F0007FFAD06D
:1010C800704700BF001002401F291CD801280BD010
:1010D80010B1022810D070470B484369012202FA68
:1010E80001F11943416170470748C369012202FAB7
:1010F80001F11943C161704703488369012202FA6B
:1011080001F11943816170470010024000230A4A27
:10111800136004326FF07F4111600432136010B124
:10112800012804D07047044B05221A607047024B0F
:1011380007221A60704700BF10E000E001FB00F1D1
:101148004FF47A7303FB01F1B1F1807F07D3074BAA
:101158006FF07F421A60043300221A607047034B15
:101168001960043300221A60704700BF14E000E0E1
:1011780008B501214820FFF7E1FF034B1B6813F472
:10118800803FFAD008BD00BF10E000E038B5054642
:10119800002402E0FFF7ECFF0134AC42FAD338BD7B
:1011A800034B1B681BB1024A1368013B136070476D
:1011B8005001002008B5FFF7F3FF08BD10B50E2158
:1011C8000220FFF781FF02210846FFF77DFF00217B
:1011D8000220FFF779FF0024174B1C600C331A68B4
:1011E80022F480521A60154A116821F48051116066
:1011F800116821F4005111601A6842F008021A605F
:101208001A6842F004021A600D4A41F64151116011
:101218001A6842F400521A60092211462046FFF764
:1012280047FE04220A212046FFF742FE01220A2136
:101238002046FFF7ABFE10BD0038014014380140CE
:1012480008380140064A136823F040031360054B31
:101258001860034B1B6813F0400FFAD0704700BFAB
:10126800003801400438014038B50546002402E042
:10127800FFF7E8FF0134285D0028F9D138BD0000E8
:10128800044B1B6813F0200FFAD0034B1868C0B248
:10129800704700BF003801400438014010B50024F1
:1012A80005E0074B1855FFF7CDFF0134E4B2FFF70F
:1012B800E7FF0D28F5D102480023035510BD00BFF4
:1012C8005401002008B50F210020FFF799FE0128DE
:1012D80007D010B9114B1B789BB10B20FFF7CCFD41
:1012E80008BD0E4B1B78012BF3D10D48FFF7BCFF4F
:1012F8000A20FFF74BFF00230A4A1370074A1370AE
:10130800EBE70948FFF7B0FF0A20FFF73FFF01238B
:10131800044A1370014A1370DFE700BF1801002068
:101328001C240008190100202824000808B5154BC2
:101338001B788BB9144B1B78012B03D00020FFF7C7
:101348009BFD08BD104B02221A70104B01221A7027
:101358000F48FFF789FFF1E7012BEFD10A4B1B7804
:10136800022B0BD0084B1B78012BE7D1064A1370D0
:10137800064A13700648FFF777FFDFE7024B0122A2
:101388001A70EFE7190100201C0100201D01002040
:101398004824000810B50620FFF762FD0720FFF774
:1013A8005FFD06210020FFF72BFE044607210020E1
:1013B800FFF726FE012C12D0012822D00620FFF7C5
:1013C8005BFD0720FFF758FD002206211046FFF7B6
:1013D800EBFC002207211046FFF7E6FC10BD144B7A
:1013E8001B78012BE8D1124B02221A70114B1C708A
:1013F8002046FFF780FA104B1C701048FFF734FFA7
:10140800DCE70C4B1B78002BD8D1094B1B78012B40
:10141800D4D10224064B1C70064B01221A702046B8
:10142800FFF769FA044B1C700548FFF71DFFC5E775
:101438001A0100201B01002068010020FC2300087D
:101448000824000810B582B0FFF710FE02210846F4
:10145800FFF73AFE03210220FFF736FE042102209F
:10146800FFF732FE00210220FFF72EFEA64A53683E
:1014780043F0007353600020FFF748FEFFF79EFE1D
:10148800FFF70CFFA14B1860FFF75CF9A04B93E83E
:1014980003000090ADF80410002206211046FFF763
:1014A80083FC002207211046FFF77EFC002211462C
:1014B8000120FFF779FC02220F210020FFF774FCBE
:1014C8009448FFF7E3FC9448FFF7E6FC9348FFF7DE
:1014D800E9FC002305E092490A7801320A700133D9
:1014E800DBB28A4A1268D25C4AB102A9194411F8DF
:1014F800081C9142EFD08A4A00211170EFE7884B0F
:101508001B78052B04D08748FFF7AEFE02B010BD4C
:101518008548FFF7A9FEFFF707FB92E1834B1B788D
:10152800002B40F095818248FFF79EFE4FF4FA7039
:10153800FFF72CFE8CE17D4B1B78002B40F08F8150
:101548007C48FFF791FE4FF4FA70FFF71FFE86E123
:101558007948FFF789FE4FF4FA70FFF717FE85E127
:10156800764B00221A7088E17548FFF77DFE4FF42C
:10157800FA70FFF70BFE87E17248FFF775FE4FF42C
:10158800FA70FFF703FE86E16F48FFF76DFE4FF430
:10159800FA70FFF7FBFD85E16C48FFF765FE4FF435
:1015A800FA70FFF7F3FD84E16948FFF75DFE4FF439
:1015B800FA70FFF7EBFD83E16648FFF755FE4FF43D
:1015C800FA70FFF7E3FD82E16348FFF74DFE4FF441
:1015D800FA70FFF7DBFD81E16048FFF745FE4FF445
:1015E800FA70FFF7D3FD80E15D48FFF73DFE4FF449
:1015F800FA70FFF7CBFD7FE1504B01221A70FFF71D
:1016080017FA8EE14D4B00221A70FFF736FA554B48
:101618001B78012B11D063B1022B12D0524B1B78CF
:10162800033B042B00F27D81DFE803F00F13171B47
:101638001F000020FFF75FF9F0E70120FFF75BF9D3
:10164800ECE70220FFF757F9E8E70320FFF753F923
:1016580067E10420FFF74FF963E10520FFF74BF935
:101668005FE10620FFF747F95BE10720FFF743F941
:1016780057E10721FFF7C4FC002840F059813B4B94
:101688001B78012B40F05481394B1B78022B40F01A
:101698004F81374B01221A700024344B1C702046AE
:1016A800FFF729F93348FFF7DFFD2E4B1C703FE1A8
:1016B8000521FFF7A5FC002840F041812E4B1B783F
:1016C800012B40F03C81194B1B78002B40F03781EF
:1016D8002A4B1B78022B40F03281274B00221A70CC
:1016E800264B01221A702648FFF7BEFD27E1012B81
:1016F80056D1224A1370234A13701F4A1370224886
:10170800FFF7B2FD4CE000BF0000014020010020BF
:101718002C250008351300089D130008CD12000879
:101728002401002018250008502400081901002071
:1017380054240008602400086C2400081E010020BE
:1017480074240008802400088C24000898240008C9
:10175800A4240008B4240008BC240008CC240008F1
:10176800D824000868010020690100201B0100201E
:101778001A010020302400081D0100201C0100204F
:10178800E424000825010020F42300080521002096
:10179800FFF736FC20B99C4B1B78012B00F0F18039
:1017A800FFF790F9994B188010F0010F10D010F046
:1017B800020F0DD110F0040F0AD110F0080F07D155
:1017C80010F0100F04D1924B1B78012B00F0DD8034
:1017D8008E4B1B8813F0100F0DD113F0020F0AD097
:1017E80013F0040F07D113F0080F04D1884B1B78AE
:1017F800022B00F0D980854B1B8813F0100F0DD1F8
:1018080013F0020F0AD113F0040F07D013F0080FDA
:1018180004D17F4B1B78012B00F0D7807B4B1B88B2
:1018280013F0100F0DD113F0020F0AD113F0040FAB
:1018380007D113F0080F04D0754B1B78022B00F06A
:10184800D3800E210120FFF7DBFB01283FF466AEB1
:101858000F210120FFF7D4FB01283FF46CAE0421CF
:101868000120FFF7CDFB01283FF472AE0C210120C7
:10187800FFF7C6FB01283FF473AE05210120FFF7EF
:10188800BFFB01283FF470AE08210120FFF7B8FB29
:1018980001283FF471AE08210020FFF7B1FB0128B1
:1018A8003FF472AE07210120FFF7AAFB01283FF49D
:1018B80073AE01210846FFF7A3FB01283FF474AE7D
:1018C8000D210120FFF79CFB01283FF475AE0B2189
:1018D8000120FFF795FB01283FF476AE0B2100208D
:1018E800FFF78EFB01283FF477AE06210120FFF7B2
:1018F80087FB01283FF478AE0C210120FFF780FB1D
:10190800012804D1434B1B78002B3FF475AE0C2102
:101918000120FFF775FB20B93E4B1B78012B3FF4E4
:1019280071AE06210020FFF76BFB00283FF4A1AE43
:1019380000210120FFF764FB00283FF4B9AE052120
:101948000020FFF75DFB01287FF420AF2E4B1B78AA
:10195800002B7FF41BAF304B1B78002B7FF4C7AEF6
:101968002E4B1B78012B7FF41BAF2C4B02221A70D5
:101978000123254A13702A4A13702A48FFF774FC7A
:101988000EE7214B00221A700AE7214B02221A7037
:101998002548FFF769FC0720244B1870FEF7ABFFBA
:1019A800234B00221A7013E7194B01221A702148A1
:1019B800FFF75AFC06201D4B1870FEF79CFF00230A
:1019C8001B4A13701C4A137015E7114B02221A7038
:1019D8001A48FFF749FC0520144B1870FEF78BFFD7
:1019E800134B00221A7019E7094B01221A70144888
:1019F800FFF73AFC0E4B00221A7004200B4B1870AC
:101A0800FEF779FF1DE700BF250100201401002023
:101A1800160100201E010020190100201C010020D1
:101A28001D010020F4230008EC24000869010020AF
:101A380017010020FC2400082601002004250008C6
:101A480010250008014B1868704700BF20000020CF
:101A580030B5141E05469BB0184605DA8B234FF0A7
:101A6800FF302B601BB030BD4FF40273ADF80C3063
:101A78000CBF234604F1FF33029305934FF6FF731F
:101A880000910491ADF80E3002461E9B6946284627
:101A980000F072F8431CBCBF8B232B60002CE1D0F4
:101AA8000022009B1A70DDE707B5009313460A462B
:101AB800014603480068FFF7CBFF03B05DF804FB5D
:101AC800200000202DE9F0478E6882469E420C4691
:101AD8009046994637D88A8912F4906F31D00223FC
:101AE800256809696F1A656905EB450595FBF3F5E6
:101AF80009F101033B449D4238BF1D46530530D5CB
:101B0800294600F035FB064650B90C234FF0FF304C
:101B1800CAF80030A38943F04003A381BDE8F087E9
:101B28003A46216900F0B4FAA38923F4906343F09C
:101B38008003A38126613E4426604E466561ED1B05
:101B4800A5604E4500D94E4632464146206800F011
:101B5800AAFAA36800209B1BA36023681E44266082
:101B6800DCE72A4600F05EFB06460028E2D1216940
:101B7800504600F0B1FAC8E72DE9F04F9DB0039345
:101B88008B8980461D060C4616460FD50B696BB926
:101B9800402100F0EDFA2060206128B90C23C8F834
:101BA80000304FF0FF30C7E0402363610023099302
:101BB80020238DF8293030234FF0010B8DF82A307F
:101BC80037463D4615F8013B0BB1252B3ED1B7EB07
:101BD800060A0BD05346324621464046FFF772FFAD
:101BE800013000F0A480099B534409933B78002BF3
:101BF80000F09D8000234FF0FF32CDE905230493C8
:101C080007938DF853301A932F46052217F8011BB6
:101C18004F4800F02FFA049BD0B9D90644BF2022C0
:101C28008DF853201A0744BF2B228DF853202A78A9
:101C38002A2A15D02F4600200A25079A394611F876
:101C4800013B303B092B4DD9B8B10FE02F46B8E71F
:101C58003F4A3D46801A0BFA00F018430490D3E738
:101C6800039A111D12680391002A01DB079204E010
:101C7800524243F00203079204933B782E2B0CD177
:101C88007B782A2B33D1039B02371A1D1B680392DA
:101C9800002BB8BF4FF0FF3305932E4D0322397840
:101CA800284600F0E7F938B14023401B03FA00F05A
:101CB800049B0137034304933978062226487E1C87
:101CC8008DF8281000F0D6F9002838D0234B13BB24
:101CD800039B073323F0070308330393099B4B4403
:101CE80009936DE705FB023201200F46A6E70023A2
:101CF8000A25194601370593384610F8012B303A62
:101D0800092A03D9002BC8D00591C6E705FB012194
:101D180001230746F0E703AB00932246104B04A9C2
:101D28004046AFF30080B0F1FF3F8146D6D1A3898A
:101D38005B063FF536AF09981DB0BDE8F08F03ABE1
:101D480000932246064B04A9404600F081F8EAE7D2
:101D5800342500083A2500083E2500080000000048
:101D6800CD1A00082DE9F04791461F468A680B698D
:101D780006469342B8BF1346C9F8003091F843208D
:101D88000C46DDF8208012B10133C9F80030236811
:101D9800990642BFD9F800300233C9F800302568E7
:101DA80015F0060507D104F1190AE368D9F80020EF
:101DB8009B1AAB4229DC94F843302268003318BFE1
:101DC800012392062ED404F1430239463046C04717
:101DD800013021D02368E56803F00603042B18BFFF
:101DE8000025D9F800204FF0000908BFAD1AA368F4
:101DF800226908BF25EAE5759342C4BF9B1AED180E
:101E08001A344D451AD1002008E0012352463946BC
:101E18003046C047013003D14FF0FF30BDE8F087AE
:101E28000135C2E73020E11881F843005A1C94F8C4
:101E380045102244023382F84310C4E701232246A6
:101E480039463046C0470130E6D009F10109D8E7E4
:101E58002DE9F04301F1430C0C46097E85B06E294B
:101E68001746064698460C9A00F0B38022D8632994
:101E780036D00AD8002900F0B980582900F08380AC
:101E880004F1420584F8421032E0642901D069293E
:101E9800F6D120681368050603F104012AD51B68EA
:101EA8001160002B03DA2D225B4284F843206F482F
:101EB8000A2239E0732900F09D8008D86F2920D0C4
:101EC8007029DDD1236843F02003236003E07529DE
:101ED80017D07829D4D17823654884F8453055E05F
:101EE800136804F14205191D1B68116084F842301B
:101EF80001238CE01B6810F0400F116018BF1BB263
:101F0800CFE713682568181D1060280601D51B68DF
:101F180002E06806FBD51B886F2914BF0A22082235
:101F28005248002184F843106568002DA560C0F26E
:101F38009580216821F004012160002B3DD1002DFE
:101F480040F08E806546082A0BD12368DB0708D548
:101F5800236962689A42DEBF302305F8013C05F127
:101F6800FF35ACEB05032361CDF800803B4603AA9F
:101F780021463046FFF7F6FE01304DD14FF0FF30D5
:101F880005B0BDE8F083394884F845101368216826
:101F98001D1D1B6815600A060BD5CA0744BF41F012
:101FA800200121601BB9226822F020022260102241
:101FB800B7E74D0648BF9BB2EFE76546B3FBF2F1C2
:101FC80002FB1133C35C05F8013D0B460029F5D12E
:101FD800B9E713682568181D6169106028061B6831
:101FE80001D5196002E06A06FBD519800023654611
:101FF8002361B9E71368191D11601D686268002123
:10200800284600F037F808B1401B60606368236118
:10201800002384F84330A7E723692A463946304627
:10202800C0470130AAD023689B0713D4E068039BFC
:102038009842B8BF1846A3E701234A4639463046B6
:10204800C04701309AD00135E368039A9B1AAB4226
:10205800F2DCEBE7002504F11909F5E7002BACD118
:10206800037804F1420584F842306CE745250008FE
:102078005625000810B5C9B202449042034601D162
:10208800002303E01C7801308C42F6D1184610BDBD
:1020980010B5431E0A44914200D110BD11F8014BFE
:1020A80003F8014FF7E7884210B501EB020307D8A0
:1020B800421E99420AD011F8014B02F8014FF8E785
:1020C8008342F5D98118D21AD34200D110BD13F832
:1020D800014D01F8014DF7E738B50546002943D011
:1020E80051F8043C0C1F002BB8BFE41800F0D0F8DE
:1020F8001E4A1368104633B9636014602846BDE869
:10210800384000F0C6B8A3420BD921686218934240
:1021180001BF1A685B685218226063600460EDE7CB
:1021280013465A680AB1A242FAD919685818A04247
:102138000BD120680144581882421960DED110681A
:102148005268014419605A60D8E702D90C232B6001
:10215800D4E7206821188A4201BF1168526809181B
:10216800216062605C60C9E738BD00BF28010020BB
:1021780070B5CD1C25F0030508350C2D38BF0C258E
:10218800002D064601DBA94203D90C233360002049
:1021980070BD00F07DF8214A1468214691B9204CA1
:1021A80023681BB9304600F063F8206029463046A2
:1021B80000F05EF8431C24D10C233046336000F055
:1021C80068F8E4E70B685B1B18D40B2B0FD90B607E
:1021D800CC18CD50304600F05CF804F10B00231DFC
:1021E80020F00700C31AD3D05A42E250D0E74B6818
:1021F8008C4216BF636013600C46EBE70C464968D7
:10220800CCE7C41C24F00304A04205D0211A3046B0
:1022180000F02EF80130CFD02560DBE72801002040
:102228002C010020F8B5074614460E4621B9BDE832
:10223800F8401146FFF79CBF22B9FFF74DFF25462E
:102248002846F8BD00F026F8A0420FD221463846AD
:10225800FFF78EFF05460028F2D031462246FFF7E9
:1022680017FF31463846FFF737FFE9E73546E7E716
:1022780038B50023054C054608462360FEF77AF872
:10228800431C02D1236803B12B6038BD3001002004
:102298007047704751F8043C181F002BBCBF0B58FF
:1022A800C0187047537461636B206672616D653A3C
:1022B8000A000000205230203D2020253038580ADE
:1022C80000000000205231203D2020253038580AD7
:1022D80000000000205232203D2020253038580AC6
:1022E80000000000205233203D2020253038580AB5
:1022F8000000000020523132203D20253038580A95
:1023080000000000204C52203D2020253038580A7B
:1023180000000000205043203D2020253038580A76
:102328000000000020505352203D20253038580A24
:10233800000000004653522F4641523A0A0000005E
:102348002043465352203D2020253038580A0000AB
:102358002048465352203D2020253038580A000096
:102368002044465352203D2020253038580A00008A
:102378002041465352203D2020253038580A00007D
:10238800204D4D464152203D20253038580A000046
:102398002042464152203D2020253038580A00006E
:1023A8004D6973630A000000204C522F4558435F63
:1023B80052455455524E3D20253038580A000000E9
:1023C8005B486172644661756C745D0A00000000C8
:1023D8005B4275734661756C745D0A005B55736189
:1023E80067654661756C745D0A0000002A57464FA0
:1023F800562300002A4C617374204563686F2300DC
:102408002A4563686F204F66662300002A4D464FB1
:10241800562300002A546865726D616C2300000021
:102428002A446179230000002A46697273742045A2
:1024380063686F23000000002A4E464F57230A00A6
:102448002A4E464F562300004F4B00002A466F6322
:1024580075732B23000000002A466F6375732D23C4
:10246800000000002A4175746F2300002A45787027
:102478006F737572652D23002A4578706F737572B6
:10248800652B23002A436F6E74726173742B2300CB
:102498002A436F6E74726173742D23002A46756C1B
:1024A8006C2053637265656E230000002A436F6CCD
:1024B8006F7223002A426174746C652052616E67E2
:1024C800652300002A4272696768742B23000000A4
:1024D8002A4272696768742D230000002A4D464F0E
:1024E800572300002A486967685F4578702E230AD9
:1024F800000000002A48656174230A002A536162BB
:102508006F74230A000000002A4845502300000089
:1025180057726F6E6720496E7075742E2E526573F0
:10252800657400005374617274000000232D302B11
:102538002000686C4C0065666745464700303132BC
:102548003334353637383941424344454600303113
:0F25580032333435363738396162636465660073
:10256800785634129000002000000000000000009F
:1025780000000000010203040607080900A24A043B
:1025880024000020000000000000000000000000FF
:102598000000000000000000000000000000000033
:1025A8000000000000000000000000000000000023
:1025B8000000000000000000000000000000000013
:1025C8000000000000000000000000000000000003
:1025D80000000000000000000000000000000000F3
:0825E800000000003254769857
:040000050800010DE1
:00000001FF
