:020000040800F2
:100000000050002021020008270200082B020008EF
:100010009D020008A1020008E9020008000000009B
:100020000000000000000000000000003103000894
:1000300035030008000000003903000869130008B8
:100040004D0300084D0300084D0300084D03000850
:100050004D0300084D030008050F0008150F0008A8
:10006000250F0008350F0008450F00084D03000854
:100070004D0300084D0300084D0300084D03000820
:100080004D0300084D0300084D0300084D03000810
:100090004D0300084D0300084D030008550F0008EC
:1000A0004D0300084D0300084D0300084D030008F0
:1000B0004D0300084D0300084D0300084D030008E0
:1000C0004D0300084D0300084D0300084D030008D0
:1000D0004D0300084D0300084D0300084D030008C0
:1000E000650F00084D0300084D03000800000000E4
:1000F0000000000000000000000000000000000000
:1001000000000000000000005FF808F100B583B0B7
:1001100000F0AAF9304B314A1360314A1360314B79
:10012000314A32498B4204D21168196004330432D7
:10013000F7E72A4B1A682E4B9A4200D0FEE7284B6D
:100140001A682C4B9A42F9D1234B2B4A13602B4A45
:1001500013602B4B02E000221A600433294A9342B9
:10016000F9D3254B1B6813B9244B1B6803B1FEE779
:1001700000F086F9694601A800F022F9224C234BD1
:10018000E41AA4100025AC4214DC214C214BE41AE3
:10019000A4100025AC4213DC0099019801F016FB75
:1001A00005461D4C1D4BE41AA410002C0EDC2846FD
:1001B00000F0E2F8154B53F8253098470135E2E797
:1001C000144B53F8253098470135E3E7013C134BB6
:1001D00053F824309847E8E7BABADECA0000002096
:1001E0008800002000000020702700088C000020FC
:1001F00078563412325476988C00002098010020F2
:100200008C0000209C01002078030008780300087F
:1002100078030008780300087803000878030008D2
:1002200008B5FFF773FF00BEFEE71EF0040F0CBF1A
:10023000EFF30880EFF309807146414A10472DE93A
:10024000F04182B004468846124B5E6B9F6B9D6AFC
:100250001B6B13F0020F03D00E4BDB6A002B0CDB81
:100260000D4800F0B5F8CDF800803B4632462946EF
:10027000204600F009F900BEFEE74BF6AB6100F046
:100280007DF90028ECD0034B4FF00042DA6202B057
:10029000BDE8F08100ED00E03826000800BEFEE772
:1002A0001EF0040F0CBFEFF30880EFF309807146D6
:1002B000244A10472DE9F04182B004468846084B95
:1002C0005E6B9F6B9D6A074800F082F8CDF8008056
:1002D0003B4632462946204600F0D6F800BEFEE7EF
:1002E00000ED00E0482600081EF0040F0CBFEFF3FD
:1002F0000880EFF309807146134A10472DE9F04159
:1003000082B004468846084B5E6B9F6B9D6A074827
:1003100000F05EF8CDF800803B4632462946204684
:1003200000F0B2F800BEFEE700ED00E05426000841
:1003300000BEFEE700BEFEE700BEFEE7704700001D
:100340003F020008B5020008FD02000800BEFEE7FB
:1003500070270008000000208C0000207027000893
:1003600000000000000000008C0000209C01002024
:08037000000000000000000085
:10037800FEE7000008B503460C4A12685AB10B4A5A
:100388001068033323F003030344094A934206D851
:10039800064A136008BD054A06491160EFE701F0F7
:1003A80089FC0C2303604FF0FF30F3E79000002036
:1003B800004C00209C01002001230360014B0B60CE
:1003C800704700BF040000200FB400B583B004AB31
:1003D80053F8042B01938021064801F09DFC002866
:1003E80003DD0146034800F037F803B05DF804EB7D
:1003F80004B07047980000202DE9F04385B004460A
:100408000F4643560BB10E461EE0042528462146EA
:10041800ABBE0446384605B0BDE8F08314F9011BAD
:1004280004AA1A4402F8101C0133AB42F6D304AAFA
:100438001344002203F8102C4FF00408E946404604
:100448004946ABBE8046761B002EE3D03546102EBB
:1004580028BF10250023E8E708B5FFF7CDFF08BD42
:1004680008B500F0FDF8024A024B9A6008BD00BFCB
:100478000000000800ED00E008B500F019F908BD1B
:10048800F8B504460D4617461E462748FFF79CFF59
:1004980021682648FFF798FF61682548FFF794FF11
:1004A800A1682448FFF790FFE1682348FFF78CFF15
:1004B80021692248FFF788FF61692148FFF784FF17
:1004C800A1692048FFF780FFE1691F48FFF77CFF1B
:1004D8001E48FFF779FF29461D48FFF775FF1D4C99
:1004E800E16A1D48FFF770FF216B1C48FFF76CFF9E
:1004F800E16B1B48FFF768FF15F0800F0AD115F470
:10050800004F0CD11748FFF75FFF06991648FFF711
:100518005BFFF8BD39461548FFF756FFEFE7314650
:100528001348FFF751FFEDE71C2500082C250008AC
:100538003C2500084C2500085C2500086C250008AF
:100548007C2500088C2500089C250008AC2500089F
:10055800B825000800ED00E0C8250008D8250008E7
:10056800E82500081826000820260008F8250008B5
:100578000826000883691A888A4201D0002070473B
:100588000268033A012A03D80233836101207047C5
:100598000020704782B00023019300932C4A13680F
:1005A80043F4803313602A4B1B6803F40033009331
:1005B800019B01330193009B1BB9019BB3F5A06F0D
:1005C800F1D1234B1B6813F4003F06D0012300939D
:1005D800009B012B04D002B0704700230093F7E77B
:1005E8001C4B1A6842F010021A601A6822F00302C3
:1005F8001A601A6842F002021A60A3F580535A681A
:100608005A605A685A605A6842F480625A605A6856
:1006180022F47C125A605A6842F4E8125A601A6846
:1006280042F080721A600A4B1B6813F0007FFAD000
:10063800074B5A6822F003025A605A6842F00202D5
:100648005A60034B5B6803F00C03082BF9D1C2E72F
:10065800001002400020024008B5FFF79BFF08BDCC
:1006680008B5104B1A6842F001021A6059680E4A20
:100678000A405A601A6822F0847222F480321A60A2
:100688001A6822F480221A605A6822F4FE025A601C
:100698004FF41F029A60FFF7DFFF044B4FF0006230
:1006A8009A6008BD001002400000FFF800ED00E06D
:1006B8001F4B5B6803F00C03042B15D0082B17D0D5
:1006C8001BB11C4B1C4A1A6002E01A4B1A4A1A60EA
:1006D800174B5B68C3F30313184AD35CDAB21549A6
:1006E8000B68D3400B607047124B134A1A60EFE750
:1006F8000F4A53685268C3F38343023312F4803FAE
:100708000AD00B4A526812F4003F0BD00C4A02FB85
:1007180003F3084A1360DBE7094A02FB03F3054ABF
:100728001360D5E7044A02FB03F3024A1360CFE7DC
:10073800001002401C00002000127A000C0000206B
:1007480000093D0008B508220421002000F086FCBD
:1007580008220621002000F081FC08220721002041
:1007680000F07CFC00220621104600F0E5FC002287
:100778000721104600F0E0FC01220221002000F0D1
:100788006DFC01220321002000F068FC01220C21ED
:10079800002000F063FC01220021084600F05EFC06
:1007A80008220521002000F059FC082211460020EB
:1007B80000F054FC08220B21002000F04FFC082216
:1007C8000F21002000F04AFC00221146104600F0DC
:1007D800B3FC00220521104600F0AEFC00220821DF
:1007E800104600F0A9FC00220B21104600F0A4FCE2
:1007F80000220F21104600F09FFC01220321104621
:1008080000F02CFC01220921104600F027FC0122EF
:100818000D21022000F022FC01220E21022000F00E
:100828001DFC01220F21022000F018FC08220021E3
:10083800012000F013FC08220121084600F00EFCFC
:1008480008221146012000F009FC0022114601206F
:1008580000F072FC00220121084600F06DFC002225
:100868000821012000F068FC08220421012000F082
:10087800F5FB00220421012000F05EFC082205217E
:10088800012000F0EBFB00220521012000F054FCC0
:1008980008220621012000F0E1FB002206210120A8
:1008A80000F04AFC08220721012000F0D7FB0022B3
:1008B8000721012000F040FC01220A21104600F027
:1008C800CDFB08220B21012000F0C8FB00220B21E0
:1008D800012000F031FC08220C21012000F0BEFBB1
:1008E80000220C21012000F027FC08220D21012004
:1008F80000F0B4FB00220D21012000F01DFC0822AD
:100908000E21012000F0AAFB00220E21012000F098
:1009180013FC01220F21104600F0A0FB0122114612
:10092800002000F09BFB08BD08B50A2811D8DFE8B5
:1009380000F006111C27415B758FA9B9C900012277
:100948000021084600F0F8FB00220C21104600F0B8
:10095800F3FB08BD01220C21002000F0EDFB002272
:100968001146104600F0E8FBF3E700220C21104680
:1009780000F0E2FB00221146104600F0DDFBE8E73C
:1009880000220321012000F0D7FB01220921104693
:1009980000F0D2FB00220D21022000F0CDFB002246
:1009A8000E21022000F0C8FB00220F21022000F0D7
:1009B800C3FBCEE700220321012000F0BDFB00228B
:1009C8000921012000F0B8FB01220D21022000F0CE
:1009D800B3FB00220E21022000F0AEFB00220F2103
:1009E800022000F0A9FBB4E700220321012000F057
:1009F800A3FB00220921012000F09EFB00220D210B
:100A0800022000F099FB01220E21022000F094FB45
:100A180000220F21022000F08FFB9AE70022032119
:100A2800012000F089FB00220921012000F084FB4D
:100A380000220D21022000F07FFB00220E2102205F
:100A480000F07AFB01220F21022000F075FB80E7FD
:100A580001220321104600F06FFB0022092101202A
:100A680000F06AFB00220D21022000F065FB002245
:100A78000E21022000F060FB00220F21022000F06E
:100A88005BFB66E700220121104600F055FB0022BF
:100A98000A21012000F050FB01220F21104600F02E
:100AA8004BFB56E701221146002000F045FB0022CF
:100AB8000A21012000F040FB00220F21012000F054
:100AC8003BFB46E700220121104600F035FB0122DE
:100AD8000A21104600F030FB00220F21012000F00F
:100AE8002BFB36E708B501220321104600F024FB52
:100AF80001220921104600F01FFB01220D210220CE
:100B080000F01AFB01220E21022000F015FB012241
:100B18000F21022000F010FB01220021084600F0FE
:100B28000BFB01220C21002000F006FB01221146DC
:100B3800002000F001FB01220A21104600F0FCFA17
:100B480001220F21104600F0F7FA08BD08B500226F
:100B58000321012000F0F0FA00220921012000F011
:100B6800EBFA00220D21022000F0E6FA00220E2105
:100B7800022000F0E1FA00220F21022000F0DCFA46
:100B880001220021084600F0D7FA00220C21104665
:100B980000F0D2FA00220121104600F0CDFA00221E
:100BA8000A21012000F0C8FA00220F21012000F0DC
:100BB800C3FA08BD38B500220321104600F0BCFA7C
:100BC800012000F0B9FB01220321002000F0B4FA53
:100BD80000252C4616E06400A4B20421002000F091
:100BE800E5FA80B2044301220221002000F0A4FAB1
:100BF800012000F0A1FB00220221104600F09CFA1F
:100C08000135EDB2072DE6D900220221104600F089
:100C180093FA204638BD00002DE9F84300209E4B8A
:100C280018709E4B01221A700F2100F0BFFA01289C
:100C380011D00F21002000F0B9FAA8B1002101203D
:100C480000F0B4FAC8B10021012000F0AFFA012881
:100C580027D0052452E0924800F0DCFB0023914A9B
:100C68001370914A1370E4E7904800F0D3FB012316
:100C78008C4A13708C4A1370E0E7052100F096FA4D
:100C88000028E0D101248A4B1C708A4800F0C2FB7E
:100C98000920FFF749FE884B1C70884B09221A70FF
:100CA800D1E7804B1B7843B1012BD2D1804B022274
:100CB8001A70814B01221A70CBE77D4B02221A7001
:100CC8007D4B01221A707E4800F0A4FB0820FFF734
:100CD8002BFE7A4B08221A70BBE77A4800F09AFB81
:100CE8000A20FFF721FE744B01221A70704B022272
:100CF8001A70724B0A221A700134E4B2072C2AD8EF
:100D08002146002000F052FA0128F5D1062C13D014
:100D1800072C02D0052CEFD1DFE76B4800F07AFBF7
:100D28000120FFF701FE694B02221A700123684A6D
:100D38001370684A1370DFE7674800F06BFB022006
:100D4800FFF7F2FD0223614A1370614A1370614B89
:100D580001221A70D0E70621002000F027FA20B1FE
:100D6800FFF728FF0546002428E0072100F01EFAB7
:100D78000028F5D1594800F04DFB0020FFF7D4FDBD
:100D88000123524A1370524A00211170514A1370BC
:100D9800E6E70320FFF7C8FD484F03263E70504B97
:100DA80002221A704F4B01221A704F4800F032FB92
:100DB8003E703046FFF7B8FD0134E4B2042C68D821
:100DC80045FA04F313F0010FF6D0042CF4D801A36C
:100DD80053F824F0730E00084B0E0008230E000889
:100DE800F10D00089B0D00080420FFF79DFD334F0F
:100DF80004263E70DFF8EC804FF0000988F8009078
:100E0800374B01221A70394800F004FB88F800902B
:100E18003E703046FFF788FDCEE70520FFF784FDDA
:100E2800264F05263E702E4B02221A70304800F0DD
:100E3800F1FA3E703046FFF777FD2A4B00221A7010
:100E4800BAE70620FFF770FD1C4F06263E70244BBC
:100E580001221A70274800F0DDFA3E703046FFF78D
:100E680063FD204B00221A70A6E70720FFF75CFD00
:100E7800124F07263E701A4B02221A701E4800F0C5
:100E8800C9FA3E703046FFF74FFD164B00221A7024
:100E980092E7BDE8F88300BF530100204E0100200F
:100EA8006426000857010020560100206826000823
:100EB8005A0100206C2600085B01002095010020E3
:100EC80070260008742600087826000858010020BB
:100ED80094010020590100207C2600088026000883
:100EE8005201002054010020842600088C260008A6
:100EF800942600089C260008A426000808B5024B82
:100F08001B68984708BD00BF8401002008B5024B44
:100F18001B68984708BD00BF7801002008B5024B40
:100F28001B68984708BD00BF8001002008B5024B28
:100F38001B68984708BD00BF7401002008B5024B24
:100F48001B68984708BD00BF7C01002008B5024B0C
:100F58001B68984708BD00BF8801002008B5024BF0
:100F68001B68984708BD00BF8C010020F8B50546EE
:100F78000C4616460021022000F07CF9A308274AF7
:100F8800023352F823104FEA840C0F2707FA0CF7A4
:100F980021EA070142F8231052F8230005FA0CF55C
:100FA800284342F82300012E1AD096B1022E1ED0F3
:100FB8001B490B680122A24013430B60042C20D963
:100FC800631FDBB2042B21D90A3CE4B2052C21D9DA
:100FD800F8BD13498B680122A24013438B60E7E7F1
:100FE8000F49CB680122A2401343CB60E0E70C4ACB
:100FF80091680123A34019439160D1680B43D360E2
:10100800D6E7A01DC0B200F0F1F8E1E7172000F024
:10101800EDF8DDE7282000F0E9F8D9E70000014005
:101028000004014003494B69012202FA00F003431E
:101038004B61704700040140014B1860704700BFC6
:1010480084010020014B1860704700BF8801002010
:10105800014B1860704700BF8C01002010B40729AD
:1010680030D8012812D018B102281DD010BC704702
:101078002E4B186889000F248C4020EA0400186061
:10108800186802FA01F101431960EFE7284B186864
:1010980089000F248C4020EA04001860186802FABE
:1010A80001F101431960E1E7224B186889000F2418
:1010B8008C4020EA04001860186802FA01F1014324
:1010C8001960D3E70F29D1D80839C9B201281ED031
:1010D80078B10228CAD1174844688B000F2199407B
:1010E80024EA01014160446802FA03F121434160A6
:1010F800BCE70E4B58688C000F21A14020EA010183
:101108005960586802FA04F101435960AEE7084B88
:101118005C6888000F21814024EA010159605C68FD
:1011280002FA00F121435960A0E700BF000801401E
:10113800000C014000100140CAB1012A2ED101283B
:1011480009D010B102280CD07047012303FA01F12D
:10115800134B19617047012303FA01F1114B19610F
:101168007047012303FA01F10F4B196170470128F9
:1011780009D010B102280CD07047012303FA01F1FD
:10118800074B59617047012303FA01F1054B596177
:101198007047012303FA01F1034B5961704700BFFF
:1011A80000080140000C01400010014001280AD04D
:1011B80018B102280DD000207047094B9868C84024
:1011C80000F001007047074B9868C84000F0010024
:1011D8007047054B9868C84000F00100704700BF91
:1011E80000080140000C0140001001401F2809D9E7
:1011F8002038C0B21B2804D8012303FA00F0044B9E
:1012080018607047012303FA00F0024B186070471A
:1012180004E100E000E100E0154B1A6842F4002206
:101228001A605A6842F480325A605A6842F480223E
:101238005A605A6842F400225A605A6842F480128E
:101248005A605A6822F400125A605A6822F0010261
:101258005A605A6842F002025A601A6842F0807274
:101268001A60034B1B6813F0007FFAD0704700BF69
:10127800001002401F291CD801280BD010B10228E9
:1012880010D070470B484369012202FA01F1194353
:10129800416170470748C369012202FA01F1194305
:1012A800C161704703488369012202FA01F11943B9
:1012B800816170470010024000230A4A136004321B
:1012C8006FF07F4111600432136010B1012804D01F
:1012D8007047044B05221A607047024B07221A60B8
:1012E800704700BF10E000E001FB00F14FF47A7393
:1012F80003FB01F1B1F1807F07D3074B6FF07F4209
:101308001A60043300221A607047034B19600433D3
:1013180000221A60704700BF14E000E008B5012100
:101328004820FFF7E1FF034B1B6813F4803FFAD016
:1013380008BD00BF10E000E038B50546002402E013
:10134800FFF7ECFF0134AC42FAD338BD034B1B68FE
:101358001BB1024A1368013B1360704790010020DB
:1013680008B5FFF7F3FF08BD10B50E210220FFF7FF
:1013780081FF02210846FFF77DFF00210220FFF7C9
:1013880079FF0024174B1C600C331A6822F4805232
:101398001A60154A116821F480511160116821F40E
:1013A800005111601A6842F008021A601A6842F087
:1013B80004021A600D4A41F6415111601A6842F45C
:1013C80000521A60092211462046FFF747FE042200
:1013D8000A212046FFF742FE01220A212046FFF794
:1013E800ABFE10BD003801401438014008380140F8
:1013F800064A136823F040031360054B1860034B3B
:101408001B6813F0400FFAD0704700BF0038014046
:101418000438014038B50546002402E0FFF7E8FF2C
:101428000134285D0028F9D138BD0000054B1B6840
:1014380013F0200F04D0044B1B6803700120704781
:1014480000207047003801400438014000B583B0DF
:101458000DF10700FFF7EAFFC8B19DF807300A2B26
:101468000CD00D2B0AD00C4A1278302A11D8501CF7
:101478000949087009498B54002005E0064B197882
:101488000648002242541A7003B05DF804FB00209D
:10149800FAE70020F8E700BF180100201C0100202F
:1014A80008B50F210020FFF781FE012807D010B9E9
:1014B800114B1B789BB10F20FFF7B4FD08BD0E4BF5
:1014C8001B78012BF3D10D48FFF7A4FF0A20FFF783
:1014D80033FF00230A4A1370074A1370EBE70948E1
:1014E800FFF798FF0A20FFF727FF0123044A13702C
:1014F800014A1370DFE700BF56010020AC26000840
:1015080057010020B026000808B5114B1B78B3B965
:10151800104B1B78012B03D00020FFF783FD08BD7B
:101528000C4B02221A700C4B01221A700B48FFF761
:1015380071FF08200A4B1870FFF7F6F9ECE7012B4A
:10154800EAD1044B02221A70034B01221A70E3E716
:10155800570100205A0100205B010020C426000822
:101568009401002010B506210020FFF71FFE044655
:1015780007210020FFF71AFE012808D0012C19D0F6
:101588000620FFF74FFD0720FFF74CFD10BD154B58
:101598001B78012BF2D1134B02221A700124124B33
:1015A8001C702046FFF7C0F9104B1C701048FFF75D
:1015B80031FFE5E70C4B1B78002BE1D1094B1B7879
:1015C800012BDDD10224074B1C70074B01221A7036
:1015D8002046FFF7A9F9054B1C700648FFF71AFFCC
:1015E800CEE700BF580100205901002094010020D7
:1015F800B4260008BC26000838B5654B1A88654B28
:101608001B889A4200F09680614A138013F01F03EA
:1016180003D1614A1278012A24D0012B28D0022B49
:101628003FD0042B55D0082B6CD0102B40F086806F
:101638005A4B1B78012B40F08180574B1B78002BAD
:101648007CD1574B00221A70544B02221A70012485
:10165800544B1C700320544B1870FFF765F94E4B20
:101668001C706BE000234C4A1370504A137065E0FD
:101678004A4A1278012AD2D1474A1278002ACED192
:101688000024474B1C70454B02221A70424B012222
:101698001A700720444B1870FFF746F9414B1C702D
:1016A8004CE03E4A1278022ABBD13B4A1278002A03
:1016B800B7D100253A4B1D700124384B1C70062009
:1016C800394B1870FFF730F9364B1D70324B1C70D0
:1016D80034E0324A1278012AA5D12F4A1278002A1A
:1016E800A1D100242E4B1C702C4B02221A7005200D
:1016F8002D4B1870FFF718F92A4B1C70264B012246
:101708001A701BE0254A1278022A8ED1224A1278D2
:10171800002A8AD10023224A137001241F4A147018
:10172800204A13700420204B1870FFF7FDF81A4B5D
:101738001C7003E01D4A1378013313701B4B1B7890
:101748000F2B00D038BD164B1B78002BFAD1164B47
:101758001B78033B042B07D8DFE803F0030A0E12BB
:1017680016001348FFF756FE0D4B01221A70E9E7E1
:101778001048FFF74FFEF7E70F48FFF74BFEF3E778
:101788000E48FFF747FEEFE70D48FFF743FEEBE78C
:1017980020000020500100205301002052010020A9
:1017A8004E01002054010020950100205501002021
:1017B800842600088C260008942600089C26000829
:1017C800A426000810B582B0FFF726FD02210846BE
:1017D800FFF750FD03210220FFF74CFD04210220F2
:1017E800FFF748FD00210220FFF744FDBE4A536879
:1017F80043F0007353600020FFF75EFDFFF7B4FD70
:10180800FEF7A0FFB94B93E803000090ADF8041071
:10181800002206211046FFF7A9FB002207211046E7
:10182800FFF7A4FB002211460120FFF79FFB0222CD
:101838000F210020FFF79AFBAD48FFF7FDFBAD48ED
:10184800FFF700FCAC48FFF703FC1FE0AB490A7840
:1018580001320A700133DBB2C25C4AB102A91944F1
:1018680011F8081C9142F1D0A44A00211170F1E747
:10187800A24B1B78052B14D008210120FFF796FCFA
:1018880001281AD09E4B1B78012B2AD0FFF7DEFDCA
:101898009C4B18600378002BEAD00023974A1370FA
:1018A800DAE79948FFF7B6FDFFF7B6F9944B01223E
:1018B8001A70924B00221A70DEE74FF4FA70FFF7A5
:1018C8003BFD9148FFF7A6FDFFF7A6F98C4B0122D7
:1018D8001A708A4B00221A704FF4FA70FFF72CFD29
:1018E800D0E70E210120FFF761FC012800F08C8071
:1018F80004210120FFF75AFC012800F092800C21F6
:101908000120FFF753FC012800F0938005210120F6
:10191800FFF74CFC012800F0908001210846FFF7F2
:1019280045FC012800F0918008210020FFF73EFCCB
:10193800012800F0928007210120FFF737FC0128D9
:1019480000F093800D210120FFF730FC012800F002
:1019580094800B210120FFF729FC012800F09580D5
:101968000B210020FFF722FC012800F096800621B9
:101978000120FFF71BFC012800F097800C210120B3
:10198800FFF714FC012804D1604B1B78002B00F0F2
:1019980094800C210120FFF709FC20B95B4B1B78D0
:1019A800012B00F0908006210020FFF7FFFB0028A4
:1019B80000F0048100210120FFF7F8FB002800F067
:1019C8001C8105210020FFF7F1FB012840F035813B
:1019D8004F4B1B78002B40F030814E4B1B78012B6E
:1019E80040F034814B4B02221A700123484A13708D
:1019F800494A13704948FFF70DFD0A20FEF794FF86
:101A0800474B0A221A7021E1464B1B78002B7FF4C2
:101A18006FAF4548FFF7FEFC4FF4FA70FFF78CFCF8
:101A280066E74248FFF7F6FC4FF4FA70FFF784FCCC
:101A380065E7364B00221A7068E73D48FFF7EAFC75
:101A48004FF4FA70FFF778FC67E73A48FFF7E2FCD3
:101A58004FF4FA70FFF770FC66E73748FFF7DAFCD7
:101A68004FF4FA70FFF768FC65E73448FFF7D2FCDB
:101A78004FF4FA70FFF760FC64E73148FFF7CAFCDF
:101A88004FF4FA70FFF758FC63E72E48FFF7C2FCE3
:101A98004FF4FA70FFF750FC62E72B48FFF7BAFCE7
:101AA8004FF4FA70FFF748FC61E72848FFF7B2FCEB
:101AB8004FF4FA70FFF740FC60E7144B01221A70EC
:101AC800FFF710F86FE7114B00221A70FFF73EF886
:101AD800134B1B780A2B3ED8DFE803F03A484C3DFD
:101AE8003D3D3D3D5054580000000140342700085A
:101AF800111500086D150008A914000864010020DC
:101B08006501002060010020C82600085C01002053
:101B1800660100205A0100205B01002028270008E8
:101B28009401002057010020CC260008D426000884
:101B3800D8260008E0260008E8260008F026000855
:101B4800F8260008002700080C27000814270008BA
:101B58000020FEF7E9FE4B4B1B78033B042B3FF6B6
:101B680022AFDFE803F0171B1F2327000120FEF731
:101B7800DBFEF0E70220FEF7D7FEECE70820FEF7D1
:101B8800D3FEE8E70920FEF7CFFEE4E70A20FEF7D8
:101B9800CBFEE0E70320FEF7C7FE04E70420FEF7CC
:101BA800C3FE00E70520FEF7BFFEFCE60620FEF7B1
:101BB800BBFEF8E60720FEF7B7FEF4E60721FFF7BD
:101BC800F5FA00287FF4F6AE2F4B1B78012B7FF433
:101BD800F1AE2E4B1B78022B7FF4ECAE2B4B01227F
:101BE8001A700024284B1C702046FEF79DFE2848DA
:101BF800FFF710FC274B1C70DCE60521FFF7D6FA2F
:101C080000287FF4DEAE244B1B78012B7FF4D9AE7D
:101C1800224B1B78022B7FF4D4AE1F4B00221A7084
:101C28001E4B01221A700920FEF77EFE1C48FFF7A2
:101C3800F1FB184B09221A70C3E605210020FFF7B3
:101C4800B5FA18B9174B1B78012B17D0FEF7B2FF5E
:101C5800154C2080FFF7D0FC238813F0800F3FF449
:101C680015AE124B1B78002B7FF410AE1048FFF70F
:101C7800D1FB4FF4FA70FFF75FFB07E6094B002230
:101C88001A70E3E79501002059010020580100204F
:101C98001C270008940100205B0100205A01002045
:101CA8002427000866010020500100205701002069
:101CB8002C270008014B1868704700BF240000203B
:101CC80030B5141E05469BB0184605DA8B234FF035
:101CD800FF302B601BB030BD4FF40273ADF80C30F1
:101CE8000CBF234604F1FF33029305934FF6FF73AD
:101CF80000910491ADF80E3002461E9B69462846B5
:101D080000F072F8431CBCBF8B232B60002CE1D081
:101D18000022009B1A70DDE707B5009313460A46B8
:101D2800014603480068FFF7CBFF03B05DF804FBEA
:101D3800240000202DE9F0478E6882469E420C461A
:101D48009046994637D88A8912F4906F31D0022389
:101D5800256809696F1A656905EB450595FBF3F573
:101D680009F101033B449D4238BF1D46530530D558
:101D7800294600F035FB064650B90C234FF0FF30DA
:101D8800CAF80030A38943F04003A381BDE8F08777
:101D98003A46216900F0B4FAA38923F4906343F02A
:101DA8008003A38126613E4426604E466561ED1B93
:101DB800A5604E4500D94E4632464146206800F09F
:101DC800AAFAA36800209B1BA36023681E44266010
:101DD800DCE72A4600F05EFB06460028E2D12169CE
:101DE800504600F0B1FAC8E72DE9F04F9DB00393D3
:101DF8008B8980461D060C4616460FD50B696BB9B4
:101E0800402100F0EDFA2060206128B90C23C8F8C1
:101E180000304FF0FF30C7E040236361002309938F
:101E280020238DF8293030234FF0010B8DF82A300C
:101E380037463D4615F8013B0BB1252B3ED1B7EB94
:101E4800060A0BD05346324621464046FFF772FF3A
:101E5800013000F0A480099B534409933B78002B80
:101E680000F09D8000234FF0FF32CDE90523049355
:101E780007938DF853301A932F46052217F8011B44
:101E88004F4800F02FFA049BD0B9D90644BF20224E
:101E98008DF853201A0744BF2B228DF853202A7837
:101EA8002A2A15D02F4600200A25079A394611F804
:101EB800013B303B092B4DD9B8B10FE02F46B8E7AD
:101EC8003F4A3D46801A0BFA00F018430490D3E7C6
:101ED800039A111D12680391002A01DB079204E09E
:101EE800524243F00203079204933B782E2B0CD105
:101EF8007B782A2B33D1039B02371A1D1B68039268
:101F0800002BB8BF4FF0FF3305932E4D03223978CD
:101F1800284600F0E7F938B14023401B03FA00F0E7
:101F2800049B0137034304933978062226487E1C14
:101F38008DF8281000F0D6F9002838D0234B13BBB1
:101F4800039B073323F0070308330393099B4B4490
:101F580009936DE705FB023201200F46A6E700232F
:101F68000A25194601370593384610F8012B303AEF
:101F7800092A03D9002BC8D00591C6E705FB012122
:101F880001230746F0E703AB00932246104B04A950
:101F98004046AFF30080B0F1FF3F8146D6D1A38918
:101FA8005B063FF536AF09981DB0BDE8F08F03AB6F
:101FB80000932246064B04A9404600F081F8EAE760
:101FC8003C270008422700084627000800000000B8
:101FD8003D1D00082DE9F04791461F468A680B69A8
:101FE80006469342B8BF1346C9F8003091F843201B
:101FF8000C46DDF8208012B10133C9F8003023689F
:10200800990642BFD9F800300233C9F80030256874
:1020180015F0060507D104F1190AE368D9F800207C
:102028009B1AAB4229DC94F843302268003318BF6E
:10203800012392062ED404F1430239463046C047A4
:10204800013021D02368E56803F00603042B18BF8C
:102058000025D9F800204FF0000908BFAD1AA36881
:10206800226908BF25EAE5759342C4BF9B1AED189B
:102078001A344D451AD1002008E00123524639464A
:102088003046C047013003D14FF0FF30BDE8F0873C
:102098000135C2E73020E11881F843005A1C94F852
:1020A80045102244023382F84310C4E70123224634
:1020B80039463046C0470130E6D009F10109D8E772
:1020C8002DE9F04301F1430C0C46097E85B06E29D9
:1020D8001746064698460C9A00F0B38022D8632922
:1020E80036D00AD8002900F0B980582900F083803A
:1020F80004F1420584F8421032E0642901D06929CC
:10210800F6D120681368050603F104012AD51B6877
:102118001160002B03DA2D225B4284F843206F48BC
:102128000A2239E0732900F09D8008D86F2920D051
:102138007029DDD1236843F02003236003E075296B
:1021480017D07829D4D17823654884F8453055E0EC
:10215800136804F14205191D1B68116084F84230A8
:1021680001238CE01B6810F0400F116018BF1BB2F0
:10217800CFE713682568181D1060280601D51B686D
:1021880002E06806FBD51B886F2914BF0A220822C3
:102198005248002184F843106568002DA560C0F2FC
:1021A8009580216821F004012160002B3DD1002D8C
:1021B80040F08E806546082A0BD12368DB0708D5D6
:1021C800236962689A42DEBF302305F8013C05F1B5
:1021D800FF35ACEB05032361CDF800803B4603AA2D
:1021E80021463046FFF7F6FE01304DD14FF0FF3063
:1021F80005B0BDE8F083394884F8451013682168B4
:102208001D1D1B6815600A060BD5CA0744BF41F09F
:10221800200121601BB9226822F0200222601022CE
:10222800B7E74D0648BF9BB2EFE76546B3FBF2F14F
:1022380002FB1133C35C05F8013D0B460029F5D1BB
:10224800B9E713682568181D6169106028061B68BE
:1022580001D5196002E06A06FBD51980002365469E
:102268002361B9E71368191D11601D6862680021B0
:10227800284600F037F808B1401B606063682361A6
:10228800002384F84330A7E723692A4639463046B5
:10229800C0470130AAD023689B0713D4E068039B8A
:1022A8009842B8BF1846A3E701234A463946304644
:1022B800C04701309AD00135E368039A9B1AAB42B4
:1022C800F2DCEBE7002504F11909F5E7002BACD1A6
:1022D800037804F1420584F842306CE74D27000882
:1022E8005E27000810B5C9B202449042034601D1E6
:1022F800002303E01C7801308C42F6D1184610BD4B
:1023080010B5431E0A44914200D110BD11F8014B8B
:1023180003F8014FF7E7884210B501EB020307D82D
:10232800421E99420AD011F8014B02F8014FF8E712
:102338008342F5D98118D21AD34200D110BD13F8BF
:10234800014D01F8014DF7E738B50546002943D09E
:1023580051F8043C0C1F002BB8BFE41800F0D0F86B
:102368001E4A1368104633B9636014602846BDE8F6
:10237800384000F0C6B8A3420BD9216862189342CE
:1023880001BF1A685B685218226063600460EDE759
:1023980013465A680AB1A242FAD919685818A042D5
:1023A8000BD120680144581882421960DED11068A8
:1023B8005268014419605A60D8E702D90C232B608F
:1023C800D4E7206821188A4201BF116852680918A9
:1023D800216062605C60C9E738BD00BF6801002009
:1023E80070B5CD1C25F0030508350C2D38BF0C251C
:1023F800002D064601DBA94203D90C2333600020D7
:1024080070BD00F07DF8214A1468214691B9204C2E
:1024180023681BB9304600F063F82060294630462F
:1024280000F05EF8431C24D10C233046336000F0E2
:1024380068F8E4E70B685B1B18D40B2B0FD90B600B
:10244800CC18CD50304600F05CF804F10B00231D89
:1024580020F00700C31AD3D05A42E250D0E74B68A5
:102468008C4216BF636013600C46EBE70C46496864
:10247800CCE7C41C24F00304A04205D0211A30463E
:1024880000F02EF80130CFD02560DBE7680100208E
:102498006C010020F8B5074614460E4621B9BDE880
:1024A800F8401146FFF79CBF22B9FFF74DFF2546BC
:1024B8002846F8BD00F026F8A0420FD2214638463B
:1024C800FFF78EFF05460028F2D031462246FFF777
:1024D80017FF31463846FFF737FFE9E73546E7E7A4
:1024E80038B50023054C054608462360FDF742FF32
:1024F800431C02D1236803B12B6038BD7001002052
:102508007047704751F8043C181F002BBCBF0B588C
:10251800C0187047537461636B206672616D653AC9
:102528000A000000205230203D2020253038580A6B
:1025380000000000205231203D2020253038580A64
:1025480000000000205232203D2020253038580A53
:1025580000000000205233203D2020253038580A42
:102568000000000020523132203D20253038580A22
:1025780000000000204C52203D2020253038580A09
:1025880000000000205043203D2020253038580A04
:102598000000000020505352203D20253038580AB2
:1025A800000000004653522F4641523A0A000000EC
:1025B8002043465352203D2020253038580A000039
:1025C8002048465352203D2020253038580A000024
:1025D8002044465352203D2020253038580A000018
:1025E8002041465352203D2020253038580A00000B
:1025F800204D4D464152203D20253038580A0000D4
:102608002042464152203D2020253038580A0000FB
:102618004D6973630A000000204C522F4558435FF0
:1026280052455455524E3D20253038580A00000076
:102638005B486172644661756C745D0A0000000055
:102648005B4275734661756C745D0A005B55736116
:1026580067654661756C745D0A000000542C0000C3
:10266800442C00004E2C0000462C0000572C000083
:102678004C452C00454F2C0046452C002A43472347
:10268800000000002A534323000000002A5354236B
:10269800000000002A485423000000002A4845236F
:1026A800000000002A5423002A4423002A4C452312
:1026B800000000002A454F23000000002A4623009E
:1026C8002A532C002A462B23000000002A4123000D
:1026D8002A452D23000000002A4C524646230000BC
:1026E8002A432B23000000002A432D23000000006A
:1026F8002A434C52230000002A42544C524E47238E
:10270800000000002A422B23000000002A422D234B
:10271800000000002A464523000000002A4E23003E
:102728002A5723002A462D230000000053746172A3
:1027380074000000232D302B2000686C4C00656667
:1027480067454647003031323334353637383941FA
:102758004243444546003031323334353637383910
:072768006162636465660015
:102770007856341294000020000000000000000091
:1027800000000000010203040607080900A24A0431
:10279000FFFFFFFF280000200000000000000000F5
:1027A0000000000000000000000000000000000029
:1027B0000000000000000000000000000000000019
:1027C0000000000000000000000000000000000009
:1027D00000000000000000000000000000000000F9
:1027E00000000000000000000000000000000000E9
:0C27F00000000000000000003254769849
:040000050800010DE1
:00000001FF
