:020000040800F2
:100000000050002021020008270200082B020008EF
:100010009D020008A1020008E9020008000000009B
:100020000000000000000000000000003103000894
:10003000350300080000000039030008D112000851
:100040004D0300084D0300084D0300084D03000850
:100050004D0300084D030008550E0008650E00080A
:10006000750E0008850E0008950E00084D03000867
:100070004D0300084D0300084D0300084D03000820
:100080004D0300084D0300084D0300084D03000810
:100090004D0300084D0300084D030008A50E00089D
:1000A0004D0300084D0300084D0300084D030008F0
:1000B0004D0300084D0300084D0300084D030008E0
:1000C0004D0300084D0300084D0300084D030008D0
:1000D0004D0300084D0300084D0300084D030008C0
:1000E000B50E00084D0300084D0300080000000095
:1000F0000000000000000000000000000000000000
:1001000000000000000000005FF808F100B583B0B7
:1001100000F0AAF9304B314A1360314A1360314B79
:10012000314A32498B4204D21168196004330432D7
:10013000F7E72A4B1A682E4B9A4200D0FEE7284B6D
:100140001A682C4B9A42F9D1234B2B4A13602B4A45
:1001500013602B4B02E000221A600433294A9342B9
:10016000F9D3254B1B6813B9244B1B6803B1FEE779
:1001700000F086F9694601A800F022F9224C234BD1
:10018000E41AA4100025AC4214DC214C214BE41AE3
:10019000A4100025AC4213DC0099019801F0EEF99F
:1001A00005461D4C1D4BE41AA410002C0EDC2846FD
:1001B00000F0E2F8154B53F8253098470135E2E797
:1001C000144B53F8253098470135E3E7013C134BB6
:1001D00053F824309847E8E7BABADECA0000002096
:1001E00084000020000000206C2700088800002008
:1001F0007856341232547698880000206C01002022
:1002000088000020700100207803000878030008AF
:1002100078030008780300087803000878030008D2
:1002200008B5FFF773FF00BEFEE71EF0040F0CBF1A
:10023000EFF30880EFF309807146414A10472DE93A
:10024000F04182B004468846124B5E6B9F6B9D6AFC
:100250001B6B13F0020F03D00E4BDB6A002B0CDB81
:100260000D4800F0B5F8CDF800803B4632462946EF
:10027000204600F009F900BEFEE74BF6AB6100F046
:100280007DF90028ECD0034B4FF00042DA6202B057
:10029000BDE8F08100ED00E09825000800BEFEE713
:1002A0001EF0040F0CBFEFF30880EFF309807146D6
:1002B000244A10472DE9F04182B004468846084B95
:1002C0005E6B9F6B9D6A074800F082F8CDF8008056
:1002D0003B4632462946204600F0D6F800BEFEE7EF
:1002E00000ED00E0A82500081EF0040F0CBFEFF39E
:1002F0000880EFF309807146134A10472DE9F04159
:1003000082B004468846084B5E6B9F6B9D6A074827
:1003100000F05EF8CDF800803B4632462946204684
:1003200000F0B2F800BEFEE700ED00E0B4250008E2
:1003300000BEFEE700BEFEE700BEFEE7704700001D
:100340003F020008B5020008FD02000800BEFEE7FB
:100350006C27000800000020880000206C2700089F
:100360000000000000000000880000207001002054
:08037000000000000000000085
:10037800FEE7000008B503460C4A12685AB10B4A5A
:100388001068033323F003030344094A934206D851
:10039800064A136008BD054A06491160EFE701F0F7
:1003A80039FC0C2303604FF0FF30F3E78C0000208A
:1003B800004C00207001002001230360014B0B60FA
:1003C800704700BF040000200FB400B583B004AB31
:1003D80053F8042B01938021064801F04DFC0028B6
:1003E80003DD0146034800F037F803B05DF804EB7D
:1003F80004B07047940000202DE9F04385B004460E
:100408000F4643560BB10E461EE0042528462146EA
:10041800ABBE0446384605B0BDE8F08314F9011BAD
:1004280004AA1A4402F8101C0133AB42F6D304AAFA
:100438001344002203F8102C4FF00408E946404604
:100448004946ABBE8046761B002EE3D03546102EBB
:1004580028BF10250023E8E708B5FFF7CDFF08BD42
:1004680008B500F0FDF8024A024B9A6008BD00BFCB
:100478000000000800ED00E008B500F019F908BD1B
:10048800F8B504460D4617461E462748FFF79CFF59
:1004980021682648FFF798FF61682548FFF794FF11
:1004A800A1682448FFF790FFE1682348FFF78CFF15
:1004B80021692248FFF788FF61692148FFF784FF17
:1004C800A1692048FFF780FFE1691F48FFF77CFF1B
:1004D8001E48FFF779FF29461D48FFF775FF1D4C99
:1004E800E16A1D48FFF770FF216B1C48FFF76CFF9E
:1004F800E16B1B48FFF768FF15F0800F0AD115F470
:10050800004F0CD11748FFF75FFF06991648FFF711
:100518005BFFF8BD39461548FFF756FFEFE7314650
:100528001348FFF751FFEDE77C2400088C240008EE
:100538009C240008AC240008BC240008CC24000833
:10054800DC240008EC240008FC2400080C25000822
:100558001825000800ED00E02825000838250008C7
:100568004825000878250008802500085825000837
:100578006825000883691A888A4201D000207047DC
:100588000268033A012A03D80233836101207047C5
:100598000020704782B00023019300932C4A13680F
:1005A80043F4803313602A4B1B6803F40033009331
:1005B800019B01330193009B1BB9019BB3F5A06F0D
:1005C800F1D1234B1B6813F4003F06D0012300939D
:1005D800009B012B04D002B0704700230093F7E77B
:1005E8001C4B1A6842F010021A601A6822F00302C3
:1005F8001A601A6842F002021A60A3F580535A681A
:100608005A605A685A605A6842F480625A605A6856
:1006180022F47C125A605A6842F4E8125A601A6846
:1006280042F080721A600A4B1B6813F0007FFAD000
:10063800074B5A6822F003025A605A6842F00202D5
:100648005A60034B5B6803F00C03082BF9D1C2E72F
:10065800001002400020024008B5FFF79BFF08BDCC
:1006680008B5104B1A6842F001021A6059680E4A20
:100678000A405A601A6822F0847222F480321A60A2
:100688001A6822F480221A605A6822F4FE025A601C
:100698004FF41F029A60FFF7DFFF044B4FF0006230
:1006A8009A6008BD001002400000FFF800ED00E06D
:1006B8001F4B5B6803F00C03042B15D0082B17D0D5
:1006C8001BB11C4B1C4A1A6002E01A4B1A4A1A60EA
:1006D800174B5B68C3F30313184AD35CDAB21549A6
:1006E8000B68D3400B607047124B134A1A60EFE750
:1006F8000F4A53685268C3F38343023312F4803FAE
:100708000AD00B4A526812F4003F0BD00C4A02FB85
:1007180003F3084A1360DBE7094A02FB03F3054ABF
:100728001360D5E7044A02FB03F3024A1360CFE7DC
:10073800001002401C00002000127A000C0000206B
:1007480000093D0008B508220421002000F03AFC09
:1007580008220621002000F035FC0822072100208D
:1007680000F030FC00220621104600F099FC00221F
:100778000721104600F094FC01220221002000F01D
:1007880021FC01220321002000F01CFC01220C2185
:10079800002000F017FC01220021084600F012FC9E
:1007A80008220521002000F00DFC08221146002037
:1007B80000F008FC08220B21002000F003FC0822AE
:1007C8000F21002000F0FEFB00221146104600F029
:1007D80067FC00220521104600F062FC0022082177
:1007E800104600F05DFC00220B21104600F058FC7A
:1007F80000220F21104600F053FC0122032110466D
:1008080000F0E0FB01220921104600F0DBFB012289
:100818000D21022000F0D6FB01220E21022000F05B
:10082800D1FB01220F21022000F0CCFB082200217D
:10083800012000F0C7FB08220121084600F0C2FB96
:1008480008221146012000F0BDFB002211460120BC
:1008580000F026FC00220121084600F021FC0022BD
:100868000821012000F01CFC08220421012000F0CE
:10087800A9FB00220421012000F012FC0822052116
:10088800012000F09FFB00220521012000F008FC58
:1008980008220621012000F095FB002206210120F4
:1008A80000F0FEFB08220721012000F08BFB00224C
:1008B8000721012000F0F4FB01220A21104600F074
:1008C80081FB08220B21012000F07CFB00220B2178
:1008D800012000F0E5FB08220C21012000F072FB4A
:1008E80000220C21012000F0DBFB08220D21012051
:1008F80000F068FB00220D21012000F0D1FB082246
:100908000E21012000F05EFB00220E21012000F0E4
:10091800C7FB01220F21104600F054FB01221146AB
:10092800002000F04FFB08BD08B50A2811D8DFE801
:1009380000F006111C27415B758FA9B9C900012277
:100948000021084600F0ACFB00220C21104600F004
:10095800A7FB08BD01220C21002000F0A1FB00220A
:100968001146104600F09CFBF3E700220C211046CC
:1009780000F096FB00221146104600F091FBE8E7D4
:1009880000220321012000F08BFB012209211046DF
:1009980000F086FB00220D21022000F081FB0022DE
:1009A8000E21022000F07CFB00220F21022000F023
:1009B80077FBCEE700220321012000F071FB002223
:1009C8000921012000F06CFB01220D21022000F01A
:1009D80067FB00220E21022000F062FB00220F219B
:1009E800022000F05DFBB4E700220321012000F0A3
:1009F80057FB00220921012000F052FB00220D21A3
:100A0800022000F04DFB01220E21022000F048FBDD
:100A180000220F21022000F043FB9AE70022032165
:100A2800012000F03DFB00220921012000F038FBE5
:100A380000220D21022000F033FB00220E210220AB
:100A480000F02EFB01220F21022000F029FB80E795
:100A580001220321104600F023FB00220921012076
:100A680000F01EFB00220D21022000F019FB0022DD
:100A78000E21022000F014FB00220F21022000F0BA
:100A88000FFB66E700220121104600F009FB002257
:100A98000A21012000F004FB01220F21104600F07A
:100AA800FFFA56E701221146002000F0F9FA002269
:100AB8000A21012000F0F4FA00220F21012000F0A1
:100AC800EFFA46E700220121104600F0E9FA012278
:100AD8000A21104600F0E4FA00220F21012000F05C
:100AE800DFFA36E708B501220321104600F0D8FAEC
:100AF80001220921104600F0D3FA01220D2102201B
:100B080000F0CEFA01220E21022000F0C9FA0122DB
:100B18000F21022000F0C4FA01220021084600F04B
:100B2800BFFA01220C21002000F0BAFA0122114676
:100B3800002000F0B5FA01220A21104600F0B0FAB0
:100B480001220F21104600F0ABFA08BD08B50022BB
:100B58000321012000F0A4FA00220921012000F05D
:100B68009FFA00220D21022000F09AFA00220E219D
:100B7800022000F095FA00220F21022000F090FADE
:100B880001220021084600F08BFA00220C211046B1
:100B980000F086FA00220121104600F081FA0022B6
:100BA8000A21012000F07CFA00220F21012000F028
:100BB80077FA08BD38B500220321104600F070FA14
:100BC800012000F06DFB01220321002000F068FAEB
:100BD80000252C4616E06400A4B20421002000F091
:100BE80099FA80B2044301220221002000F058FA49
:100BF800012000F055FB00220221104600F050FAB7
:100C08000135EDB2072DE6D900220221104600F089
:100C180047FA204638BD000038B5FFF7CBFF054638
:100C280000240AE00320FFF77FFE764B03221A70A8
:100C3800754B01221A700134E4B2042C3FD845FAEE
:100C480004F313F0010FF6D0042CF4D801A353F8E1
:100C580024F000BFB30C00089F0C00088B0C0008A0
:100C6800710C00082D0C00080420FFF75DFE654B91
:100C780004221A70654B00221A70634B02221A7004
:100C8800D9E70520FFF750FE5E4B05221A705E4B30
:100C980001221A70CFE70620FFF746FE594B0622BD
:100CA8001A70594B02221A70C5E70720FFF73CFE5D
:100CB800544B07221A70544B01221A70BBE70524C3
:100CC80010E0534800F05AFB0A20FFF72DFE514B65
:100CD80001221A70504B02221A704A4B0A221A70CB
:100CE8000134E4B2072C27D82146002000F012FA7C
:100CF8000128F5D1062C13D0072C02D0052CEFD1F2
:100D0800DFE7464800F03AFB0120FFF70DFE444BB1
:100D180002221A700123434A1370434A1370DFE713
:100D2800424800F02BFB0220FFF7FEFD02233C4A5D
:100D380013703C4A1370D3E70F21002000F0EAF942
:100D4800012815D00F21002000F0E4F9C8B10021D6
:100D5800012000F0DFF9E8B10621002000F0DAF9FF
:100D680060B30021012000F0D5F901283AD038BD40
:100D78002F4800F003FB00232E4A13702E4A1370ED
:100D8800E0E72E4800F0FAFA01232A4A13702A4AAB
:100D98001370DCE7052100F0BDF90028DCD101243F
:100DA8001D4B1C70264800F0E9FA0920FFF7BCFD2E
:100DB800184B1C70134B09221A70CDE7072100F05D
:100DC800A9F90028CDD11F4800F0D8FA0020FFF774
:100DD800ABFD0123124A1370124A00211170124A06
:100DE8001370BEE70C4B02221A700A4B01221A70CC
:100DF800154800F0C3FA0820FFF796FD014B0822BA
:100E08001A70B4E7690100201601002017010020BC
:100E1800C42500081D0100201C010020CC25000865
:100E28001A010020680100201B010020D8250008B5
:100E3800E42500081901002018010020F025000809
:100E4800F8250008002600080C26000808B5024B03
:100E58001B68984708BD00BF4401002008B5024B35
:100E68001B68984708BD00BF3801002008B5024B31
:100E78001B68984708BD00BF4001002008B5024B19
:100E88001B68984708BD00BF3401002008B5024B15
:100E98001B68984708BD00BF3C01002008B5024BFD
:100EA8001B68984708BD00BF4801002008B5024BE1
:100EB8001B68984708BD00BF4C010020F8B50546DF
:100EC8000C4616460021022000F088F9A308274A9C
:100ED800023352F823104FEA840C0F2707FA0CF755
:100EE80021EA070142F8231052F8230005FA0CF50D
:100EF800284342F82300012E1AD096B1022E1ED0A4
:100F08001B490B680122A24013430B60042C20D913
:100F1800631FDBB2042B21D90A3CE4B2052C21D98A
:100F2800F8BD13498B680122A24013438B60E7E7A1
:100F38000F49CB680122A2401343CB60E0E70C4A7B
:100F480091680123A34019439160D1680B43D36092
:100F5800D6E7A01DC0B200F0FDF8E1E7172000F0C9
:100F6800F9F8DDE7282000F0F5F8D9E7000001409E
:100F78000004014004490B68012202FA00F023EA48
:100F880000030B60704700BF0004014003494B6930
:100F9800012202FA00F003434B617047000401404C
:100FA800014B1860704700BF44010020014B1860D6
:100FB800704700BF48010020014B1860704700BF10
:100FC8004C01002010B4072930D8012812D018B1DC
:100FD80002281DD010BC70472E4B186889000F24BA
:100FE8008C4020EA04001860186802FA01F10143F5
:100FF8001960EFE7284B186889000F248C4020EA15
:1010080004001860186802FA01F101431960E1E769
:10101800224B186889000F248C4020EA04001860CD
:10102800186802FA01F101431960D3E70F29D1D8F2
:101038000839C9B201281ED078B10228CAD1174888
:1010480044688B000F21994024EA010141604468FB
:1010580002FA03F121434160BCE70E4B58688C004B
:101068000F21A14020EA01015960586802FA04F1F1
:1010780001435960AEE7084B5C6888000F21814046
:1010880024EA010159605C6802FA00F121435960C1
:10109800A0E700BF00080140000C0140001001401B
:1010A800CAB1012A2ED1012809D010B102280CD0CA
:1010B8007047012303FA01F1134B196170470123AB
:1010C80003FA01F1114B19617047012303FA01F189
:1010D8000F4B19617047012809D010B102280CD0B4
:1010E8007047012303FA01F1074B59617047012347
:1010F80003FA01F1054B59617047012303FA01F125
:10110800034B5961704700BF00080140000C0140C3
:101118000010014001280AD018B102280DD0002083
:101128007047094B9868C84000F001007047074BAA
:101138009868C84000F001007047054B9868C8409F
:1011480000F00100704700BF00080140000C01409A
:10115800001001401F2809D92038C0B21B2804D824
:10116800012303FA00F0044B18607047012303FAC7
:1011780000F0024B1860704704E100E000E100E075
:10118800154B1A6842F400221A605A6842F48032F9
:101198005A605A6842F480225A605A6842F400221F
:1011A8005A605A6842F480125A605A6822F400124F
:1011B8005A605A6822F001025A605A6842F00202E4
:1011C8005A601A6842F080721A60034B1B6813F069
:1011D800007FFAD0704700BF001002401F291CD8BA
:1011E80001280BD010B1022810D070470B48436972
:1011F800012202FA01F11943416170470748C369A6
:10120800012202FA01F11943C16170470348836959
:10121800012202FA01F1194381617047001002406E
:1012280000230A4A136004326FF07F4111600432D0
:10123800136010B1012804D07047044B05221A60CE
:101248007047024B07221A60704700BF10E000E0A9
:1012580001FB00F14FF47A7303FB01F1B1F1807FD8
:1012680007D3074B6FF07F421A60043300221A60DD
:101278007047034B1960043300221A60704700BF9F
:1012880014E000E008B501214820FFF7E1FF034B17
:101298001B6813F4803FFAD008BD00BF10E000E0DF
:1012A80038B50546002402E0FFF7ECFF0134AC42F4
:1012B800FAD338BD034B1B681BB1024A1368013BC4
:1012C800136070475001002008B5FFF7F3FF08BD11
:1012D80010B50E210220FFF781FF02210846FFF713
:1012E8007DFF00210220FFF779FF0024174B1C60C7
:1012F8000C331A6822F480521A60154A116821F4D6
:1013080080511160116821F4005111601A6842F08F
:1013180008021A601A6842F004021A600D4A41F67F
:10132800415111601A6842F400521A6009221146AC
:101338002046FFF747FE04220A212046FFF742FE17
:1013480001220A212046FFF7ABFE10BD00380140FC
:101358001438014008380140064A136823F0400356
:101368001360054B1860034B1B6813F0400FFAD04D
:10137800704700BF003801400438014038B50546C1
:10138800002402E0FFF7E8FF0134285D0028F9D1C6
:1013980038BD0000044B1B6813F0200FFAD0034B34
:1013A8001868C0B2704700BF0038014004380140D7
:1013B80010B5002403E0064B18550134E4B2FFF7DA
:1013C800E9FF0D28F7D102480023035510BD00BFDF
:1013D8005401002008B50F210020FFF79BFE0128CB
:1013E80007D010B9114B1B789BB10B20FFF7CEFD2E
:1013F80008BD0E4B1B78012BF3D10D48FFF7BEFF3C
:101408000A20FFF74DFF00230A4A1370074A13709A
:10141800EBE70948FFF7B2FF0A20FFF741FF012376
:10142800044A1370014A1370DFE700BF1801002057
:1014380014260008190100202026000808B51B4BB7
:101448001B78B3B91A4B1B78012B03D00020FFF788
:101458009DFD08BD164B02221A70164B01221A7008
:101468001548FFF78BFF0820144B1870FFF75CFA3C
:10147800ECE7012BEAD10E4B1B78022B11D00C4B59
:101488001B78012BE2D10A4A13700A4A13700A48E2
:10149800FFF774FF0820FFF747FA084B08221A7075
:1014A800D4E7034B01221A70E9E700BF19010020B5
:1014B8001C0100201D0100204026000868010020B2
:1014C80010B50620FFF756FD0720FFF753FD06214C
:1014D8000020FFF71FFE044607210020FFF71AFE31
:1014E800012812D0012C23D00620FFF74FFD07203A
:1014F800FFF74CFD002206211046FFF7DFFC002213
:1015080007211046FFF7DAFC10BD154B1B78012B9D
:10151800E8D1134B02221A700124124B1C7020468A
:10152800FFF702FA104B1C701048FFF727FFDBE7A4
:101538000C4B1B78002BD7D1094B1B78012BD3D12F
:101548000224074B1C70074B01221A702046FFF734
:10155800EBF9054B1C700648FFF710FFC4E700BF06
:101568001A0100201B01002068010020282600081D
:101578003426000810B582B0FFF702FE02210846A3
:10158800FFF72CFE03210220FFF728FE042102208A
:10159800FFF724FE00210220FFF720FEAD4A536822
:1015A80043F0007353600020FFF73AFEFFF790FE08
:1015B800FFF7FEFEA84B1860FFF7C4F8A74B93E8A7
:1015C80003000090ADF80410002206211046FFF732
:1015D80075FC002207211046FFF770FC0022114617
:1015E8000120FFF76BFC02220F210020FFF766FCA9
:1015F8009B48FFF7D5FC9B48FFF7D8FC9A48FFF7B4
:10160800DBFC002305E099490A7801320A700133AE
:10161800DBB2914A1268D25C4AB102A9194411F8A6
:10162800081C9142EFD0914A00211170EFE78F4BCF
:101638001B78052B04D08E48FFF7A0FE02B010BD22
:101648008C48FFF79BFEFFF7E7FAC7E18A4B1B7848
:10165800002B40F0CA818948FFF790FE4FF4FA70DA
:10166800FFF71EFEC1E18648FFF788FE4FF4FA70C7
:10167800FFF716FEC0E1834B00221A70C3E18248CF
:10168800FFF77CFE4FF4FA70FFF70AFEC2E17F48CD
:10169800FFF774FE4FF4FA70FFF702FEC1E17C48D1
:1016A800FFF76CFE4FF4FA70FFF7FAFDC0E17948D6
:1016B800FFF764FE4FF4FA70FFF7F2FDBFE17648DA
:1016C800FFF75CFE4FF4FA70FFF7EAFDBEE17348DE
:1016D800FFF754FE4FF4FA70FFF7E2FDBDE17048E2
:1016E800FFF74CFE4FF4FA70FFF7DAFDBCE16D48E6
:1016F800FFF744FE4FF4FA70FFF7D2FDBBE16A48EA
:10170800FFF73CFE4FF4FA70FFF7CAFDBAE15D4BF4
:1017180001221A70FFF7E6F9C9E15A4B00221A7044
:10172800FFF714FA614B1B780A2B0AD8DFE803F09D
:1017380006141809090909091C2024000020FFF7CC
:10174800F3F85B4B1B78033B042B00F2B081DFE816
:1017580003F0171B1F2327000120FFF7E5F8F0E728
:101768000220FFF7E1F8ECE70820FFF7DDF8E8E7EB
:101778000920FFF7D9F8E4E70A20FFF7D5F8E0E7F2
:101788000320FFF7D1F892E10420FFF7CDF88EE1AE
:101798000520FFF7C9F88AE10620FFF7C5F886E1BA
:1017A8000720FFF7C1F882E10721FFF7B3FC002803
:1017B80040F084813F4B1B78012B40F07F813E4BEA
:1017C8001B78022B40F07A813B4B01221A700024CF
:1017D800384B1C702046FFF7A7F83848FFF7CEFDB6
:1017E800324B1C706AE10521FFF794FC002840F099
:1017F8006C81334B1B78012B40F067811E4B1B78A3
:10180800002B40F062812F4B1B78022B40F05D814A
:101818002B4B00221A702B4B01221A700920FFF75C
:1018280083F82948FFF7AAFD204B09221A704CE1DA
:10183800012B59D1234A1370244A1370204A13707C
:101848002348FFF79BFD0A20FFF76EF8174B0A2283
:101858001A7049E0000001402001002030270008EC
:1018680045140008C9140008DD13000824010020ED
:101878001C270008482600081901002050260008E7
:101888005C2600081E010020642600087026000857
:101898007C2600088826000894260008A42600084C
:1018A800AC260008BC260008C826000868010020ED
:1018B800690100201B0100201A01002000260008F1
:1018C8001D0100201C010020D4260008250100204D
:1018D800C425000805210020FFF71CFC20B9BB4BDC
:1018E8001B78012B00F01981FFF764F9B84B1880B9
:1018F80010F0800F04D0B74B1B78002B00F011813B
:10190800B34B1B8813F0010F10D013F0020F0DD149
:1019180013F0040F0AD113F0080F07D113F0100FBA
:1019280004D1AD4B1B78012B00F00381A84B1B8819
:1019380013F0010F10D113F0020F0DD013F0040FA4
:101948000AD113F0080F07D113F0100F04D1A24BDE
:101958001B78022B00F0FC809D4B1B8813F0010FB5
:1019680010D113F0020F0DD113F0040F0AD013F0A9
:10197800080F07D113F0100F04D1974B1B78012BD8
:1019880000F0F780924B1B8813F0010F10D113F071
:10199800020F0DD113F0040F0AD113F0080F07D06E
:1019A80013F0100F04D18C4B1B78022B00F0F08041
:1019B800874B1B8813F0010F10D113F0020F0DD1C4
:1019C80013F0040F0AD113F0080F07D113F0100F0A
:1019D80004D0814B1B78012B00F0E9800E210120F7
:1019E800FFF798FB01283FF431AE04210120FFF7EF
:1019F80091FB01283FF437AE0C210120FFF78AFB49
:101A080001283FF438AE05210120FFF783FB0128A8
:101A18003FF435AE08210120FFF77CFB01283FF495
:101A280036AE08210020FFF775FB01283FF437AEDA
:101A380007210120FFF76EFB01283FF438AE012192
:101A48000846FFF767FB01283FF439AE0D21012056
:101A5800FFF760FB01283FF43AAE0B210120FFF7A6
:101A680059FB01283FF43BAE0B210020FFF752FB46
:101A780001283FF43CAE06210120FFF74BFB01286B
:101A88003FF43DAE0C210120FFF744FB012804D1AF
:101A9800524B1B78002B3FF43AAE0C210120FFF784
:101AA80039FB20B94D4B1B78012B3FF436AE06218C
:101AB8000020FFF72FFB00283FF476AE002101201D
:101AC800FFF728FB00283FF48EAE05210020FFF722
:101AD80021FB01287FF4FEAE3C4B1B78002B7FF4E2
:101AE800F9AE3C4B1B78002B7FF4A2AE3C4B1B7825
:101AF800012B7FF4F9AE3A4B02221A700123334AC4
:101B08001370384A13703848FFF738FC0A20FEF77C
:101B18000BFF364B0A221A70E6E62C4B00221A708D
:101B2800E2E63348FFF72AFC4FF4FA70FFF7B8FBF8
:101B3800E6E6294B02221A702E48FFF71FFC072001
:101B48002D4B1870FEF7F0FE2C4B00221A70EDE6B4
:101B5800214B01221A702A48FFF710FC0620264B59
:101B68001870FEF7E1FE0023244A1370254A13700B
:101B7800F2E6194B02221A702348FFF7FFFB0520F3
:101B88001D4B1870FEF7D0FE1C4B00221A70F9E6A8
:101B9800114B01221A701D48FFF7F0FB174B00226A
:101BA8001A700420144B1870FEF7BEFE00E70A4BAB
:101BB80002221A70114B01221A701548FFF7DEFB3A
:101BC80003200D4B1870FEF7AFFE07E72501002034
:101BD8001401002019010020160100201E01002018
:101BE8001C0100201D010020C425000868010020F8
:101BF800DC260008E82600086901002017010020FB
:101C0800F426000826010020FC2600080427000806
:101C18000C270008014B1868704700BF20000020FF
:101C280030B5141E05469BB0184605DA8B234FF0D5
:101C3800FF302B601BB030BD4FF40273ADF80C3091
:101C48000CBF234604F1FF33029305934FF6FF734D
:101C580000910491ADF80E3002461E9B6946284655
:101C680000F072F8431CBCBF8B232B60002CE1D022
:101C78000022009B1A70DDE707B5009313460A4659
:101C8800014603480068FFF7CBFF03B05DF804FB8B
:101C9800200000202DE9F0478E6882469E420C46BF
:101CA8009046994637D88A8912F4906F31D002232A
:101CB800256809696F1A656905EB450595FBF3F514
:101CC80009F101033B449D4238BF1D46530530D5F9
:101CD800294600F035FB064650B90C234FF0FF307B
:101CE800CAF80030A38943F04003A381BDE8F08718
:101CF8003A46216900F0B4FAA38923F4906343F0CB
:101D08008003A38126613E4426604E466561ED1B33
:101D1800A5604E4500D94E4632464146206800F03F
:101D2800AAFAA36800209B1BA36023681E442660B0
:101D3800DCE72A4600F05EFB06460028E2D121696E
:101D4800504600F0B1FAC8E72DE9F04F9DB0039373
:101D58008B8980461D060C4616460FD50B696BB954
:101D6800402100F0EDFA2060206128B90C23C8F862
:101D780000304FF0FF30C7E0402363610023099330
:101D880020238DF8293030234FF0010B8DF82A30AD
:101D980037463D4615F8013B0BB1252B3ED1B7EB35
:101DA800060A0BD05346324621464046FFF772FFDB
:101DB800013000F0A480099B534409933B78002B21
:101DC80000F09D8000234FF0FF32CDE905230493F6
:101DD80007938DF853301A932F46052217F8011BE5
:101DE8004F4800F02FFA049BD0B9D90644BF2022EF
:101DF8008DF853201A0744BF2B228DF853202A78D8
:101E08002A2A15D02F4600200A25079A394611F8A4
:101E1800013B303B092B4DD9B8B10FE02F46B8E74D
:101E28003F4A3D46801A0BFA00F018430490D3E766
:101E3800039A111D12680391002A01DB079204E03E
:101E4800524243F00203079204933B782E2B0CD1A5
:101E58007B782A2B33D1039B02371A1D1B68039208
:101E6800002BB8BF4FF0FF3305932E4D032239786E
:101E7800284600F0E7F938B14023401B03FA00F088
:101E8800049B0137034304933978062226487E1CB5
:101E98008DF8281000F0D6F9002838D0234B13BB52
:101EA800039B073323F0070308330393099B4B4431
:101EB80009936DE705FB023201200F46A6E70023D0
:101EC8000A25194601370593384610F8012B303A90
:101ED800092A03D9002BC8D00591C6E705FB0121C3
:101EE80001230746F0E703AB00932246104B04A9F1
:101EF8004046AFF30080B0F1FF3F8146D6D1A389B9
:101F08005B063FF536AF09981DB0BDE8F08F03AB0F
:101F180000932246064B04A9404600F081F8EAE700
:101F2800382700083E270008422700080000000064
:101F38009D1C00082DE9F04791461F468A680B69E9
:101F480006469342B8BF1346C9F8003091F84320BB
:101F58000C46DDF8208012B10133C9F8003023683F
:101F6800990642BFD9F800300233C9F80030256815
:101F780015F0060507D104F1190AE368D9F800201D
:101F88009B1AAB4229DC94F843302268003318BF0F
:101F9800012392062ED404F1430239463046C04745
:101FA800013021D02368E56803F00603042B18BF2D
:101FB8000025D9F800204FF0000908BFAD1AA36822
:101FC800226908BF25EAE5759342C4BF9B1AED183C
:101FD8001A344D451AD1002008E0012352463946EB
:101FE8003046C047013003D14FF0FF30BDE8F087DD
:101FF8000135C2E73020E11881F843005A1C94F8F3
:1020080045102244023382F84310C4E701232246D4
:1020180039463046C0470130E6D009F10109D8E712
:102028002DE9F04301F1430C0C46097E85B06E2979
:102038001746064698460C9A00F0B38022D86329C2
:1020480036D00AD8002900F0B980582900F08380DA
:1020580004F1420584F8421032E0642901D069296C
:10206800F6D120681368050603F104012AD51B6818
:102078001160002B03DA2D225B4284F843206F485D
:102088000A2239E0732900F09D8008D86F2920D0F2
:102098007029DDD1236843F02003236003E075290C
:1020A80017D07829D4D17823654884F8453055E08D
:1020B800136804F14205191D1B68116084F8423049
:1020C80001238CE01B6810F0400F116018BF1BB291
:1020D800CFE713682568181D1060280601D51B680E
:1020E80002E06806FBD51B886F2914BF0A22082264
:1020F8005248002184F843106568002DA560C0F29D
:102108009580216821F004012160002B3DD1002D2C
:1021180040F08E806546082A0BD12368DB0708D576
:10212800236962689A42DEBF302305F8013C05F155
:10213800FF35ACEB05032361CDF800803B4603AACD
:1021480021463046FFF7F6FE01304DD14FF0FF3003
:1021580005B0BDE8F083394884F845101368216854
:102168001D1D1B6815600A060BD5CA0744BF41F040
:10217800200121601BB9226822F02002226010226F
:10218800B7E74D0648BF9BB2EFE76546B3FBF2F1F0
:1021980002FB1133C35C05F8013D0B460029F5D15C
:1021A800B9E713682568181D6169106028061B685F
:1021B80001D5196002E06A06FBD51980002365463F
:1021C8002361B9E71368191D11601D686268002151
:1021D800284600F037F808B1401B60606368236147
:1021E800002384F84330A7E723692A463946304656
:1021F800C0470130AAD023689B0713D4E068039B2B
:102208009842B8BF1846A3E701234A4639463046E4
:10221800C04701309AD00135E368039A9B1AAB4254
:10222800F2DCEBE7002504F11909F5E7002BACD146
:10223800037804F1420584F842306CE74927000826
:102248005A27000810B5C9B202449042034601D18A
:10225800002303E01C7801308C42F6D1184610BDEB
:1022680010B5431E0A44914200D110BD11F8014B2C
:1022780003F8014FF7E7884210B501EB020307D8CE
:10228800421E99420AD011F8014B02F8014FF8E7B3
:102298008342F5D98118D21AD34200D110BD13F860
:1022A800014D01F8014DF7E738B50546002943D03F
:1022B80051F8043C0C1F002BB8BFE41800F0D0F80C
:1022C8001E4A1368104633B9636014602846BDE897
:1022D800384000F0C6B8A3420BD92168621893426F
:1022E80001BF1A685B685218226063600460EDE7FA
:1022F80013465A680AB1A242FAD919685818A04276
:102308000BD120680144581882421960DED1106848
:102318005268014419605A60D8E702D90C232B602F
:10232800D4E7206821188A4201BF11685268091849
:10233800216062605C60C9E738BD00BF28010020E9
:1023480070B5CD1C25F0030508350C2D38BF0C25BC
:10235800002D064601DBA94203D90C233360002077
:1023680070BD00F07DF8214A1468214691B9204CCF
:1023780023681BB9304600F063F8206029463046D0
:1023880000F05EF8431C24D10C233046336000F083
:1023980068F8E4E70B685B1B18D40B2B0FD90B60AC
:1023A800CC18CD50304600F05CF804F10B00231D2A
:1023B80020F00700C31AD3D05A42E250D0E74B6846
:1023C8008C4216BF636013600C46EBE70C46496805
:1023D800CCE7C41C24F00304A04205D0211A3046DF
:1023E80000F02EF80130CFD02560DBE7280100206F
:1023F8002C010020F8B5074614460E4621B9BDE861
:10240800F8401146FFF79CBF22B9FFF74DFF25465C
:102418002846F8BD00F026F8A0420FD221463846DB
:10242800FFF78EFF05460028F2D031462246FFF717
:1024380017FF31463846FFF737FFE9E73546E7E744
:1024480038B50023054C054608462360FDF792FF82
:10245800431C02D1236803B12B6038BD3001002032
:102468007047704751F8043C181F002BBCBF0B582D
:10247800C0187047537461636B206672616D653A6A
:102488000A000000205230203D2020253038580A0C
:1024980000000000205231203D2020253038580A05
:1024A80000000000205232203D2020253038580AF4
:1024B80000000000205233203D2020253038580AE3
:1024C8000000000020523132203D20253038580AC3
:1024D80000000000204C52203D2020253038580AAA
:1024E80000000000205043203D2020253038580AA5
:1024F8000000000020505352203D20253038580A53
:10250800000000004653522F4641523A0A0000008C
:102518002043465352203D2020253038580A0000D9
:102528002048465352203D2020253038580A0000C4
:102538002044465352203D2020253038580A0000B8
:102548002041465352203D2020253038580A0000AB
:10255800204D4D464152203D20253038580A000074
:102568002042464152203D2020253038580A00009C
:102578004D6973630A000000204C522F4558435F91
:1025880052455455524E3D20253038580A00000017
:102598005B486172644661756C745D0A00000000F6
:1025A8005B4275734661756C745D0A005B557361B7
:1025B80067654661756C745D0A00000057464F56A2
:1025C8002C0000004C617374204563686F2C000078
:1025D8004563686F204F66662C000000546865727A
:1025E8006D616C2C000000004461792C0000000033
:1025F8004D464F562C00000046697273742045639F
:10260800686F2C004E464F572C0000002A5468650E
:10261800726D616C230000002A4461792300000078
:102628002A4C617374204563686F23002A456368E8
:102638006F204F66662300002A4E464F562C000036
:102648002A53746172742C002A466F6375732B23A6
:10265800000000002A4175746F2300002A45787035
:102668006F737572652D23002A4578706F737572C4
:10267800652B23002A436F6E74726173742B2300D9
:102688002A436F6E74726173742D23002A46756C29
:102698006C2053637265656E230000002A436F6CDB
:1026A8006F7223002A426174746C652052616E67F0
:1026B800652300002A4272696768742B23000000B2
:1026C8002A4272696768742D230000004D464F57EF
:1026D8002C0000002A466F6375732D23000000004C
:1026E800486967685F4578702E230A0048656174F9
:1026F800230A00005361626F74230A00484550237F
:1027080000000000436F617869616C2047756E2393
:102718000000000057726F6E6720496E7075742E46
:102728002E52657365740000537461727400000062
:10273800232D302B2000686C4C00656667454647A2
:102748000030313233343536373839414243444525
:102758004600303132333435363738396162636494
:03276800656600A3
:10276C007856341290000020000000000000000099
:10277C0000000000010203040607080900A24A0435
:10278C0024000020000000000000000000000000F9
:10279C00000000000000000000000000000000002D
:1027AC00000000000000000000000000000000001D
:1027BC00000000000000000000000000000000000D
:1027CC0000000000000000000000000000000000FD
:1027DC0000000000000000000000000000000000ED
:0827EC00000000003254769851
:040000050800010DE1
:00000001FF
