:020000040800F2
:100000000050002021020008270200082B020008EF
:100010009D020008A1020008E9020008000000009B
:100020000000000000000000000000003103000894
:10003000350300080000000039030008851300089C
:100040004D0300084D0300084D0300084D03000850
:100050004D0300084D030008210F0008310F000870
:10006000410F0008510F0008610F00084D03000800
:100070004D0300084D0300084D0300084D03000820
:100080004D0300084D0300084D0300084D03000810
:100090004D0300084D0300084D030008710F0008D0
:1000A0004D0300084D0300084D0300084D030008F0
:1000B0004D0300084D0300084D0300084D030008E0
:1000C0004D0300084D0300084D0300084D030008D0
:1000D0004D0300084D0300084D0300084D030008C0
:1000E000810F00084D0300084D03000800000000C8
:1000F0000000000000000000000000000000000000
:1001000000000000000000005FF808F100B583B0B7
:1001100000F0AAF9304B314A1360314A1360314B79
:10012000314A32498B4204D21168196004330432D7
:10013000F7E72A4B1A682E4B9A4200D0FEE7284B6D
:100140001A682C4B9A42F9D1234B2B4A13602B4A45
:1001500013602B4B02E000221A600433294A9342B9
:10016000F9D3254B1B6813B9244B1B6803B1FEE779
:1001700000F086F9694601A800F022F9224C234BD1
:10018000E41AA4100025AC4214DC214C214BE41AE3
:10019000A4100025AC4213DC0099019801F03EFA4E
:1001A00005461D4C1D4BE41AA410002C0EDC2846FD
:1001B00000F0E2F8154B53F8253098470135E2E797
:1001C000144B53F8253098470135E3E7013C134BB6
:1001D00053F824309847E8E7BABADECA0000002096
:1001E00084000020000000207C27000888000020F8
:1001F00078563412325476988800002090010020FE
:10020000880000209401002078030008780300088B
:1002100078030008780300087803000878030008D2
:1002200008B5FFF773FF00BEFEE71EF0040F0CBF1A
:10023000EFF30880EFF309807146414A10472DE93A
:10024000F04182B004468846124B5E6B9F6B9D6AFC
:100250001B6B13F0020F03D00E4BDB6A002B0CDB81
:100260000D4800F0B5F8CDF800803B4632462946EF
:10027000204600F009F900BEFEE74BF6AB6100F046
:100280007DF90028ECD0034B4FF00042DA6202B057
:10029000BDE8F08100ED00E0A825000800BEFEE703
:1002A0001EF0040F0CBFEFF30880EFF309807146D6
:1002B000244A10472DE9F04182B004468846084B95
:1002C0005E6B9F6B9D6A074800F082F8CDF8008056
:1002D0003B4632462946204600F0D6F800BEFEE7EF
:1002E00000ED00E0B82500081EF0040F0CBFEFF38E
:1002F0000880EFF309807146134A10472DE9F04159
:1003000082B004468846084B5E6B9F6B9D6A074827
:1003100000F05EF8CDF800803B4632462946204684
:1003200000F0B2F800BEFEE700ED00E0C4250008D2
:1003300000BEFEE700BEFEE700BEFEE7704700001D
:100340003F020008B5020008FD02000800BEFEE7FB
:100350007C27000800000020880000207C2700087F
:100360000000000000000000880000209401002030
:08037000000000000000000085
:10037800FEE7000008B503460C4A12685AB10B4A5A
:100388001068033323F003030344094A934206D851
:10039800064A136008BD054A06491160EFE701F0F7
:1003A80041FC0C2303604FF0FF30F3E78C00002082
:1003B800004C00209401002001230360014B0B60D6
:1003C800704700BF040000200FB400B583B004AB31
:1003D80053F8042B01938021064801F055FC0028AE
:1003E80003DD0146034800F037F803B05DF804EB7D
:1003F80004B07047940000202DE9F04385B004460E
:100408000F4643560BB10E461EE0042528462146EA
:10041800ABBE0446384605B0BDE8F08314F9011BAD
:1004280004AA1A4402F8101C0133AB42F6D304AAFA
:100438001344002203F8102C4FF00408E946404604
:100448004946ABBE8046761B002EE3D03546102EBB
:1004580028BF10250023E8E708B5FFF7CDFF08BD42
:1004680008B500F0FDF8024A024B9A6008BD00BFCB
:100478000000000800ED00E008B500F019F908BD1B
:10048800F8B504460D4617461E462748FFF79CFF59
:1004980021682648FFF798FF61682548FFF794FF11
:1004A800A1682448FFF790FFE1682348FFF78CFF15
:1004B80021692248FFF788FF61692148FFF784FF17
:1004C800A1692048FFF780FFE1691F48FFF77CFF1B
:1004D8001E48FFF779FF29461D48FFF775FF1D4C99
:1004E800E16A1D48FFF770FF216B1C48FFF76CFF9E
:1004F800E16B1B48FFF768FF15F0800F0AD115F470
:10050800004F0CD11748FFF75FFF06991648FFF711
:100518005BFFF8BD39461548FFF756FFEFE7314650
:100528001348FFF751FFEDE78C2400089C240008CE
:10053800AC240008BC240008CC240008DC240008F3
:10054800EC240008FC2400080C2500081C250008E1
:100558002825000800ED00E0382500084825000897
:1005680058250008882500089025000868250008F7
:100578007825000883691A888A4201D000207047CC
:100588000268033A012A03D80233836101207047C5
:100598000020704782B00023019300932C4A13680F
:1005A80043F4803313602A4B1B6803F40033009331
:1005B800019B01330193009B1BB9019BB3F5A06F0D
:1005C800F1D1234B1B6813F4003F06D0012300939D
:1005D800009B012B04D002B0704700230093F7E77B
:1005E8001C4B1A6842F010021A601A6822F00302C3
:1005F8001A601A6842F002021A60A3F580535A681A
:100608005A605A685A605A6842F480625A605A6856
:1006180022F47C125A605A6842F4E8125A601A6846
:1006280042F080721A600A4B1B6813F0007FFAD000
:10063800074B5A6822F003025A605A6842F00202D5
:100648005A60034B5B6803F00C03082BF9D1C2E72F
:10065800001002400020024008B5FFF79BFF08BDCC
:1006680008B5104B1A6842F001021A6059680E4A20
:100678000A405A601A6822F0847222F480321A60A2
:100688001A6822F480221A605A6822F4FE025A601C
:100698004FF41F029A60FFF7DFFF044B4FF0006230
:1006A8009A6008BD001002400000FFF800ED00E06D
:1006B8001F4B5B6803F00C03042B15D0082B17D0D5
:1006C8001BB11C4B1C4A1A6002E01A4B1A4A1A60EA
:1006D800174B5B68C3F30313184AD35CDAB21549A6
:1006E8000B68D3400B607047124B134A1A60EFE750
:1006F8000F4A53685268C3F38343023312F4803FAE
:100708000AD00B4A526812F4003F0BD00C4A02FB85
:1007180003F3084A1360DBE7094A02FB03F3054ABF
:100728001360D5E7044A02FB03F3024A1360CFE7DC
:10073800001002401C00002000127A000C0000206B
:1007480000093D0008B508220421002000F094FCAF
:1007580008220621002000F08FFC08220721002033
:1007680000F08AFC00220621104600F0F3FC00226B
:100778000721104600F0EEFC01220221002000F0C3
:100788007BFC01220321002000F076FC01220C21D1
:10079800002000F071FC01220021084600F06CFCEA
:1007A80008220521002000F067FC082211460020DD
:1007B80000F062FC08220B21002000F05DFC0822FA
:1007C8000F21002000F058FC00221146104600F0CE
:1007D800C1FC00220521104600F0BCFC00220821C3
:1007E800104600F0B7FC00220B21104600F0B2FCC6
:1007F80000220F21104600F0ADFC01220321104613
:1008080000F03AFC01220921104600F035FC0122D3
:100818000D21022000F030FC01220E21022000F000
:100828002BFC01220F21022000F026FC08220021C7
:10083800012000F021FC08220121084600F01CFCE0
:1008480008221146012000F017FC00221146012061
:1008580000F080FC00220121084600F07BFC002209
:100868000821012000F076FC08220421012000F074
:1008780003FC00220421012000F06CFC0822052161
:10088800012000F0F9FB00220521012000F062FCA4
:1008980008220621012000F0EFFB0022062101209A
:1008A80000F058FC08220721012000F0E5FB002297
:1008B8000721012000F04EFC01220A21104600F019
:1008C800DBFB08220B21012000F0D6FB00220B21C4
:1008D800012000F03FFC08220C21012000F0CCFB95
:1008E80000220C21012000F035FC08220D210120F6
:1008F80000F0C2FB00220D21012000F02BFC082291
:100908000E21012000F0B8FB00220E21012000F08A
:1009180021FC01220F21104600F0AEFB01221146F6
:10092800002000F0A9FB08BD08B50A2811D8DFE8A7
:1009380000F006111C27415B758FA9B9C900012277
:100948000021084600F006FC00220C21104600F0A9
:1009580001FC08BD01220C21002000F0FBFB002255
:100968001146104600F0F6FBF3E700220C21104672
:1009780000F0F0FB00221146104600F0EBFBE8E720
:1009880000220321012000F0E5FB01220921104685
:1009980000F0E0FB00220D21022000F0DBFB00222A
:1009A8000E21022000F0D6FB00220F21022000F0C9
:1009B800D1FBCEE700220321012000F0CBFB00226F
:1009C8000921012000F0C6FB01220D21022000F0C0
:1009D800C1FB00220E21022000F0BCFB00220F21E7
:1009E800022000F0B7FBB4E700220321012000F049
:1009F800B1FB00220921012000F0ACFB00220D21EF
:100A0800022000F0A7FB01220E21022000F0A2FB29
:100A180000220F21022000F09DFB9AE7002203210B
:100A2800012000F097FB00220921012000F092FB31
:100A380000220D21022000F08DFB00220E21022051
:100A480000F088FB01220F21022000F083FB80E7E1
:100A580001220321104600F07DFB0022092101201C
:100A680000F078FB00220D21022000F073FB002229
:100A78000E21022000F06EFB00220F21022000F060
:100A880069FB66E700220121104600F063FB0022A3
:100A98000A21012000F05EFB01220F21104600F020
:100AA80059FB56E701221146002000F053FB0022B3
:100AB8000A21012000F04EFB00220F21012000F046
:100AC80049FB46E700220121104600F043FB0122C2
:100AD8000A21104600F03EFB00220F21012000F001
:100AE80039FB36E738B500220321104600F032FB07
:100AF800012000F02FFC01220321002000F02AFB36
:100B080000252C4616E06400A4B20421002000F061
:100B18005BFB80B2044301220221002000F01AFB93
:100B2800012000F017FC00220221104600F012FB01
:100B38000135EDB2072DE6D900220221104600F05A
:100B480009FB204638BD000070B5FFF7CBFF05460E
:100B580000240AE00320FFF7E7FEB14B03221A70D6
:100B6800B04B01221A700134E4B2042C3FD845FA84
:100B780004F313F0010FF6D0042CF4D801A353F8B2
:100B880024F000BFE30B0008CF0B0008BB0B0008E4
:100B9800A10B00085D0B00080420FFF7C5FEA04B61
:100BA80004221A70A04B00221A709E4B02221A705F
:100BB800D9E70520FFF7B8FE994B05221A70994B23
:100BC80001221A70CFE70620FFF7AEFE944B0622EB
:100BD8001A70944B02221A70C5E70720FFF7A4FE8B
:100BE8008F4B07221A708F4B01221A70BBE70F2117
:100BF800002000F0E9FA012811D00F21002000F0B0
:100C0800E3FAA8B10021012000F0DEFAC8B1002102
:100C1800012000F0D9FA012827D0052452E08348A2
:100C280000F006FC0023824A1370824A1370E4E73E
:100C3800814800F0FDFB01237D4A13707D4A137043
:100C4800E0E7052100F0C0FA0028E0D101247B4B41
:100C58001C707B4800F0ECFB0920FFF765FE794B20
:100C68001C706F4B09221A70D1E7714B1B7843B186
:100C7800012BD2D1714B02221A70724B01221A70C9
:100C8800CBE76E4B02221A706E4B01221A706E4827
:100C980000F0CEFB0820FFF747FE614B08221A70D0
:100CA800BBE76A4800F0C4FB0A20FFF73DFE654B2E
:100CB80001221A70614B02221A70594B0A221A70CB
:100CC8000134E4B2072C2AD82146002000F07CFA2F
:100CD8000128F5D1062C13D0072C02D0052CEFD112
:100CE800DFE75B4800F0A4FB0120FFF71DFE594B2E
:100CF80002221A700123584A1370584A1370DFE70A
:100D0800574800F095FB0220FFF70EFE0223514AD8
:100D18001370514A1370514B01221A70D0E7062103
:100D2800002000F051FA002857D015F001040FD028
:100D380015F0020F0CD115F0040F09D115F0080FAA
:100D480006D115F0100F03D1364B1B78012B58D064
:100D58007CB915F0020F0CD015F0040F09D115F06D
:100D6800080F06D115F0100F03D12E4B1B78022B5C
:100D78007CD07CB915F0020F0CD115F0040F09D006
:100D880015F0080F06D115F0100F03D1254B1B786D
:100D9800012B7CD07CB915F0020F0CD115F0040F93
:100DA80009D115F0080F06D015F0100F03D11D4B0F
:100DB8001B78022B7DD07CB915F0020F0CD115F0F1
:100DC800040F09D115F0080F06D115F0100F03D044
:100DD800144B1B78012B7DD070BD072100F0F4F96E
:100DE8000028A2D11F4800F023FB0020FFF79CFD3C
:100DF8000123184A1370184A00211170174A1370FA
:100E080093E7084B02221A70174800F011FB0720DD
:100E1800034B1870FFF788FD034B00221A7097E701
:100E28008D0100204C0100204E010020D42500082F
:100E3800500100204F010020E02500085301002048
:100E4800E825000854010020F0250008F8250008CE
:100E580000260008510100208C01002052010020CA
:100E68000C26000818260008242600080126224B14
:100E78001E70224800F0DCFA0620214B1870FFF79C
:100E880053FD204B00221A701F4B1E7071E71A4B3E
:100E980002221A701D4800F0CBFA0520184B187072
:100EA800FFF742FD174B00221A70174B01221A70E8
:100EB80070E70126104B1E70154800F0B9FA114B67
:100EC80000221A7004200E4B1870FFF72DFD0E4BF0
:100ED8001E7070E7084B02221A700124094B1C701F
:100EE8000C4800F0A5FA0320054B1870FFF71CFD0D
:100EF800054B1C7070E700BF4C010020302600082D
:100F08008D0100204E0100204D01002038260008E8
:100F1800402600085026000808B5024B1B68984771
:100F280008BD00BF7C01002008B5024B1B6898472C
:100F380008BD00BF7001002008B5024B1B68984728
:100F480008BD00BF7801002008B5024B1B68984710
:100F580008BD00BF6C01002008B5024B1B6898470C
:100F680008BD00BF7401002008B5024B1B689847F4
:100F780008BD00BF8001002008B5024B1B689847D8
:100F880008BD00BF84010020F8B505460C4616468A
:100F98000021022000F07CF9A308274A023352F806
:100FA80023104FEA840C0F2707FA0CF721EA0701F0
:100FB80042F8231052F8230005FA0CF5284342F8AA
:100FC8002300012E1AD096B1022E1ED01B490B68A1
:100FD8000122A24013430B60042C20D9631FDBB20B
:100FE800042B21D90A3CE4B2052C21D9F8BD1349B8
:100FF8008B680122A24013438B60E7E70F49CB6857
:101008000122A2401343CB60E0E70C4A9168012318
:10101800A34019439160D1680B43D360D6E7A01D64
:10102800C0B200F0F1F8E1E7172000F0EDF8DDE7D5
:10103800282000F0E9F8D9E7000001400004014049
:1010480003494B69012202FA00F003434B617047E0
:1010580000040140014B1860704700BF7C0100206C
:10106800014B1860704700BF80010020014B1860D9
:10107800704700BF8401002010B4072930D8012828
:1010880012D018B102281DD010BC70472E4B18681A
:1010980089000F248C4020EA04001860186802FABE
:1010A80001F101431960EFE7284B186889000F2404
:1010B8008C4020EA04001860186802FA01F1014324
:1010C8001960E1E7224B186889000F248C4020EA58
:1010D80004001860186802FA01F101431960D3E7A7
:1010E8000F29D1D80839C9B201281ED078B10228F1
:1010F800CAD1174844688B000F21994024EA01019E
:101108004160446802FA03F121434160BCE70E4B99
:1011180058688C000F21A14020EA010159605868E5
:1011280002FA04F101435960AEE7084B5C68880095
:101138000F21814024EA010159605C6802FA00F13C
:1011480021435960A0E700BF00080140000C01409E
:1011580000100140CAB1012A2ED1012809D010B1CE
:1011680002280CD07047012303FA01F1134B1961CF
:101178007047012303FA01F1114B196170470123EC
:1011880003FA01F10F4B19617047012809D010B11A
:1011980002280CD07047012303FA01F1074B59616B
:1011A8007047012303FA01F1054B59617047012388
:1011B80003FA01F1034B5961704700BF0008014071
:1011C800000C01400010014001280AD018B1022883
:1011D8000DD000207047094B9868C84000F0010006
:1011E8007047074B9868C84000F001007047054BEE
:1011F8009868C84000F00100704700BF000801402F
:10120800000C0140001001401F2809D92038C0B245
:101218001B2804D8012303FA00F0044B1860704718
:10122800012303FA00F0024B1860704704E100E064
:1012380000E100E0154B1A6842F400221A605A686F
:1012480042F480325A605A6842F480225A605A68DE
:1012580042F400225A605A6842F480125A605A686E
:1012680022F400125A605A6822F001025A605A6841
:1012780042F002025A601A6842F080721A60034B08
:101288001B6813F0007FFAD0704700BF00100240BF
:101298001F291CD801280BD010B1022810D0704784
:1012A8000B484369012202FA01F119434161704771
:1012B8000748C369012202FA01F11943C161704765
:1012C80003488369012202FA01F1194381617047D9
:1012D8000010024000230A4A136004326FF07F4175
:1012E80011600432136010B1012804D07047044B18
:1012F80005221A607047024B07221A60704700BF28
:1013080010E000E001FB00F14FF47A7303FB01F1F8
:10131800B1F1807F07D3074B6FF07F421A60043327
:1013280000221A607047034B1960043300221A60C8
:10133800704700BF14E000E008B501214820FFF71E
:10134800E1FF034B1B6813F4803FFAD008BD00BFD0
:1013580010E000E038B50546002402E0FFF7ECFF96
:101368000134AC42FAD338BD034B1B681BB1024AA7
:101378001368013B136070478801002008B5FFF728
:10138800F3FF08BD10B50E210220FFF781FF0221EF
:101398000846FFF77DFF00210220FFF779FF0024B0
:1013A800174B1C600C331A6822F480521A60154AD5
:1013B800116821F480511160116821F40051116005
:1013C8001A6842F008021A601A6842F004021A60A9
:1013D8000D4A41F6415111601A6842F400521A60F0
:1013E800092211462046FFF747FE04220A2120461B
:1013F800FFF742FE01220A212046FFF7ABFE10BD8F
:10140800003801401438014008380140064A136882
:1014180023F040031360054B1860034B1B6813F05F
:10142800400FFAD0704700BF00380140043801402F
:1014380038B50546002402E0FFF7E8FF0134285DCF
:101448000028F9D138BD0000054B1B6813F0200FA8
:1014580004D0044B1B6803700120704700207047BC
:10146800003801400438014000B583B00DF1070091
:10147800FFF7EAFFC8B19DF807300A2B0CD00D2BF7
:101488000AD00C4A1278302A11D8501C0949087021
:1014980009498B54002005E0064B197806480022BC
:1014A80042541A7003B05DF804FB0020FAE70020EC
:1014B800F8E700BF140100201801002008B50F212B
:1014C8000020FFF781FE012807D010B9114B1B78C7
:1014D8009BB10F20FFF7B4FD08BD0E4B1B78012B05
:1014E800F3D10D48FFF7A4FF0A20FFF733FF0023CD
:1014F8000A4A1370074A1370EBE70948FFF798FF89
:101508000A20FFF727FF0123044A1370014A1370CA
:10151800DFE700BF4F0100206026000850010020CF
:101528006C26000808B5114B1B78B3B9104B1B7813
:10153800012B03D00020FFF783FD08BD0C4B0222CE
:101548001A700C4B01221A700B48FFF771FF082024
:101558000A4B1870FFF7E8F9ECE7012BEAD1044BC6
:1015680002221A70034B01221A70E3E7500100208F
:1015780053010020540100208C2600088C01002013
:1015880010B506210020FFF71FFE044607210020A2
:10159800FFF71AFE012808D0012C19D00620FFF702
:1015A8004FFD0720FFF74CFD10BD154B1B78012B95
:1015B800F2D1134B02221A700124124B1C702046E0
:1015C800FFF7B2F9104B1C701048FFF731FFE5E741
:1015D8000C4B1B78002BE1D1094B1B78012BDDD17B
:1015E8000224074B1C70074B01221A702046FFF794
:1015F8009BF9054B1C700648FFF71AFFCEE700BFA2
:1016080051010020520100208C010020742600089E
:101618008026000810B582B0FFF70CFE02210846AC
:10162800FFF736FE03210220FFF732FE04210220D5
:10163800FFF72EFE00210220FFF72AFEC04A53685A
:1016480043F0007353600020FFF744FEFFF79AFE53
:10165800FFF778F8BB4B93E803000090ADF804104F
:10166800002206211046FFF78FFC002207211046B2
:10167800FFF78AFC002211460120FFF785FC0222B1
:101688000F210020FFF780FCAF48FFF7E3FCAF48CD
:10169800FFF7E6FCAE48FFF7E9FC1FE0AD490A7822
:1016A80001320A700133DBB2C25C4AB102A91944A3
:1016B80011F8081C9142F1D0A64A00211170F1E7F7
:1016C800A44B1B78052B14D008210120FFF77CFDC3
:1016D80001281AD0A04B1B78012B26D0FFF7C4FE97
:1016E8009E4B18600378002BEAD00023994A1370A8
:1016F800DAE79B48FFF79CFEFFF726FA964B012294
:101708001A70944B00221A70DEE79548FFF790FE96
:10171800FFF71AFA904B01221A708E4B00221A70AA
:101728004FF4FA70FFF716FED4E70E210120FFF7F9
:101738004BFD01286DD004210120FFF745FD01284C
:1017480073D00C210120FFF73FFD012875D005213A
:101758000120FFF739FD012873D001210846FFF762
:1017680033FD012875D008210020FFF72DFD012841
:1017780077D007210120FFF727FD012879D00D2117
:101788000120FFF721FD01287BD00B210120FFF765
:101798001BFD01287DD00B210020FFF715FD012836
:1017A8007FD006210120FFF70FFD012800F081807E
:1017B80006210020FFF708FD002800F082800021A4
:1017C8000120FFF701FD002800F09A800521002084
:1017D800FFF7FAFC012840F0EF80624B1B78002BE2
:1017E80040F0EA80604B1B78012B40F0EF805E4BA5
:1017F80002221A7001235B4A13705C4A13705C481A
:10180800FFF716FE0A20FFF78FF85A4B0A221A70C4
:10181800DCE0594B1B78002B8DD15848FFF708FEA8
:101828004FF4FA70FFF796FD85E75548FFF700FE7D
:101838004FF4FA70FFF78EFD83E7524B00221A70BF
:1018480085E75148FFF7F4FD4FF4FA70FFF782FD82
:1018580083E74E48FFF7ECFD4FF4FA70FFF77AFD87
:1018680081E74B48FFF7E4FD4FF4FA70FFF772FD8C
:101878007FE74848FFF7DCFD4FF4FA70FFF76AFD91
:101888007DE74548FFF7D4FD4FF4FA70FFF762FD96
:101898007BE74248FFF7CCFD4FF4FA70FFF75AFD9B
:1018A80079E73F48FFF7C4FD4FF4FA70FFF752FDA0
:1018B80077E73C48FFF7BCFD4FF4FA70FFF74AFDA5
:1018C80076E70721FFF780FC00287FF478AF364BD6
:1018D8001B78012B7FF473AF344B1B78022B7FF4FA
:1018E8006EAF324B01221A7000242F4B1C70204619
:1018F800FFF71AF82E48FFF79BFD1E4B1C705EE79A
:101908000521FFF761FC00287FF460AF174B1B78B7
:10191800012B7FF45BAF144B1B78022B7FF456AF7F
:10192800124B00221A70104B01221A700920FEF780
:10193800FBFF2048FFF77CFD0E4B09221A7045E794
:1019480000000140402700082D15000889150008EF
:10195800C51400085C0100205D010020580100202A
:10196800942600085E010020530100205401002045
:101978002C2700088C010020500100209C2600081C
:10198800A826000855010020B0260008BC2600083B
:10199800CC260008D8260008E4260008EC26000813
:1019A800FC260008082700085201002051010020E9
:1019B800142700082427000805210020FFF704FC4D
:1019C80020B98B4B1B78012B00F0A780FFF78AF812
:1019D800884B188010F0800F04D0874B1B78002BA1
:1019E80000F09F80834B1B8813F0010210D113F085
:1019F800020F0DD113F0040F0AD113F0080F07D10D
:101A080013F0100F04D17D490978012900F0918065
:101A180082B113F0020F0DD113F0040F0AD113F0A5
:101A2800080F07D113F0100F04D1754B1B78012B49
:101A380000F083806F4B1B8813F0010F10D113F057
:101A4800020F0DD013F0040F0AD113F0080F07D1BD
:101A580013F0100F04D16A4B1B78022B00F084801E
:101A6800644B1B8813F0010F10D113F0020F0DD136
:101A780013F0040F0AD013F0080F07D113F0100F5A
:101A880004D15F4B1B78012B00F08480594B1B88D5
:101A980013F0010F10D113F0020F0DD113F0040F42
:101AA8000AD113F0080F07D013F0100F04D1544BCC
:101AB8001B78022B00F085804E4B1B8813F0010F1A
:101AC8007FF40CAE13F0020F7FF408AE13F0040F8E
:101AD8007FF404AE13F0080F7FF400AE13F0100F7C
:101AE8003FF4FCAD464B1B78012B7FF4F7AD434B1D
:101AF8001B78002B7FF4F2AD414B02221A700124AF
:101B0800404B1C704048FFF793FC03203F4B187074
:101B1800FEF70AFF394B1C70E0E5354B00221A70BE
:101B280054E73B48FFF784FC4FF4FA70FFF712FCC8
:101B380058E73249002008706AE7304B1B78002BC1
:101B48007FF478AF2E4B02221A702C4B01221A70A8
:101B58003048FFF76DFC07202C4B1870FEF7E4FEA9
:101B6800284B00221A7065E7244B1B78002B7FF462
:101B780077AF0124224B1C702748FFF759FC062039
:101B8800224B1870FEF7D0FE1E4B00221A701B4B1A
:101B98001C7065E7194B1B78002B7FF477AF184B47
:101BA80002221A701D48FFF743FC0520174B1870D6
:101BB800FEF7BAFE134B00221A70104B01221A705E
:101BC80064E70E4B1B78002B7FF476AF01240C4B97
:101BD8001C701348FFF72CFC0A4B00221A700420D3
:101BE8000A4B1870FEF7A0FE044B1C7064E700BF98
:101BF8005E0100204A010020500100204D01002014
:101C08004C0100204E010020502600088D010020C4
:101C18003427000824260008302600083826000843
:101C280040260008014B1868704700BF20000020BC
:101C380030B5141E05469BB0184605DA8B234FF0C5
:101C4800FF302B601BB030BD4FF40273ADF80C3081
:101C58000CBF234604F1FF33029305934FF6FF733D
:101C680000910491ADF80E3002461E9B6946284645
:101C780000F072F8431CBCBF8B232B60002CE1D012
:101C88000022009B1A70DDE707B5009313460A4649
:101C9800014603480068FFF7CBFF03B05DF804FB7B
:101CA800200000202DE9F0478E6882469E420C46AF
:101CB8009046994637D88A8912F4906F31D002231A
:101CC800256809696F1A656905EB450595FBF3F504
:101CD80009F101033B449D4238BF1D46530530D5E9
:101CE800294600F035FB064650B90C234FF0FF306B
:101CF800CAF80030A38943F04003A381BDE8F08708
:101D08003A46216900F0B4FAA38923F4906343F0BA
:101D18008003A38126613E4426604E466561ED1B23
:101D2800A5604E4500D94E4632464146206800F02F
:101D3800AAFAA36800209B1BA36023681E442660A0
:101D4800DCE72A4600F05EFB06460028E2D121695E
:101D5800504600F0B1FAC8E72DE9F04F9DB0039363
:101D68008B8980461D060C4616460FD50B696BB944
:101D7800402100F0EDFA2060206128B90C23C8F852
:101D880000304FF0FF30C7E0402363610023099320
:101D980020238DF8293030234FF0010B8DF82A309D
:101DA80037463D4615F8013B0BB1252B3ED1B7EB25
:101DB800060A0BD05346324621464046FFF772FFCB
:101DC800013000F0A480099B534409933B78002B11
:101DD80000F09D8000234FF0FF32CDE905230493E6
:101DE80007938DF853301A932F46052217F8011BD5
:101DF8004F4800F02FFA049BD0B9D90644BF2022DF
:101E08008DF853201A0744BF2B228DF853202A78C7
:101E18002A2A15D02F4600200A25079A394611F894
:101E2800013B303B092B4DD9B8B10FE02F46B8E73D
:101E38003F4A3D46801A0BFA00F018430490D3E756
:101E4800039A111D12680391002A01DB079204E02E
:101E5800524243F00203079204933B782E2B0CD195
:101E68007B782A2B33D1039B02371A1D1B680392F8
:101E7800002BB8BF4FF0FF3305932E4D032239785E
:101E8800284600F0E7F938B14023401B03FA00F078
:101E9800049B0137034304933978062226487E1CA5
:101EA8008DF8281000F0D6F9002838D0234B13BB42
:101EB800039B073323F0070308330393099B4B4421
:101EC80009936DE705FB023201200F46A6E70023C0
:101ED8000A25194601370593384610F8012B303A80
:101EE800092A03D9002BC8D00591C6E705FB0121B3
:101EF80001230746F0E703AB00932246104B04A9E1
:101F08004046AFF30080B0F1FF3F8146D6D1A389A8
:101F18005B063FF536AF09981DB0BDE8F08F03ABFF
:101F280000932246064B04A9404600F081F8EAE7F0
:101F3800482700084E270008522700080000000024
:101F4800AD1C00082DE9F04791461F468A680B69C9
:101F580006469342B8BF1346C9F8003091F84320AB
:101F68000C46DDF8208012B10133C9F8003023682F
:101F7800990642BFD9F800300233C9F80030256805
:101F880015F0060507D104F1190AE368D9F800200D
:101F98009B1AAB4229DC94F843302268003318BFFF
:101FA800012392062ED404F1430239463046C04735
:101FB800013021D02368E56803F00603042B18BF1D
:101FC8000025D9F800204FF0000908BFAD1AA36812
:101FD800226908BF25EAE5759342C4BF9B1AED182C
:101FE8001A344D451AD1002008E0012352463946DB
:101FF8003046C047013003D14FF0FF30BDE8F087CD
:102008000135C2E73020E11881F843005A1C94F8E2
:1020180045102244023382F84310C4E701232246C4
:1020280039463046C0470130E6D009F10109D8E702
:102038002DE9F04301F1430C0C46097E85B06E2969
:102048001746064698460C9A00F0B38022D86329B2
:1020580036D00AD8002900F0B980582900F08380CA
:1020680004F1420584F8421032E0642901D069295C
:10207800F6D120681368050603F104012AD51B6808
:102088001160002B03DA2D225B4284F843206F484D
:102098000A2239E0732900F09D8008D86F2920D0E2
:1020A8007029DDD1236843F02003236003E07529FC
:1020B80017D07829D4D17823654884F8453055E07D
:1020C800136804F14205191D1B68116084F8423039
:1020D80001238CE01B6810F0400F116018BF1BB281
:1020E800CFE713682568181D1060280601D51B68FE
:1020F80002E06806FBD51B886F2914BF0A22082254
:102108005248002184F843106568002DA560C0F28C
:102118009580216821F004012160002B3DD1002D1C
:1021280040F08E806546082A0BD12368DB0708D566
:10213800236962689A42DEBF302305F8013C05F145
:10214800FF35ACEB05032361CDF800803B4603AABD
:1021580021463046FFF7F6FE01304DD14FF0FF30F3
:1021680005B0BDE8F083394884F845101368216844
:102178001D1D1B6815600A060BD5CA0744BF41F030
:10218800200121601BB9226822F02002226010225F
:10219800B7E74D0648BF9BB2EFE76546B3FBF2F1E0
:1021A80002FB1133C35C05F8013D0B460029F5D14C
:1021B800B9E713682568181D6169106028061B684F
:1021C80001D5196002E06A06FBD51980002365462F
:1021D8002361B9E71368191D11601D686268002141
:1021E800284600F037F808B1401B60606368236137
:1021F800002384F84330A7E723692A463946304646
:10220800C0470130AAD023689B0713D4E068039B1A
:102218009842B8BF1846A3E701234A4639463046D4
:10222800C04701309AD00135E368039A9B1AAB4244
:10223800F2DCEBE7002504F11909F5E7002BACD136
:10224800037804F1420584F842306CE75927000806
:102258006A27000810B5C9B202449042034601D16A
:10226800002303E01C7801308C42F6D1184610BDDB
:1022780010B5431E0A44914200D110BD11F8014B1C
:1022880003F8014FF7E7884210B501EB020307D8BE
:10229800421E99420AD011F8014B02F8014FF8E7A3
:1022A8008342F5D98118D21AD34200D110BD13F850
:1022B800014D01F8014DF7E738B50546002943D02F
:1022C80051F8043C0C1F002BB8BFE41800F0D0F8FC
:1022D8001E4A1368104633B9636014602846BDE887
:1022E800384000F0C6B8A3420BD92168621893425F
:1022F80001BF1A685B685218226063600460EDE7EA
:1023080013465A680AB1A242FAD919685818A04265
:102318000BD120680144581882421960DED1106838
:102328005268014419605A60D8E702D90C232B601F
:10233800D4E7206821188A4201BF11685268091839
:10234800216062605C60C9E738BD00BF60010020A1
:1023580070B5CD1C25F0030508350C2D38BF0C25AC
:10236800002D064601DBA94203D90C233360002067
:1023780070BD00F07DF8214A1468214691B9204CBF
:1023880023681BB9304600F063F8206029463046C0
:1023980000F05EF8431C24D10C233046336000F073
:1023A80068F8E4E70B685B1B18D40B2B0FD90B609C
:1023B800CC18CD50304600F05CF804F10B00231D1A
:1023C80020F00700C31AD3D05A42E250D0E74B6836
:1023D8008C4216BF636013600C46EBE70C464968F5
:1023E800CCE7C41C24F00304A04205D0211A3046CF
:1023F80000F02EF80130CFD02560DBE76001002027
:1024080064010020F8B5074614460E4621B9BDE818
:10241800F8401146FFF79CBF22B9FFF74DFF25464C
:102428002846F8BD00F026F8A0420FD221463846CB
:10243800FFF78EFF05460028F2D031462246FFF707
:1024480017FF31463846FFF737FFE9E73546E7E734
:1024580038B50023054C054608462360FDF78AFF7A
:10246800431C02D1236803B12B6038BD68010020EA
:102478007047704751F8043C181F002BBCBF0B581D
:10248800C0187047537461636B206672616D653A5A
:102498000A000000205230203D2020253038580AFC
:1024A80000000000205231203D2020253038580AF5
:1024B80000000000205232203D2020253038580AE4
:1024C80000000000205233203D2020253038580AD3
:1024D8000000000020523132203D20253038580AB3
:1024E80000000000204C52203D2020253038580A9A
:1024F80000000000205043203D2020253038580A95
:102508000000000020505352203D20253038580A42
:10251800000000004653522F4641523A0A0000007C
:102528002043465352203D2020253038580A0000C9
:102538002048465352203D2020253038580A0000B4
:102548002044465352203D2020253038580A0000A8
:102558002041465352203D2020253038580A00009B
:10256800204D4D464152203D20253038580A000064
:102578002042464152203D2020253038580A00008C
:102588004D6973630A000000204C522F4558435F81
:1025980052455455524E3D20253038580A00000007
:1025A8005B486172644661756C745D0A00000000E6
:1025B8005B4275734661756C745D0A005B557361A7
:1025C80067654661756C745D0A0000005468657241
:1025D8006D616C2C000000004461792C0000000043
:1025E8004E464F562C00000046464F562C00000021
:1025F80057464F562C0000004C61737420456368A1
:102608006F2C00004563686F204F66662C00000041
:102618004669727374204563686F2C002A4869679D
:1026280068204578702300002A48656174230000FB
:102638002A5361626F7423002A5375622043616CC8
:1026480069626572230000002A436F617869616CD2
:102658002047756E230000002A546865726D616C0E
:10266800230000002A446179230000002A4C61738A
:1026780074204563686F23002A4563686F204F669E
:10268800662300002A46464F562300002A537461E9
:1026980072742C002A466F6375732B2300000000A8
:1026A8002A4175746F2300002A4578706F7375721C
:1026B800652D23002A46756C6C2053637265656E20
:1026C800230000002A436F6E74726173742B230019
:1026D8002A436F6E74726173742D23002A436F6CE2
:1026E8006F7223002A426174746C652052616E67B0
:1026F800652300002A4272696768742B2300000072
:102708002A4272696768742D230000002A4669729C
:102718007374204563686F23000000002A4E464FFB
:10272800562300002A57464F562300002A466F6357
:1027380075732D230000000053746172740000004B
:10274800232D302B2000686C4C0065666745464792
:102758000030313233343536373839414243444515
:102768004600303132333435363738396162636484
:0327780065660093
:10277C007856341290000020000000000000000089
:10278C0000000000010203040607080900A24A0425
:10279C0024000020000000000000000000000000E9
:1027AC00000000000000000000000000000000001D
:1027BC00000000000000000000000000000000000D
:1027CC0000000000000000000000000000000000FD
:1027DC0000000000000000000000000000000000ED
:1027EC0000000000000000000000000000000000DD
:0827FC00000000003254769841
:040000050800010DE1
:00000001FF
