:020000040800F2
:100000000050002021020008270200082B020008EF
:100010009D020008A1020008E9020008000000009B
:100020000000000000000000000000003103000894
:1000300035030008000000003903000879110008AA
:100040004D0300084D0300084D0300084D03000850
:100050004D0300084D030008FD0C00080D0D0008BD
:100060001D0D00082D0D00083D0D00084D03000872
:100070004D0300084D0300084D0300084D03000820
:100080004D0300084D0300084D0300084D03000810
:100090004D0300084D0300084D0300084D0D0008F6
:1000A0004D0300084D0300084D0300084D030008F0
:1000B0004D0300084D0300084D0300084D030008E0
:1000C0004D0300084D0300084D0300084D030008D0
:1000D0004D0300084D0300084D0300084D030008C0
:1000E0005D0D00084D0300084D03000800000000EE
:1000F0000000000000000000000000000000000000
:1001000000000000000000005FF808F100B583B0B7
:1001100000F0AAF9304B314A1360314A1360314B79
:10012000314A32498B4204D21168196004330432D7
:10013000F7E72A4B1A682E4B9A4200D0FEE7284B6D
:100140001A682C4B9A42F9D1234B2B4A13602B4A45
:1001500013602B4B02E000221A600433294A9342B9
:10016000F9D3254B1B6813B9244B1B6803B1FEE779
:1001700000F086F9694601A800F022F9224C234BD1
:10018000E41AA4100025AC4214DC214C214BE41AE3
:10019000A4100025AC4213DC0099019801F034F959
:1001A00005461D4C1D4BE41AA410002C0EDC2846FD
:1001B00000F0E2F8154B53F8253098470135E2E797
:1001C000144B53F8253098470135E3E7013C134BB6
:1001D00053F824309847E8E7BABADECA0000002096
:1001E0008400002000000020E0210008880000209A
:1001F0007856341232547698880000206801002026
:10020000880000206C0100207803000878030008B3
:1002100078030008780300087803000878030008D2
:1002200008B5FFF773FF00BEFEE71EF0040F0CBF1A
:10023000EFF30880EFF309807146414A10472DE93A
:10024000F04182B004468846124B5E6B9F6B9D6AFC
:100250001B6B13F0020F03D00E4BDB6A002B0CDB81
:100260000D4800F0B5F8CDF800803B4632462946EF
:10027000204600F009F900BEFEE74BF6AB6100F046
:100280007DF90028ECD0034B4FF00042DA6202B057
:10029000BDE8F08100ED00E0A020000800BEFEE710
:1002A0001EF0040F0CBFEFF30880EFF309807146D6
:1002B000244A10472DE9F04182B004468846084B95
:1002C0005E6B9F6B9D6A074800F082F8CDF8008056
:1002D0003B4632462946204600F0D6F800BEFEE7EF
:1002E00000ED00E0B02000081EF0040F0CBFEFF39B
:1002F0000880EFF309807146134A10472DE9F04159
:1003000082B004468846084B5E6B9F6B9D6A074827
:1003100000F05EF8CDF800803B4632462946204684
:1003200000F0B2F800BEFEE700ED00E0BC200008DF
:1003300000BEFEE700BEFEE700BEFEE7704700001D
:100340003F020008B5020008FD02000800BEFEE7FB
:10035000E02100080000002088000020E0210008C3
:100360000000000000000000880000206C01002058
:08037000000000000000000085
:10037800FEE7000008B503460C4A12685AB10B4A5A
:100388001068033323F003030344094A934206D851
:10039800064A136008BD054A06491160EFE701F0F7
:1003A800BDF90C2303604FF0FF30F3E78C00002009
:1003B800004C00206C01002001230360014B0B60FE
:1003C800704700BF040000200FB400B583B004AB31
:1003D80053F8042B01938021064801F0D1F9002835
:1003E80003DD0146034800F037F803B05DF804EB7D
:1003F80004B07047940000202DE9F04385B004460E
:100408000F4643560BB10E461EE0042528462146EA
:10041800ABBE0446384605B0BDE8F08314F9011BAD
:1004280004AA1A4402F8101C0133AB42F6D304AAFA
:100438001344002203F8102C4FF00408E946404604
:100448004946ABBE8046761B002EE3D03546102EBB
:1004580028BF10250023E8E708B5FFF7CDFF08BD42
:1004680008B500F0FDF8024A024B9A6008BD00BFCB
:100478000000000800ED00E008B500F019F908BD1B
:10048800F8B504460D4617461E462748FFF79CFF59
:1004980021682648FFF798FF61682548FFF794FF11
:1004A800A1682448FFF790FFE1682348FFF78CFF15
:1004B80021692248FFF788FF61692148FFF784FF17
:1004C800A1692048FFF780FFE1691F48FFF77CFF1B
:1004D8001E48FFF779FF29461D48FFF775FF1D4C99
:1004E800E16A1D48FFF770FF216B1C48FFF76CFF9E
:1004F800E16B1B48FFF768FF15F0800F0AD115F470
:10050800004F0CD11748FFF75FFF06991648FFF711
:100518005BFFF8BD39461548FFF756FFEFE7314650
:100528001348FFF751FFEDE7841F0008941F0008E8
:10053800A41F0008B41F0008C41F0008D41F000827
:10054800E41F0008F41F0008042000081420000815
:100558002020000800ED00E03020000840200008BE
:10056800502000088020000888200008602000082B
:100578007020000883691A888A4201D000207047D9
:100588000268033A012A03D80233836101207047C5
:100598000020704782B00023019300932C4A13680F
:1005A80043F4803313602A4B1B6803F40033009331
:1005B800019B01330193009B1BB9019BB3F5A06F0D
:1005C800F1D1234B1B6813F4003F06D0012300939D
:1005D800009B012B04D002B0704700230093F7E77B
:1005E8001C4B1A6842F010021A601A6822F00302C3
:1005F8001A601A6842F002021A60A3F580535A681A
:100608005A605A685A605A6842F480625A605A6856
:1006180022F47C125A605A6842F4E8125A601A6846
:1006280042F080721A600A4B1B6813F0007FFAD000
:10063800074B5A6822F003025A605A6842F00202D5
:100648005A60034B5B6803F00C03082BF9D1C2E72F
:10065800001002400020024008B5FFF79BFF08BDCC
:1006680008B5104B1A6842F001021A6059680E4A20
:100678000A405A601A6822F0847222F480321A60A2
:100688001A6822F480221A605A6822F4FE025A601C
:100698004FF41F029A60FFF7DFFF044B4FF0006230
:1006A8009A6008BD001002400000FFF800ED00E06D
:1006B8001F4B5B6803F00C03042B15D0082B17D0D5
:1006C8001BB11C4B1C4A1A6002E01A4B1A4A1A60EA
:1006D800174B5B68C3F30313184AD35CDAB21549A6
:1006E8000B68D3400B607047124B134A1A60EFE750
:1006F8000F4A53685268C3F38343023312F4803FAE
:100708000AD00B4A526812F4003F0BD00C4A02FB85
:1007180003F3084A1360DBE7094A02FB03F3054ABF
:100728001360D5E7044A02FB03F3024A1360CFE7DC
:10073800001002401C00002000127A000C0000206B
:1007480000093D0010B501240AE0A31EDBB2012B0D
:1007580004D908222146002000F088FB0134E4B2C5
:10076800072CF2D901240AE0A31EDBB2012B04D91D
:1007780000222146104600F0E7FB0134E4B2072CC2
:10078800F2D901220221002000F070FB012203218E
:10079800002000F06BFB01220C21002000F066FB1A
:1007A80008220021084600F061FB082211460020BB
:1007B80000F05CFB08220B21002000F057FB082208
:1007C8000F21002000F052FB00221146104600F0D5
:1007D800BBFB00220821104600F0B6FB00220B21CB
:1007E800104600F0B1FB00220F21104600F0ACFBD0
:1007F80001220321104600F039FB0122082110468E
:1008080000F034FB01220921104600F02FFB0122E1
:100818000D21022000F02AFB01220E21022000F007
:1008280025FB01220F21022000F020FB08220021D5
:10083800012000F01BFB08220121084600F016FBEE
:1008480000221146012000F07FFB0022012108460A
:1008580000F07AFB08220421012000F007FB0022A7
:100868000421012000F070FB08220521012000F07E
:10087800FDFA00220521012000F066FB082206216E
:10088800012000F0F3FA00220621012000F05CFBB1
:1008980008220721012000F0E9FA0022072101209F
:1008A80000F052FB08220721012000F0DFFA0022A5
:1008B8000721012000F048FB08220A21012000F04E
:1008C800D5FA00220A21012000F03EFB08220B2164
:1008D800012000F0CBFA00220B21012000F034FBAC
:1008E80008220C21012000F0C1FA00220C2101206D
:1008F80000F02AFB08220D21012000F0B7FA00229F
:100908000D21012000F020FB08220E21012000F01B
:10091800ADFA00220E21012000F016FB08220F215B
:10092800012000F0A3FA00220F21012000F00CFBA7
:1009380010BD08B507280FD8DFE800F0040F1A2506
:100948003F59738D01220C21002000F0FDFA00228E
:100958000821012000F0F8FA08BD00220C211046F9
:1009680000F0F2FA01220821104600F0EDFAF3E750
:1009780000220C21104600F0E7FA0022082101208D
:1009880000F0E2FAE8E700220321012000F0DCFA97
:1009980001220921104600F0D7FA00220D21022079
:1009A80000F0D2FA00220E21022000F0CDFA002237
:1009B8000F21022000F0C8FACEE70022032101200F
:1009C80000F0C2FA00220921012000F0BDFA00223D
:1009D8000D21022000F0B8FA01220E21022000F0B9
:1009E800B3FA00220F21022000F0AEFAB4E7012288
:1009F8000321104600F0A8FA00220921012000F086
:100A0800A3FA00220D21022000F09EFA00220E21F6
:100A1800022000F099FA00220F21022000F094FA37
:100A28009AE700220321012000F08EFA0022092112
:100A3800012000F089FA01220D21022000F084FA39
:100A480000220E21022000F07FFA00220F2102204E
:100A580000F07AFA80E700220321012000F074FAFE
:100A680000220921012000F06FFA00220D21022046
:100A780000F06AFA00220E21022000F065FA012235
:100A88000F21022000F060FA66E7000008B5002197
:100A9800012000F093FAF8B10821002000F08EFA46
:100AA800012834D00121084600F088FA012836D000
:100AB8000021084600F082FA012838D00F210020D2
:100AC80000F07CFA012829D11D4800F0ABFB4FF457
:100AD8007A7000F039FB21E0052100F06FFA002858
:100AE800DAD1184B1B78012BD6D1174B1B78002B6A
:100AF800D2D1164B1B78022BCED1124B00221A7082
:100B0800124B01221A70124800F08CFBC4E71148FE
:100B180000F088FB4FF47A7000F016FB08BD0E4811
:100B280000F080FB4FF47A7000F00EFBF6E70B48FC
:100B380000F078FB4FF47A7000F006FBEEE700BF98
:100B4800102100081B010020170100201A010020B5
:100B5800E4200008EC200008F82000080421000820
:100B680038B500220321104600F0EEF9052000F008
:100B7800EBFA01220321002000F0E6F900242546C3
:100B880014E001220221002000F0DEF904210020F7
:100B980000F014FAC4F1070398400543EDB20022AF
:100BA8000221104600F0D0F90134E4B2072CE8D94C
:100BB800284638BD38B5FFF7D3FF054601240AE0BB
:100BC8000720FFF7B6FE434B07221A70424B01225B
:100BD8001A700134E4B2052C3FD845FA04F313F037
:100BE800010FF6D0631E042BF3D801A252F823F0AC
:100BF800C90B00080D0C0008210C0008350C000872
:100C08004F0C00080620FFF794FE324B06221A709C
:100C1800314B02221A70DCE70520FFF78AFE2D4BC4
:100C280005221A702C4B01221A70D2E70420FFF714
:100C380080FE284B04221A70284B00221A70264B7B
:100C480002221A70C5E70320FFF773FE214B032227
:100C58001A70214B01221A70BBE7052401E0013408
:100C6800E4B2072C11D82146002000F0A7F901288A
:100C7800F5D1052CF3D11A4800F0D4FA194B01220A
:100C88001A70194B02221A70E9E70021012000F0BE
:100C980095F930B10021012000F090F901280ED01B
:100CA80038BD052100F08AF90028F3D101240E4B44
:100CB8001C700E4800F0B6FA0A4B1C70EAE70A4BA3
:100CC80002221A70074B01221A70094800F0AAFA8A
:100CD800E6E700BF6501002014010020150100208F
:100CE800CC2000081B0100201A010020D420000895
:100CF800DC20000808B5024B1B68984708BD00BFF8
:100D08004001002008B5024B1B68984708BD00BF8A
:100D18003401002008B5024B1B68984708BD00BF86
:100D28003C01002008B5024B1B68984708BD00BF6E
:100D38003001002008B5024B1B68984708BD00BF6A
:100D48003801002008B5024B1B68984708BD00BF52
:100D58004401002008B5024B1B68984708BD00BF36
:100D680048010020F8B505460C4616460021022029
:100D780000F088F9A308274A023352F823104FEAF3
:100D8800840C0F2707FA0CF721EA070142F8231011
:100D980052F8230005FA0CF5284342F82300012EE7
:100DA8001AD096B1022E1ED01B490B680122A24010
:100DB80013430B60042C20D9631FDBB2042B21D909
:100DC8000A3CE4B2052C21D9F8BD13498B680122ED
:100DD800A24013438B60E7E70F49CB680122A2408A
:100DE8001343CB60E0E70C4A91680123A340194301
:100DF8009160D1680B43D360D6E7A01DC0B200F064
:100E0800FDF8E1E7172000F0F9F8DDE7282000F009
:100E1800F5F8D9E7000001400004014004490B68D7
:100E2800012202FA00F023EA00030B60704700BFBA
:100E38000004014003494B69012202FA00F0034310
:100E48004B61704700040140014B1860704700BFB8
:100E580040010020014B1860704700BF440100208A
:100E6800014B1860704700BF4801002010B40729E3
:100E780030D8012812D018B102281DD010BC7047F4
:100E88002E4B186889000F248C4020EA0400186053
:100E9800186802FA01F101431960EFE7284B186856
:100EA80089000F248C4020EA04001860186802FAB0
:100EB80001F101431960E1E7224B186889000F240A
:100EC8008C4020EA04001860186802FA01F1014316
:100ED8001960D3E70F29D1D80839C9B201281ED023
:100EE80078B10228CAD1174844688B000F2199406D
:100EF80024EA01014160446802FA03F12143416098
:100F0800BCE70E4B58688C000F21A14020EA010174
:100F18005960586802FA04F101435960AEE7084B7A
:100F28005C6888000F21814024EA010159605C68EF
:100F380002FA00F121435960A0E700BF0008014010
:100F4800000C014000100140CAB1012A2ED101282D
:100F580009D010B102280CD07047012303FA01F11F
:100F6800134B19617047012303FA01F1114B196101
:100F78007047012303FA01F10F4B196170470128EB
:100F880009D010B102280CD07047012303FA01F1EF
:100F9800074B59617047012303FA01F1054B596169
:100FA8007047012303FA01F1034B5961704700BFF1
:100FB80000080140000C01400010014001280AD03F
:100FC80018B102280DD000207047094B9868C84016
:100FD80000F001007047074B9868C84000F0010016
:100FE8007047054B9868C84000F00100704700BF83
:100FF80000080140000C0140001001401F2809D9D9
:101008002038C0B21B2804D8012303FA00F0044B8F
:1010180018607047012303FA00F0024B186070470C
:1010280004E100E000E100E0154B1A6842F40022F8
:101038001A605A6842F480325A605A6842F4802230
:101048005A605A6842F400225A605A6842F4801280
:101058005A605A6822F400125A605A6822F0010253
:101068005A605A6842F002025A601A6842F0807266
:101078001A60034B1B6813F0007FFAD0704700BF5B
:10108800001002401F291CD801280BD010B10228DB
:1010980010D070470B484369012202FA01F1194345
:1010A800416170470748C369012202FA01F11943F7
:1010B800C161704703488369012202FA01F11943AB
:1010C800816170470010024000230A4A136004320D
:1010D8006FF07F4111600432136010B1012804D011
:1010E8007047044B05221A607047024B07221A60AA
:1010F800704700BF10E000E001FB00F14FF47A7385
:1011080003FB01F1B1F1807F07D3074B6FF07F42FA
:101118001A60043300221A607047034B19600433C5
:1011280000221A60704700BF14E000E008B50121F2
:101138004820FFF7E1FF034B1B6813F4803FFAD008
:1011480008BD00BF10E000E038B50546002402E005
:10115800FFF7ECFF0134AC42FAD338BD034B1B68F0
:101168001BB1024A1368013B136070474C01002011
:1011780008B5FFF7F3FF08BD10B50E210220FFF7F1
:1011880081FF02210846FFF77DFF00210220FFF7BB
:1011980079FF0024174B1C600C331A6822F4805224
:1011A8001A60154A116821F480511160116821F400
:1011B800005111601A6842F008021A601A6842F079
:1011C80004021A600D4A41F6415111601A6842F44E
:1011D80000521A60092211462046FFF747FE0422F2
:1011E8000A212046FFF742FE01220A212046FFF786
:1011F800ABFE10BD003801401438014008380140EA
:10120800064A136823F040031360054B1860034B2C
:101218001B6813F0400FFAD0704700BF0038014038
:101228000438014038B50546002402E0FFF7E8FF1E
:101238000134285D0028F9D138BD0000044B1B6833
:1012480013F0200FFAD0034B1868C0B2704700BFE4
:10125800003801400438014010B5002405E0074B70
:101268001855FFF7CDFF0134E4B2FFF7E7FF0D286B
:10127800F5D102480023035510BD00BF50010020DE
:1012880008B50B210020FFF799FE012807D010B9F7
:10129800114B1B789BB10B20FFF7CCFD08BD0E4B03
:1012A8001B78012BF3D10D48FFF7BCFF0A20FFF78D
:1012B8004BFF00230A4A1370074A1370EBE70948EB
:1012C800FFF7B0FF0A20FFF73FFF0123044A13701E
:1012D800014A1370DFE700BF160100202021000833
:1012E800170100202C21000808B5154B1B788BB975
:1012F800144B1B78012B03D00020FFF79BFD08BD82
:10130800104B02221A70104B01221A700F48FFF777
:1013180089FFF1E7012BEFD10A4B1B78022B0BD089
:10132800084B1B78012BE7D1064A1370064A137045
:101338000648FFF777FFDFE7024B01221A70EFE755
:10134800170100201A0100201B0100204C21000871
:1013580010B50620FFF762FD0720FFF75FFD0621A5
:101368000020FFF72BFE044607210020FFF726FE8A
:10137800012C12D0012822D00620FFF75BFD0720A0
:10138800FFF758FD002206211046FFF7EBFC00226C
:1013980007211046FFF7E6FC10BD144B1B78012B04
:1013A800E8D1124B02221A70114B1C702046FFF72D
:1013B800C0FA104B1C701048FFF734FFDCE70C4BE9
:1013C8001B78002BD8D1094B1B78012BD4D10224D0
:1013D800064B1C70064B01221A702046FFF7A9FA2B
:1013E800044B1C700548FFF71DFFC5E718010020D6
:1013F8001901002064010020342100084021000860
:1014080000B583B0FFF710FE02210846FFF73AFE49
:1014180003210220FFF736FE04210220FFF732FEE7
:1014280000210220FFF72EFEA54A536843F00073FF
:1014380053600020FFF748FEFFF79EFEFFF70CFF02
:10144800A04B1860FFF77EF99F4B93E803000090CC
:10145800ADF80410002206211046FFF783FC002295
:1014680007211046FFF77EFC002211460120FFF7F6
:1014780079FC02220B210020FFF774FC9348FFF748
:10148800E3FC9348FFF7E6FC9248FFF7E9FC0023EA
:1014980005E091490A7801320A700133DBB2894AC2
:1014A8001268D25C4AB102A9194411F8081C914289
:1014B800EFD0894A00211170EFE7874B1B78052B85
:1014C80005D08648FFF7AEFE03B05DF804FBFFF7D2
:1014D80071FB80E0012B13D1814A1370814A13708C
:1014E800814A13708148FFF79DFE09E0052100201D
:1014F800FFF764FD20B97B4B1B78012B00F08E8031
:10150800FFF72EFB7A4B187010F0020F0FD010F077
:10151800040F0CD110F0080F09D110F0100F06D1EC
:1015280010F0200F03D1734B1B78012B7AD0704B2E
:101538001B7813F0020F0FD113F0040F0CD013F027
:10154800080F09D113F0100F06D113F0200F03D1A3
:10155800684B1B78022B74D0654B1B7813F0020F75
:101568000FD113F0040F0CD113F0080F09D013F0AA
:10157800100F06D113F0200F03D15E4B1B78012BFF
:1015880070D05B4B1B7813F0020F0FD113F0040FD0
:101598000CD113F0080F09D113F0100F06D013F077
:1015A800200F03D1534B1B78022B6AD0504B1B786A
:1015B80013F0020F0FD113F0040F0CD113F0080F22
:1015C80009D113F0100F06D113F0200F03D0494BA7
:1015D8001B78012B64D0FFF759FA05210020FFF78B
:1015E800EDFC012882D13F4B1B78002B7FF47EAFA6
:1015F800414B1B78002B7FF46DAF394B1B78012BC7
:101608007FF47EAF364B02221A700123354A1370DD
:10161800354A13703548FFF705FE71E7314B002254
:101628001A706DE7334B02221A703448FFF7FAFD3F
:101638000720334B1870FFF77CF9324B00221A70E1
:1016480075E72C4B01221A702F48FFF7EBFD062097
:101658002B4B1870FFF76DF900232A4A13702B4A99
:10166800137079E7234B02221A702948FFF7DAFD35
:101678000520234B1870FFF75CF9224B00221A70E3
:101688007FE71C4B01221A702248FFF7CBFD1D4B48
:1016980000221A7004201A4B1870FFF74AF985E7E0
:1016A800144B02221A70174B01221A701A48FFF7BE
:1016B800B9FD0320124B1870FFF73BF98BE700BF09
:1016C800000001401C010020A4210008F1120008BC
:1016D80059130008891200082001002090210008F1
:1016E8001A010020220100201B010020CC20000844
:1016F80021010020140100201701002054210008B6
:101708006501002015010020642100082301002044
:101718006C2100087821000880210008014B186816
:10172800704700BF2000002030B5141E05469BB04E
:10173800184605DA8B234FF0FF302B601BB030BD05
:101748004FF40273ADF80C300CBF234604F1FF339D
:10175800029305934FF6FF7300910491ADF80E3094
:1017680002461E9B6946284600F072F8431CBCBF1F
:101778008B232B60002CE1D00022009B1A70DDE740
:1017880007B5009313460A46014603480068FFF769
:10179800CBFF03B05DF804FB200000202DE9F047E3
:1017A8008E6882469E420C469046994637D88A896A
:1017B80012F4906F31D00223256809696F1A6569A0
:1017C80005EB450595FBF3F509F101033B449D4203
:1017D80038BF1D46530530D5294600F035FB06466F
:1017E80050B90C234FF0FF30CAF80030A38943F0FA
:1017F8004003A381BDE8F0873A46216900F0B4FAB6
:10180800A38923F4906343F08003A38126613E44B7
:1018180026604E466561ED1BA5604E4500D94E46D3
:1018280032464146206800F0AAFAA36800209B1BB4
:10183800A36023681E442660DCE72A4600F05EFBAE
:1018480006460028E2D12169504600F0B1FAC8E7FF
:101858002DE9F04F9DB003938B8980461D060C46F9
:1018680016460FD50B696BB9402100F0EDFA2060E0
:10187800206128B90C23C8F800304FF0FF30C7E0CA
:10188800402363610023099320238DF829303023F6
:101898004FF0010B8DF82A3037463D4615F8013BCD
:1018A8000BB1252B3ED1B7EB060A0BD05346324677
:1018B80021464046FFF772FF013000F0A480099BE3
:1018C800534409933B78002B00F09D8000234FF090
:1018D800FF32CDE90523049307938DF853301A930B
:1018E8002F46052217F8011B4F4800F02FFA049BDA
:1018F800D0B9D90644BF20228DF853201A0744BF17
:101908002B228DF853202A782A2A15D02F4600201A
:101918000A25079A394611F8013B303B092B4DD966
:10192800B8B10FE02F46B8E73F4A3D46801A0BFA98
:1019380000F018430490D3E7039A111D126803912D
:10194800002A01DB079204E0524243F002030792A7
:1019580004933B782E2B0CD17B782A2B33D1039B15
:1019680002371A1D1B680392002BB8BF4FF0FF33D4
:1019780005932E4D03223978284600F0E7F938B14F
:101988004023401B03FA00F0049B013703430493F0
:101998003978062226487E1C8DF8281000F0D6F9E2
:1019A800002838D0234B13BB039B073323F00703CE
:1019B80008330393099B4B4409936DE705FB0232F7
:1019C80001200F46A6E700230A251946013705938B
:1019D800384610F8012B303A092A03D9002BC8D011
:1019E8000591C6E705FB012101230746F0E703AB94
:1019F80000932246104B04A94046AFF30080B0F193
:101A0800FF3F8146D6D1A3895B063FF536AF0998DB
:101A18001DB0BDE8F08F03AB00932246064B04A926
:101A2800404600F081F8EAE7AC210008B22100083E
:101A3800B621000800000000A51700082DE9F047AE
:101A480091461F468A680B6906469342B8BF1346FB
:101A5800C9F8003091F843200C46DDF8208012B117
:101A68000133C9F800302368990642BFD9F800301D
:101A78000233C9F80030256815F0060507D104F1CE
:101A8800190AE368D9F800209B1AAB4229DC94F8BC
:101A980043302268003318BF012392062ED404F184
:101AA800430239463046C047013021D02368E568F3
:101AB80003F00603042B18BF0025D9F800204FF0C7
:101AC800000908BFAD1AA368226908BF25EAE575B1
:101AD8009342C4BF9B1AED181A344D451AD1002001
:101AE80008E00123524639463046C047013003D149
:101AF8004FF0FF30BDE8F0870135C2E73020E1182C
:101B080081F843005A1C94F845102244023382F8A5
:101B18004310C4E70123224639463046C047013006
:101B2800E6D009F10109D8E72DE9F04301F1430CAA
:101B38000C46097E85B06E291746064698460C9ACB
:101B480000F0B38022D8632936D00AD8002900F0E3
:101B5800B980582900F0838004F1420584F84210C6
:101B680032E0642901D06929F6D120681368050696
:101B780003F104012AD51B681160002B03DA2D221A
:101B88005B4284F843206F480A2239E0732900F049
:101B98009D8008D86F2920D07029DDD1236843F0B3
:101BA8002003236003E0752917D07829D4D178233E
:101BB800654884F8453055E0136804F14205191D5D
:101BC8001B68116084F8423001238CE01B6810F018
:101BD800400F116018BF1BB2CFE713682568181DA6
:101BE8001060280601D51B6802E06806FBD51B8833
:101BF8006F2914BF0A2208225248002184F8431092
:101C08006568002DA560C0F29580216821F0040167
:101C18002160002B3DD1002D40F08E806546082ABA
:101C28000BD12368DB0708D5236962689A42DEBFB7
:101C3800302305F8013C05F1FF35ACEB05032361C2
:101C4800CDF800803B4603AA21463046FFF7F6FE52
:101C580001304DD14FF0FF3005B0BDE8F083394871
:101C680084F84510136821681D1D1B6815600A0655
:101C78000BD5CA0744BF41F0200121601BB9226877
:101C880022F0200222601022B7E74D0648BF9BB21F
:101C9800EFE76546B3FBF2F102FB1133C35C05F8CD
:101CA800013D0B460029F5D1B9E713682568181DD1
:101CB8006169106028061B6801D5196002E06A0690
:101CC800FBD51980002365462361B9E71368191D00
:101CD80011601D6862680021284600F037F808B1D5
:101CE800401B606063682361002384F84330A7E7E2
:101CF80023692A4639463046C0470130AAD02368AE
:101D08009B0713D4E068039B9842B8BF1846A3E723
:101D180001234A4639463046C04701309AD001353A
:101D2800E368039A9B1AAB42F2DCEBE7002504F167
:101D38001909F5E7002BACD1037804F1420584F8C2
:101D480042306CE7BD210008CE21000810B5C9B2A9
:101D580002449042034601D1002303E01C7801307D
:101D68008C42F6D1184610BD10B5431E0A44914264
:101D780000D110BD11F8014B03F8014FF7E7884275
:101D880010B501EB020307D8421E99420AD011F898
:101D9800014B02F8014FF8E78342F5D98118D21AAE
:101DA800D34200D110BD13F8014D01F8014DF7E7FA
:101DB80038B50546002943D051F8043C0C1F002BC8
:101DC800B8BFE41800F0D0F81E4A1368104633B9BB
:101DD800636014602846BDE8384000F0C6B8A342E6
:101DE8000BD921686218934201BF1A685B685218C0
:101DF800226063600460EDE713465A680AB1A242A4
:101E0800FAD919685818A0420BD12068014458180B
:101E180082421960DED110685268014419605A6024
:101E2800D8E702D90C232B60D4E7206821188A420E
:101E380001BF116852680918216062605C60C9E7D7
:101E480038BD00BF2401002070B5CD1C25F0030566
:101E580008350C2D38BF0C25002D064601DBA9429C
:101E680003D90C233360002070BD00F07DF8214AAF
:101E78001468214691B9204C23681BB9304600F0FC
:101E880063F820602946304600F05EF8431C24D1F0
:101E98000C233046336000F068F8E4E70B685B1BFE
:101EA80018D40B2B0FD90B60CC18CD50304600F04E
:101EB8005CF804F10B00231D20F00700C31AD3D0EF
:101EC8005A42E250D0E74B688C4216BF63601360F9
:101ED8000C46EBE70C464968CCE7C41C24F0030425
:101EE800A04205D0211A304600F02EF80130CFD09C
:101EF8002560DBE72401002028010020F8B507460B
:101F080014460E4621B9BDE8F8401146FFF79CBFBC
:101F180022B9FFF74DFF25462846F8BD00F026F800
:101F2800A0420FD221463846FFF78EFF054600280B
:101F3800F2D031462246FFF717FF31463846FFF701
:101F480037FFE9E73546E7E738B50023054C05468E
:101F580008462360FEF70EFA431C02D1236803B13A
:101F68002B6038BD2C0100207047704751F8043CA5
:101F7800181F002BBCBF0B58C018704753746163FF
:101F88006B206672616D653A0A00000020523020AD
:101F98003D2020253038580A00000000205231200A
:101FA8003D2020253038580A0000000020523220F9
:101FB8003D2020253038580A0000000020523320E8
:101FC8003D2020253038580A0000000020523132C8
:101FD800203D20253038580A00000000204C5220AF
:101FE8003D2020253038580A0000000020504320AA
:101FF8003D2020253038580A000000002050535258
:10200800203D20253038580A000000004653522F42
:102018004641523A0A0000002043465352203D20D0
:1020280020253038580A00002048465352203D20C9
:1020380020253038580A00002044465352203D20BD
:1020480020253038580A00002041465352203D20B0
:1020580020253038580A0000204D4D464152203D79
:1020680020253038580A00002042464152203D20A1
:1020780020253038580A00004D6973630A000000B3
:10208800204C522F4558435F52455455524E3D20DF
:10209800253038580A0000005B4861726446617553
:1020A8006C745D0A000000005B4275734661756CD4
:1020B800745D0A005B55736167654661756C745D94
:1020C8000A0000002A57464F562300002A4D464F63
:1020D800562300002A4E464F57230A002A4D464FE2
:1020E800572300002A436F6E74726173742B2300A8
:1020F8002A4272696768742B230000002A457870A9
:102108006F737572652B23002A46756C6C205363B8
:102118007265656E230000002A546865726D616CF3
:10212800230000002A446179230000002A4C6173CF
:1021380074204563686F23002A4563686F204F66E3
:10214800662300002A4E464F562300002A48696736
:10215800685F4578702E230A000000002A486561F0
:1021680074230A002A5361626F74230A0000000076
:102178002A484550230000002A436F617869616C42
:102188002047756E2300000057726F6E6720496EF6
:102198007075742E2E5265736574000053746172E5
:1021A80074000000232D302B2000686C4C006566FD
:1021B8006745464700303132333435363738394190
:1021C80042434445460030313233343536373839A6
:0721D80061626364656600AB
:1021E000785634129000002000000000000000002B
:1021F00000000000010203040607080900A24A04C7
:10220000240000200000000000000000000000008A
:1022100000000000000000000000000000000000BE
:1022200000000000000000000000000000000000AE
:10223000000000000000000000000000000000009E
:10224000000000000000000000000000000000008E
:10225000000000000000000000000000000000007E
:082260000000000032547698E2
:040000050800010DE1
:00000001FF
