:020000040800F2
:100000000050002021020008270200082B020008EF
:100010009D020008A1020008E9020008000000009B
:100020000000000000000000000000003103000894
:1000300035030008000000003903000881130008A0
:100040004D0300084D0300084D0300084D03000850
:100050004D0300084D0300081D0F00082D0F000878
:100060003D0F00084D0F00085D0F00084D0300080C
:100070004D0300084D0300084D0300084D03000820
:100080004D0300084D0300084D0300084D03000810
:100090004D0300084D0300084D0300086D0F0008D4
:1000A0004D0300084D0300084D0300084D030008F0
:1000B000FD1300084D0300084D0300084D03000820
:1000C0004D0300084D0300084D0300084D030008D0
:1000D0004D0300084D0300084D0300084D030008C0
:1000E0007D0F00084D0300084D03000800000000CC
:1000F0000000000000000000000000000000000000
:1001000000000000000000005FF808F100B583B0B7
:1001100000F0AAF9304B314A1360314A1360314B79
:10012000314A32498B4204D21168196004330432D7
:10013000F7E72A4B1A682E4B9A4200D0FEE7284B6D
:100140001A682C4B9A42F9D1234B2B4A13602B4A45
:1001500013602B4B02E000221A600433294A9342B9
:10016000F9D3254B1B6813B9244B1B6803B1FEE779
:1001700000F086F9694601A800F022F9224C234BD1
:10018000E41AA4100025AC4214DC214C214BE41AE3
:10019000A4100025AC4213DC0099019801F0D2FBB9
:1001A00005461D4C1D4BE41AA410002C0EDC2846FD
:1001B00000F0E2F8154B53F8253098470135E2E797
:1001C000144B53F8253098470135E3E7013C134BB6
:1001D00053F824309847E8E7BABADECA0000002096
:1001E0008800002000000020182900088C00002052
:1001F00078563412325476988C000020A0010020EA
:100200008C000020A4010020780300087803000877
:1002100078030008780300087803000878030008D2
:1002200008B5FFF773FF00BEFEE71EF0040F0CBF1A
:10023000EFF30880EFF309807146414A10472DE93A
:10024000F04182B004468846124B5E6B9F6B9D6AFC
:100250001B6B13F0020F03D00E4BDB6A002B0CDB81
:100260000D4800F0B5F8CDF800803B4632462946EF
:10027000204600F009F900BEFEE74BF6AB6100F046
:100280007DF90028ECD0034B4FF00042DA6202B057
:10029000BDE8F08100ED00E0D027000800BEFEE7D9
:1002A0001EF0040F0CBFEFF30880EFF309807146D6
:1002B000244A10472DE9F04182B004468846084B95
:1002C0005E6B9F6B9D6A074800F082F8CDF8008056
:1002D0003B4632462946204600F0D6F800BEFEE7EF
:1002E00000ED00E0E02700081EF0040F0CBFEFF364
:1002F0000880EFF309807146134A10472DE9F04159
:1003000082B004468846084B5E6B9F6B9D6A074827
:1003100000F05EF8CDF800803B4632462946204684
:1003200000F0B2F800BEFEE700ED00E0EC270008A8
:1003300000BEFEE700BEFEE700BEFEE7704700001D
:100340003F020008B5020008FD02000800BEFEE7FB
:1003500018290008000000208C000020182900083F
:1003600000000000000000008C000020A40100201C
:08037000000000000000000085
:10037800FEE7000008B503460C4A12685AB10B4A5A
:100388001068033323F003030344094A934206D851
:10039800064A136008BD054A06491160EFE701F0F7
:1003A80055FD0C2303604FF0FF30F3E79000002069
:1003B800004C0020A401002001230360014B0B60C6
:1003C800704700BF040000200FB400B583B004AB31
:1003D80053F8042B01938021064801F069FD002899
:1003E80003DD0146034800F037F803B05DF804EB7D
:1003F80004B07047980000202DE9F04385B004460A
:100408000F4643560BB10E461EE0042528462146EA
:10041800ABBE0446384605B0BDE8F08314F9011BAD
:1004280004AA1A4402F8101C0133AB42F6D304AAFA
:100438001344002203F8102C4FF00408E946404604
:100448004946ABBE8046761B002EE3D03546102EBB
:1004580028BF10250023E8E708B5FFF7CDFF08BD42
:1004680008B500F0FDF8024A024B9A6008BD00BFCB
:100478000000000800ED00E008B500F019F908BD1B
:10048800F8B504460D4617461E462748FFF79CFF59
:1004980021682648FFF798FF61682548FFF794FF11
:1004A800A1682448FFF790FFE1682348FFF78CFF15
:1004B80021692248FFF788FF61692148FFF784FF17
:1004C800A1692048FFF780FFE1691F48FFF77CFF1B
:1004D8001E48FFF779FF29461D48FFF775FF1D4C99
:1004E800E16A1D48FFF770FF216B1C48FFF76CFF9E
:1004F800E16B1B48FFF768FF15F0800F0AD115F470
:10050800004F0CD11748FFF75FFF06991648FFF711
:100518005BFFF8BD39461548FFF756FFEFE7314650
:100528001348FFF751FFEDE7B4260008C42600087A
:10053800D4260008E4260008F4260008042700084A
:100548001427000824270008342700084427000837
:100558005027000800ED00E0602700087027000819
:1005680080270008B0270008B8270008902700084F
:10057800A027000883691A888A4201D000207047A2
:100588000268033A012A03D80233836101207047C5
:100598000020704782B00023019300932C4A13680F
:1005A80043F4803313602A4B1B6803F40033009331
:1005B800019B01330193009B1BB9019BB3F5A06F0D
:1005C800F1D1234B1B6813F4003F06D0012300939D
:1005D800009B012B04D002B0704700230093F7E77B
:1005E8001C4B1A6842F010021A601A6822F00302C3
:1005F8001A601A6842F002021A60A3F580535A681A
:100608005A605A685A605A6842F480625A605A6856
:1006180022F47C125A605A6842F4E8125A601A6846
:1006280042F080721A600A4B1B6813F0007FFAD000
:10063800074B5A6822F003025A605A6842F00202D5
:100648005A60034B5B6803F00C03082BF9D1C2E72F
:10065800001002400020024008B5FFF79BFF08BDCC
:1006680008B5104B1A6842F001021A6059680E4A20
:100678000A405A601A6822F0847222F480321A60A2
:100688001A6822F480221A605A6822F4FE025A601C
:100698004FF41F029A60FFF7DFFF044B4FF0006230
:1006A8009A6008BD001002400000FFF800ED00E06D
:1006B8001F4B5B6803F00C03042B15D0082B17D0D5
:1006C8001BB11C4B1C4A1A6002E01A4B1A4A1A60EA
:1006D800174B5B68C3F30313184AD35CDAB21549A6
:1006E8000B68D3400B607047124B134A1A60EFE750
:1006F8000F4A53685268C3F38343023312F4803FAE
:100708000AD00B4A526812F4003F0BD00C4A02FB85
:1007180003F3084A1360DBE7094A02FB03F3054ABF
:100728001360D5E7044A02FB03F3024A1360CFE7DC
:10073800001002401C00002000127A000C0000206B
:1007480000093D0008B508220421002000F092FCB1
:1007580008220621002000F08DFC08220721002035
:1007680000F088FC00220621104600F0F1FC00226F
:100778000721104600F0ECFC01220221002000F0C5
:1007880079FC01220321002000F074FC01220C21D5
:10079800002000F06FFC01220021084600F06AFCEE
:1007A80008220521002000F065FC082211460020DF
:1007B80000F060FC08220B21002000F05BFC0822FE
:1007C8000F21002000F056FC00221146104600F0D0
:1007D800BFFC00220521104600F0BAFC00220821C7
:1007E800104600F0B5FC00220B21104600F0B0FCCA
:1007F80000220F21104600F0ABFC01220321104615
:1008080000F038FC01220921104600F033FC0822D0
:100818000D21022000F02EFC01220D21022000F003
:1008280097FC01220E21022000F024FC01220F2156
:10083800022000F01FFC08220021012000F01AFC11
:1008480008220121084600F015FC08221146012063
:1008580000F010FC00221146012000F079FC002273
:100868000121084600F074FC00220821012000F054
:100878006FFC01220521104600F0FCFB0822042130
:10088800012000F0F7FB00220421012000F060FCA9
:1008980008220621012000F0EDFB0022062101209C
:1008A80000F056FC08220721012000F0E3FB00229B
:1008B8000721012000F04CFC01220A21104600F01B
:1008C800D9FB08220B21012000F0D4FB00220B21C8
:1008D800012000F03DFC08220C21012000F0CAFB99
:1008E80000220C21012000F033FC08220D210120F8
:1008F80000F0C0FB00220D21012000F029FC082295
:100908000E21012000F0B6FB00220E21012000F08C
:100918001FFC01220F21104600F0ACFB01221146FA
:10092800002000F0A7FB08BD08B50A2811D8DFE8A9
:1009380000F006111C27415B758FA9B9C900012277
:100948000021084600F004FC00220C21104600F0AB
:10095800FFFB08BD01220C21002000F0F9FB00225A
:100968001146104600F0F4FBF3E700220C21104674
:1009780000F0EEFB00221146104600F0E9FBE8E724
:1009880000220321012000F0E3FB01220921104687
:1009980000F0DEFB00220521012000F0D9FB002237
:1009A8000E21022000F0D4FB00220F21022000F0CB
:1009B800CFFBCEE700220321012000F0C9FB002273
:1009C8000921012000F0C4FB01220521104600F096
:1009D800BFFB00220E21022000F0BAFB00220F21EB
:1009E800022000F0B5FBB4E700220321012000F04B
:1009F800AFFB00220921012000F0AAFB00220521FB
:100A0800012000F0A5FB01220E21022000F0A0FB2E
:100A180000220F21022000F09BFB9AE7002203210D
:100A2800012000F095FB00220921012000F090FB35
:100A380000220521012000F08BFB00220E2102205C
:100A480000F086FB01220F21022000F081FB80E7E5
:100A580001220321104600F07BFB0022092101201E
:100A680000F076FB00220521012000F071FB002236
:100A78000E21022000F06CFB00220F21022000F062
:100A880067FB66E700220121104600F061FB0022A7
:100A98000A21012000F05CFB01220F21104600F022
:100AA80057FB56E701221146002000F051FB0022B7
:100AB8000A21012000F04CFB00220F21012000F048
:100AC80047FB46E700220121104600F041FB0122C6
:100AD8000A21104600F03CFB00220F21012000F003
:100AE80037FB36E708B501220321104600F030FB3A
:100AF80001220921104600F02BFB01220521104696
:100B080000F026FB01220E21022000F021FB012229
:100B18000F21022000F01CFB01220021084600F0F2
:100B280017FB01220C21002000F012FB01221146C4
:100B3800002000F00DFB01220A21104600F008FBFE
:100B480001220F21104600F003FB08BD08B5002262
:100B58000321012000F0FCFA00220921012000F005
:100B6800F7FA00220521012000F0F2FA00220E21F6
:100B7800022000F0EDFA00220F21022000F0E8FA2E
:100B880001220021084600F0E3FA00220C21104659
:100B980000F0DEFA00220121104600F0D9FA002206
:100BA8000A21012000F0D4FA00220F21012000F0D0
:100BB800CFFA08BD38B500220321104600F0C8FA64
:100BC800012000F0C5FB01220321002000F0C0FA3B
:100BD80000252C4616E06400A4B20421002000F091
:100BE800F1FA80B2044301220221002000F0B0FA99
:100BF800012000F0ADFB00220221104600F0A8FA07
:100C08000135EDB2072DE6D900220221104600F089
:100C18009FFA204638BD00002DE9F843A24B002278
:100C28001A700123A14A1370A14A137006240FE019
:100C3800A04800F04BFC0220FFF776FE02239E4AF4
:100C480013709E4A13709E4B01221A700134E4B24D
:100C5800072C18D82146002000F0B4FA0128F5D155
:100C6800062CE5D0072CF1D1964800F02FFC012086
:100C7800FFF75AFE904B02221A7001238F4A137015
:100C88008F4A1370E2E70621002000F09BFA08B3B0
:100C98000F21002000F096FA01282FD00F21002004
:100CA80000F090FA98B30021012000F08BFA002898
:100CB80036D00021012000F085FA012844D0052112
:100CC800002000F07FFA01285AD0FFF773FF05468D
:100CD80000247AE0072100F075FA0028D8D17A4874
:100CE80000F0F4FB0020FFF71FFE0123724A137087
:100CF800724A00211170724A1370C9E7734800F0F4
:100D0800E5FB0023724A1370724A1370C6E77248F3
:100D180000F0DCFB01236E4A13706E4A1370C2E7C1
:100D2800052100F04FFA0028C3D101246B4B1C7039
:100D38006B4800F0CBFB0920FFF7F6FD694B1C70F0
:100D4800694B09221A70B4E7614B1B7843B1012B38
:100D5800B5D1624B02221A70624B01221A70AEE7BB
:100D68005E4B02221A705F4B01221A705F4800F036
:100D7800ADFB0820FFF7D8FD5B4B08221A709EE7F1
:100D88005B4800F0A3FB0A20FFF7CEFD554B01227C
:100D98001A70524B02221A70534B0A221A7094E7A7
:100DA8000320FFF7C1FD534F03263E70524B02222A
:100DB8001A70524B01221A70514800F087FB3E709E
:100DC8003046FFF7B1FD0134E4B2042C69D845FA86
:100DD80004F313F0010FF6D0042CF4D801A353F850
:100DE80024F000BF830E00085B0E0008330E0008D5
:100DF800010E0008A90D00080420FFF795FD3D4FDE
:100E080004263E70DFF8F4804FF0000988F800905F
:100E1800394B01221A703B4800F058FB88F80090C3
:100E28003E703046FFF780FDCDE70520FFF77CFDDB
:100E3800304F05263E70304B02221A70324800F0BF
:100E480045FB3E703046FFF76FFD2C4B00221A70B1
:100E5800B9E70620FFF768FD264F06263E70264BA9
:100E680001221A70294800F031FB3E703046FFF726
:100E78005BFD224B00221A70A5E70720FFF754FDFF
:100E88001C4F07263E701C4B02221A70204800F0A7
:100E98001DFB3E703046FFF747FD184B00221A70C5
:100EA80091E7BDE8F88300BF5C01002056010020EF
:100EB8001801002000280008600100209D01002082
:100EC80061010020FC270008042800080828000801
:100ED8005F0100205E0100200C280008620100204C
:100EE80010280008630100209C0100201428000835
:100EF800182800089E0100205A0100205D010020EA
:100F08001C280008242800082C2800083428000879
:100F18003C28000808B5024B1B68984708BD00BF6D
:100F28008C01002008B5024B1B68984708BD00BF1C
:100F38008001002008B5024B1B68984708BD00BF18
:100F48008801002008B5024B1B68984708BD00BF00
:100F58007C01002008B5024B1B68984708BD00BFFC
:100F68008401002008B5024B1B68984708BD00BFE4
:100F78009001002008B5024B1B68984708BD00BFC8
:100F880094010020F8B505460C46164600210220BB
:100F980000F07CF9A308274A023352F823104FEADD
:100FA800840C0F2707FA0CF721EA070142F82310EF
:100FB80052F8230005FA0CF5284342F82300012EC5
:100FC8001AD096B1022E1ED01B490B680122A240EE
:100FD80013430B60042C20D9631FDBB2042B21D9E7
:100FE8000A3CE4B2052C21D9F8BD13498B680122CB
:100FF800A24013438B60E7E70F49CB680122A24068
:101008001343CB60E0E70C4A91680123A3401943DE
:101018009160D1680B43D360D6E7A01DC0B200F041
:10102800F1F8E1E7172000F0EDF8DDE7282000F0FF
:10103800E9F8D9E7000001400004014003494B6981
:10104800012202FA00F003434B617047000401409B
:10105800014B1860704700BF8C010020014B1860DD
:10106800704700BF90010020014B1860704700BF17
:101078009401002010B4072930D8012812D018B1E3
:1010880002281DD010BC70472E4B186889000F2409
:101098008C4020EA04001860186802FA01F1014344
:1010A8001960EFE7284B186889000F248C4020EA64
:1010B80004001860186802FA01F101431960E1E7B9
:1010C800224B186889000F248C4020EA040018601D
:1010D800186802FA01F101431960D3E70F29D1D842
:1010E8000839C9B201281ED078B10228CAD11748D8
:1010F80044688B000F21994024EA0101416044684B
:1011080002FA03F121434160BCE70E4B58688C009A
:101118000F21A14020EA01015960586802FA04F140
:1011280001435960AEE7084B5C6888000F21814095
:1011380024EA010159605C6802FA00F12143596010
:10114800A0E700BF00080140000C0140001001406A
:10115800CAB1012A2ED1012809D010B102280CD019
:101168007047012303FA01F1134B196170470123FA
:1011780003FA01F1114B19617047012303FA01F1D8
:101188000F4B19617047012809D010B102280CD003
:101198007047012303FA01F1074B59617047012396
:1011A80003FA01F1054B59617047012303FA01F174
:1011B800034B5961704700BF00080140000C014013
:1011C8000010014001280AD018B102280DD00020D3
:1011D8007047094B9868C84000F001007047074BFA
:1011E8009868C84000F001007047054B9868C840EF
:1011F80000F00100704700BF00080140000C0140EA
:10120800001001401F2809D92038C0B21B2804D873
:10121800012303FA00F0044B18607047012303FA16
:1012280000F0024B1860704704E100E000E100E0C4
:10123800154B1A6842F400221A605A6842F4803248
:101248005A605A6842F480225A605A6842F400226E
:101258005A605A6842F480125A605A6822F400129E
:101268005A605A6822F001025A605A6842F0020233
:101278005A601A6842F080721A60034B1B6813F0B8
:10128800007FFAD0704700BF001002401F291CD809
:1012980001280BD010B1022810D070470B484369C1
:1012A800012202FA01F11943416170470748C369F5
:1012B800012202FA01F11943C161704703488369A9
:1012C800012202FA01F119438161704700100240BE
:1012D80000230A4A136004326FF07F411160043220
:1012E800136010B1012804D07047044B05221A601E
:1012F8007047024B07221A60704700BF10E000E0F9
:1013080001FB00F14FF47A7303FB01F1B1F1807F27
:1013180007D3074B6FF07F421A60043300221A602C
:101328007047034B1960043300221A60704700BFEE
:1013380014E000E008B501214820FFF7E1FF034B66
:101348001B6813F4803FFAD008BD00BF10E000E02E
:1013580038B50546002402E0FFF7ECFF0134AC4243
:10136800FAD338BD034B1B681BB1024A1368013B13
:10137800136070479801002008B5FFF7F3FF08BD18
:101388004FF0804300229A841A8842F001021A80A2
:10139800704700000D4AD36943F00103D3614FF051
:1013A800804341F61F421A8509229A8500229A84B1
:1013B8001A8842F001021A809A8942F001029A8141
:1013C800034B4FF080521A60704700BF0010024074
:1013D80000E100E0014B1868704700BF1C010020C5
:1013E80000234FF080429384014A1360704700BF86
:1013F8001C0100204FF080431B8A13F0010F0BD013
:10140800064A1368013313604FF08042138A9BB277
:1014180023F001039BB21382704700BF1C01002018
:1014280010B50E210220FFF731FF02210846FFF711
:101438002DFF00210220FFF729FF0024174B1C6015
:101448000C331A6822F480521A60154A116821F484
:1014580080511160116821F4005111601A6842F03E
:1014680008021A601A6842F004021A600D4A41F62E
:10147800415111601A6842F400521A60092211465B
:101488002046FFF7F7FD04220A212046FFF7F2FD68
:1014980001220A212046FFF75BFE10BD00380140FB
:1014A8001438014008380140064A136823F0400305
:1014B8001360054B1860034B1B6813F0400FFAD0FC
:1014C800704700BF003801400438014038B5054670
:1014D800002402E0FFF7E8FF0134285D0028F9D175
:1014E80038BD0000054B1B6813F0200F04D0044BD7
:1014F8001B680370012070470020704700380140C6
:101508000438014000B583B00DF10700FFF7EAFF8A
:10151800C8B19DF807300A2B0CD00D2B0AD00C4A05
:101528001278302A11D8501C0949087009498B547F
:10153800002005E0064B19780648002242541A702C
:1015480003B05DF804FB0020FAE70020F8E700BFCD
:10155800200100202401002008B50F210020FFF7FA
:1015680031FE012807D010B91B4B1B7843B30F205D
:10157800FFF764FD08BD184B1B78012BF3D1174802
:10158800FFF7A4FF0A20FFF7E3FE0023144A1370B5
:10159800114A1370134B1B78012BE8D1124B02220E
:1015A8001A70124B01221A701148FFF78FFF08209A
:1015B800104B1870FFF7B8F90A4B00221A70D6E7DB
:1015C8000D48FFF783FF0A20FFF7C2FE0123044AF4
:1015D8001370014A1370CAE75E010020442800080E
:1015E8005F010020640100206201002063010020E7
:1015F800482800089C0100204C28000808B5134B17
:1016080001221A70124B1B78B3B9124B1B78934204
:1016180003D00020FFF712FD08BD0E4B02221A70FE
:101628000D4B01221A700D48FFF750FF08200C4B94
:101638001870FFF779F9ECE7012BEAD1054B022284
:101648001A70054B01221A70E3E700BF64010020FD
:101658005F01002062010020630100204828000883
:101668009C01002010B506210020FFF7ABFD0446C1
:1016780007210020FFF7A6FD012808D0012C19D06A
:101688000620FFF7DBFC0720FFF7D8FC10BD134B43
:101698001B78012BF2D1114B02221A700124104B36
:1016A8001C702046FFF740F90E4B1C700E48FFF7E0
:1016B8000DFFE5E7094B1B78012BE1D10224074B0D
:1016C8001C70074B01221A702046FFF72DF9054BB5
:1016D8001C700648FFF7FAFED2E700BF6001002041
:1016E800610100209D0100205028000858280008AA
:1016F80070B5844B1B78002B00F08180FFF76AFEE1
:101708000446814B1B8813F0010F0FD013F0020F12
:101718000CD113F0040F09D113F0080F06D113F000
:10172800100F03D1794B1B78012B72D0764B1B8895
:1017380013F0010F0FD113F0020F0CD013F0040FA8
:1017480009D113F0080F06D113F0100F03D16F4B16
:101758001B78022B6ED06C4B1B8813F0010F0FD136
:1017680013F0020F0CD113F0040F09D013F0080F77
:1017780006D113F0100F03D1644B1B78012B69D0ED
:10178800614B1B8813F0010F0FD113F0020F0CD11E
:1017980013F0040F09D113F0080F06D013F0100F3F
:1017A80003D15A4B1B78022B65D0574B1B8813F07B
:1017B800010F0FD113F0020F0CD113F0040F09D150
:1017C80013F0080F06D113F0100F03D04F4B1B78FE
:1017D800012B60D04E4B1A784E4B1B789A4202D0A0
:1017E8004D4B00221A7040F2DB539C4206D94A4BFB
:1017F8001B781BB9494B1B68002B5DD070BDFFF7E8
:10180800BFFD404B01221A70424B1A78404B1A70A8
:1018180074E73E4B02221A70414B01221A700720CE
:101828003C4B1870FFF780F800233E4A13703B4A80
:1018380013607BE70125354B1D700620354B18706A
:10184800FFF772F80023374A1370354A1570334A88
:10185800136080E72D4B02221A7005202D4B18705B
:10186800FFF762F800232F4A13702D4A01211170E7
:101878002A4A136084E70126244B1E700025294B51
:101888001D700420234B1870FFF74EF8244B1E7070
:10189800224B1D6089E71D4B02221A700125214B3E
:1018A8001D7003201B4B1870FFF73EF81C4B1D7072
:1018B8001A4B00221A608DE7124B00221A70164B41
:1018C80001221A70FFF78CFD124B1B78033B042B87
:1018D80094D8DFE803F003070B0F13001248FFF753
:1018E800F5FD8BE71148FFF7F1FD87E71048FFF793
:1018F800EDFD83E70F48FFF7E9FD7FE70E48FFF7A7
:10190800E5FD7BE757010020580100205A0100201F
:10191800200000209E0100205B010020180100200B
:101928005C0100205D0100201C2800082428000814
:101938002C280008342800083C28000810B582B07C
:10194800FFF776FC02210846FFF7A0FC03210220DE
:10195800FFF79CFC04210220FFF798FC00210220DD
:10196800FFF794FCC34A536843F0007353600020A8
:10197800FFF7AEFCFFF754FDFFF70CFDFEF7E2FEA4
:10198800BD4B93E803000090ADF804100022062137
:101998001046FFF7F7FA002207211046FFF7F2FA80
:1019A800002211460120FFF7EDFA02220F21002044
:1019B800FFF7E8FAB148FFF74BFBB148FFF74EFBDA
:1019C800B048FFF751FB19E0AF490A7801320A70B5
:1019D8000133DBB2C25C4AB102A9194411F8081CF0
:1019E8009142F1D0A84A00211170F1E7A64B1B786B
:1019F800052B0ED0A54B1B78012B16D0FFF782FDC7
:101A0800A34B18600378002BF0D000239E4A137074
:101A1800E0E7A048FFF75AFDFFF7FEF89B4B0122CD
:101A28001A70994B00221A70E4E70E210120FFF783
:101A3800C9FB012800F093800D210220FFF7C2FBAB
:101A4800002800F099800C210120FFF7BBFB01283A
:101A580000F09A8004210120FFF7B4FB012800F070
:101A6800978008210120FFF7ADFB012800F098803E
:101A78000B210120FFF7A6FB012800F09980072120
:101A88000120FFF79FFB012800F09A800D2101201B
:101A9800FFF798FB012800F09B8008210020FFF742
:101AA80091FB012800F09C800B210020FFF78AFBA6
:101AB800012800F09D8006210120FFF783FB012803
:101AC80000F09E8001210846FFF77CFB012800F00A
:101AD8009F800C210120FFF775FB012804D16E4B74
:101AE8001B78002B00F09C800C210120FFF76AFB7B
:101AF80020B9694B1B78012B00F098800621002043
:101B0800FFF760FB002800F0178100210120FFF794
:101B180059FB002800F02F8105210020FFF752FB18
:101B2800012840F048815D4B1B78002B40F0438131
:101B38005B4B1B78012B40F04781594B02221A70EE
:101B48000123564A1370574A13705748FFF7BEFCD3
:101B58000A20FEF7E9FE554B0A221A7034E1544B6D
:101B68001B78002B7FF468AF5248FFF7AFFC4FF4A7
:101B7800FA70FFF7EDFB5FE74F48FFF7A7FC4FF45C
:101B8800FA70FFF7E5FB5EE7434B00221A7061E746
:101B98004A48FFF79BFC4FF4FA70FFF7D9FB60E760
:101BA8004748FFF793FC4FF4FA70FFF7D1FB5FE764
:101BB8004448FFF78BFC4FF4FA70FFF7C9FB5EE768
:101BC8004148FFF783FC4FF4FA70FFF7C1FB5DE76C
:101BD8003E48FFF77BFC4FF4FA70FFF7B9FB5CE770
:101BE8003B48FFF773FC4FF4FA70FFF7B1FB5BE774
:101BF8003848FFF76BFC4FF4FA70FFF7A9FB5AE778
:101C08003548FFF763FC4FF4FA70FFF7A1FB59E77B
:101C18003248FFF75BFC4FF4FA70FFF799FB58E77F
:101C28001D4B01221A70FEF75DFF67E71A4B002271
:101C38001A70FEF78BFF1D4B1B78092B54D00A2B0B
:101C480056D0082B12D0264B1B78012B58D0002BCE
:101C580052D0022B58D0234B1B78033B042B3FF662
:101C68004DAFDFE803F055595D6165000820FEF7C8
:101C78005BFEE8E700000140DC28000805160008C4
:101C88006D160008611500086C0100206D01002028
:101C98006801002060280008650100206E0100200E
:101CA8006201002063010020C82800089C01002070
:101CB8005F010020642800086C28000874280008C8
:101CC800782800088028000888280008902800083C
:101CD80098280008A4280008AC280008B4280008A0
:101CE8009D0100209E0100200920FEF71DFEAAE7A5
:101CF8000A20FEF719FEA6E70020FEF715FEAAE760
:101D08000120FEF711FEA6E70220FEF70DFEA2E76E
:101D18000320FEF709FEF1E60420FEF705FEEDE6D6
:101D28000520FEF701FEE9E60620FEF7FDFDE5E6E3
:101D38000720FEF7F9FDE1E60721FFF743FA00283F
:101D48007FF4E3AE344B1B78012B7FF4DEAE334BCC
:101D58001B78022B7FF4D9AE304B01221A70002475
:101D68002D4B1C702046FEF7DFFD2D48FFF7AEFB1C
:101D78002C4B1C70C9E60521FFF724FA00287FF4D4
:101D8800CBAE294B1B78012B7FF4C6AE274B1B78B3
:101D9800022B7FF4C1AE244B00221A70234B012280
:101DA8001A700920FEF7C0FD2148FFF78FFB214B71
:101DB80009221A70B0E605210020FFF703FA18B9C6
:101DC8001D4B1B78012B1AD0FEF7F4FE1B4C20800C
:101DD800FFF78EFC238813F0800F02D0184B1B7876
:101DE8008BB1164B1B8813F0200F3FF407AE154834
:101DF800FFF76CFB4FF4FA70FFF7AAFAFEE50E4BFB
:101E080000221A70E0E71048FFF760FB4FF4FA7001
:101E1800FFF79EFAE5E700BF61010020600100209E
:101E2800BC2800089D0100206301002062010020F9
:101E3800C42800089C0100206E01002058010020E1
:101E48005F010020D4280008CC280008014B18683E
:101E5800704700BF2400002030B5141E05469BB013
:101E6800184605DA8B234FF0FF302B601BB030BDCE
:101E78004FF40273ADF80C300CBF234604F1FF3366
:101E8800029305934FF6FF7300910491ADF80E305D
:101E980002461E9B6946284600F072F8431CBCBFE8
:101EA8008B232B60002CE1D00022009B1A70DDE709
:101EB80007B5009313460A46014603480068FFF732
:101EC800CBFF03B05DF804FB240000202DE9F047A8
:101ED8008E6882469E420C469046994637D88A8933
:101EE80012F4906F31D00223256809696F1A656969
:101EF80005EB450595FBF3F509F101033B449D42CC
:101F080038BF1D46530530D5294600F035FB064637
:101F180050B90C234FF0FF30CAF80030A38943F0C2
:101F28004003A381BDE8F0873A46216900F0B4FA7E
:101F3800A38923F4906343F08003A38126613E4480
:101F480026604E466561ED1BA5604E4500D94E469C
:101F580032464146206800F0AAFAA36800209B1B7D
:101F6800A36023681E442660DCE72A4600F05EFB77
:101F780006460028E2D12169504600F0B1FAC8E7C8
:101F88002DE9F04F9DB003938B8980461D060C46C2
:101F980016460FD50B696BB9402100F0EDFA2060A9
:101FA800206128B90C23C8F800304FF0FF30C7E093
:101FB800402363610023099320238DF829303023BF
:101FC8004FF0010B8DF82A3037463D4615F8013B96
:101FD8000BB1252B3ED1B7EB060A0BD05346324640
:101FE80021464046FFF772FF013000F0A480099BAC
:101FF800534409933B78002B00F09D8000234FF059
:10200800FF32CDE90523049307938DF853301A93D3
:102018002F46052217F8011B4F4800F02FFA049BA2
:10202800D0B9D90644BF20228DF853201A0744BFDF
:102038002B228DF853202A782A2A15D02F460020E3
:102048000A25079A394611F8013B303B092B4DD92F
:10205800B8B10FE02F46B8E73F4A3D46801A0BFA61
:1020680000F018430490D3E7039A111D12680391F6
:10207800002A01DB079204E0524243F00203079270
:1020880004933B782E2B0CD17B782A2B33D1039BDE
:1020980002371A1D1B680392002BB8BF4FF0FF339D
:1020A80005932E4D03223978284600F0E7F938B118
:1020B8004023401B03FA00F0049B013703430493B9
:1020C8003978062226487E1C8DF8281000F0D6F9AB
:1020D800002838D0234B13BB039B073323F0070397
:1020E80008330393099B4B4409936DE705FB0232C0
:1020F80001200F46A6E700230A2519460137059354
:10210800384610F8012B303A092A03D9002BC8D0D9
:102118000591C6E705FB012101230746F0E703AB5C
:1021280000932246104B04A94046AFF30080B0F15B
:10213800FF3F8146D6D1A3895B063FF536AF0998A4
:102148001DB0BDE8F08F03AB00932246064B04A9EF
:10215800404600F081F8EAE7E4280008EA28000889
:10216800EE28000800000000D51E00082DE9F04701
:1021780091461F468A680B6906469342B8BF1346C4
:10218800C9F8003091F843200C46DDF8208012B1E0
:102198000133C9F800302368990642BFD9F80030E6
:1021A8000233C9F80030256815F0060507D104F197
:1021B800190AE368D9F800209B1AAB4229DC94F885
:1021C80043302268003318BF012392062ED404F14D
:1021D800430239463046C047013021D02368E568BC
:1021E80003F00603042B18BF0025D9F800204FF090
:1021F800000908BFAD1AA368226908BF25EAE5757A
:102208009342C4BF9B1AED181A344D451AD10020C9
:1022180008E00123524639463046C047013003D111
:102228004FF0FF30BDE8F0870135C2E73020E118F4
:1022380081F843005A1C94F845102244023382F86E
:102248004310C4E70123224639463046C0470130CF
:10225800E6D009F10109D8E72DE9F04301F1430C73
:102268000C46097E85B06E291746064698460C9A94
:1022780000F0B38022D8632936D00AD8002900F0AC
:10228800B980582900F0838004F1420584F842108F
:1022980032E0642901D06929F6D12068136805065F
:1022A80003F104012AD51B681160002B03DA2D22E3
:1022B8005B4284F843206F480A2239E0732900F012
:1022C8009D8008D86F2920D07029DDD1236843F07C
:1022D8002003236003E0752917D07829D4D1782307
:1022E800654884F8453055E0136804F14205191D26
:1022F8001B68116084F8423001238CE01B6810F0E1
:10230800400F116018BF1BB2CFE713682568181D6E
:102318001060280601D51B6802E06806FBD51B88FB
:102328006F2914BF0A2208225248002184F843105A
:102338006568002DA560C0F29580216821F0040130
:102348002160002B3DD1002D40F08E806546082A83
:102358000BD12368DB0708D5236962689A42DEBF80
:10236800302305F8013C05F1FF35ACEB050323618B
:10237800CDF800803B4603AA21463046FFF7F6FE1B
:1023880001304DD14FF0FF3005B0BDE8F08339483A
:1023980084F84510136821681D1D1B6815600A061E
:1023A8000BD5CA0744BF41F0200121601BB9226840
:1023B80022F0200222601022B7E74D0648BF9BB2E8
:1023C800EFE76546B3FBF2F102FB1133C35C05F896
:1023D800013D0B460029F5D1B9E713682568181D9A
:1023E8006169106028061B6801D5196002E06A0659
:1023F800FBD51980002365462361B9E71368191DC9
:1024080011601D6862680021284600F037F808B19D
:10241800401B606063682361002384F84330A7E7AA
:1024280023692A4639463046C0470130AAD0236876
:102438009B0713D4E068039B9842B8BF1846A3E7EC
:1024480001234A4639463046C04701309AD0013503
:10245800E368039A9B1AAB42F2DCEBE7002504F130
:102468001909F5E7002BACD1037804F1420584F88B
:1024780042306CE7F52800080629000810B5C9B2F3
:1024880002449042034601D1002303E01C78013046
:102498008C42F6D1184610BD10B5431E0A4491422D
:1024A80000D110BD11F8014B03F8014FF7E788423E
:1024B80010B501EB020307D8421E99420AD011F861
:1024C800014B02F8014FF8E78342F5D98118D21A77
:1024D800D34200D110BD13F8014D01F8014DF7E7C3
:1024E80038B50546002943D051F8043C0C1F002B91
:1024F800B8BFE41800F0D0F81E4A1368104633B984
:10250800636014602846BDE8384000F0C6B8A342AE
:102518000BD921686218934201BF1A685B68521888
:10252800226063600460EDE713465A680AB1A2426C
:10253800FAD919685818A0420BD1206801445818D4
:1025480082421960DED110685268014419605A60ED
:10255800D8E702D90C232B60D4E7206821188A42D7
:1025680001BF116852680918216062605C60C9E7A0
:1025780038BD00BF7001002070B5CD1C25F00305E3
:1025880008350C2D38BF0C25002D064601DBA94265
:1025980003D90C233360002070BD00F07DF8214A78
:1025A8001468214691B9204C23681BB9304600F0C5
:1025B80063F820602946304600F05EF8431C24D1B9
:1025C8000C233046336000F068F8E4E70B685B1BC7
:1025D80018D40B2B0FD90B60CC18CD50304600F017
:1025E8005CF804F10B00231D20F00700C31AD3D0B8
:1025F8005A42E250D0E74B688C4216BF63601360C2
:102608000C46EBE70C464968CCE7C41C24F00304ED
:10261800A04205D0211A304600F02EF80130CFD064
:102628002560DBE77001002074010020F8B507463B
:1026380014460E4621B9BDE8F8401146FFF79CBF85
:1026480022B9FFF74DFF25462846F8BD00F026F8C9
:10265800A0420FD221463846FFF78EFF05460028D4
:10266800F2D031462246FFF717FF31463846FFF7CA
:1026780037FFE9E73546E7E738B50023054C054657
:1026880008462360FDF776FE431C02D1236803B198
:102698002B6038BD780100207047704751F8043C22
:1026A800181F002BBCBF0B58C018704753746163C8
:1026B8006B206672616D653A0A0000002052302076
:1026C8003D2020253038580A0000000020523120D3
:1026D8003D2020253038580A0000000020523220C2
:1026E8003D2020253038580A0000000020523320B1
:1026F8003D2020253038580A000000002052313291
:10270800203D20253038580A00000000204C522077
:102718003D2020253038580A000000002050432072
:102728003D2020253038580A000000002050535220
:10273800203D20253038580A000000004653522F0B
:102748004641523A0A0000002043465352203D2099
:1027580020253038580A00002048465352203D2092
:1027680020253038580A00002044465352203D2086
:1027780020253038580A00002041465352203D2079
:1027880020253038580A0000204D4D464152203D42
:1027980020253038580A00002042464152203D206A
:1027A80020253038580A00004D6973630A0000007C
:1027B800204C522F4558435F52455455524E3D20A8
:1027C800253038580A0000005B486172644661751C
:1027D8006C745D0A000000005B4275734661756C9D
:1027E800745D0A005B55736167654661756C745D5D
:1027F8000A0000004C452C00454F2C0046452C0093
:10280800542C0000442C00004E2C0000462C0000E4
:10281800572C00002A534323000000002A43472373
:10282800000000002A535423000000002A485423C3
:10283800000000002A484523000000002A54230015
:102848002A4623002A4423002A4C4523000000007E
:102858002A454F23000000002A532C002A462B2328
:10286800000000002A452D23000000002A41230013
:102878002A452B23000000002A432B2300000000D8
:102888002A432D23000000002A434C522300000055
:102898002A42544C524E4723000000002A422B2360
:1028A800000000002A422D23000000002A4C524656
:1028B800462300002A464523000000002A4E230034
:1028C8002A5723002A462D23000000002A4C4C23B7
:1028D800000000005374617274000000232D302B37
:1028E8002000686C4C006566674546470030313209
:1028F8003334353637383941424344454600303160
:0F290800323334353637383961626364656600BF
:1029180078563412940000200000000000000000E7
:1029280000000000010203040607080900A24A0487
:102938000BFFFFFF2800002000000000000000003F
:10294800000000000000000000000000000000007F
:10295800000000000000000000000000000000006F
:10296800000000000000000000000000000000005F
:10297800000000000000000000000000000000004F
:10298800000000000000000000000000000000003F
:0C2998000000000000000000325476989F
:040000050800010DE1
:00000001FF
