:020000040800F2
:100000000050002021020008270200082B020008EF
:100010009D020008A1020008E9020008000000009B
:100020000000000000000000000000003103000894
:1000300035030008000000003903000851140008CF
:100040004D0300084D0300084D0300084D03000850
:100050004D0300084D030008A50F0008B50F000868
:10006000C50F0008D50F0008E50F00084D03000874
:100070004D0300084D0300084D0300084D03000820
:100080004D0300084D0300084D0300084D03000810
:100090004D0300084D0300084D030008F50F00084C
:1000A0004D0300084D0300084D0300084D030008F0
:1000B0004D0300084D0300084D0300084D030008E0
:1000C0004D0300084D0300084D0300084D030008D0
:1000D0004D0300084D0300084D0300084D030008C0
:1000E000051000084D0300084D0300080000000043
:1000F0000000000000000000000000000000000000
:1001000000000000000000005FF808F100B583B0B7
:1001100000F0AAF9304B314A1360314A1360314B79
:10012000314A32498B4204D21168196004330432D7
:10013000F7E72A4B1A682E4B9A4200D0FEE7284B6D
:100140001A682C4B9A42F9D1234B2B4A13602B4A45
:1001500013602B4B02E000221A600433294A9342B9
:10016000F9D3254B1B6813B9244B1B6803B1FEE779
:1001700000F086F9694601A800F022F9224C234BD1
:10018000E41AA4100025AC4214DC214C214BE41AE3
:10019000A4100025AC4213DC0099019801F0E6FAA6
:1001A00005461D4C1D4BE41AA410002C0EDC2846FD
:1001B00000F0E2F8154B53F8253098470135E2E797
:1001C000144B53F8253098470135E3E7013C134BB6
:1001D00053F824309847E8E7BABADECA0000002096
:1001E0004801002000000020F02500084C010020FC
:1001F00078563412325476984C0100203002002098
:100200004C01002034020020780300087803000825
:1002100078030008780300087803000878030008D2
:1002200008B5FFF773FF00BEFEE71EF0040F0CBF1A
:10023000EFF30880EFF309807146414A10472DE93A
:10024000F04182B004468846124B5E6B9F6B9D6AFC
:100250001B6B13F0020F03D00E4BDB6A002B0CDB81
:100260000D4800F0B5F8CDF800803B4632462946EF
:10027000204600F009F900BEFEE74BF6AB6100F046
:100280007DF90028ECD0034B4FF00042DA6202B057
:10029000BDE8F08100ED00E0F023000800BEFEE7BD
:1002A0001EF0040F0CBFEFF30880EFF309807146D6
:1002B000244A10472DE9F04182B004468846084B95
:1002C0005E6B9F6B9D6A074800F082F8CDF8008056
:1002D0003B4632462946204600F0D6F800BEFEE7EF
:1002E00000ED00E0002400081EF0040F0CBFEFF347
:1002F0000880EFF309807146134A10472DE9F04159
:1003000082B004468846084B5E6B9F6B9D6A074827
:1003100000F05EF8CDF800803B4632462946204684
:1003200000F0B2F800BEFEE700ED00E00C2400088B
:1003300000BEFEE700BEFEE700BEFEE7704700001D
:100340003F020008B5020008FD02000800BEFEE7FB
:10035000F0250008000000204C010020F0250008D6
:1003600000000000000000004C01002034020020CA
:08037000000000000000000085
:10037800FEE7000008B503460C4A12685AB10B4A5A
:100388001068033323F003030344094A934206D851
:10039800064A136008BD054A06491160EFE701F0F7
:1003A80065FB0C2303604FF0FF30F3E7500100209A
:1003B800004C00203402002001230360014B0B6035
:1003C800704700BF040000200FB400B583B004AB31
:1003D80053F8042B01938021064801F079FB00288B
:1003E80003DD0146034800F037F803B05DF804EB7D
:1003F80004B07047580100202DE9F04385B0044649
:100408000F4643560BB10E461EE0042528462146EA
:10041800ABBE0446384605B0BDE8F08314F9011BAD
:1004280004AA1A4402F8101C0133AB42F6D304AAFA
:100438001344002203F8102C4FF00408E946404604
:100448004946ABBE8046761B002EE3D03546102EBB
:1004580028BF10250023E8E708B5FFF7CDFF08BD42
:1004680008B500F0FDF8024A024B9A6008BD00BFCB
:100478000000000800ED00E008B500F019F908BD1B
:10048800F8B504460D4617461E462748FFF79CFF59
:1004980021682648FFF798FF61682548FFF794FF11
:1004A800A1682448FFF790FFE1682348FFF78CFF15
:1004B80021692248FFF788FF61692148FFF784FF17
:1004C800A1692048FFF780FFE1691F48FFF77CFF1B
:1004D8001E48FFF779FF29461D48FFF775FF1D4C99
:1004E800E16A1D48FFF770FF216B1C48FFF76CFF9E
:1004F800E16B1B48FFF768FF15F0800F0AD115F470
:10050800004F0CD11748FFF75FFF06991648FFF711
:100518005BFFF8BD39461548FFF756FFEFE7314650
:100528001348FFF751FFEDE7D4220008E422000842
:10053800F4220008042300081423000824230008D8
:1005480034230008442300085423000864230008C7
:100558007023000800ED00E08023000890230008C5
:10056800A0230008D0230008D8230008B0230008DF
:10057800C023000883691A888A4201D00020704786
:100588000268033A012A03D80233836101207047C5
:100598000020704782B00023019300932C4A13680F
:1005A80043F4803313602A4B1B6803F40033009331
:1005B800019B01330193009B1BB9019BB3F5A06F0D
:1005C800F1D1234B1B6813F4003F06D0012300939D
:1005D800009B012B04D002B0704700230093F7E77B
:1005E8001C4B1A6842F010021A601A6822F00302C3
:1005F8001A601A6842F002021A60A3F580535A681A
:100608005A605A685A605A6842F480625A605A6856
:1006180022F47C125A605A6842F4E8125A601A6846
:1006280042F080721A600A4B1B6813F0007FFAD000
:10063800074B5A6822F003025A605A6842F00202D5
:100648005A60034B5B6803F00C03082BF9D1C2E72F
:10065800001002400020024008B5FFF79BFF08BDCC
:1006680008B5104B1A6842F001021A6059680E4A20
:100678000A405A601A6822F0847222F480321A60A2
:100688001A6822F480221A605A6822F4FE025A601C
:100698004FF41F029A60FFF7DFFF044B4FF0006230
:1006A8009A6008BD001002400000FFF800ED00E06D
:1006B8001F4B5B6803F00C03042B15D0082B17D0D5
:1006C8001BB11C4B1C4A1A6002E01A4B1A4A1A60EA
:1006D800174B5B68C3F30313184AD35CDAB21549A6
:1006E8000B68D3400B607047124B134A1A60EFE750
:1006F8000F4A53685268C3F38343023312F4803FAE
:100708000AD00B4A526812F4003F0BD00C4A02FB85
:1007180003F3084A1360DBE7094A02FB03F3054ABF
:100728001360D5E7044A02FB03F3024A1360CFE7DC
:10073800001002401C00002000127A000C0000206B
:1007480000093D0008B501220321104600F068FDAC
:1007580001220921104600F063FD01220D2102202B
:1007680000F05EFD01220E21022000F059FD012259
:100778000F21022000F054FD01220C21002000F07E
:100788004FFD01220821104600F04AFD08BD10B5B2
:10079800012406E008222146002000F0D3FC0134A1
:1007A800E4B2072CF6D9012406E0002221461046BF
:1007B80000F036FD0134E4B2072CF6D901220C21F1
:1007C800002000F0BFFC08220021084600F0BAFC17
:1007D80008221146002000F0B5FC08220B21002059
:1007E80000F0B0FC08220F21002000F0ABFC002232
:1007F8001146104600F014FD00220821104600F0B2
:100808000FFD00220B21104600F00AFD00220F21E7
:10081800104600F005FD01220321104600F092FC6D
:1008280001220821104600F08DFC01220921104602
:1008380000F088FC01220D21022000F083FC012237
:100848000E21022000F07EFC01220F21022000F080
:1008580079FC08220021012000F074FC0822012103
:10086800084600F06FFC00221146012000F0D8FC79
:1008780000220121084600F0D3FC082204210120AF
:1008880000F060FC00220421012000F0C9FC0822CD
:100898000521012000F056FC00220521012000F06E
:1008A800BFFC08220621012000F04CFC0022062192
:1008B800012000F0B5FC08220721012000F042FCCD
:1008C80000220721012000F0ABFC082207210120AB
:1008D80000F038FC00220721012000F0A1FC0822CA
:1008E8000A21012000F02EFC00220A21012000F03C
:1008F80097FC08220B21012000F024FC00220B2188
:10090800012000F08DFC08220C21012000F01AFCC7
:1009180000220C21012000F083FC08220D21012077
:1009280000F010FC00220D21012000F079FC0822C3
:100938000E21012000F006FC00220E21012000F00B
:100948006FFC08220F21012000F0FCFB00220F2180
:10095800012000F065FC10BD08B507280FD8DFE8B6
:1009680000F0040F1A253F59738D01220C21002035
:1009780000F056FC00220821012000F051FC08BDBF
:1009880000220C21104600F04BFC012208211046E1
:1009980000F046FCF3E700220C21104600F040FC72
:1009A80000220821012000F03BFCE8E70022032197
:1009B800012000F035FC01220921104600F030FC2E
:1009C80000220D21022000F02BFC00220E21022023
:1009D80000F026FC00220F21022000F021FCCEE7C7
:1009E80000220321012000F01BFC00220921012024
:1009F80000F016FC00220D21022000F011FC01225B
:100A08000E21022000F00CFC00220F21022000F031
:100A180007FCB4E701220321104600F001FC002284
:100A28000921012000F0FCFB00220D21022000F02A
:100A3800F7FB00220E21022000F0F2FB00220F211A
:100A4800022000F0EDFB9AE700220321012000F0CC
:100A5800E7FB00220921012000F0E2FB01220D2121
:100A6800022000F0DDFB00220E21022000F0D8FB5E
:100A780000220F21022000F0D3FB80E7002203218F
:100A8800012000F0CDFB00220921012000F0C8FB65
:100A980000220D21022000F0C3FB00220E210220BB
:100AA80000F0BEFB01220F21022000F0B9FB66E72F
:100AB80000B585B004AB03E90700029800F01EFDFD
:100AC800039B03B1984705B05DF804FB08B5002205
:100AD8000321012000F0A4FB00220921012000F0DD
:100AE8009FFB00220D21022000F09AFB00220E211C
:100AF800022000F095FB00220F21022000F090FB5D
:100B080000220C21104600F08BFB00220821012056
:100B180000F086FB08BD000038B5002429E0844BAE
:100B28001B7823BB834800F0E9FC4FF47A7000F08F
:100B380077FC1CE07E4B1B78CBB97F4800F0DEFCCD
:100B48004FF47A7000F06CFC11E07C4800F0D6FCA1
:100B58004FF47A7000F064FC09E0794B00221A70B7
:100B680005E00C21012000F095FB012829D0013473
:100B7800E4B20F2C63D804EB44029300714AD15CB1
:100B8800012000F087FB0128EBD10E2CC7D00F2CD9
:100B9800D0D0042CD9D00C2CDFD0032CE7D9082CCA
:100BA800E5D0092CE3D004EB4405AA00654B1344B7
:100BB80093E80700FFF77CFF4FF47A7000F030FCF1
:100BC800D5E75F4B1B78002BD1D1FFF77FFF5C4B3C
:100BD80001221A705C4B1B78934210D05BB1022B38
:100BE80011D05A4B1B78033B042B13D8DFE803F0D2
:100BF8000F171B1F23000020FFF7AEFEF1E70120AF
:100C0800FFF7AAFEEDE70220FFF7A6FEE9E70320BB
:100C1800FFF7A2FE4FF47A7000F002FCA7E7042069
:100C2800FFF79AFEF6E70520FFF796FEF2E70620A3
:100C3800FFF792FEEEE70720FFF78EFEEAE70621B0
:100C4800002000F027FB28B30021012000F022FB40
:100C580000283AD00821002000F01CFB01284FD0C2
:100C68000121084600F016FB012851D00021084652
:100C780000F010FB012853D00F21002000F00AFBE0
:100C8800012844D1324800F039FC4FF47A7000F062
:100C9800C7FB3CE0072100F0FDFA0028D4D12D4B1A
:100CA8001B78012BD0D12C4B1B78022BCCD12A4B93
:100CB80001221A70274B1870FFF74EFE274800F0E4
:100CC8001DFC214B02221A70BEE7052100F0E2FA52
:100CD8000028BFD1224B1B78012BBBD1144B1B78AA
:100CE800002BB7D11F4B1B78022BB3D11C4B002212
:100CF8001A701C4B01221A701B4800F0FFFBA9E771
:100D08001A4800F0FBFB4FF47A7000F089FB38BDFD
:100D1800174800F0F3FB4FF47A7000F081FBF6E718
:100D2800144800F0EBFB4FF47A7000F079FBEEE723
:100D3800DC010020602400086C24000878240008E6
:100D4800E0000020200000202C0200202D020020BE
:100D5800BC240008DE010020DD01002080240008FA
:100D6800E0010020DF0100209024000898240008FA
:100D7800A4240008B024000810B501240AE00620C5
:100D8800FFF7EAFD734B06221A70734B02221A70A2
:100D98000134E4B2072C5ED82146002000F07AFA2C
:100DA8000128F5D1631E062BF2D801A252F823F0D0
:100DB800870D0008D50D0008E90D0008010E000890
:100DC800150E0008290E0008470E00080520FFF739
:100DD800C3FD604B05221A705F4B03221A70D7E7D8
:100DE8000420FFF7B9FD04235A4A13705B4A002117
:100DF8001170594A1370CBE70720FFF7ADFD554B2B
:100E080007221A70544B01221A70C1E7544800F0A7
:100E180075FB544B01221A70534B02221A70B7E724
:100E2800524800F06BFB0120FFF796FD504B022261
:100E38001A7001234F4A13704F4A1370A8E74F489E
:100E480000F05CFB0220FFF787FD0223484A13707D
:100E5800484A13709CE70121002000F01BFAF0B10A
:100E68000021012000F016FA002834D00B210020C0
:100E780000F010FA01283CD00B21002000F00AFAFB
:100E880000283FD00621002000F004FA002842D0B4
:100E98000021012000F0FEF9012850D010BD0221E8
:100EA80000F0F8F90028DBD1032100F0F3F900285D
:100EB800D6D1042100F0EEF90028D1D1274B012228
:100EC8001A700320FFF748FD224B03221A70224BA9
:100ED80005221A70C4E7052100F0DCF90028C5D105
:100EE8000124214B1C70264800F008FB1D4B1C7088
:100EF800BCE7244800F002FB0023234A1370234A6E
:100F08001370B9E7224800F0F9FA01231E4A13705A
:100F18001E4A1370B6E7072100F0BCF90028B7D1C4
:100F28001C4800F0EBFA0020FFF716FD0123104AD9
:100F38001370104A002111700F4A1370A8E70A4B6A
:100F480002221A70074B01221A70134800F0D6FAD1
:100F5800A4E700BF2D020020D9010020DA010020FB
:100F68001C240008E0010020DF01002024240008E0
:100F7800DD0100202C020020DE01002030240008C2
:100F88003C24000844240008DC010020DB01002088
:100F980050240008802400085824000808B5024B93
:100FA8001B68984708BD00BF0802002008B5024B1F
:100FB8001B68984708BD00BFFC01002008B5024B1C
:100FC8001B68984708BD00BF0402002008B5024B03
:100FD8001B68984708BD00BFF801002008B5024B00
:100FE8001B68984708BD00BF0002002008B5024BE7
:100FF8001B68984708BD00BF0C02002008B5024BCB
:101008001B68984708BD00BF10020020F8B50546C8
:101018000C4616460021022000F0A0F9A308274A32
:10102800023352F823104FEA840C0F2707FA0CF703
:1010380021EA070142F8231052F8230005FA0CF5BB
:10104800284342F82300012E1AD096B1022E1ED052
:101058001B490B680122A24013430B60042C20D9C2
:10106800631FDBB2042B21D90A3CE4B2052C21D939
:10107800F8BD13498B680122A24013438B60E7E750
:101088000F49CB680122A2401343CB60E0E70C4A2A
:1010980091680123A34019439160D1680B43D36041
:1010A800D6E7A01DC0B200F015F9E1E7172000F05F
:1010B80011F9DDE7282000F00DF9D9E7000001401B
:1010C8000004014004490B68012202FA00F023EAF7
:1010D80000030B60704700BF0004014003494B69DF
:1010E800012202FA00F003434B61704700040140FB
:1010F800014B1860704700BF08020020014B1860C0
:10110800704700BFFC010020014B1860704700BF0A
:1011180004020020014B1860704700BFF80100204E
:10112800014B1860704700BF00020020014B186097
:10113800704700BF0C020020014B1860704700BFC9
:101148001002002010B4072930D8012812D018B195
:1011580002281DD010BC70472E4B186889000F2438
:101168008C4020EA04001860186802FA01F1014373
:101178001960EFE7284B186889000F248C4020EA93
:1011880004001860186802FA01F101431960E1E7E8
:10119800224B186889000F248C4020EA040018604C
:1011A800186802FA01F101431960D3E70F29D1D871
:1011B8000839C9B201281ED078B10228CAD1174807
:1011C80044688B000F21994024EA0101416044687A
:1011D80002FA03F121434160BCE70E4B58688C00CA
:1011E8000F21A14020EA01015960586802FA04F170
:1011F80001435960AEE7084B5C6888000F218140C5
:1012080024EA010159605C6802FA00F1214359603F
:10121800A0E700BF00080140000C01400010014099
:10122800CAB1012A2ED1012809D010B102280CD048
:101238007047012303FA01F1134B19617047012329
:1012480003FA01F1114B19617047012303FA01F107
:101258000F4B19617047012809D010B102280CD032
:101268007047012303FA01F1074B596170470123C5
:1012780003FA01F1054B59617047012303FA01F1A3
:10128800034B5961704700BF00080140000C014042
:101298000010014001280AD018B102280DD0002002
:1012A8007047094B9868C84000F001007047074B29
:1012B8009868C84000F001007047054B9868C8401E
:1012C80000F00100704700BF00080140000C014019
:1012D800001001401F2809D92038C0B21B2804D8A3
:1012E800012303FA00F0044B18607047012303FA46
:1012F80000F0024B1860704704E100E000E100E0F4
:10130800154B1A6842F400221A605A6842F4803277
:101318005A605A6842F480225A605A6842F400229D
:101328005A605A6842F480125A605A6822F40012CD
:101338005A605A6822F001025A605A6842F0020262
:101348005A601A6842F080721A60034B1B6813F0E7
:10135800007FFAD0704700BF001002401F291CD838
:1013680001280BD010B1022810D070470B484369F0
:10137800012202FA01F11943416170470748C36924
:10138800012202FA01F11943C161704703488369D8
:10139800012202FA01F119438161704700100240ED
:1013A80000230A4A136004326FF07F41116004324F
:1013B800136010B1012804D07047044B05221A604D
:1013C8007047024B07221A60704700BF10E000E028
:1013D80001FB00F14FF47A7303FB01F1B1F1807F57
:1013E80007D3074B6FF07F421A60043300221A605C
:1013F8007047034B1960043300221A60704700BF1E
:1014080014E000E008B501214820FFF7E1FF034B95
:101418001B6813F4803FFAD008BD00BF10E000E05D
:1014280038B50546002402E0FFF7ECFF0134AC4272
:10143800FAD338BD034B1B681BB1024A1368013B42
:10144800136070471402002008B5FFF7F3FF08BDCA
:1014580010B50E210220FFF781FF02210846FFF791
:101468007DFF00210220FFF779FF0024174B1C6045
:101478000C331A6822F480521A60154A116821F454
:1014880080511160116821F4005111601A6842F00E
:1014980008021A601A6842F004021A600D4A41F6FE
:1014A800415111601A6842F400521A60092211462B
:1014B8002046FFF747FE04220A212046FFF742FE96
:1014C80001220A212046FFF7ABFE10BD003801407B
:1014D8001438014008380140064A136823F04003D5
:1014E8001360054B1860034B1B6813F0400FFAD0CC
:1014F800704700BF003801400438014038B5054640
:10150800002402E0FFF7E8FF0134285D0028F9D144
:1015180038BD0000044B1B6813F0200FFAD0034BB2
:101528001868C0B2704700BF003801400438014055
:1015380010B5002405E0074B1855FFF7CDFF01341F
:10154800E4B2FFF7E7FF0D28F5D102480023035561
:1015580010BD00BF1802002008B50B210020FFF7BE
:1015680099FE012807D010B9114B1B789BB10B20AD
:10157800FFF7B4FD08BD0E4B1B78012BF3D10D48C6
:10158800FFF7BCFF0A20FFF74BFF00230A4A13703E
:10159800074A1370EBE70948FFF7B0FF0A20FFF787
:1015A8003FFF0123044A1370014A1370DFE700BFAD
:1015B800DB01002044240008DC010020502400083E
:1015C80008B5154B1B788BB9144B1B78012B03D02E
:1015D8000020FFF783FD08BD104B02221A70104B44
:1015E80001221A700F48FFF789FFF1E7012BEFD1AD
:1015F8000A4B1B78022B0BD0084B1B78012BE7D129
:10160800064A1370064A13700648FFF777FFDFE7AC
:10161800024B01221A70EFE7DC010020DF010020F5
:10162800E00100205C25000808B5054B03221A706C
:10163800044B00221A700220FFF750FD08BD00BFBE
:10164800D9010020DA01002008B5054B02221A70E2
:10165800044B00221A700120FFF740FD08BD00BFAF
:10166800D9010020DA01002008B5054B01221A70C3
:10167800044B00221A700420FFF730FD08BD00BF9C
:10168800D9010020DA01002008B5054B04221A70A0
:10169800044B00221A700320FFF720FD08BD00BF8D
:1016A800D9010020DA01002010B50620FFF70AFD55
:1016B8000720FFF707FD06210020FFF7EBFD044692
:1016C80007210020FFF7E6FD012C18D0012829D0BA
:1016D8000620FFF703FD0720FFF700FD0620FFF7B0
:1016E800FDFC0720FFF7FAFC002206211046FFF751
:1016F8008DFC002207211046FFF788FC10BD144B13
:101708001B78012BE2D1124B02221A700120114BD7
:101718001870FFF721F9104B00221A700F48FFF7D5
:10172800EDFED5E70B4B1B78002BD1D1084B1B786E
:10173800012BCDD10220064B18700124054B1C70DB
:10174800FFF70AF9044B1C700548FFF7D7FEBFE7FF
:10175800DD010020DE0100202C02002024240008E6
:101768003024000810B582B0FFF7CAFD02210846F0
:10177800FFF7F4FD03210220FFF7F0FD042102200A
:10178800FFF7ECFD00210220FFF7E8FD9D4A5368B2
:1017980043F0007353600020FFF702FEFFF758FE86
:1017A800FFF7C6FE984B1860FEF7F1FF974B93E8DA
:1017B80003000090ADF80410002201211046FFF745
:1017C80025FC002202211046FFF720FC00220321FD
:1017D8001046FFF71BFC002204211046FFF716FCF9
:1017E800002206211046FFF711FC002207211046AF
:1017F800FFF70CFC002211460120FFF707FC02222C
:101808000B210020FFF702FC8148FFF771FC81489B
:10181800FFF774FC8048FFF777FC8048FFF77AFCF5
:101828007F48FFF77DFC7F48FFF780FC7E48FFF785
:1018380083FC002305E07D490A7801320A700133F0
:10184800DBB2714A1268D25C4AB102A9194411F894
:10185800081C9142EFD0754A00211170EFE7734BD5
:101868001B78052B04D07248FFF748FE02B010BD64
:10187800FFF782FA20E0012B12D16E4A13706E4AEC
:1018880013706E4A13706E48FFF738FE08E00521A2
:101898000020FFF7FFFC18B9674B1B78012B2BD0F2
:1018A80003210020FFF7F6FC50B303210020FFF7C7
:1018B800F1FC012800F09180FFF72EF905210020A6
:1018C800FFF7E8FC0128E2D15B4B1B78002BDED147
:1018D8005C4B1B78002BCED1564B1B78012BDFD1EC
:1018E800544B02221A700123534A1370534A13703F
:1018F8005348FFF703FED3E74F4B00221A70CFE798
:101908000121FFF7C7FC0028CFD10221FFF7C2FC55
:101918000028CAD10421FFF7BDFC0028C5D14A4BD5
:101928001B78002BC1D14FF49670FFF779FD474B18
:101938001B78013B032B3FD8DFE803F03022140269
:10194800434B1B78002BB0D14248FFF7D7FD00244A
:101958003D4B1C700420404B1870FEF7FDFF3B4BBD
:101968001C70A2E73D48FFF7C9FD05203A4B1870E7
:10197800FEF7F2FF0023344A1370344A137094E7D9
:101988003748FFF7BBFD0620334B1870FEF7E4FF1E
:1019980000232D4A13702D4A137086E73148FFF74C
:1019A800ADFD07202C4B1870FEF7D6FF0023264A02
:1019B8001370264A137078E70124234B1C702A48B9
:1019C800FFF79CFD0320244B1870FEF7C5FF1F4B43
:1019D80000221A701E4B1C7067E71D4B1B78012BE9
:1019E8007FF46AAF1B48FFF789FD0024164B1C7073
:1019F8000420194B1870FEF7AFFF144B1C70144BE2
:101A08001C7059E700000140E4010020B4250008DB
:101A1800C91500085116000831160008911600086B
:101A280071160008B116000861150008E8010020C9
:101A3800A0250008DF010020E9010020E0010020C6
:101A48001C240008DC010020DA010020D901002054
:101A5800D8010020642500082D0200206C2500080C
:101A6800782500088025000890250008014B186893
:101A7800704700BFE400002030B5141E05469BB037
:101A8800184605DA8B234FF0FF302B601BB030BDB2
:101A98004FF40273ADF80C300CBF234604F1FF334A
:101AA800029305934FF6FF7300910491ADF80E3041
:101AB80002461E9B6946284600F072F8431CBCBFCC
:101AC8008B232B60002CE1D00022009B1A70DDE7ED
:101AD80007B5009313460A46014603480068FFF716
:101AE800CBFF03B05DF804FBE40000202DE9F047CC
:101AF8008E6882469E420C469046994637D88A8917
:101B080012F4906F31D00223256809696F1A65694C
:101B180005EB450595FBF3F509F101033B449D42AF
:101B280038BF1D46530530D5294600F035FB06461B
:101B380050B90C234FF0FF30CAF80030A38943F0A6
:101B48004003A381BDE8F0873A46216900F0B4FA62
:101B5800A38923F4906343F08003A38126613E4464
:101B680026604E466561ED1BA5604E4500D94E4680
:101B780032464146206800F0AAFAA36800209B1B61
:101B8800A36023681E442660DCE72A4600F05EFB5B
:101B980006460028E2D12169504600F0B1FAC8E7AC
:101BA8002DE9F04F9DB003938B8980461D060C46A6
:101BB80016460FD50B696BB9402100F0EDFA20608D
:101BC800206128B90C23C8F800304FF0FF30C7E077
:101BD800402363610023099320238DF829303023A3
:101BE8004FF0010B8DF82A3037463D4615F8013B7A
:101BF8000BB1252B3ED1B7EB060A0BD05346324624
:101C080021464046FFF772FF013000F0A480099B8F
:101C1800534409933B78002B00F09D8000234FF03C
:101C2800FF32CDE90523049307938DF853301A93B7
:101C38002F46052217F8011B4F4800F02FFA049B86
:101C4800D0B9D90644BF20228DF853201A0744BFC3
:101C58002B228DF853202A782A2A15D02F460020C7
:101C68000A25079A394611F8013B303B092B4DD913
:101C7800B8B10FE02F46B8E73F4A3D46801A0BFA45
:101C880000F018430490D3E7039A111D12680391DA
:101C9800002A01DB079204E0524243F00203079254
:101CA80004933B782E2B0CD17B782A2B33D1039BC2
:101CB80002371A1D1B680392002BB8BF4FF0FF3381
:101CC80005932E4D03223978284600F0E7F938B1FC
:101CD8004023401B03FA00F0049B0137034304939D
:101CE8003978062226487E1C8DF8281000F0D6F98F
:101CF800002838D0234B13BB039B073323F007037B
:101D080008330393099B4B4409936DE705FB0232A3
:101D180001200F46A6E700230A2519460137059337
:101D2800384610F8012B303A092A03D9002BC8D0BD
:101D38000591C6E705FB012101230746F0E703AB40
:101D480000932246104B04A94046AFF30080B0F13F
:101D5800FF3F8146D6D1A3895B063FF536AF099888
:101D68001DB0BDE8F08F03AB00932246064B04A9D3
:101D7800404600F081F8EAE7BC250008C2250008C3
:101D8800C625000800000000F51A00082DE9F047F4
:101D980091461F468A680B6906469342B8BF1346A8
:101DA800C9F8003091F843200C46DDF8208012B1C4
:101DB8000133C9F800302368990642BFD9F80030CA
:101DC8000233C9F80030256815F0060507D104F17B
:101DD800190AE368D9F800209B1AAB4229DC94F869
:101DE80043302268003318BF012392062ED404F131
:101DF800430239463046C047013021D02368E568A0
:101E080003F00603042B18BF0025D9F800204FF073
:101E1800000908BFAD1AA368226908BF25EAE5755D
:101E28009342C4BF9B1AED181A344D451AD10020AD
:101E380008E00123524639463046C047013003D1F5
:101E48004FF0FF30BDE8F0870135C2E73020E118D8
:101E580081F843005A1C94F845102244023382F852
:101E68004310C4E70123224639463046C0470130B3
:101E7800E6D009F10109D8E72DE9F04301F1430C57
:101E88000C46097E85B06E291746064698460C9A78
:101E980000F0B38022D8632936D00AD8002900F090
:101EA800B980582900F0838004F1420584F8421073
:101EB80032E0642901D06929F6D120681368050643
:101EC80003F104012AD51B681160002B03DA2D22C7
:101ED8005B4284F843206F480A2239E0732900F0F6
:101EE8009D8008D86F2920D07029DDD1236843F060
:101EF8002003236003E0752917D07829D4D17823EB
:101F0800654884F8453055E0136804F14205191D09
:101F18001B68116084F8423001238CE01B6810F0C4
:101F2800400F116018BF1BB2CFE713682568181D52
:101F38001060280601D51B6802E06806FBD51B88DF
:101F48006F2914BF0A2208225248002184F843103E
:101F58006568002DA560C0F29580216821F0040114
:101F68002160002B3DD1002D40F08E806546082A67
:101F78000BD12368DB0708D5236962689A42DEBF64
:101F8800302305F8013C05F1FF35ACEB050323616F
:101F9800CDF800803B4603AA21463046FFF7F6FEFF
:101FA80001304DD14FF0FF3005B0BDE8F08339481E
:101FB80084F84510136821681D1D1B6815600A0602
:101FC8000BD5CA0744BF41F0200121601BB9226824
:101FD80022F0200222601022B7E74D0648BF9BB2CC
:101FE800EFE76546B3FBF2F102FB1133C35C05F87A
:101FF800013D0B460029F5D1B9E713682568181D7E
:102008006169106028061B6801D5196002E06A063C
:10201800FBD51980002365462361B9E71368191DAC
:1020280011601D6862680021284600F037F808B181
:10203800401B606063682361002384F84330A7E78E
:1020480023692A4639463046C0470130AAD023685A
:102058009B0713D4E068039B9842B8BF1846A3E7D0
:1020680001234A4639463046C04701309AD00135E7
:10207800E368039A9B1AAB42F2DCEBE7002504F114
:102088001909F5E7002BACD1037804F1420584F86F
:1020980042306CE7CD250008DE25000810B5C9B22E
:1020A80002449042034601D1002303E01C7801302A
:1020B8008C42F6D1184610BD10B5431E0A44914211
:1020C80000D110BD11F8014B03F8014FF7E7884222
:1020D80010B501EB020307D8421E99420AD011F845
:1020E800014B02F8014FF8E78342F5D98118D21A5B
:1020F800D34200D110BD13F8014D01F8014DF7E7A7
:1021080038B50546002943D051F8043C0C1F002B74
:10211800B8BFE41800F0D0F81E4A1368104633B967
:10212800636014602846BDE8384000F0C6B8A34292
:102138000BD921686218934201BF1A685B6852186C
:10214800226063600460EDE713465A680AB1A24250
:10215800FAD919685818A0420BD1206801445818B8
:1021680082421960DED110685268014419605A60D1
:10217800D8E702D90C232B60D4E7206821188A42BB
:1021880001BF116852680918216062605C60C9E784
:1021980038BD00BFEC01002070B5CD1C25F003054B
:1021A80008350C2D38BF0C25002D064601DBA94249
:1021B80003D90C233360002070BD00F07DF8214A5C
:1021C8001468214691B9204C23681BB9304600F0A9
:1021D80063F820602946304600F05EF8431C24D19D
:1021E8000C233046336000F068F8E4E70B685B1BAB
:1021F80018D40B2B0FD90B60CC18CD50304600F0FB
:102208005CF804F10B00231D20F00700C31AD3D09B
:102218005A42E250D0E74B688C4216BF63601360A5
:102228000C46EBE70C464968CCE7C41C24F00304D1
:10223800A04205D0211A304600F02EF80130CFD048
:102248002560DBE7EC010020F0010020F8B5074627
:1022580014460E4621B9BDE8F8401146FFF79CBF69
:1022680022B9FFF74DFF25462846F8BD00F026F8AD
:10227800A0420FD221463846FFF78EFF05460028B8
:10228800F2D031462246FFF717FF31463846FFF7AE
:1022980037FFE9E73546E7E738B50023054C05463B
:1022A80008462360FEF766F8431C02D1236803B191
:1022B8002B6038BDF40100207047704751F8043C8A
:1022C800181F002BBCBF0B58C018704753746163AC
:1022D8006B206672616D653A0A000000205230205A
:1022E8003D2020253038580A0000000020523120B7
:1022F8003D2020253038580A0000000020523220A6
:102308003D2020253038580A000000002052332094
:102318003D2020253038580A000000002052313274
:10232800203D20253038580A00000000204C52205B
:102338003D2020253038580A000000002050432056
:102348003D2020253038580A000000002050535204
:10235800203D20253038580A000000004653522FEF
:102368004641523A0A0000002043465352203D207D
:1023780020253038580A00002048465352203D2076
:1023880020253038580A00002044465352203D206A
:1023980020253038580A00002041465352203D205D
:1023A80020253038580A0000204D4D464152203D26
:1023B80020253038580A00002042464152203D204E
:1023C80020253038580A00004D6973630A00000060
:1023D800204C522F4558435F52455455524E3D208C
:1023E800253038580A0000005B4861726446617500
:1023F8006C745D0A000000005B4275734661756C81
:10240800745D0A005B55736167654661756C745D40
:102418000A0000002A57464F562300002A4C6173D1
:1024280074204563686F23002A4563686F204F66F0
:10243800662300002A4D464F562300002A5468653B
:10244800726D616C230000002A446179230000004A
:102458002A4E464F57230A002A466F6375732B236B
:10246800000000002A466F6375732D2300000000EA
:102478002A4175746F2300002A46697273742045D7
:1024880063686F23000000002A4D464F5723000061
:102498002A436F6E74726173742B23002A42726927
:1024A8006768742B230000002A4578706F73757273
:1024B800652B23002A46756C6C2053637265656E24
:1024C800230000002A4272696768742B230A0000FF
:1024D8002A4578706F737572652D230A0000000015
:1024E8002A4272696768742D230A00002A436F6EB6
:1024F80074726173742D230A000000002A436F6E02
:1025080074726173742B230A000000002A526F75DD
:102518006E6420496E2042617272656C230A000065
:102528002A4669656C642052616E6765230A00005B
:102538002A436F6C6F72230A000000002A466F63FB
:1025480075732B230A0000002A466F6375732D23C9
:102558000A0000002A4E464F562300002A484550DC
:10256800230000002A5361626F74230A00000000F0
:102578002A48656174230A002A486967685F4578B4
:10258800702E230A000000002A436F617869616C8D
:102598002047756E2300000057726F6E6720496EE2
:1025A8007075742E2E5265736574000053746172D1
:1025B80074000000232D302B2000686C4C006566E9
:1025C800674546470030313233343536373839417C
:1025D8004243444546003031323334353637383992
:0725E8006162636465660097
:1025F0007856341254010020000000000000000052
:1026000000000000010203040607080900A24A04B2
:1026100000000000000000000000000001000000B9
:10262000CC240008000000000200000000000000B0
:102630000000000003000000000000000000000097
:102640000400000000000000000000000500000081
:10265000D82400080000000006000000E82400085C
:102660000000000007000000F42400080000000043
:102670000800000004250008000000000900000018
:1026800000000000000000000A00000014250008FF
:10269000000000000B0000002825000800000000DA
:1026A0000C000000000000004D0700080D000000B5
:1026B00038250008000000000E0000004425000836
:1026C000000000000F00000050250008000000007E
:1026D00001FFFFFFE80000200000000000000000F4
:1026E00000000000000000000000000000000000EA
:1026F00000000000000000000000000000000000DA
:1027000000000000000000000000000000000000C9
:1027100000000000000000000000000000000000B9
:1027200000000000000000000000000000000000A9
:0C27300000000000000000003254769809
:040000050800010DE1
:00000001FF
